S01D00004659505F48657861626F745F415453414D5F5337302E7372656300
S21440000098E640207D344000793440007934400002
S21440001079344000793440007934400000000000D4
S214400020000000000000000000000000310B40000F
S2144000307934400000000000CD0B4000310C4000F9
S21440004079344000793440007934400079344000B7
S21440005079344000793440007934400079344000A7
S2144000607934400000000000B1054000C50540005E
S214400070D905400079344000793440007934400056
S214400080ED054000010640007934400079344000D8
S2144000907934400079344000793440007934400067
S2144000A07934400079344000793440007934400057
S2144000B0793440006503400079344000793440008C
S2144000C07934400079344000793440000000000024
S2144000D000000000000000000000000000000000DB
S2144000E07903400079344000793440007934400048
S2144000F07934400079344000F96940007934400052
S21440010079344000793440007934400079344000F6
S21440011079344000000000000000000000000000AD
S214400120793440007934400079344000C169400059
S21440013079344000000000007934400079344000B3
S21440014010B5054C237833B9044B13B10448AFF3CC
S21440015000800123237010BD50094020000000009D
S214400160EC0A4100084B10B51BB108480849AFF3EC
S21440017000800848036803B910BD074B002BFBD02E
S214400180BDE81040184700BF00000000EC0A4100E0
S21440019054094020EC0A4100000000002DE9F047D9
S2144001A08046471E0026DFF834900A4D0A4CDFF89A
S2144001B030A008E02046A8470028FBD0204617F885
S2144001C0011FD04701364046C8478642F2D3BDE8B5
S2144001D0F08700BF6D2D4000001E0E40DDA440009D
S2144001E0792D400070B582B0036BC26A134001930C
S2144001F000241A4E1A4DA84214BF002001200501C3
S2144002000B2C0AD8019A0123A340134220D02B1965
S21440021056F82330E3B198471AE00E2C0CD8019AD2
S21440022004F10C0101238B40134211D02B1956F8D0
S21440023023306BB198470BE0019A04F10F0101237C
S2144002408B40134204D02B1956F8233003B19847FD
S2144002500134102CD4D102B070BD00BF10C5402070
S2144002600040064000220260084B4360084B836013
S2144002704FF48023C36002230374012343748374C2
S214400280C274037543758375704700BF00A3E111C0
S214400290808D5B00036B13F080734DD130B4012228
S2144002A00260CA7C002A18BF4FF00043CA6842F476
S2144002B000044A688D68B2FBF5F2013A120292B227
S2144002C022430C7C240604F0706422434C7C2407B2
S2144002D004F040542243134343600B7D002B14BF6D
S2144002E04FF0807200220B681A434B7D002B14BFE0
S2144002F04FF000730023134383608B7D1B0203F48F
S214400300407343F00C03C0F89430124B984206D129
S21440031017E043F8042F8B42FBD1002016E00E4B2B
S21440032098420CD10D4B03F14001002243F8042FB4
S2144003308B42FBD1002009E0192040B270470020D4
S21440034004E0074B03F140010022E2E740B230BC34
S214400350704700BF00C00340004006404CC54020E8
S2144003600CC5402008B50248024B984708BD00BF60
S21440037000C00340E501400008B50248024B9847DC
S21440038008BD00BF00400640E501400008B5104BE0
S21440039098420CBF28201D200E4B98470E4B9B784A
S2144003A0FF2B00D1FEE7EFF3108372B6BFF35F8FEB
S2144003B000210A4A117008498A7801328A702BB99E
S2144003C00122064B1A70BFF35F8F62B608BD00BFAE
S2144003D000400640112A400008C54020100040203A
S2144003E010B40B78002B0CBF002404244B780BB1C0
S2144003F044F008048B780BB144F01004CB780BB172
S21440040044F040040B790BB144F080044A7952031F
S21440041002F4C0428B7942EA0342CB7942EA036354
S21440042023430360184B5A685B68D20E23F0784328
S21440043043EA02730A7A042A16D8DFE802F0030673
S214400440090E110023F400430EE043F410430BE082
S21440045023F4805343F4004306E043F4005303E0A0
S21440046023F0405323F46043CA68013A074C04EA39
S21440047002440A69013AC2F30A0222431343436024
S2144004805DF8044B704700BF00C004400000FF0703
S21440049070B4234C66686568F60E25F0784545EAE4
S2144004A00675204E2E40466066686568F60EADB20C
S2144004B045EA0675456065686468ED0E24F0784444
S2144004C044EA0575013AC2F30A0215434A1E164C21
S2144004D004EA024445EA040242608468134A224021
S2144004E082608468124A2240826085685A1EC2F33F
S2144004F00906039A013A0F4C04EA024446EA04020B
S2144005002A4382604FF4C86202FB01F1B1FBF3F369
S2144005100949A1FB03235B09C36070BC704700BF59
S21440052000C0044000F8FFF70000FF0700FCFFFF94
S214400530FFFF00FC0000FF031F85EB5110B404686A
S214400540072928BF0721090201F4E0612143016021
S214400550C2648364019B43645DF8044B704700BFEC
S2144005602DE9F041044688460E4B984705462046FE
S2144005700D4B9847054013D00C4C04F16006236899
S214400580434508D16168294205D0E368404698470C
S214400590636825EA0305B44202D01034002DEED13C
S2144005A0BDE8F081E5284000E92840006C0940207D
S2144005B008B502480A21024B984708BD000E0E4077
S2144005C06105400008B502480B21024B984708BD1C
S2144005D000100E406105400008B502480C21024B51
S2144005E0984708BD00120E406105400008B5024815
S2144005F01021024B984708BD00140E40610540008C
S21440060008B502481121024B984708BD00160E4017
S2144006106105400038B530B9594840F21711594A7B
S214400620594B5A4CA0470346022202601A6912F000
S214400630807FFBD180221A600A78012A04D15A684A
S21440064042F001025A6001E05A685A604A7822B184
S2144006505A6842F002025A6003E05A6822F00202E8
S2144006605A608A7822B15A6842F004025A603CE0E6
S2144006705A6822F004025A6037E01A6A42F00102D1
S2144006801A6253E01A6A22F001021A624EE01A6AAF
S21440069042F002021A624DE01A6A22F002021A6220
S2144006A048E0186A120292B220F47F4002431A626F
S2144006B0002047E01A6C42F001021A6403E01A6C0C
S2144006C022F001021A6424B11A6C42F002021A6443
S2144006D04AE01A6C22F002021A6445E0596449E086
S2144006E01A6912F0807FFBD047E05A68C87800014C
S2144006F000F0300022F0300202435A605A6822F47A
S21440070070604A6802435A605A68087A22F47F0248
S21440071042EA00425A605A68C86822F07F4242EA7B
S21440072000625A600A69002AACD0A6E74A69002AE5
S214400730B2D0ACE78869164AB2FBF0F2013AFF2A1B
S214400740AFD9F8201A6A0C7F22F47F0242EA0442AC
S2144007501A6291F8205091F821401A6C22F0030258
S2144007601A64002DA6D1AAE7496AD3F8E42012F00D
S214400770010FB3D001221A60B2E740B238BD00BFC5
S214400780C8FA4000B8FA4000ECFA400051994000E0
S21440079080D1F008F8B530B936484FF49F71364AE4
S2144007A0364B374CA0470346002A5CD0012A1ED160
S2144007B0026912F0010F08BF4FF4803212D09A68D7
S2144007C00A801A6912F0040FFBD0FF22DA601A6919
S2144007D012F0020FFBD09B680B80002048E0013AE5
S2144007E000D142E0186910F0010FF8D0E7E7186929
S2144007F010F0040FFBD00020D860186910F0020FEC
S214400800FBD0186910F0040FFBD00020D8601869A0
S21440081010F0020FFBD0002425464FF0190E264656
S2144008202746186910F0020F15D098680870586867
S21440083010F4706F01D0023100E0013101351869C3
S21440084010F0040FFBD0DE60186910F0020FFBD0EA
S2144008503446384604E0B4F5803F08D2013470464A
S214400860AA42DED804E0002002E0FD2000E0FD20A1
S21440087040B2F8BDF4FA400094FB4000ECFA400069
S21440088051994000F8B530B9234840F28B11234ABD
S214400890234B244CA0470346002A38D0012A14D1C3
S2144008A04FF48032186910F0020F0BD009881A698D
S2144008B012F0040FFBD0D9601A6912F0020FFBD079
S2144008C0002027E0013AEDD123E0406800F4706054
S2144008D0002814BF4FF0020E4FF0010E00241925D9
S2144008E02746186910F0040F0CD00E78186910F0DF
S2144008F0040FFBD0DE60186910F0020FFBD0714485
S214400900384600E028460134A242EAD202E00020FF
S21440091000E0FD2040B2F8BDF4FA4000A0FB4000E5
S214400920ECFA400051994000484B1B78FF2B00D111
S214400930FEE770B483B0EFF3108372B6BFF35F8FF9
S2144009400024434A1470414C2278013222702BB95D
S21440095001223F4B1A70BFF35F8F62B683683D4AF1
S214400960936000231361536201933B4BA3FB012327
S2144009709A0CC82303FB02F3384AA2FB03239B08C6
S214400980019A934205D9019A01320192019A9A42FC
S214400990F9D3304D01222A604FF0E04400222280F5
S2144009A002262E6022800192019A9A4205D2019A2E
S2144009B001320192019A9A42F9D3264B04241C60D4
S2144009C04FF0E042012515801C60022515801C6012
S2144009D0032515801C6014801C60052616801C604C
S2144009E0062616801C60072616801C600824148085
S2144009F01D604468640014444CF6FE252580446817
S214400A00640014442580446864001444258040688B
S214400A10400010440580002018601080104AA2FB59
S214400A20011292090192019941F6786202FB01F2A5
S214400A300192019A0849A1FB0212920C0192019A76
S214400A40C2F30B025A6003B070BC704708C5402022
S214400A50100040200040084083DE1B43ABAAAAAAF1
S214400A60D34D6210012904D18268064B134383603C
S214400A7003E08268044B134083600268034B1343D1
S214400A8003607047000010A5FFFFEF5A080000A55E
S214400A904FF40043436070470D4B1B68B3F1FF3F74
S214400AA00AD04FF0800372B683F31188BFF36F8F7E
S214400AB0BFF34F8F62B6FEE74FF0800372B683F304
S214400AC01188BFF36F8FBFF34F8F62B6FEE700BF4C
S214400AD00C00402006480068006880F3088862B62C
S214400AE061B6BFF34F8FBFF36F8F00DF00BF0000CC
S214400AF008ED00E0DFF80C00016841F47001016089
S214400B007047000088ED00E04FF0807340F8043CEA
S214400B1040F8081C054B40F80C3C40F8202C6FF081
S214400B20020340F8243C4438704700BF990A40000E
S214400B30064B19680868B0E8F04F80F30988BFF3A1
S214400B406F8F4FF0000080F31188704720C440201C
S214400B504FF0800372B683F31188BFF36F8FBFF3F5
S214400B604F8F62B60B4A136801331360012B0FD1C7
S214400B70094B1B6813F0FF0F0AD04FF0800372B684
S214400B8083F31188BFF36F8FBFF34F8F62B6FEE7D4
S214400B90704700BF0C00402004ED00E00A4B1B6885
S214400BA053B94FF0800372B683F31188BFF36F8F4B
S214400BB0BFF34F8F62B6FEE7013B034A13600BB9A3
S214400BC083F31188704700BF0C004020EFF3098084
S214400BD0BFF36F8F154B1A681EF0100F08BF20ED3D
S214400BE0108A20E9F04F10604DF8043D4FF0800029
S214400BF072B680F31188BFF34F8FBFF36F8F62B624
S214400C0001F02CF94FF0000080F3118808BC1968F9
S214400C100868B0E8F04F1EF0100F08BFB0EC108A1E
S214400C2080F30988BFF36F8F704700BF20C4402011
S214400C3008B5EFF311834FF0800272B682F3118845
S214400C40BFF36F8FBFF34F8F62B6054B984718B10F
S214400C504FF08052034B1A60002383F3118808BD7F
S214400C60F11A400004ED00E0034A044B1A600722E4
S214400C70043B1A60704700BFDF93040014E000E0B6
S214400C8000B583B0254B1A78D2B20192FF221A7073
S214400C901B78DBB28DF803309DF8033003F08003F9
S214400CA01F4A137007221F4B1A609DF8033013F03B
S214400CB0800F10D0062200E00A469DF803305B0005
S214400CC0DBB28DF803309DF80330511E13F0800FD1
S214400CD0F2D1144B1A60134A13681B0203F4E06304
S214400CE01360019BDBB20D4A13700F4B1A6842F437
S214400CF060021A601A6842F060421A600B4B9847CE
S214400D0000220B4B1A600B4B98470B4A136843F074
S214400D1040431360094B9847094B984700E400E06E
S214400D20DC094020E009402020ED00E0690C40004E
S214400D300C004020F50A400034EF00E0D50A4000A1
S214400D40990A4000EFF305830F2B11D9124A9B5C9A
S214400D50DBB2124A12789A420AD94FF0800372B632
S214400D6083F31188BFF36F8FBFF34F8F62B6FEE7F2
S214400D700B4B1B6803F4E0630A4A126893420AD995
S214400D804FF0800372B683F31188BFF36F8FBFF3C3
S214400D904F8F62B6FEE77047F0E300E0DC09402084
S214400DA00CED00E0E009402038B5044610F0070F8F
S214400DB002D020F0070408340E4B98470E4B1B68B1
S214400DC023B90E4B23F007030B4A13600C4B1B68EA
S214400DD01C444BF2F772944207D8A34205D2064A07
S214400DE015681D44064B1C6000E00025054B9847DF
S214400DF0284638BDD51A4000E8C14020F0094020BA
S214400E00E4094020251C400050B14FF0800372B6E4
S214400E1083F31188BFF36F8FBFF34F8F62B6FEE741
S214400E20704700BF00F1080343604FF0FF32826016
S214400E30C360036100230360704700BF0023036163
S214400E40704700BF43684B609A688A609A685160F2
S214400E5099600861036801330360704730B40D68D9
S214400E60B5F1FF3F01D1026907E000F1080200E05A
S214400E701A4653681C68A542FAD253684B6099607C
S214400E808A605160086103680133036030BC704774
S214400E9003694268816891608268416851605A6817
S214400EA0824201D192685A60002202611868013875
S214400EB01860704738B504461546026C42B9036858
S214400EC0002B2BD140681B4B9847002363602CE0D7
S214400ED06DB98068184B9847A268236C1344A3608A
S214400EE0626893421CD32368A36000201DE0C0685C
S214400EF0114B9847236C5B42E2681A44E2602168D3
S214400F008A4202D262681344E360022D0AD1A36B80
S214400F1053B1A36B013BA363002006E0002004E02E
S214400F20002002E0002000E00020A36B0133A36312
S214400F3038BD00BF29224000A99F400030B583B08D
S214400F400190446D54B94FF0800372B683F3118814
S214400F50BFF36F8FBFF34F8F62B6FEE7A26BE36BB4
S214400F609A420AD34FF0800372B683F31188BFF3D8
S214400F706F8FBFF34F8F62B6FEE7A26B934217D9CF
S214400F800A46204601A90C4B98470546A36CB3F188
S214400F90FF3F09D1636A63B104F12400074B9847C9
S214400FA0002818BF012504E0A36C0133A36400E0C9
S214400FB00025284603B030BDB50E4000F91F40005E
S214400FC0026C72B110B5C3681344C3604468A34250
S214400FD001D30368C36003460846D968014B984767
S214400FE010BD7047A99F4000F8B50446204B98476F
S214400FF0A36C002B18DD1F4D1F4F204E636D33B181
S21440100020460021A847012808D1B84706E0636A71
S21440101053B104F12400B04700B1B847A36C013B7C
S214401020A364A36C002BE9DC4FF0FF33A364144B9E
S21440103098470F4B9847636C002B13DD23691BB909
S21440104010E0236923B90DE004F110060B4D0A4F5A
S2144010503046A84700B1B847636C013B6364636C95
S214401060002BEEDC4FF0FF336364054B9847F8BD2A
S214401070510B40003D0F400055214000F91F4000F5
S2144010809D0B400038B550B94FF0800372B683F3DD
S2144010901188BFF36F8FBFF34F8F62B6FEE70446EB
S2144010A00D46184B98472268216CE36B03FB01F30F
S2144010B0D01860600020A063A2605B1A1344E3600F
S2144010C04FF0FF336364A36485B92369ABB104F181
S2144010D010000D4B984701280FD14FF080520B4B14
S2144010E01A60BFF34F8FBFF36F8F06E004F1100016
S2144010F0074DA84704F12400A847064B984701200F
S21440110038BD00BF510B4000F91F400004ED00E021
S214401110250E40009D0B4000F8B550B94FF08003B7
S21440112072B683F31188BFF36F8FBFF34F8F62B6EB
S214401130FEE70D4617460646C1B101FB00F05930A2
S214401140144B9847044610B905E0246015E000F1BA
S2144011505803036011E04FF0800372B683F31188A2
S214401160BFF36F8FBFF34F8F62B6FEE75820094B31
S214401170984704460028E8D1EDE7E6632564204614
S2144011800121054B984784F850700023636520463C
S214401190F8BD00BFA90D4000851040002DE9F04F76
S2144011A085B0019250B94FF0800372B683F3118830
S2144011B0BFF36F8FBFF34F8F62B6FEE7044661B949
S2144011C0026C52B14FF0800372B683F31188BFF3BE
S2144011D06F8FBFF34F8F62B6FEE7022B0DD1E26BE7
S2144011E0012A0AD04FF0800372B683F31188BFF30A
S2144011F06F8FBFF34F8F62B6FEE71D460091514B8F
S214401200984760B9019B63B14FF0800372B683F391
S2144012101188BFF36F8FBFF34F8F62B6FEE700278C
S21440122000E00027484EDFF84C91DFF82881B047B1
S214401230A26B022D02D0E36B9A4233D2204600992D
S2144012402A46424B9847636D73B120462946404B29
S2144012509847012822D14FF080523E4B1A60BFF388
S2144012604F8FBFF36F8F19E0636A73B104F12400A8
S214401270394B9847012811D14FF08052354B1A60B0
S214401280BFF34F8FBFF36F8F08E038B14FF08052F7
S214401290304B1A60BFF34F8FBFF36F8F2F4B98477B
S2144012A001204BE0019B1BB92C4B9847002045E0A2
S2144012B017B902A8C8470127284B9847284B984794
S2144012C0B047636CB3F1FF3F01D100236364A36C66
S2144012D0B3F1FF3F01D10023A364204B984702A8F7
S2144012E001A9204B984718BBB047D4F838B0D4F87B
S2144012F03CA01A4B9847D34514D104F110000199ED
S214401300194B98472046194B9847194B9847002841
S2144013108DD14FF08053C8F80030BFF34F8FBFF3E6
S2144013206F8F84E72046114B9847114B98477EE7CE
S21440133020460E4B98470E4B9847002005B0BDE818
S214401340F08F00BF61214000510B4000B50E4000B9
S2144013503D0F400004ED00E0F91F40009D0B4000AB
S214401360D51A4000C1204000F51E4000E90F40005D
S214401370251C40009120400050B94FF0800372B6C3
S21440138083F31188BFF36F8FBFF34F8F62B6FEE7CC
S2144013902DE9F041044661B9006C50B14FF080032E
S2144013A072B683F31188BFF36F8FBFF34F8F62B669
S2144013B0FEE7022B0DD1E06B01280AD04FF08003E8
S2144013C072B683F31188BFF36F8FBFF34F8F62B649
S2144013D0FEE71E4615468846214B9847EFF3118791
S2144013E04FF0800372B683F31188BFF36F8FBFF35D
S2144013F04F8F62B6A26B022E02D0E36B9A4223D284
S214401400204641463246174B9847A36CB3F1FF3F00
S21440141015D1636D43B120463146134B984701289A
S21440142014D19DB1286016E0636A8BB104F12400A4
S2144014300E4B984770B16DB1012028600BE0A36C4D
S2144014400133A364012006E0002004E0012002E00E
S214401450012000E0012087F31188BDE8F08100BF3D
S214401460450D4000B50E40003D0F4000F91F4000BE
S21440147050B94FF0800372B683F31188BFF36F8F75
S214401480BFF34F8F62B6FEE770B50446036C53B1A8
S2144014904FF0800372B683F31188BFF36F8FBFF3AC
S2144014A04F8F62B6FEE7036863B9436853B14FF0A7
S2144014B0800372B683F31188BFF36F8FBFF34F8FED
S2144014C062B6FEE70D461F4B9847EFF311864FF086
S2144014D0800372B683F31188BFF36F8FBFF34F8FCD
S2144014E062B6A26BE36B9A4221D2A36B0133A3632D
S2144014F0A36CB3F1FF3F15D1636D43B12046002185
S214401500114B9847012814D19DB1286016E0636AB4
S2144015108BB104F124000D4B984770B16DB101209A
S21440152028600BE0A36C0133A364012006E0002092
S21440153004E0012002E0012000E0012086F311884B
S21440154070BD00BF450D40003D0F4000F91F4000F4
S2144015502DE9F04F85B0019250B94FF0800372B636
S21440156083F31188BFF36F8FBFF34F8F62B6FEE7EA
S214401570044661B9026C52B14FF0800372B683F3F1
S2144015801188BFF36F8FBFF34F8F62B6FEE7984662
S2144015908B46524B984760B9019B63B14FF080032E
S2144015A072B683F31188BFF36F8FBFF34F8F62B667
S2144015B0FEE7002600E00026494DDFF854A1DFF89C
S2144015C03091A847A36B002B34D0E5682046594697
S2144015D0444B9847B8F1000F18D1A36B013BA36367
S2144015E0236813B9404B984760602369F3B104F110
S2144015F010003E4B9847012818D14FF080523C4B84
S2144016001A60BFF34F8FBFF36F8F0FE0E560636ADA
S21440161063B104F12400354B984738B14FF08052FF
S214401620334B1A60BFF34F8FBFF36F8F314B9847E2
S21440163001204FE0019B1BB92E4B9847002049E004
S21440164016B902A8D04701262A4B98472A4B9847F6
S214401650A847636CB3F1FF3F01D100236364A36CDA
S214401660B3F1FF3F01D10023A364224B984702A861
S21440167001A9224B984738BBA847A76B1D4B9847F4
S214401680E7B923682BB9A84760681D4B9847194BA4
S214401690984704F1240001991A4B984720461A4B64
S2144016A098471A4B984700288BD14FF08053C9F87B
S2144016B00030BFF34F8FBFF36F8F82E72046124B49
S2144016C09847124B98477CE720460F4B98470F4B5E
S2144016D09847002005B0BDE8F08F00BF612140006C
S2144016E0510B4000C10F4000E9224000F91F400066
S2144016F004ED00E09D0B4000D51A4000C12040009C
S21440170081214000F51E4000E90F4000251C4000A6
S2144017109120400010B40B4B1B682BB10123094CA1
S21440172054F8332042B900E00023064A42F833100A
S21440173002EBC303586002E00133082BF0D15DF89A
S214401740044B704790C5402070B504460E4615467B
S2144017500D4B9847636CB3F1FF3F01D100236364A0
S214401760A36CB3F1FF3F01D10023A364074B984716
S214401770A36B2BB904F1240031462A46044B984704
S2144017802046044B984770BD510B40009D0B4000CF
S214401790791F4000E90F4000084B1B681B6823B9BF
S2144017A04FF0FF32064B1A607047044B1B68DB68ED
S2144017B0DB685A68024B1A60704700BFF0C1402091
S2144017C040C4402010B504460E4B1B6858600E4B74
S2144017D01B68984207D20D4B18680A4B19680431AB
S2144017E00B4B984710BD0B4B1868064B19680431D5
S2144017F0074B9847084B1B689C4201D2064B1C601F
S21440180010BD00BF20C440203CC4402010C2402031
S2144018105D0E4000F0C1402040C440202DE9F04F0E
S21440182083B00C9FDDF834A00E9D50B94FF0800376
S21440183072B683F31188BFF36F8FBFF34F8F62B6D4
S214401840FEE7182F0AD94FF0800372B683F311884B
S214401850BFF36F8FBFF34F8F62B6FEE701900093E2
S21440186090460E4635B990005F4B9847054600288F
S21440187000F0B48058205C4B98470446A0B10563FE
S2144018802846A5214FEA8802584B98476FF04045B6
S2144018904544236B03EB850323F00705337884F830
S2144018A03430337823B90FE02846514B984795E0BB
S2144018B0334604F13402093613F8011F02F8011FBB
S2144018C0197809B1B342F7D14FF0000884F83D804B
S2144018D03E46182F28BF1826E662A664C4F84C80F9
S2144018E004F104094846DFF854B1D84704F118001B
S2144018F0D8472461C6F11906A6616462C4F85080D0
S21440190084F8548028460199009A3A4B98472060BC
S214401910BAF1000F01D0CAF80040374B9847374A13
S214401920136801331360364B1B680BBB344B1C608B
S2144019301368012B26D1334D05F5FA78324E2846EA
S214401940B04714354545FAD1DFF8F48040462E4D71
S214401950A8472E4E3046A8472D48A8472D48A847AA
S2144019602D48A8472D4BC3F800802D4B1E6009E03C
S2144019702C4B1B6833B9224B1B68DB6A9F4201D352
S2144019801F4B1C60284A1368013313602364E06AC7
S21440199026490B680122824013430B6000EB80000F
S2144019A0184B03EB80004946214B9847214B9847FC
S2144019B01C4B1B6873B1124B1B68DB6A9F420BD9EA
S2144019C04FF080521C4B1A60BFF34F8FBFF36F8FA0
S2144019D0012005E0012003E0012001E04FF0FF3048
S2144019E003B0BDE8F08F00BFA90D4000DDA0400069
S2144019F0090E4000090B4000510B400048C44020EF
S214401A0020C4402018C24020250E40004CC4402030
S214401A1024C440200CC4402060C44020F0C1402074
S214401A2010C24020F4C1402044C4402074C440202A
S214401A30450E40009D0B400004ED00E03D0E40008A
S214401A40FCC1402010B584B000230093019302935C
S214401A500393184818498222184CA04701281AD1E7
S214401A60174B9847012816D14FF0800372B683F380
S214401A701188BFF36F8FBFF34F8F62B64FF0FF32C0
S214401A80104B1A600122104B1A6000220F4B1A604E
S214401A900F4B98470BE050B94FF0800372B683F374
S214401AA01188BFF36F8FBFF34F8F62B6FEE704B067
S214401AB010BD00BFCD1D4000ACFB40001D184000CF
S214401AC0D123400040C44020F4C140203CC44020C4
S214401AD0810C4000024A136801331360704700BF10
S214401AE038C44020014B1868704700BF3CC44020B3
S214401AF02DE9F0473D4B1B68002B6AD13C4B1A68DA
S214401B0001321A601E68D6B93A4B1B681B6853B13F
S214401B104FF0800372B683F31188BFF36F8FBFF325
S214401B204F8F62B6FEE7334A1168334B1868106031
S214401B301960324A136801331360314B9847314B72
S214401B401B689E4201D2002437E00024DFF8A490B0
S214401B50DFF8CC802C4FD9F800301B6823B94FF003
S214401B60FF32284B1A6028E0D9F80030DB68DD6881
S214401B706B689E4202D2234A13601EE005F1040AB7
S214401B805046C047AB6A13B105F11800C047E86A33
S214401B903B680122824013433B6000EB80001B4BB6
S214401BA003EB800051461A4B98471A4B1B68EA6A6B
S214401BB0DB6A9A4228BF0124CDE7164B1B68DB6AD6
S214401BC003EB8303114A52F82330022B28BF01242B
S214401BD004E0114A13680133136000240F4B1B685E
S214401BE0002B0CBF20460120BDE8F08738C44020BB
S214401BF03CC44020F0C1402010C24020ECC14020F0
S214401C009917400040C4402074C4402018C2402069
S214401C10450E400020C4402014C2402078C44020D6
S214401C20910E40002DE9F843364B1B6853B94FF0F0
S214401C30800372B683F31188BFF36F8FBFF34F8F65
S214401C4062B6FEE7304B98472E4B1A68013A1A6048
S214401C501B68002B4DD12D4B1B680BBB00244BE063
S214401C60FB68DC6804F11800B04704F104084046FD
S214401C70B047E06A2B680122824013432B6000EB9A
S214401C80800009EB80004146214B9847214B1B685A
S214401C90E26ADB6A9A4208D301221F4B1A6004E0CC
S214401CA01E4F1F4E1F4DDFF890903B68002BD7D13C
S214401CB01D4B1B687BB11C4B1B6863B11B4E164DFE
S214401CC0194CB04708B101232B602368013B2360C1
S214401CD02368002BF5D1104B1B68012B0BD14FF01E
S214401CE08052134B1A60BFF34F8FBFF36F8F0124A0
S214401CF002E0002400E000240E4B98472046BDE852
S214401D00F88300BF38C44020510B400048C44020F0
S214401D10450E400020C4402078C4402024C44020C3
S214401D20910E400074C4402014C24020F11A400076
S214401D3004ED00E09D0B400018C2402010B500287E
S214401D4029D00446184B1B6853B14FF0800372B637
S214401D5083F31188BFF36F8FBFF34F8F62B6FEE7F2
S214401D60124B9847124B1B681C44124B18680430A1
S214401D70114B984748B90F4B1A6810490B68D06A00
S214401D800122824023EA02030B6020460C4B984710
S214401D900C4B984738B94FF080520B4B1A60BFF344
S214401DA04F8FBFF36F8F10BD38C44020D51A400008
S214401DB03CC4402020C44020910E400074C44020C3
S214401DC0C5174000251C400004ED00E080B5184DC6
S214401DD0184EDFF88080184F19E0C0473468B8477F
S214401DE0ACB1164B9847F368DC68201D144B9847F7
S214401DF0144A1368013B13602B68013B2B60124B5F
S214401E009847206BDFF85090C8472046C8472B6855
S214401E10002BE2D10D4B1B68012BF8D94FF08052B6
S214401E200B4B1A60BFF34F8FBFF36F8FD1E700BFE6
S214401E30F8C140200CC44020251C4000510B4000F7
S214401E40910E400048C440209D0B400018C24020E0
S214401E5004ED00E0D51A4000090E4000204B1B68F8
S214401E601BB101221F4B1A60704700221D4B1A609F
S214401E701D4B1B68B3FA83F3DBB2C3F11F0303EBBE
S214401E8083011A4A52F8212052B94FF0800372B6A5
S214401E9083F31188BFF36F8FBFF34F8F62B6FEE7B1
S214401EA010B4124A9900C81802EB8000446864686F
S214401EB0446002460832944206D1606803EB8301D0
S214401EC00A4A02EB8102506003EB8303074A02EBA7
S214401ED083035B68DA68064B1A605DF8044B70470C
S214401EE038C4402078C4402074C4402018C24020E3
S214401EF020C4402038B550B94FF0800372B683F303
S214401F001188BFF36F8FBFF34F8F62B6FEE70C4664
S214401F10114D29681831114B984728680430104BEA
S214401F20984740B92A680F490B68D06A0122824018
S214401F3023EA02030B60B4F1FF3F06D1064B196853
S214401F4009480431094B984738BD094B1868204466
S214401F50084B984738BD00BF20C440205D0E400067
S214401F60910E400074C4402060C44020450E40009E
S214401F703CC44020C517400050B94FF0800372B6AD
S214401F8083F31188BFF36F8FBFF34F8F62B6FEE7C0
S214401F9070B515460C46114E31681831104B9847AF
S214401FA0306804300F4B984740B932680E490B688A
S214401FB0D06A0122824023EA02030B60012D06D13B
S214401FC0064B196809480431054B984770BD084BC5
S214401FD018682044074B984770BD00BF20C4402077
S214401FE0450E4000910E400074C4402060C440201E
S214401FF03CC44020C517400038B5C368DC6854B9B7
S2144020004FF0800372B683F31188BFF36F8FBFF330
S2144020104F8F62B6FEE704F118052846144B9847E2
S214402020144B1B689BB9251D2846114B9847E06A00
S21440203011490B680122824013430B6000EB80007D
S2144020400E4B03EB800029460D4B984703E00D48A6
S21440205029460B4B98470C4B1B68E26ADB6A9A4250
S21440206003D90120094B186038BD002038BD00BF99
S214402070910E400038C4402074C4402018C240200E
S214402080450E400024C4402020C4402078C4402050
S21440209050B94FF0800372B683F31188BFF36F8F49
S2144020A0BFF34F8F62B6FEE7034A12680260034AE8
S2144020B012684260704700BFECC140203CC44020DC
S2144020C038B550B94FF0800372B683F31188BFF32A
S2144020D06F8FBFF34F8F62B6FEE7044651B94FF09D
S2144020E0800372B683F31188BFF36F8FBFF34F8FB1
S2144020F062B6FEE70D46124B9847124B19682B689E
S214402100B3F1FF3F13D0104A12682068904202D0C5
S214402110626891420DD26268881A83420BD9521A7D
S21440212013442B602046094B9847002404E00024C3
S21440213002E0012400E00124054B9847204638BDC4
S214402140510B40003CC44020ECC140209120400050
S2144021509D0B40000122014B1A60704778C4402016
S214402160054B1B6833B1054B1B68002B0CBF022088
S2144021700020704701207047F4C1402038C44020FA
S214402180002845D038B50346C26A22490968C96A5C
S2144021908A423CD28169002905DB1E490968C96A22
S2144021A0C1F11901816102EB82021B4901EB8202F7
S2144021B05969914227D11C461D1D2846174B984702
S2144021C070B9E36A03EB8301134A52F821203AB907
S2144021D013480268012101FA03F322EA030303606D
S2144021E00C4B1B68D86AE0620D490A68012383409D
S2144021F013430B6000EB8000074B03EB800029463F
S214402200084B984738BD034A1268D26ADA6238BD2E
S214402210704700BF20C4402018C24020910E4000A6
S21440222074C44020450E400000284ED038B5294A98
S214402230126890420AD04FF0800372B683F311883A
S214402240BFF36F8FBFF34F8F62B6FEE7C26C52B9D3
S2144022504FF0800372B683F31188BFF36F8FBFF3DE
S2144022604F8F62B6FEE7013AC264002A2FD1C16A98
S214402270826C91422BD00446051D2846164B984743
S21440228068B9E16A01EB8102144B53F8223033B946
S2144022901348036801228A4023EA02030360A06CC5
S2144022A0E062C0F11903A3610D4A1368012404FAE1
S2144022B000F10B43136000EB8000084B03EB8000FB
S2144022C02946084B9847204638BD002070470020D6
S2144022D038BD00BF20C44020910E400018C24020A8
S2144022E074C44020450E4000054B1B6823B1044B88
S2144022F01A68D36C0133D364014B1868704700BF2B
S21440230020C4402010B504464160206191420AD85E
S214402310D21A83699A4211D20A4B1868211D0A4B79
S2144023209847002010BD994201D39A4208D3074BE4
S2144023301868211D044B9847002010BD012010BD91
S214402340012010BDB0C440205D0E40007CC440203B
S21440235070B5144B9847144B1B6803BB134D284667
S214402360134EB047134C2046B047134B1D60134BDB
S2144023701C60052010210022114B98470A4B18601C
S21440238050B94FF0800372B683F31188BFF36F8F56
S214402390BFF34F8F62B6FEE70A490B4B98470B4B8D
S2144023A0984770BD510B4000ACC4402080C44020CC
S2144023B0250E400094C440207CC44020B0C4402039
S2144023C019114000C4FB4000151740009D0B40000B
S2144023D010B584B00F4B98470F4B1B6863B118235A
S2144023E0009300230193029303930C480C494FF447
S2144023F082720C4CA04750B94FF0800372B683F3FC
S2144024001188BFF36F8FBFF34F8F62B6FEE704B0FD
S21440241010BD00BF51234000ACC4402061254000A1
S214402420CCFB40001D18400050B94FF0800372B6F8
S21440243083F31188BFF36F8FBFF34F8F62B6FEE70B
S21440244030B585B015460446124A1068F0B11A46B3
S214402450009101950294052913DC0F4B98470228FA
S21440246007D10C4B18686946089A00230B4CA047C6
S2144024700DE0084B1868694600221346074CA047F3
S21440248005E069460023064CA04700E0002005B062
S21440249030BD00BFACC44020612140009D114000CB
S2144024A0791340002DE9F04782B08046254B984787
S2144024B00746254B1B6898423BD22BE0DB68D3F897
S2144024C000A0DC6804F104094846B047636A204629
S2144024D09847E369012B1FD1A3695344534506D956
S2144024E06360246128684946184B984714E00023E7
S2144024F00093204619465246154CA04760B94FF007
S214402500800372B683F31188BFF36F8FBFF34F8F8C
S21440251062B6FEE70F4D104E2B681A68002ACDD1E2
S2144025200E4A10680B49086013600123C8F8003053
S21440253002E00023C8F80030034B1F60384602B064
S214402540BDE8F087E51A4000A8C440205D0E400074
S214402550292440007CC44020910E4000B0C4402056
S2144025602DE9F04389B0694C694F6A4D6A4B1B6848
S2144025701A68002A00F0BF80DB681E68674B9847E1
S21440258004A8674B98478046049B002B4DD1B04229
S21440259039D3644B9847604B1B68DB68D3F80C9084
S2144025A009F10400604B9847D9F81C30012B1DD127
S2144025B0D9F818104846314442463346DFF878C1C9
S2144025C0E047012812D10023009348461946324678
S2144025D0564EB04750B94FF0800372B683F3118819
S2144025E0BFF36F8FBFF34F8F62B6FEE7D9F8243044
S2144025F04846984777E04E4B1B681A68B2FA82F214
S2144026005209002600E000222068C8EB0601494B2C
S2144026109847444B9847002865D14FF080533B601D
S214402620BFF34F8FBFF36F8F5DE03E4B98475AE046
S214402630049B002B06DA06980799059B9847049B4F
S214402640002B50DB069E736913B1301D364B9847FE
S21440265003A8334B98478646049A092A43D8DFE8AE
S21440266002F0050505422A3F0505422A059BB16949
S214402670304619447246DFF8C0C0E047012832D1E0
S214402680736A30469847F369012B2CD1B269002310
S214402690009330461946059E3244244EB04710BB40
S2144026A04FF0800372B683F31188BFF36F8FBFF38A
S2144026B04F8F62B6FEE70599B16151B94FF080037E
S2144026C072B683F31188BFF36F8FBFF34F8F62B636
S2144026D0FEE73046714472467346174EB04702E0F6
S2144026E03046164B9847206804A900221346A84750
S2144026F000289DD13AE7094B984704A8084B9847CD
S2144027008046049B002B3FF476AF8EE7ACC4402057
S21440271004ED00E0511540007CC44020D51A40002E
S214402720A5244000251C4000910E4000292440006E
S214402730B0C440204917400005234000090E400021
S21440274010B51048104B984700203E210F4B984735
S2144027500F4CA0470028FCD00E4B98470E4A0F4B14
S2144027609A620F4CA0470028FCD002200D4B984799
S21440277000200D4B98470D4B98470248024B984710
S21440278010BD00BF00A3E111293640008D2940004E
S214402790E1294000F1294000013F182000060E4084
S2144027A0012A4000ED28400025294000153540000C
S2144027B00AB1416670470166704700BF01637047C3
S2144027C04163704721F00061B1F1405F01D1836BF6
S2144027D000E0C36B134214BF01200020704700BFC7
S2144027E04264B1F1C05F2FD007D8B1F1006F14D06A
S2144027F0B1F1805F1ED039B97047B1F1205F37D054
S21440280004D8B1F1005F29D042607047B1F1405F13
S2144028102ED0B1F1605F2BD0F6E710B4016F046F95
S214402820D343214019400167416F446F21400B401C
S21440283043671AE0036F13430367436F416F0B40D0
S21440284023EA02034367DFE7036F016F0B4023EA87
S21440285002030367436F13434367D5E7036F13438E
S2144028600367436F13434367CEE742605DF8044B0C
S214402870704700BF416412F0010F01D0416600E08E
S214402880016612F00A0F01D0016200E0416212F0C8
S214402890020F02D0C0F8801004E012F0080F01D0FA
S2144028A0C0F8841041610160704700BF10B44164B5
S2144028B0019C0CB1416600E001660BB1016500E089
S2144028C041650AB1016300E04163016101605DF862
S2144028D0044B704712B1C0F894107047C0F890107F
S2144028E0704700BFC06C7047806C7047032807D0A5
S2144028F0042808D002280CBF4FF48071002104E061
S2144029004FF4407101E04FF40071054A136B23F415
S21440291040730B431363936E13F0080FFBD070475E
S21440292000060E40184A136B23F0700318431063DA
S214402930936E13F0080F03D009E0013B03D11EE06D
S2144029404FF4006310498A6E12F0080FF5D00E4A15
S214402950136B23F0030343F002031363906E10F0EF
S214402960080004D000207047013B03D109E04FF433
S214402970006305498A6E12F0080FF5D070470120B3
S21440298070470120704700BF00060E4038B10E4920
S2144029900B6A0E4A1A400E4B13430B6270470A48A6
S2144029A0036A0C4A1A400C4B1343090289B2194376
S2144029B001620246936E13F0010FFBD0024A116A81
S2144029C0064B0B431362704700060E40FCFFC8FEE2
S2144029D002003701FCFFC8FF010037000000370146
S2144029E0024B986E00F48030704700BF00060E40E1
S2144029F04FF00052014B9A62704700BF00060E40EF
S214402A00024B986E00F00200704700BF00060E4072
S214402A103F281ED81F280CD8114B9A6901238340A3
S214402A201A40934217D0012383400D4A1361002079
S214402A3070470B4BD3F808212038012383401A40B7
S214402A4093420AD001238340054AC2F80031002051
S214402A50704701207047002070470020704700BF35
S214402A6000060E400F4B994219D84900B2FBF1F2CE
S214402A70043AFF2A07D9002301335208062B03D80D
S214402A80FF2AF9D800E00023110289B21B0403F4A0
S214402A90E0230B43D2B21A43026100207047012064
S214402AA0704700BF801A060008B50A464FF0FF314F
S214402AB08162016A80210160016B0821016020214A
S214402AC001600421016051681268034B9847012851
S214402AD014BF0020012008BD652A4000F0B4CA6833
S214402AE08C68002A47D0002646604B681B0203F4D9
S214402AF0407343F480550B7C1B0403F4FE032B43C6
S214402B004360C6604D685DB10B78012D02DD4E789E
S214402B1046EA0323022D04DD897841EA032300E0D8
S214402B200023C3600123036043F69826022714E07F
S214402B30036A13F4807F20D1013920D0012A04D1C2
S214402B40076013F0020FF3D01DE013F0020F0AD017
S214402B50036B04F8013B013A07D0036A13F480750F
S214402B600FD13146EAE7002AE2D1036A13F0010F9B
S214402B70FBD0036A0AE0012508E0052506E00925A2
S214402B8004E0052502E0036B2370EEE72846F0BC20
S214402B90704700BF2DE9F04186B01C481C4EB04738
S214402BA01C4D002400942846182122462346DFF870
S214402BB08480C04728461821174FB84728464FF00C
S214402BC000611822154B9847009428464FF08061C4
S214402BD022462346C04728464FF08061B8471048F3
S214402BE080230360036B08230360202303600423D1
S214402BF003600C4B03930C4B049303A90B4B984771
S214402C000B48B04706B0BDE8F08100BFD4FB40009B
S214402C109D014000000E0E40C1274000E1274000C5
S214402C200080014000A3E111400D0300A92A4000A6
S214402C30F8FB4000AD28400070B5CC688D68002C8D
S214402C4055D0002646600B7C1B0403F4FE024B68FE
S214402C501B0203F4407313434360C6604A68002A6D
S214402C6051D00B78012A02DD4E7846EA0323022A29
S214402C704ADD8A7842EA032346E0036A13F4807FFB
S214402C8037D1013A03D1254B9847052144E013F04C
S214402C90040F03D02B784363013C0135002CECD164
S214402CA0036A13F4807426D113F0040F0ED1002368
S214402CB04FF6FF7102E012F0040F07D10133026AAB
S214402CC012F4807F19D18B42F5D916E002230360B7
S214402CD0016A11F0010112D100234FF6FE74013350
S214402CE0026A12F0010F17D1A342F8D914E001216D
S214402CF012E0052110E005210EE005210CE02146FA
S214402D000AE0052108E00023C360036A13F4807FCD
S214402D10F7D14FF6FF72BAE7084670BD952B4000D4
S214402D2010B4AC2303600B684A68B3FBF2F31B098C
S214402D305C1E4FF6FE72944206D803628B68436070
S214402D4050230360002000E001205DF8044B7047EC
S214402D5040230360704700BF10230360704700BFE6
S214402D6050230360704700BF816070474069C0F3DE
S214402D704000704701627047436913F0020F02D06B
S214402D80C161002070470120704700BF436913F0BF
S214402D90010F03D083690B700020704701207047F5
S214402DA02DE9F04F9FB0A8480021A84B9847A84B64
S214402DB09847DFF858931BAD99E8070085E8070069
S214402DC02E20DFF84C83C0472E20C047A14C20461B
S214402DD02946A14B98472046A04B98472046A04BF3
S214402DE0984720469F4B9847204653219E4B9847EE
S214402DF01020C0479D484FF0C0519D4A9D4EB04759
S214402E009D489E4DA8479E48A8479E484FF0605113
S214402E104FF48052B0470A20C0470B20C0470024DA
S214402E20009499484FF0805122462346974FB84722
S214402E30009495484FF0005122462346B8470094E8
S214402E4091484FF0804122462346B84700948E482A
S214402E504FF0007122462346B847009489484FF405
S214402E60005122462346B84700948748042122460C
S214402E702346B847009484484FF0004122462346F4
S214402E80B84700948048402122462346B8478048A9
S214402E90A8478048A8478048804B98478048A8471E
S214402EA08048A847804B4FF001021A70BFF35F8FEF
S214402EB062B67E48A8477E48A8470DF1600A09F1E9
S214402EC00C0999E807008AE807003E20C0470C2016
S214402ED0C0471020C0471120C047DFF838927548D9
S214402EE04FF000614A46B047724849460122DFF833
S214402EF028B2D8476F4870492246DFF82092C84724
S214402F0061484FF000614FF4C032B0475E484FF41E
S214402F10C0312246D8475C484FF4C0310122C847EA
S214402F2059484FF0C051654AB04757486349012257
S214402F30D847554861492246C8474C484FF0C0518B
S214402F405F4AB04749485E490122D84747485C49EE
S214402F502246C8475B484FF000613F22B047594879
S214402F603F210122D84757483F212246C847564A64
S214402F70D2F8243143F01003C2F824314D484FF0C4
S214402F8000614FF40042B04750465049504B984776
S214402F905048A8474FF0E04021464FF080724E4BD5
S214402FA098474E48A8474E48A84700942F484FF0A9
S214402FB0806122462346B8472C484FF08061DFF8B0
S214402FC060A1D047009430484FF0806122462346A7
S214402FD0B8472D484FF08061424B98471320C04772
S214402FE029484FF000611822B04700941F484FF020
S214402FF0806122462346B8471C484FF08061D04740
S214403000394B98473948A8473948A8474020394B54
S21440301098474120374B98473748A8473748A847EE
S214403020009412484FF4806122462346B8470F4822
S2144030304FF48061D0473248324B9847324D0B4868
S2144030404FF000516EE000BF10180E40650A400079
S21440305041274000001E0E40212D4000612D4000BB
S214403060512D4000592D4000752D400000140E4053
S21440307008000400E127400034FC40009D01400069
S21440308098FC400000100E40000E0E40AD28400058
S214403090B8FC4000D8FC400050180E40910A400052
S2144030A0FCFC400020FD40001000402048FD400051
S2144030B070FD400000120E40FF80FCFF01001C0027
S2144030C000E0832000160E400080084000A3E11177
S2144030D02909400090FD4000DDA04000ACFD4000C6
S2144030E0D0FD4000C1274000952B4000F0FD400039
S2144030F014FE4000754140003CFE400064FE400027
S21440310084B70700010040200018601B1CFC4000EC
S214403110112A4000FF00FCFFD5284000B1274000A0
S214403120BD2740002A46B047AA4829462246C847F7
S214403130A84829460122D847A7484FF00051082200
S214403140B047A54808212246C847A348082101227F
S214403150D847A2484FF000514FF01062B0479F4802
S2144031604FF080514FF40872B0479D4D9B4829461A
S2144031702246C847994829460122D8473B20C0479F
S214403180984B98470622984B5A621A46936A13F011
S214403190040FFBD001268DF84C608DF84D6000255D
S2144031A08DF84E508DF84F508DF850508DF8526037
S2144031B08DF853508DF854504FF42078CDF8588001
S2144031C04FF4F073179302238DF851304FF0E044DC
S2144031D0204629464FF08072844B98470C20DFF8F3
S2144031E09092C84707460C20C847B8603C607E604F
S2144031F08760046046607C4C204613A97C4B984709
S2144032003B680093204629463A463346794DA847C0
S214403210A36B3343A3634FF4A07300932046414609
S2144032204246754DA847636843F080536360636ABF
S214403230334363622246936A13F0010FFBD06F4814
S2144032406F4CA0476F48A04700238DF824308DF878
S21440325025308DF826308DF827300A936A4A0F922B
S21440326004220B920A220C920D930E935B4D284635
S2144032704FF000614FF41E32644CA04728464FF48E
S2144032801E310122624B984752484FF000614FF082
S2144032900042A0472B205F4B984702225E4B1A60A5
S2144032A01A46136913F0807FFBD15B4C8023236062
S2144032B0204609A9594B98470123236022461369A3
S2144032C013F0807FFBD00222534B1A601A461369D4
S2144032D013F0807FFBD1504C80232360204609A901
S2144032E04E4B98474E484F4B984701232360224603
S2144032F0136913F0807FFBD049484A4B98474A48A9
S2144033003F4CA0474948A0474948A0474948A0479E
S214403310494D2846DFF8FC90C8472846DFF85481D8
S214403320C04703A8454FB847284603A9444EB04770
S2144033306B6823F08F036B6005F520352846C84739
S2144033402846C04703A8B847284603A9B0476B6835
S21440335023F08F036B6001276F6105F5FA25284639
S214403360022100222A4B9847284602210022354B4C
S21440337098473548A0473548A047354E30464FF425
S21440338080510922334DA84730464FF40061092248
S214403390A84730464FF480610922A84730464FF48C
S2144033A000710922A8472C48A0472C48A0472C4823
S2144033B039462C4B98472C4B4FF48042C3F8842117
S2144033C0C02183F82E135A602848A0471FB0BDE896
S2144033D0F08F00BF00140E4000100E40000E0E404E
S2144033E0200200097544400000C00440DDA04000B3
S2144033F0E10340003D0540009104400088FE400047
S2144034009D014000ACFE40000024F400E12740004F
S214403410B1274000112A400000C007401506400072
S214403420252B4D0001004020CCFE4000ECFE400025
S21440343010FF400034FF400000C0034065024000DB
S21440344095024000D528400054FF400074FF4000DD
S21440345000120E407528400098FF4000BCFF400018
S214403460001E0E40692D400000E100E0E4FF4000F1
S214403470419A40008D034000FEE700BF08B5194B57
S214403480194A9A4203D0194B164A9A4204D3184B0B
S214403490184A9A4210D31BE012490A1D164B9B1A33
S2144034A023F003030433104A134452F8040B41F844
S2144034B0040B9A42F9D1EAE7104B114AD21A22F08D
S2144034C003021A44043B002143F8041B9342FBD1F9
S2144034D00C4A0D4B23F07F0393600C4B98470C4BE4
S2144034E09847FEE700004020EC0A41005009402083
S2144034F098C6402050094020530940205409402097
S2144035009BC6402000ED00E000004000C999400006
S214403510E56840003D4B1B6B03F00303012B12D0C4
S21440352013B1022B2CD05AE0394B5B6913F0800F55
S21440353004D04FF40042374B1A6050E04FF4FA4242
S214403540344B1A604BE0314B1B6A13F0807F03D03C
S214403550314A304B1A6042E0304A2E4B1A602B4BB1
S2144035601B6A03F07003102B02D0202B04D036E0E9
S2144035702B4A284B1A6032E0274A264B1A602EE028
S214403580224B1B6A13F0807F03D0234A214B1A60DC
S21440359012E0224A1F4B1A601C4B1B6A03F0700352
S2144035A0102B02D0202B04D006E01D4A194B1A607F
S2144035B002E0194A174B1A60144B1B6B03F00303C7
S2144035C0022B0CD1114A936A926A1248C3F30A41FD
S2144035D0036801FB0333D2B2B3FBF2F303600B4B39
S2144035E01B6B03F07003702B07D10A4A13680D4912
S2144035F0A1FB03135B0813607047044B1A6B054925
S214403600C2F302120B68D3400B60704700060E40B0
S21440361010180E4014004020001BB70000093D0063
S21440362000127A00ABAAAAAA144B984204D84FF0CC
S2144036308062134B1A607047124B984203D8124A66
S2144036400F4B1A607047114B984203D8104A0C4BE8
S2144036501A6070470F4B984203D80F4A084B1A60BF
S21440366070470E4B984204D84FF00422044B1A6021
S21440367070470B4A024B1A60704700BFFF2C31015F
S214403680000C0E40FF59620200010004FF869303BF
S21440369000020004FFB3C40400030004FFE0F50585
S2144036A000050004094B1B6813B9094A074B1A600A
S2144036B0064B1B681A180749914204DB1046034A1A
S2144036C01060184670474FF0FF307047B4C4402033
S2144036D098E84020FCFF45204FF0FF30704700BF81
S2144036E04FF0FF30704700BF4FF0FF30704700BFCD
S2144036F04FF400534B600020704700BF01207047D6
S2144037000020704708B501460148024B9847FEE73F
S21440371010004100199A4000704700BF4FF0FF303C
S214403720704700BF2DE9F04F87B000AF03F1070E9A
S2144037302EF0070EADEB0E0D082B41DC6E4619B988
S214403740F8604FF0010B3EE040F04000F8607F2A02
S21440375003D83A614FF0020B35E002F07F0141F0AA
S21440376080013961C2F3C7127A614FF0030B2AE039
S2144037701B4849460122B04708F1010809F10409EF
S214403780C345F5DC16487E6831465246154B984789
S214403790BAF1010F0FD431465644002200231D02D1
S2144037A045EA1265140216F8012D002322432B43E6
S2144037B08E42F4D101E000220023104619460AE06A
S2144037C00020014607E07E609A4607F10C094FF05C
S2144037D00008054ECCE71C37BD46BDE8F08F00BF5D
S2144037E000C00740950740008508400010B50020FF
S2144037F0014602460423014CA04710BD2537400031
S21440380010B50F2000210A460523034CA047034B62
S2144038101860C11710BD00BF25374000D4C54020F2
S2144038202DE9F04F87B000AFF860B9601546D7E98C
S2144038301089BC6CE31D23F00703ADEB030DC7F8FE
S21440384004D0002C25DD0DEB040B0026FF220023C0
S214403850EE46DC46C246CB4602EA0A0803EA0B09B5
S214403860C6F12000A6F1200128FA06F809FA00F071
S21440387048EA000829FA01F148EA01080EF8018BE7
S214403880190241EA1261100202460B460836E64526
S214403890E2D1BB682BB9FB6863F07F003875012224
S2144038A00FE0FB6863F03F0038757F2D02D87D75CA
S2144038B0022206E065F07F037B75C5F3C712BA7532
S2144038C0032216490B6913F0040FFBD07AB107F1B7
S2144038D0140606EB0208DFF844B04FF0010A104D1C
S2144038E0584631465246A84701364645F8D1002C40
S2144038F00FDD7B681E4623441C46DFF820904FF0C1
S2144039000108074D484631464246A8470136A6427A
S214403910F8D11C37BD46BDE8F08F00BF00C0074059
S2144039208508400030B585B04FF4AA520023CDE953
S214403930002304250295262001210022064CA0479C
S2144039404FF490720023CDE90023029536200121E2
S2144039502822A04705B030BD2138400000B585B0CC
S214403960C117CDE9000105230293082000210A462D
S214403970024B984705B05DF804FB00BF2138400075
S21440398010B584B00446CDE90023069B0293092077
S21440399001212246014B984704B010BD2138400013
S2144039A000B585B002220023CDE90023042302930C
S2144039B00D2000210A46024B984705B05DF804FBEF
S2144039C021384000000000002DE9F04F2DED028B1D
S2144039D08FB082460D4604921C46D3ED097AF8EE27
S2144039E0E77A9FEDC18A77EE887A93ED067AB8EE4D
S2144039F0C77ADFF80C83C7EE877A17EE900AC0477F
S214403A00BA4F02460B46B847DFF8F8B2B4A3D3E93C
S214403A100023D847DFF8F092C84708EE900ACAF865
S214403A200000A369D4ED097AF8EEE77AB04E86FB3B
S214403A300312A2EBE37207EE102AB8EEC77A37EE0F
S214403A40877A07EE903AF8EEE77AC7EE277A17EECF
S214403A50900AC04702460B46B847A1A3D3E90023C5
S214403A60D847C847CAF80400A269D4ED097AB8EE28
S214403A70E77A86FB0213A3EBE2735B0007EE903A0D
S214403A80F8EEE77A77EE277A07EE102AB8EEC77A8E
S214403A90C7EE877A17EE900AC04702460B46B847ED
S214403AA08FA3D3E90023D847C847CAF80800A269BD
S214403AB0D4ED097AB8EEE77A86FB0213A3EBE273FD
S214403AC003EB430307EE903AF8EEE77A77EE277A71
S214403AD007EE102AB8EEC77AC7EE877A17EE900A36
S214403AE0C04702460B46B8477DA3D3E90023D847D4
S214403AF0C847CAF80C00A269D4ED097AB8EEE77A4E
S214403B0086FB0213A3EBE2739B0007EE903AF8EEB7
S214403B10E77A77EE277A07EE102AB8EEC77AC7EE2E
S214403B20877A17EE900AC04702460B46B8476CA302
S214403B30D3E90023D847C847CAF81000A369D4ED94
S214403B40097AB8EEE77A86FB0326A6EBE37606EB21
S214403B50860607EE906AF8EEE77A77EE277A07EE63
S214403B60103AB8EEC77AC7EE877A17EE900AC04783
S214403B7002460B46B8475AA3D3E90023D847C8475E
S214403B80CAF8140018EE900AC0475A4B9847CDE939
S214403B900601D4ED027AF8EEE78A0CAE6069564B21
S214403BA09847DDE90623D847C84702468DED008A88
S214403BB0636801930123029323680393304618EE0B
S214403BC0901A18EE903A4D4FB84796E8030085E8AD
S214403BD00300DAF80400C047464B9847CDE9060193
S214403BE0D4ED027AF8EEE78A6069434B9847DDE900
S214403BF00623D847C84702468DED008A636801937E
S214403C000023029323680393304618EE901A18EE6A
S214403C10903AB84705F1080396E8030083E80300A6
S214403C20DAF80800C047334B9847CDE90601D4ED93
S214403C30027AF8EEE78A60692F4B9847DDE906235B
S214403C40D847C84702468DED008A63680193012332
S214403C50029323680393304618EE901A18EE903A73
S214403C60B84705F1100396E8030083E80300DAF846
S214403C700C00C0471F4B9847CDE90601D4ED027AA9
S214403C80F8EEE78A60691C4B9847DDE90623D8477B
S214403C90C84702468DED008A63680193002302936D
S214403CA023680393304618EE901A18EE903AB847B9
S214403CB005F1180396E8030083E80300DAF81000DD
S214403CC0C0470C4B9847CDE90601D4ED027AF8EE92
S214403CD0E78A6069084B984718E000BFAFF300805A
S214403CE0182D4454FB210940000000007D8F400001
S214403CF0ABAAAA2A556A400015924000A94A40003D
S214403D0039924000E192400065984000DDE9062384
S214403D10D847C84702468DED008A63680193012361
S214403D20029323680393304618EE901A18EE903AA2
S214403D30B84705F1200396E8030083E80300DAF865
S214403D401400C047894B9847CDE90601D4ED027A66
S214403D50F8EEE78A6069864B9847DDE90623D84740
S214403D60C84702468DED008A63680193002302939C
S214403D7023680393304618EE901A18EE903AB847E8
S214403D8005F1280396E8030083E80300D5F8009081
S214403D90DAF80000C047774B9847CDE90601002285
S214403DA00023754EB04720B1E0684042704B9847BC
S214403DB012E06F4F2069B84702460B46DDE9060120
S214403DC06E4EB047CDE90601E068B84702460B465E
S214403DD0DDE906016A4EB04708AE6A4B9847024690
S214403DE0304649466B68684FB84796E80700049ED9
S214403DF086E8070006F10C08D5F808B0DAF80400A3
S214403E00624B98475B4B9847CDE90601002200235A
S214403E10594EB04720B1E0684042554B984712E0B3
S214403E20534F2069B84702460B46DDE90601534E1C
S214403E30B047CDE90601E068B84702460B46DDE9E3
S214403E4006014F4EB04708AE4E4B984702463046A6
S214403E505946EB684C4FB84796E8070088E8070095
S214403E60049B03F11808D5F810B0DAF80800474B61
S214403E709847404B9847CDE90601002200233E4E26
S214403E80B04720B1E0684042394B984712E0384F7F
S214403E902069B84702460B46DDE90601374EB04773
S214403EA0CDE90601E068B84702460B46DDE9060163
S214403EB0334EB04708AE334B9847024630465946D5
S214403EC06B69314FB84796E8070088E80700049BBF
S214403ED003F12408D5F818B0DAF80C002B4B9847B5
S214403EE0244B9847CDE9060100220023224EB047D6
S214403EF020B1E06840421E4B984712E01C4F2069B4
S214403F00B84702460B46DDE906011C4EB047CDE9F0
S214403F100601E068B84702460B46DDE90601184E42
S214403F20B04708AE174B9847024630465946EB69AD
S214403F30154FB84796E8070088E80700049B03F14A
S214403F403008D5F820B0DAF81000104B9847094BE7
S214403F509847CDE9060100220023074EB047B8B186
S214403F60E0684042024B984725E000BF556A400053
S214403F7015924000DD6A4000C5974000E19240003F
S214403F80798F400065984000C14C4000399240000F
S214403F902D4F2069B84702460B46DDE906012B4EF9
S214403FA0B047CDE90601E068B84702460B46DDE972
S214403FB00601274EB04708AE264B98470246304685
S214403FC059466B6A244FB84796E8070088E80700CA
S214403FD0049B03F13C08D5F828B0DAF814001F4BD0
S214403FE098471F4B9847CDE90401002200231D4EF9
S214403FF0B04720B1E0684042134B984712E0124F5A
S2144040002069B84702460B46DDE904010F4EB0472B
S214404010CDE90401E068B84702460B46DDE90401F5
S2144040200B4CA04708AC0B4B9847024620465946D7
S214404030EB6A094DA84794E8070088E807000FB0E8
S214404040BDEC028BBDE8F08F15924000E192400037
S214404050798F400065984000C14C4000399240003E
S214404060DD6A4000C59740001C4B4FF440321A634F
S214404070DA6B42F00102DA63194A002322F8023F63
S2144040800133B3F1807FF9D12DE9F04188B0144D6A
S21440409001210024DFF85880124F134E35F8022FC6
S2144040A0A3B29A4207D0009203A841462246B84798
S2144040B003A8B04700210134B4F1807FEED111B19E
S2144040C00A48094B9847054B4FF44032DA629A6BE0
S2144040D042F001029A6308B0BDE8F08100C0044097
S2144040E0FEFFFF6FA9A140009D014000580041001F
S2144040F02C00410000B589B08DF8072000230393BB
S21440410007938DF80C10012304930DF107020592D6
S21440411006938DF81C00054803A9054B984710B137
S2144041200448054B984709B05DF804FB0080014001
S214404130392C4000740041009D01400000B587B016
S21440414000230593009304938DF8001001230193F8
S21440415005AA029203938DF8100004486946044B62
S2144041609847059807B05DF804FB00BF0080014003
S214404170DD2A40002DE9F04186B0C4B22046002139
S2144041802A4FB8470246DFF8BC8001A84146284D72
S214404190A84701A8274EB04720460121B847024607
S2144041A001A84146A84701A8B04720461E21B84767
S2144041B0024601A84146A84701A8B0472046FE212E
S2144041C0B847024601A84146A84701A8B0474CF266
S2144041D08E50194FB847204600211022174DA84749
S2144041E0DFF864804046B8472046FE218022A84734
S2144041F04046B847204600210A46A84720460021A8
S2144042001022A847204601210422A8472046002124
S2144042100A46A8474046B847204600218022A8477D
S2144042200748B04706B0BDE8F08100BF3D414000BA
S214404230A9A140009D01400001004020F5404000FB
S21440424088004100800041001B8B010005287BD878
S214404250DFE800F003172B3F536721B94023136074
S2144042601E2353607047012904D140231360222344
S21440427053607047022967D140231360262353605A
S214404280704721B9412313600623536070470129C4
S21440429004D1412313600A2353607047022953D147
S2144042A0412313600E235360704721B940231360A7
S2144042B0122353607047012904D14023136016230C
S2144042C05360704702293FD1402313601A2353603E
S2144042D0704721B941231360122353607047012968
S2144042E004D14123136016235360704702292BD113
S2144042F0412313601A235360704721B9402313604B
S214404300062353607047012904D1402313600A23D3
S21440431053607047022917D1402313600E23536021
S214404320704721B9412313601E235360704701290B
S21440433004D141231360222353607047022903D1DE
S2144043404123136026235360704700BF10B582B0E8
S2144043506A46104B98479DF800009DF804100022CE
S2144043600D4CA047019901319DF80000C9B20022CA
S214404370A047019902319DF80000C9B20022A0472B
S214404380019903319DF80000C9B20022A04702B04F
S21440439010BD00BF4D424000F54040000000000008
S2144043A030B52DED028B83B005460C4608EE102A3C
S2144043B06A46254B984704EB440405EB4404234BDC
S2144043C003EBC404D4ED007A78EE677A17EE900AD1
S2144043D01F4B984700221F4B1F4CA04700221F4BE5
S2144043E01F4CA04716A3D3E900231E4CA0471E4BE4
S2144043F098471E4B984705469DF800009DF80410C8
S21440440001221B4CA047019901319DF80000C9B21A
S2144044100022A047019902319DF80000C9B2EAB2D5
S214404420A047019903319DF80000C9B2C5F30722A1
S214404430A04703B0BDEC028B30BD00BFAFF3008099
S21440444000000000009869404D424000180040209F
S2144044503992400000806640359540000000F03FAD
S2144044607D8F4000E192400065984000716B4000AF
S214404470F540400010B5212012218022CA4CA047AA
S214404480212011210022A04721203A210422A047C2
S214404490212012210022A047212017211322A047C5
S2144044A0212018210122A04721203221B622A047F0
S2144044B0212019210222A04721201A217A22A04732
S2144044C0212003210A22A04721200C210022A047B8
S2144044D021203E210022A047212070213A22A047D9
S2144044E0212071213522A047212072211122A04788
S2144044F021207321F022A0472120A2210222A0479A
S21440450021207A212022A04721207B211022A0476B
S21440451021207C211E22A04721207D213522A04734
S21440452021207E215A22A04721207F216922A047B0
S214404530212080217622A047212081218022A04769
S214404540212082218822A047212083218F22A04734
S214404550212084219622A04721208521A322A047FE
S21440456021208621AF22A04721208721C422A047B0
S21440457021208821D722A04721208921E822A04750
S21440458021201321E722A047212001212822A047ED
S214404590212002213022A047212000210A46A047A0
S2144045A0212010210022A04721200D214022A04793
S2144045B0212014211822A0472120A5210722A04708
S2144045C02120AB210822A047212024219522A04764
S2144045D0212025213322A04721202621E322A0475F
S2144045E021209F217822A0472120A0216822A04791
S2144045F02120A1210322A0472120A621D822A0477E
S2144046002120A721D822A0472120A821F022A04778
S2144046102120A9219022A0472120AA219422A04708
S21440462021201321E722A04721200E216122A04706
S21440463021200F214B22A047212016210222A047ED
S21440464021201E210722A047212001460222A04702
S214404650212022219122A047212029210722A0475C
S214404660212033210B22A047212035210B22A047B1
S214404670212037211D22A047212038217122A04722
S214404680212039212A22A04721203C217822A047F8
S21440469021204D214022A04721204E212022A04704
S2144046A0212069210022A04721206B210A22A04711
S2144046B0212074211022A04721208D214F22A0477F
S2144046C021208E210022A04721208F210022A047B2
S2144046D0212090210022A047212091210022A0479E
S2144046E0212092216622A047212096210022A04721
S2144046F021209A218022A0472120B0218422A04751
S2144047002120B1210C22A0472120B2210E22A04711
S2144047102120B3218222A0472120B8210A22A04787
S214404720212043211422A04721204421F022A047E3
S214404730212045213422A047212046215822A04747
S214404740212047212822A047212048213A22A0475D
S214404750212059218822A04721205A218822A0477B
S21440476021205B214422A04721205C216722A047CC
S21440477021205D214922A04721205E210E22A0470C
S214404780212064210422A047212065212022A04721
S214404790212066210522A047212094210422A047FB
S2144047A021209521082201E0F5404000A047212025
S2144047B06C210A22A04721206D215522A0472120A6
S2144047C06E211122A04721206F219E22A047212042
S2144047D06A214022A047212001212022A0472120F3
S2144047E002212022A04721201321E722A047212092
S2144047F04F218022A047212050218022A0472120FF
S21440480051210022A047212052212222A0472120C8
S21440481053215E22A047212054218022A0472120F8
S21440482058219E22A047212041210822A04721202E
S2144048303F210022A047212075210322A0472120A6
S2144048407621E122A04721204C210022A0472120AA
S21440485077210022A04721203D210022A047212089
S2144048604B210922A0472120C9216022A0472120B0
S21440487041213822A047212056214022A04721200E
S21440488034211122A04721203B210A22A047212083
S214404890A4218822A047212096210022A04721203B
S2144048A097213022A047212098212022A04721206E
S2144048B099213022A04721209A218422A0472120F6
S2144048C09B212922A04721209C210322A04721206A
S2144048D09D219822A04721209E213F22A0472120AB
S2144048E078210422A047212079210122A0472120B7
S2144048F0C821F022A047212079210F22A04721205D
S214404900C8210022A047212079211022A04721203B
S214404910C8217E22A047212079210A22A0472120B3
S214404920C8218022A047212079210B22A0472120A0
S214404930C8210122A047212079210C22A04721200E
S214404940C8210F22A047212079210D22A0472120EF
S214404950C8212022A047212079210922A0472120D2
S214404960C8218022A047212079210222A047212069
S214404970C821C022A047212079210322A047212018
S214404980C8214022A047212079210522A047212086
S214404990C8213022A047212079212622A047212065
S2144049A02D210022A04721202E210022A047212091
S2144049B02E210022A04721201B210022A047212093
S2144049C015210A22A04710BD38B5194B01225A615D
S2144049D002221A601A46136B13F0010FFBD0144BD9
S2144049E000225A66986EA0F5FE6080B2114B98473A
S2144049F0114C09A3D3E90023A04709A3D3E9002318
S214404A000E4DA84708A3D3E90023A0470C4B984770
S214404A1038BD00BFAFF300806666666666660A40CD
S214404A200000000000FEAF403DCFF33CCFF32440F3
S214404A300040064015924000E19240003595400007
S214404A4065984000F8B50746104AD36B43F001031B
S214404A50D3630F480F4B98473E4607F516370E4D23
S214404A600E4C2046A8470028FBD016F8011B2046CF
S214404A700B4B9847BE42F4D10A48064B9847034A28
S214404A80936B43F001039363F8BD00BF00C004403E
S214404A90A80041009D0140006D2D4000001E0E40C4
S214404AA0792D4000B00041002DE9F04D2DED068BEC
S214404AB08AB0044609EE103ADDED189ADDF86880B3
S214404AC09DED1BAA07EE902A37EEE98A07EE901A6C
S214404AD077EEC97A17EE900A724B9847CDE90001F7
S214404AE0B8F1010F40F08A80199B83F0004B6D4D62
S214404AF05846A847CDE904016B4EB047CDE90601BC
S214404B0018EE100AA847CDE90201DDE90401674F17
S214404B10B847CDE904015846A847CDE90801B8474B
S214404B2082468B46DDE90801B047CDE90801604D75
S214404B30DDE9000152465B46A84706460F46DDE9DA
S214404B400201DDE90823A84702460B4630463946AF
S214404B50584EB047584EB04708EE900ADDE900017F
S214404B60DDE90623A84782468B46DDE90201DDE9FA
S214404B700423A84702460B46504659464F4DA84781
S214404B80B04707EE900A39EE279AB8F1010F7FD169
S214404B90B5EE40AAF1EE10FA18D179E0FDEECA7AE9
S214404BA017EE903A002BB8BF5B42C3F1010307EE05
S214404BB0903AF8EEE77A68EEA78A78EE297A27EEFA
S214404BC08A8A38EE888A78EE298A61E0FDEECA7ACB
S214404BD017EE903A002BB8BF5B42C3F1010307EED5
S214404BE0903AF8EEE77A67EEA87A38EE298A28EE09
S214404BF00A8A37EEC88A78EE298A49E0294D1998FC
S214404C00A84706460F46284B9847CDE9020118EEBE
S214404C10100AA84782468B4630463946234B98476B
S214404C2002460B46224DDDE90001CDE90423A847A4
S214404C3006460F46DDE9020152465B46A847024655
S214404C400B46304639461B4EB0471B4EB04708EE23
S214404C50900ADDE90001DDE90223A847CDE900011D
S214404C6050465946DDE90423A84702460B46DDE98F
S214404C700001124DA847B04707EE900A39EE279A32
S214404C80B8F1000F04D1B5EE40AAF1EE10FA85D186
S214404C9084ED009AC4ED018A20460AB0BDEC068B2E
S214404CA0BDE8F08D39924000556A4000DD6A40000C
S214404CB0E19240007D8F400065984000798F40002B
S214404CC02DE9F04F2DED068B85B0054609EE101AFE
S214404CD00AEE102A08EE903A69EE097A28EEA88A7B
S214404CE037EE888A5A4C18EE100AA047594EB047FD
S214404CF0594FB84709EE900A6AEE0A7A29EEA98A11
S214404D0037EE888A18EE100AA047B047B84708EE34
S214404D10100A68EE08AADFED517A7AEEA77A9FED80
S214404D20507A77EEC77A9FED4F7A28EE077AC7EE2D
S214404D30877A17EE900AA0474B4B9847B847A0474C
S214404D4082468B46494B98478046894618EE100A5D
S214404D50A04742464B46464CA0470022454B464C51
S214404D60A047464B9847B8478046DFED457AF4EE75
S214404D70E7AAF1EE10FA0ADA354B984702460B4698
S214404D8031A1D1E900013F4CA047B8478046304C9E
S214404D901AEE100AA04706460F4619EE900AA0479C
S214404DA002460B4630463946374EB047CDE90001FD
S214404DB019EE100AA047CDE9020118EE900AA04766
S214404DC002460B46DDE90201B047234EB047A047F6
S214404DD0DFF89C9000222D4BC847274F1AA3D3E9F3
S214404DE00023B847B047286050465946DDE90023BF
S214404DF0DFF8A0C0E047B047A0470022234BC84793
S214404E0011A3D3E90023B84702460B46DFF874A047
S214404E1000201F49D047B04768604046A047002260
S214404E201A4BC84708A3D3E90023B84702460B46A7
S214404E3000201649D047B047A860284605B0BDECCC
S214404E40068BBDE8F08F00BF182D4454FB21094067
S214404E50399240001D6D400065984000000884452A
S214404E6000902F4600000243C96B4000DD6A4000B8
S214404E70E192400000805A4035954000716C4000F9
S214404E8000947146798F4000196D4000008066405E
S214404E90008056407D8F400070B50E4615461C4635
S214404EA0052857D8DFE800F003111F2D3B490020A6
S214404EB001463246284EB047002001212A46B047D8
S214404EC0002002212246B04770BD01200021324614
S214404ED0214EB047012001462A46B0470120022114
S214404EE02246B04770BD0220002132461A4EB047D7
S214404EF0022001212A46B047022001462246B047FA
S214404F0070BD032000213246134EB04703200121D6
S214404F102A46B047032002212246B04770BD0420EF
S214404F20002132460C4EB047042001212A46B047A5
S214404F30042002212246B04770BD0520002132469B
S214404F40054EB047052001212A46B04705200221DC
S214404F502246B04770BD00BFA1434000000000009D
S214404F602DE9F84F2DED028B80468A4693464E48F3
S214404F704FF020514FF400724C4B98474C4E002750
S214404F80494D4A4C9FED4B8A08EE906ADFF84C91AB
S214404F9028464FF020514FF40072A04778B9464B50
S214404FA01B6863B92FB907EE906A78EEE77ACAEDC8
S214404FB0007A01370122404B1A6018EE106A2846E4
S214404FC04FF020514FF40072A04710B100223A4BE8
S214404FD01A6028464FF020514FF48062A04750B9DF
S214404FE03046364B98472EA3D3E90023344EB0477D
S214404FF0344B9847064628464FF020514FF40062FF
S214405000A04750B930462D4B984725A3D3E90023F7
S2144050102D4EB0472B4B98470646012F05D14846A4
S2144050204FF00071294B984704E048464FF0007116
S214405030274B9847404600213246264B98472846FD
S2144050404FF020514FF40072A047002FA0DD0028FB
S2144050509ED1194B1B68002B9AD10125164B1D601B
S214405060DAED007A07EE106A77EE277A9FED117A2E
S214405070C7EE877ACBED007A062000215A22164CDE
S214405080A047062029465A22A04706200221B422DD
S214405090A047BDEC028BBDE8F88F00BFAFF30080A1
S2144050A09A9999999999B93F00120E40C5274000A0
S2144050B00000B44200003442B8C440203992400058
S2144050C07D8F400065984000798F4000BD274000A6
S2144050D0C1274000A1434000FD584000000E0E404E
S2144050E02DE9F84F2DED028B80468A4693464E4872
S2144050F04FF020514FF400724C4B98474C4E0027CF
S214405100494D4A4C9FED4B8A08EE906ADFF84C9129
S21440511028464FF020514FF40072A04778B9464BCE
S2144051201B6863B92FB907EE906A78EEE77ACAED46
S214405130007A01370122404B1A6018EE106A284662
S2144051404FF020514FF40072A04710B100223A4B66
S2144051501A6028464FF020514FF48062A04750B95D
S2144051603046364B98472EA3D3E90023344EB047FB
S214405170344B9847064628464FF020514FF400627D
S214405180A04750B930462D4B984725A3D3E9002376
S2144051902D4EB0472B4B98470646012F05D1484623
S2144051A04FF00071294B984704E048464FF0007195
S2144051B0274B9847404601213246264B984728467B
S2144051C04FF020514FF40072A047002FA0DD00287A
S2144051D09ED1194B1B68002B9AD10125164B1D609A
S2144051E0DAED007A07EE106A77EE277A9FED117AAD
S2144051F0C7EE877ACBED007A062000215A22164C5D
S214405200A047062029465A22A04706200221B4225B
S214405210A047BDEC028BBDE8F88F00BFAFF300801F
S2144052209A9999999999B93F00120E40C52740001E
S2144052300000B44200003442B8C4402039924000D6
S2144052407D8F400065984000798F4000BD27400024
S214405250C1274000A1434000FD584000000E0E40CC
S2144052602DE9F84F2DED028B80468A4693464E48F0
S2144052704FF020514FF400724C4B98474C4E00274D
S214405280494D4A4C9FED4B8A08EE906ADFF84C91A8
S21440529028464FF020514FF40072A04778B9464B4D
S2144052A01B6863B92FB907EE906A78EEE77ACAEDC5
S2144052B0007A01370122404B1A6018EE106A2846E1
S2144052C04FF020514FF40072A04710B100223A4BE5
S2144052D01A6028464FF020514FF48062A04750B9DC
S2144052E03046364B98472EA3D3E90023344EB0477A
S2144052F0344B9847064628464FF020514FF40062FC
S214405300A04750B930462D4B984725A3D3E90023F4
S2144053102D4EB0472B4B98470646012F05D14846A1
S2144053204FF00071294B984704E048464FF0007113
S214405330274B9847404602213246264B98472846F8
S2144053404FF020514FF40072A047002FA0DD0028F8
S2144053509ED1194B1B68002B9AD10125164B1D6018
S214405360DAED007A07EE106A77EE277A9FED117A2B
S214405370C7EE877ACBED007A062000215A22164CDB
S214405380A047062029465A22A04706200221B422DA
S214405390A047BDEC028BBDE8F88F00BFAFF300809E
S2144053A09A9999999999B93F00120E40C52740009D
S2144053B0000034430000B442B8C440203992400054
S2144053C07D8F400065984000798F4000BD274000A3
S2144053D0C1274000A1434000FD584000000E0E404B
S2144053E02DE9F04D9CB080460E461546062000211D
S2144053F05A222D4CA047062001215A22A0470620BB
S2144054000221B422A04765B9F30008EB030100204F
S2144054100860043308EB030210603046234B98477D
S2144054201EE0012D0DD1F30003F130014144002070
S2144054300860343308EB0302106030461C4B984734
S2144054400EE0022D0CD1F30003F160014144002030
S2144054500860643308EB030210603046154B9847EB
S2144054601548164CA0471648A047444608F19008F1
S214405470144F154D154E2068A84782468B466068E7
S214405480A847CDE9000103A8394652465B46B047D7
S21440549003A80A4B984708344445ECD10C48074BC0
S2144054A098471CB0BDE8F08DFD584000614F400065
S2144054B0E150400061524000BC0041009D01400068
S2144054C0E0004100E400410039924000A9A14000BC
S2144054D0EC00410038B505460C4611F0010F0DD0E2
S2144054E010F0010F05D03F484FF080513E4B984793
S2144054F004E03C484FF080513C4B984714F0020F74
S2144055000DD015F0020F05D036484FF00051364BFF
S214405510984704E033484FF00051344B984714F016
S214405520040F0DD015F0040F05D02E484FF08041E3
S2144055302D4B984704E02B484FF080412B4B984723
S21440554014F0080F0DD015F0080F05D025484FF081
S2144055500071254B984704E022484FF00071234BDA
S214405560984714F0100F0DD015F0100F05D02048B6
S2144055704FF400511C4B984704E01D484FF400512F
S2144055801A4B984714F0200F0BD015F0200F04D07C
S21440559014480421144B984703E012480421134B47
S2144055A0984714F0400F0DD015F0400F05D00D4829
S2144055B04FF000410C4B984704E00A484FF000413A
S2144055C00A4B9847E40906D0EB0904D00548402129
S2144055D0054B984738BD1CB102484021034B9847BD
S2144055E038BD00BF000E0E40BD274000C12740001A
S2144055F000100E402DE9F04F9DB0064649484A4BF4
S2144056009847344606F190053346002243F8042B6B
S214405610AB42FBD1B0460027DFF824B1DFF8249137
S214405620DFF824A1C7F30710F021D8470620002151
S2144056305A22C847062001215A22C847062002217E
S214405640B422C8473846414608F10402D0470137DD
S21440565008F10808062FE5D106F130080027DFF8E4
S214405660E0B0DFF8E090DFF8E4A0C7F30710F021E1
S214405670D847062000215A22C847062001215A2230
S214405680C84706200221B422C8473846414608F19A
S2144056900402D047013708F10808062FE5D16036E6
S2144056A00027DFF89CA0DFF89C80DFF8A490C7F3C3
S2144056B00710F021D047062000215A22C047062076
S2144056C001215A22C04706200221B422C04738464C
S2144056D03146321DC84701370836062FE7D11348F2
S2144056E0114EB0471248B047DFF868A0114F124E2F
S2144056F02068B847804689466068B847CDE90001CB
S21440570003A8514642464B46B04703A8064B984727
S2144057100834A542ECD10948034B98471DB0BDE874
S214405720F08F00BFF00041009D014000BC004100EA
S214405730E000410039924000A9A14000EC00410041
S214405740D5544000FD584000614F4000E1504000B5
S21440575061524000E4004100F0B59BB004460D465F
S214405760092800F2AD80DFE800F005121F2C39460C
S214405770515EAB6929B159484FF08051584B984714
S2144057809EE056484FF08051564B984798E029B1D6
S21440579052484FF00051524B984791E04F484FF0D7
S2144057A00051504B98478BE029B14C484FF0804110
S2144057B04B4B984784E049484FF08041494B9847C7
S2144057C07EE029B145484FF00071454B984777E059
S2144057D042484FF00071434B984771E029B1424828
S2144057E04FF400513E4B98476AE03F484FF4005113
S2144057F03C4B984764E021B138480421384B9847E1
S2144058005EE036480421374B984759E029B1334883
S2144058104FF00041324B984752E030484FF000413D
S214405820304B98474CE021B12C4840212C4B9847B0
S21440583046E02A4840212B4B984741E001B3274F8A
S21440584038464FF08051264EB04738464FF000510C
S214405850B04738464FF08041B04738464FF0007169
S214405860B04721484FF40051B04738460421B0476E
S21440587038464FF00041B04738464021B0471FE019
S214405880164F38464FF08051164EB04738464FF0C8
S2144058900051B04738464FF08041B04738464FF049
S2144058A00071B04710484FF40051B04738460421C5
S2144058B0B04738464FF00041B04738464021B047E1
