:020000040040BA
:1000000010E34020F92C4000F52C4000F52C400076
:10001000F52C4000F52C4000F52C400000000000BD
:10002000000000000000000000000000ED0740009C
:10003000F52C40000000000089084000ED08400059
:10004000F52C4000F52C4000F52C4000F52C40002C
:10005000F52C4000F52C4000F52C4000F52C40001C
:10006000F52C40000000000035024000490240002D
:100070005D024000F52C4000F52C4000F52C4000BE
:100080007102400085024000F52C4000F52C400034
:10009000F52C4000F52C4000F52C4000F52C4000DC
:1000A000F52C4000F52C4000F52C4000F52C4000CC
:1000B000F52C4000F52C4000F52C4000F52C4000BC
:1000C000F52C4000F52C4000F52C4000000000000D
:1000D0000000000000000000000000000000000020
:1000E000F52C4000F52C4000F52C4000F52C40008C
:1000F000F52C4000F52C4000F52C4000F52C40007C
:10010000F52C4000F52C4000F52C4000F52C40006B
:10011000F52C40000000000000000000000000007E
:10012000F52C4000F52C4000F52C4000F52C40004B
:10013000F52C400000000000F52C4000F52C40009C
:1001400010B5054C237833B9044B13B10448AFF311
:1001500000800123237010BDB4084020000000007F
:10016000CC9F4000084B10B51BB108480849AFF3BD
:1001700000800848036803B910BD074B002BFBD073
:10018000BDE81040184700BF00000000CC9F4000B1
:10019000B8084020CC9F4000000000002DE9F04747
:1001A0008046471E0026DFF834900A4D0A4CDFF8DF
:1001B00030A008E02046A8470028FBD0204617F8CA
:1001C000011FD04701364046C8478642F2D3BDE8FA
:1001D000F08700BF71284000001E0E404D414000D6
:1001E0007D2840002DE9F041044688460E4B984793
:1001F000054620460D4B9847054013D00C4C04F1A2
:1002000060062368434508D16168294205D0E36848
:1002100040469847636825EA0305B44202D010348B
:10022000002DEED1BDE8F081C9244000CD2440006E
:10023000D008402008B502480A21024B984708BD63
:10024000000E0E40E501400008B502480B21024BAC
:10025000984708BD00100E40E501400008B502486F
:100260000C21024B984708BD00120E40E5014000EA
:1002700008B502481021024B984708BD00140E40F3
:10028000E501400008B502481121024B984708BD1E
:1002900000160E40E501400038B530B9594840F22B
:1002A0001711594A594B5A4CA04703460222026083
:1002B0001A6912F0807FFBD180221A600A78012A25
:1002C00004D15A6842F001025A6001E05A685A604B
:1002D0004A7822B15A6842F002025A6003E05A6832
:1002E00022F002025A608A7822B15A6842F004026F
:1002F0005A603CE05A6822F004025A6037E01A6AF9
:1003000042F001021A6253E01A6A22F001021A62F4
:100310004EE01A6A42F002021A624DE01A6A22F0B6
:1003200002021A6248E0186A120292B220F47F4078
:1003300002431A62002047E01A6C42F001021A647C
:1003400003E01A6C22F001021A6424B11A6C42F024
:1003500002021A644AE01A6C22F002021A6445E0B2
:10036000596449E01A6912F0807FFBD047E05A686F
:10037000C878000100F0300022F0300202435A60D9
:100380005A6822F470604A6802435A605A68087AD0
:1003900022F47F0242EA00425A605A68C86822F09A
:1003A0007F4242EA00625A600A69002AACD0A6E79E
:1003B0004A69002AB2D0ACE78869164AB2FBF0F26B
:1003C000013AFF2AAFD9F8201A6A0C7F22F47F0283
:1003D00042EA04421A6291F8205091F821401A6CC6
:1003E00022F003021A64002DA6D1AAE7496AD3F8C5
:1003F000E42012F0010FB3D001221A60B2E740B23C
:1004000038BD00BF149B4000049B4000389B400057
:10041000513E400080D1F008F8B530B944484FF45F
:100420009F71444A444B454CA0470346002A78D06C
:10043000012A26D1026912F0010F08BF4FF4803261
:100440001AD01A6912F0010FFBD09A680A801A6953
:1004500012F0040FFBD0FF22DA601A6912F0020FCB
:10046000FBD01A6912F0010FFBD09B680B800020B3
:100470005CE0013A00D156E0186910F0010FF8D0A5
:10048000DFE7186910F0040FFBD00020D86018696E
:1004900010F0020FFBD0186910F0040FFBD0002001
:1004A000D860186910F0020FFBD0186910F0040F23
:1004B000FBD00020D860186910F0020FFBD0002498
:1004C0002546A2F1020E2746A4461926186910F007
:1004D000020F1BD0186910F0010FFBD0986808704C
:1004E000586810F4706F01D0023100E0013101351D
:1004F000754511D2186910F0040FFBD0DF60186940
:1005000010F0020FFBD03C46604607E0B4F5803F98
:100510000BD20134304601E03C466046AA42D5D8B1
:1005200004E0002002E0FD2000E0FD2040B2F8BD24
:10053000409B4000E09B4000389B4000513E400003
:10054000F8B530B923484FF4C571234A234B244CE6
:10055000A0470346002A38D0012A14D14FF4803234
:10056000186910F0020F0BD009881A6912F0040FF5
:10057000FBD0D9601A6912F0020FFBD0002027E0EF
:10058000013AEDD123E0406800F47060002814BF08
:100590004FF0020E4FF0010E00241925274618696E
:1005A00010F0040F0CD00E78186910F0040FFBD077
:1005B000DE60186910F0020FFBD07144384600E08D
:1005C00028460134A242EAD202E0002000E0FD20E9
:1005D00040B2F8BD409B4000EC9B4000389B40007F
:1005E000513E4000484B1B78FF2B00D1FEE770B412
:1005F00083B0EFF3108372B6BFF35F8F0024434ADA
:100600001470414C2278013222702BB901223F4BE9
:100610001A70BFF35F8F62B683683D4A9360002310
:100620001361536201933B4BA3FB01239A0CC82334
:1006300003FB02F3384AA2FB03239B08019A93426F
:1006400005D9019A01320192019A9A42F9D3304DAB
:1006500001222A604FF0E0440022228002262E6010
:1006600022800192019A9A4205D2019A01320192A6
:10067000019A9A42F9D3264B04241C604FF0E042C1
:10068000012515801C60022515801C60032515803E
:100690001C6014801C60052616801C6006261680CF
:1006A0001C60072616801C60082414801D604468A6
:1006B000640014444CF6FE2525804468640014440C
:1006C000258044686400144425804068400010443C
:1006D0000580002018601080104AA2FB01129209C8
:1006E0000192019941F6786202FB01F20192019AAE
:1006F0000849A1FB0212920C0192019AC2F30B026B
:100700005A6003B070BC7047C0C240201000402047
:100710000040084083DE1B43ABAAAAAAD34D621057
:10072000012904D18268064B1343836003E0826889
:10073000044B134083600268034B1343036070470C
:10074000000010A5FFFFEF5A080000A54FF400437A
:10075000436070470D4B1B68B3F1FF3F0AD04FF069
:10076000800372B683F31188BFF36F8FBFF34F8F8F
:1007700062B6FEE74FF0800372B683F31188BFF3D1
:100780006F8FBFF34F8F62B6FEE700BF0C004020B3
:1007900006480068006880F3088862B661B6BFF357
:1007A0004F8FBFF36F8F00DF00BF000008ED00E048
:1007B000DFF80C00016841F470010160704700002F
:1007C00088ED00E04FF0807340F8043C40F8081CCE
:1007D000054B40F80C3C40F8202C6FF0020340F829
:1007E000243C4438704700BF55074000064B196849
:1007F0000868B0E8F04F80F30988BFF36F8F4FF0BF
:10080000000080F311887047F4C140204FF080034E
:1008100072B683F31188BFF36F8FBFF34F8F62B649
:100820000B4A136801331360012B0FD1094B1B686E
:1008300013F0FF0F0AD04FF0800372B683F31188D4
:10084000BFF36F8FBFF34F8F62B6FEE7704700BFF5
:100850000C00402004ED00E00A4B1B6853B94FF038
:10086000800372B683F31188BFF36F8FBFF34F8F8E
:1008700062B6FEE7013B034A13600BB983F31188AC
:10088000704700BF0C004020EFF30980BFF36F8F6B
:10089000154B1A681EF0100F08BF20ED108A20E9D2
:1008A000F04F10604DF8043D4FF0800072B680F3B9
:1008B0001188BFF34F8FBFF36F8F62B601F0EAF874
:1008C0004FF0000080F3118808BC19680868B0E890
:1008D000F04F1EF0100F08BFB0EC108A80F30988AB
:1008E000BFF36F8F704700BFF4C1402008B5EFF32E
:1008F00011834FF0800272B682F31188BFF36F8FBD
:10090000BFF34F8F62B6054B984718B14FF0805236
:10091000034B1A60002383F3118808BDCD164000F5
:1009200004ED00E0034A044B1A600722043B1A60FE
:10093000704700BFDF93040014E000E000B583B00F
:10094000254B1A78D2B20192FF221A701B78DBB2C3
:100950008DF803309DF8033003F080031F4A1370B5
:1009600007221F4B1A609DF8033013F0800F10D040
:10097000062200E00A469DF803305B00DBB28DF8EA
:1009800003309DF80330511E13F0800FF2D1144B49
:100990001A60134A13681B0203F4E0631360019B9F
:1009A000DBB20D4A13700F4B1A6842F460021A60F2
:1009B0001A6842F060421A600B4B984700220B4BBA
:1009C0001A600B4B98470B4A136843F0404313607F
:1009D000094B9847094B984700E400E04009402044
:1009E0004409402020ED00E0250940000C00402093
:1009F000B107400034EF00E0910740005507400088
:100A0000EFF305830F2B11D9124A9B5CDBB2124A1C
:100A100012789A420AD94FF0800372B683F3118894
:100A2000BFF36F8FBFF34F8F62B6FEE70B4B1B68B0
:100A300003F4E0630A4A126893420AD94FF0800334
:100A400072B683F31188BFF36F8FBFF34F8F62B617
:100A5000FEE77047F0E300E0400940200CED00E0C5
:100A60004409402038B5044610F0070F02D020F0AA
:100A7000070408340E4B98470E4B1B6823B90E4BE6
:100A800023F007030B4A13600C4B1B681C444BF20A
:100A9000F772944207D8A34205D2064A15681D444E
:100AA000064B1C6000E00025054B9847284638BDE2
:100AB000B11640004CC14020540940204809402054
:100AC0000118400050B14FF0800372B683F31188D3
:100AD000BFF36F8FBFF34F8F62B6FEE7704700BF63
:100AE00000F1080343604FF0FF328260C36003618E
:100AF00000230360704700BF00230361704700BFFD
:100B000043684B609A688A609A685160996008618E
:100B1000036801330360704730B40D68B5F1FF3FDF
:100B200001D1026907E000F1080200E01A465368AB
:100B30001C68A542FAD253684B6099608A60516084
:100B4000086103680133036030BC70470369426881
:100B5000816891608268416851605A68824201D11F
:100B600092685A6000220261186801381860704764
:100B700038B504461546026C42B90368002B2BD1E8
:100B800040681B4B9847002363602CE06DB9806878
:100B9000184B9847A268236C1344A3606268934281
:100BA0001CD32368A36000201DE0C068114B984748
:100BB000236C5B42E2681A44E26021688A4202D2F6
:100BC00062681344E360022D0AD1A36B53B1A36B97
:100BD000013BA363002006E0002004E0002002E0C7
:100BE000002000E00020A36B0133A36338BD00BFE9
:100BF000611E40002D3F400030B583B00190446D30
:100C000054B94FF0800372B683F31188BFF36F8F2E
:100C1000BFF34F8F62B6FEE7A26BE36B9A420AD333
:100C20004FF0800372B683F31188BFF36F8FBFF369
:100C30004F8F62B6FEE7A26B934217D90A46204651
:100C400001A90C4B98470546A36CB3F1FF3F09D1AE
:100C5000636A63B104F12400074B9847002818BF6A
:100C6000012504E0A36C0133A36400E000252846BD
:100C700003B030BD710B4000311C4000026C72B1FA
:100C800010B5C3681344C3604468A34201D303682A
:100C9000C36003460846D968014B984710BD7047AA
:100CA0002D3F4000F8B50446204B9847A36C002B1D
:100CB00018DD1F4D1F4F204E636D33B120460021BC
:100CC000A847012808D1B84706E0636A53B104F188
:100CD0002400B04700B1B847A36C013BA364A36CE8
:100CE000002BE9DC4FF0FF33A364144B98470F4B04
:100CF0009847636C002B13DD23691BB910E023694F
:100D000023B90DE004F110060B4D0A4F3046A847F9
:100D100000B1B847636C013B6364636C002BEEDC8D
:100D20004FF0FF336364054B9847F8BD0D08400052
:100D3000F90B40008D1D4000311C40005908400057
:100D400038B550B94FF0800372B683F31188BFF302
:100D50006F8FBFF34F8F62B6FEE704460D46184B08
:100D600098472268216CE36B03FB01F3D0186060A5
:100D70000020A063A2605B1A1344E3604FF0FF33CE
:100D80006364A36485B92369ABB104F110000D4B12
:100D9000984701280FD14FF080520B4B1A60BFF3D8
:100DA0004F8FBFF36F8F06E004F11000074DA84787
:100DB00004F12400A847064B9847012038BD00BF26
:100DC0000D084000311C400004ED00E0E10A400045
:100DD00059084000F8B550B94FF0800372B683F35C
:100DE0001188BFF36F8FBFF34F8F62B6FEE70D46DA
:100DF00017460646C1B101FB00F05930144B984725
:100E0000044610B905E0246015E000F158030360C2
:100E100011E04FF0800372B683F31188BFF36F8F38
:100E2000BFF34F8F62B6FEE75820094B9847044640
:100E30000028E8D1EDE7E663256420460121054B53
:100E4000984784F85070002363652046F8BD00BFC2
:100E5000650A4000410D40002DE9F04F85B0019238
:100E600050B94FF0800372B683F31188BFF36F8FD0
:100E7000BFF34F8F62B6FEE7044661B9026C52B110
:100E80004FF0800372B683F31188BFF36F8FBFF307
:100E90004F8F62B6FEE7022B0DD1E26B012A0AD01A
:100EA0004FF0800372B683F31188BFF36F8FBFF3E7
:100EB0004F8F62B6FEE71D460091514B984760B9CF
:100EC000019B63B14FF0800372B683F31188BFF3C7
:100ED0006F8FBFF34F8F62B6FEE7002700E0002759
:100EE000484EDFF84C91DFF82881B047A26B022D05
:100EF00002D0E36B9A4233D2204600992A46424BF5
:100F00009847636D73B120462946404B98470128A6
:100F100022D14FF080523E4B1A60BFF34F8FBFF388
:100F20006F8F19E0636A73B104F12400394B98475D
:100F3000012811D14FF08052354B1A60BFF34F8F0B
:100F4000BFF36F8F08E038B14FF08052304B1A601A
:100F5000BFF34F8FBFF36F8F2F4B984701204BE0AC
:100F6000019B1BB92C4B9847002045E017B902A8FC
:100F7000C8470127284B9847284B9847B047636CD0
:100F8000B3F1FF3F01D100236364A36CB3F1FF3FD2
:100F900001D10023A364204B984702A801A9204B4C
:100FA000984718BBB047D4F838B0D4F83CA01A4BD7
:100FB0009847D34514D104F110000199194B984773
:100FC0002046194B9847194B984700288DD14FF070
:100FD0008053C8F80030BFF34F8FBFF36F8F84E7A3
:100FE0002046114B9847114B98477EE720460E4B01
:100FF00098470E4B9847002005B0BDE8F08F00BF22
:10100000991D40000D084000710B4000F90B400095
:1010100004ED00E0311C400059084000B1164000CA
:10102000F91C40002D1B4000A50C40000118400099
:10103000C91C400050B94FF0800372B683F3118889
:10104000BFF36F8FBFF34F8F62B6FEE72DE9F0411C
:10105000044661B9006C50B14FF0800372B683F35F
:101060001188BFF36F8FBFF34F8F62B6FEE7022B7D
:101070000DD1E06B01280AD04FF0800372B683F3E4
:101080001188BFF36F8FBFF34F8F62B6FEE71E4626
:1010900015468846214B9847EFF311874FF08003A0
:1010A00072B683F31188BFF36F8FBFF34F8F62B6B1
:1010B000A26B022E02D0E36B9A4223D22046414615
:1010C0003246174B9847A36CB3F1FF3F15D1636DC0
:1010D00043B120463146134B9847012814D19DB1A6
:1010E000286016E0636A8BB104F124000E4B984728
:1010F00070B16DB1012028600BE0A36C0133A364D3
:10110000012006E0002004E0012002E0012000E0D0
:10111000012087F31188BDE8F08100BF010A40007B
:10112000710B4000F90B4000311C40002DE9F04FDD
:1011300085B0019250B94FF0800372B683F31188E5
:10114000BFF36F8FBFF34F8F62B6FEE7044661B9FE
:10115000026C52B14FF0800372B683F31188BFF373
:101160006F8FBFF34F8F62B6FEE798468B46524BA8
:10117000984760B9019B63B14FF0800372B683F367
:101180001188BFF36F8FBFF34F8F62B6FEE7002663
:1011900000E00026494DDFF854A1DFF83091A84760
:1011A000A36B002B34D0E56820465946444B984742
:1011B000B8F1000F18D1A36B013BA363236813B9E7
:1011C000404B984760602369F3B104F110003E4B37
:1011D0009847012818D14FF080523C4B1A60BFF35A
:1011E0004F8FBFF36F8F0FE0E560636A63B104F167
:1011F0002400354B984738B14FF08052334B1A607A
:10120000BFF34F8FBFF36F8F314B984701204FE0F3
:10121000019B1BB92E4B9847002049E016B902A844
:10122000D04701262A4B98472A4B9847A847636C1A
:10123000B3F1FF3F01D100236364A36CB3F1FF3F1F
:1012400001D10023A364224B984702A801A9224B95
:10125000984738BBA847A76B1D4B9847E7B9236849
:101260002BB9A84760681D4B9847194B984704F164
:10127000240001991A4B984720461A4B98471A4B5D
:10128000984700288BD14FF08053C9F80030BFF346
:101290004F8FBFF36F8F82E72046124B9847124B58
:1012A00098477CE720460F4B98470F4B9847002004
:1012B00005B0BDE8F08F00BF991D40000D0840004B
:1012C0007D0C4000211F4000311C400004ED00E077
:1012D00059084000B1164000F91C4000B91D4000FB
:1012E0002D1B4000A50C400001184000C91C400007
:1012F00010B40B4B1B682BB10123094C54F833205D
:1013000042B900E00023064A42F8331002EBC3035F
:10131000586002E00133082BF0D15DF8044B7047B0
:10132000C8C2402070B504460E4615460D4B98477E
:10133000636CB3F1FF3F01D100236364A36CB3F18D
:10134000FF3F01D10023A364074B9847A36B2BB940
:1013500004F1240031462A46044B98472046044BAA
:10136000984770BD0D08400059084000B11B40006F
:10137000A50C4000084B1B681B6823B94FF0FF32D7
:10138000064B1A607047044B1B68DB68DB685A68C1
:10139000024B1A60704700BF54C1402014C2402065
:1013A00010B504460E4B1B6858600E4B1B689842E4
:1013B00007D20D4B18680A4B196804310B4B98473C
:1013C00010BD0B4B1868064B19680431074B984742
:1013D000084B1B689C4201D2064B1C6010BD00BF2D
:1013E000F4C1402010C2402074C14020190B4000BD
:1013F00054C1402014C240202DE9F04F83B00C9F0F
:10140000DDF834A00E9D50B94FF0800372B683F31F
:101410001188BFF36F8FBFF34F8F62B6FEE7042FC3
:101420000AD94FF0800372B683F31188BFF36F8F30
:10143000BFF34F8F62B6FEE70190009390460E46D1
:1014400035B990005F4B98470546002800F0B480FE
:1014500058205C4B98470446A0B105632846A52157
:101460004FEA8802584B98476FF040454544236B3C
:1014700003EB850323F00705337884F834303378A1
:1014800023B90FE02846514B984795E0334604F1C5
:101490003402093613F8011F02F8011F197809B147
:1014A000B342F7D14FF0000884F83D803E46042F48
:1014B00028BF0426E662A664C4F84C8004F104093F
:1014C0004846DFF854B1D84704F11800D8472461E2
:1014D000C6F10506A6616462C4F8508084F85480A1
:1014E00028460199009A3A4B98472060BAF1000FBC
:1014F00001D0CAF80040374B9847374A1368013388
:101500001360364B1B680BBB344B1C601368012BFC
:1015100026D1334D05F16408324E2846B0471435C4
:101520004545FAD1DFF8F48040462E4DA8472E4EAF
:101530003046A8472D48A8472D48A8472D48A8471A
:101540002D4BC3F800802D4B1E6009E02C4B1B680F
:1015500033B9224B1B68DB6A9F4201D31F4B1C60CF
:10156000284A1368013313602364E06A26490B6834
:101570000122824013430B6000EB8000184B03EB09
:1015800080004946214B9847214B98471C4B1B68CC
:1015900073B1124B1B68DB6A9F420BD94FF080522C
:1015A0001C4B1A60BFF34F8FBFF36F8F012005E014
:1015B000012003E0012001E04FF0FF3003B0BDE85F
:1015C000F08F00BF650A400061404000C50A40003E
:1015D000C50740000D0840001CC24020F4C1402057
:1015E0007CC14020E10A400020C24020F8C14020D8
:1015F000E0C1402034C2402054C1402074C140208A
:1016000058C1402018C2402048C24020010B400071
:101610005908400004ED00E0F90A400060C1402094
:1016200010B584B0002300930193029303931848EC
:1016300018498222184CA04701281AD1174B984705
:10164000012816D14FF0800372B683F31188BFF3DF
:101650006F8FBFF34F8F62B64FF0FF32104B1A609F
:101660000122104B1A6000220F4B1A600F4B984753
:101670000BE050B94FF0800372B683F31188BFF3CB
:101680006F8FBFF34F8F62B6FEE704B010BD00BF8F
:10169000051A4000F89B4000F91340000920400063
:1016A00014C2402058C1402010C240203D094000D3
:1016B000024A136801331360704700BF0CC2402018
:1016C000014B1868704700BF10C240202DE9F04759
:1016D0003D4B1B68002B6AD13C4B1A6801321A60E3
:1016E0001E68D6B93A4B1B681B6853B14FF0800394
:1016F00072B683F31188BFF36F8FBFF34F8F62B65B
:10170000FEE7334A1168334B186810601960324A9B
:10171000136801331360314B9847314B1B689E426D
:1017200001D2002437E00024DFF8A490DFF8CC8059
:101730002C4FD9F800301B6823B94FF0FF32284BEB
:101740001A6028E0D9F80030DB68DD686B689E42DB
:1017500002D2234A13601EE005F1040A5046C04736
:10176000AB6A13B105F11800C047E86A3B68012273
:10177000824013433B6000EB80001B4B03EB800077
:1017800051461A4B98471A4B1B68EA6ADB6A9A4221
:1017900028BF0124CDE7164B1B68DB6A03EB8303EC
:1017A000114A52F82330022B28BF012404E0114AC9
:1017B00013680133136000240F4B1B68002B0CBF10
:1017C00020460120BDE8F0870CC2402010C2402016
:1017D00054C1402074C1402050C1402075134000C6
:1017E00014C2402048C240207CC14020010B400070
:1017F000F4C1402078C140204CC240204D0B400035
:101800002DE9F843364B1B6853B94FF0800372B68D
:1018100083F31188BFF36F8FBFF34F8F62B6FEE77C
:10182000304B98472E4B1A68013A1A601B68002B00
:101830004DD12D4B1B680BBB00244BE0FB68DC68D3
:1018400004F11800B04704F104084046B047E06ACC
:101850002B680122824013432B6000EB800009EBD0
:1018600080004146214B9847214B1B68E26ADB6AA6
:101870009A4208D301221F4B1A6004E01E4F1F4EEC
:101880001F4DDFF890903B68002BD7D11D4B1B6894
:101890007BB11C4B1B6863B11B4E164D194CB047F6
:1018A00008B101232B602368013B23602368002BD0
:1018B000F5D1104B1B68012B0BD14FF08052134B0D
:1018C0001A60BFF34F8FBFF36F8F012402E0002433
:1018D00000E000240E4B98472046BDE8F88300BF87
:1018E0000CC240200D0840001CC24020010B4000EB
:1018F000F4C140204CC24020F8C140204D0B4000B4
:1019000048C2402078C14020CD16400004ED00E0E0
:10191000590840007CC1402038B550B94FF08003D1
:1019200072B683F31188BFF36F8FBFF34F8F62B628
:10193000FEE7054651B94FF0800372B683F3118874
:10194000BFF36F8FBFF34F8F62B6FEE7244B1B6868
:1019500053B14FF0800372B683F31188BFF36F8FDA
:10196000BFF34F8F62B6FEE70C461E4B98471E4BE7
:101970001A682B681C449A4207D2A34294BF0023E2
:101980000123A24228BF002308E0A2422CBF00226C
:101990000122A34294BF134642F001032C6093B18D
:1019A000124B18680430124B984748B90F4B1A680D
:1019B00010490B68D06A0122824023EA02030B60BF
:1019C00020460D4B98470D4B984738B94FF0805241
:1019D0000B4B1A60BFF34F8FBFF36F8F38BD00BF43
:1019E0000CC24020B116400010C24020F4C140207B
:1019F0004D0B400048C24020A11340000118400098
:101A000004ED00E080B5184D184EDFF88080184FC7
:101A100019E0C0473468B847ACB1164B9847F36833
:101A2000DC68201D144B9847144A1368013B13606F
:101A30002B68013B2B60124B9847206BDFF85090CE
:101A4000C8472046C8472B68002BE2D10D4B1B68C6
:101A5000012BF8D94FF080520B4B1A60BFF34F8F18
:101A6000BFF36F8FD1E700BF5CC14020E0C14020D1
:101A7000011840000D0840004D0B40001CC24020E2
:101A8000590840007CC1402004ED00E0B116400040
:101A9000C50A4000204B1B681BB101221F4B1A6076
:101AA000704700221D4B1A601D4B1B68B3FA83F36D
:101AB000DBB2C3F11F0303EB83011A4A52F8212062
:101AC00052B94FF0800372B683F31188BFF36F8F62
:101AD000BFF34F8F62B6FEE710B4124A9900C818E0
:101AE00002EB800044686468446002460832944215
:101AF00006D1606803EB83010A4A02EB8102506061
:101B000003EB8303074A02EB83035B68DA68064B47
:101B10001A605DF8044B70470CC240204CC2402054
:101B200048C240207CC14020F4C1402038B550B9A3
:101B30004FF0800372B683F31188BFF36F8FBFF34A
:101B40004F8F62B6FEE70C46114D29681831114BD4
:101B5000984728680430104B984740B92A680F49C5
:101B60000B68D06A0122824023EA02030B60B4F1C1
:101B7000FF3F06D1064B196809480431094B9847C5
:101B800038BD094B18682044084B984738BD00BF42
:101B9000F4C14020190B40004D0B400048C24020CA
:101BA00034C24020010B400010C24020A11340006D
:101BB00050B94FF0800372B683F31188BFF36F8F73
:101BC000BFF34F8F62B6FEE770B515460C46114E57
:101BD00031681831104B9847306804300F4B9847E4
:101BE00040B932680E490B68D06A0122824023EA6C
:101BF00002030B60012D06D1064B19680948043118
:101C0000054B984770BD084B18682044074B984710
:101C100070BD00BFF4C14020010B40004D0B4000DF
:101C200048C2402034C2402010C24020A1134000CE
:101C300038B5C368DC6854B94FF0800372B683F3DB
:101C40001188BFF36F8FBFF34F8F62B6FEE704F1C9
:101C500018052846144B9847144B1B689BB9251D43
:101C60002846114B9847E06A11490B6801228240CF
:101C700013430B6000EB80000E4B03EB8000294602
:101C80000D4B984703E00D4829460B4B98470C4BEA
:101C90001B68E26ADB6A9A4203D90120094B18608B
:101CA00038BD002038BD00BF4D0B40000CC24020A5
:101CB00048C240207CC14020010B4000F8C14020B8
:101CC000F4C140204CC2402050B94FF0800372B69E
:101CD00083F31188BFF36F8FBFF34F8F62B6FEE7B8
:101CE000034A12680260034A12684260704700BFEC
:101CF00050C1402010C2402038B550B94FF0800389
:101D000072B683F31188BFF36F8FBFF34F8F62B644
:101D1000FEE7044651B94FF0800372B683F3118891
:101D2000BFF36F8FBFF34F8F62B6FEE70D46124BC6
:101D30009847124B19682B68B3F1FF3F13D0104A34
:101D400012682068904202D0626891420DD26268A7
:101D5000881A83420BD9521A13442B602046094B30
:101D60009847002404E0002402E0012400E001245C
:101D7000054B9847204638BD0D08400010C2402052
:101D800050C14020C91C4000590840000122014BAD
:101D90001A6070474CC24020054B1B6833B1054B9D
:101DA0001B68002B0CBF02200020704701207047E9
:101DB00058C140200CC24020002845D038B5034609
:101DC000C26A22490968C96A8A423CD281690029EB
:101DD00005DB1E490968C96AC1F10501816102EB91
:101DE00082021B4901EB82025969914227D11C46AC
:101DF0001D1D2846174B984770B9E36A03EB830112
:101E0000134A52F821203AB913480268012101FA15
:101E100003F322EA030303600C4B1B68D86AE062F9
:101E20000D490A680123834013430B6000EB8000D7
:101E3000074B03EB80002946084B984738BD034AFF
:101E40001268D26ADA6238BD704700BFF4C1402020
:101E50007CC140204D0B400048C24020010B400097
:101E600000284ED038B5294A126890420AD04FF067
:101E7000800372B683F31188BFF36F8FBFF34F8F68
:101E800062B6FEE7C26C52B94FF0800372B683F3BC
:101E90001188BFF36F8FBFF34F8F62B6FEE7013A31
:101EA000C264002A2FD1C16A826C91422BD00446B1
:101EB000051D2846164B984768B9E16A01EB810277
:101EC000144B53F8223033B91348036801228A4077
:101ED00023EA02030360A06CE062C0F10503A36182
:101EE0000D4A1368012404FA00F10B43136000EB60
:101EF0008000084B03EB80002946084B984720469A
:101F000038BD00207047002038BD00BFF4C140201C
:101F10004D0B40007CC1402048C24020010B4000D6
:101F2000054B1B6823B1044B1A68D36C0133D3648F
:101F3000014B1868704700BFF4C1402010B504463B
:101F40004160206191420AD8D21A83699A4211D223
:101F50000A4B1868211D0A4B9847002010BD994272
:101F600001D39A4208D3074B1868211D044B9847A8
:101F7000002010BD012010BD012010BD84C24020F2
:101F8000190B400050C2402070B5144B9847144BB9
:101F90001B6803BB134D2846134EB047134C204615
:101FA000B047134B1D60134B1C600520102100220D
:101FB000114B98470A4B186050B94FF0800372B626
:101FC00083F31188BFF36F8FBFF34F8F62B6FEE7C5
:101FD0000A490B4B98470B4B984770BD0D084000C2
:101FE00080C2402054C24020E10A400068C2402024
:101FF00050C2402084C24020D50D4000109C4000BB
:10200000F11240005908400010B584B00F4B9847BA
:102010000F4B1B6863B104230093002301930293C9
:1020200003930C480C494FF482720C4CA04750B9F2
:102030004FF0800372B683F31188BFF36F8FBFF345
:102040004F8F62B6FEE704B010BD00BF891F40008D
:1020500080C2402099214000189C4000F9134000A4
:1020600050B94FF0800372B683F31188BFF36F8FBE
:10207000BFF34F8F62B6FEE730B585B01546044614
:10208000124A1068F0B11A46009101950294052990
:1020900013DC0F4B9847022807D10C4B1868694690
:1020A000089A00230B4CA0470DE0084B18686946BE
:1020B00000221346074CA04705E069460023064C62
:1020C000A04700E0002005B030BD00BF80C2402026
:1020D000991D4000590E4000351040002DE9F04791
:1020E00082B08046254B98470746254B1B6898428F
:1020F0003BD22BE0DB68D3F800A0DC6804F10409D4
:102100004846B047636A20469847E369012B1FD1D0
:10211000A3695344534506D963602461286849463E
:10212000184B984714E00023009320461946524666
:10213000154CA04760B94FF0800372B683F3118845
:10214000BFF36F8FBFF34F8F62B6FEE70F4D104E98
:102150002B681A68002ACDD10E4A10680B49086016
:1021600013600123C8F8003002E00023C8F80030F3
:10217000034B1F60384602B0BDE8F087C11640002F
:102180007CC24020190B40006120400050C240201A
:102190004D0B400084C240202DE9F04389B0694CCA
:1021A000694F6A4D6A4B1B681A68002A00F0BF80AD
:1021B000DB681E68674B984704A8674B98478046C2
:1021C000049B002B4DD1B04239D3644B9847604BF0
:1021D0001B68DB68D3F80C9009F10400604B98474A
:1021E000D9F81C30012B1DD1D9F8181048463144BC
:1021F00042463346DFF878C1E047012812D1002378
:102200000093484619463246564EB04750B94FF0F3
:10221000800372B683F31188BFF36F8FBFF34F8FC4
:1022200062B6FEE7D9F824304846984777E04E4B2F
:102230001B681A68B2FA82F25209002600E00022F6
:102240002068C8EB0601494B9847444B9847002843
:1022500065D14FF080533B60BFF34F8FBFF36F8F5B
:102260005DE03E4B98475AE0049B002B06DA069847
:102270000799059B9847049B002B50DB069E7369CA
:1022800013B1301D364B984703A8334B9847864609
:10229000049A092A43D8DFE802F0050505422A3FDF
:1022A0000505422A059BB169304619447246DFF89C
:1022B000C0C0E047012832D1736A30469847F369BD
:1022C000012B2CD1B2690023009330461946059E9C
:1022D0003244244EB04710BB4FF0800372B683F3F4
:1022E0001188BFF36F8FBFF34F8F62B6FEE705997A
:1022F000B16151B94FF0800372B683F31188BFF317
:102300006F8FBFF34F8F62B6FEE73046714472465F
:102310007346174EB04702E03046164B9847206888
:1023200004A900221346A84700289DD13AE7094B8B
:10233000984704A8084B98478046049B002B3FF41D
:1023400076AF8EE780C2402004ED00E02D11400002
:1023500050C24020B1164000DD204000011840006E
:102360004D0B40006120400084C2402025134000F6
:102370003D1F4000C50A400010B51048104B98475B
:1023800000203E210F4B98470F4CA0470028FCD05F
:102390000E4B98470E4A0F4B9A620F4CA0470028ED
:1023A000FCD002200D4B984700200D4B98470D4B59
:1023B00098470248024B984710BD00BF00A3E111A7
:1023C000A52E400071254000C5254000D5254000C0
:1023D000013F182000060E40E5254000D1244000B2
:1023E00009254000912D40000AB141667047016601
:1023F000704700BF01637047416370474264B1F1A9
:10240000C05F2FD007D8B1F1006F14D0B1F1805F59
:102410001ED039B97047B1F1205F37D004D8B1F17F
:10242000005F29D042607047B1F1405F2ED0B1F11A
:10243000605F2BD0F6E710B4016F046FD3432140E7
:1024400019400167416F446F21400B4043671AE018
:10245000036F13430367436F416F0B4023EA02038B
:102460004367DFE7036F016F0B4023EA0203036753
:10247000436F13434367D5E7036F13430367436F0A
:1024800013434367CEE742605DF8044B704700BFDB
:1024900010B44164019C0CB1416600E001660BB1CF
:1024A000016500E041650AB1016300E0416301613B
:1024B00001605DF8044B704712B1C0F8941070478A
:1024C000C0F89010704700BFC06C7047806C7047B8
:1024D000032807D0042808D002280CBF4FF48071CD
:1024E000002104E04FF4407101E04FF40071054A0F
:1024F000136B23F440730B431363936E13F0080FB5
:10250000FBD0704700060E40184A136B23F070038F
:1025100018431063936E13F0080F03D009E0013BDA
:1025200003D11EE04FF4006310498A6E12F0080FC9
:10253000F5D00E4A136B23F0030343F00203136339
:10254000906E10F0080004D000207047013B03D1CA
:1025500009E04FF4006305498A6E12F0080FF5D0C8
:102560007047012070470120704700BF00060E40F1
:1025700038B10E490B6A0E4A1A400E4B13430B62D8
:1025800070470A48036A0C4A1A400C4B134309026D
:1025900089B2194301620246936E13F0010FFBD01A
:1025A000024A116A064B0B431362704700060E4045
:1025B000FCFFC8FE02003701FCFFC8FF0100370026
:1025C00000003701024B986E00F48030704700BF66
:1025D00000060E404FF00052014B9A62704700BF58
:1025E00000060E40024B986E00F00200704700BFDC
:1025F00000060E403F281ED81F280CD8114B9A69A0
:10260000012383401A40934217D0012383400D4A8F
:102610001361002070470B4BD3F8082120380123A9
:1026200083401A4093420AD001238340054AC2F8EE
:1026300000310020704701207047002070470020C3
:10264000704700BF00060E4008230360202303608C
:1026500004230360704700BF0F4B994219D849000B
:10266000B2FBF1F2043AFF2A07D9002301335208E2
:10267000062B03D8FF2AF9D800E00023110289B203
:102680001B0403F4E0230B43D2B21A43026100207F
:1026900070470120704700BF801A060008B50A463F
:1026A0004FF0FF318162016A80210160016B0821D6
:1026B0000160202101600421016051681268034B10
:1026C0009847012814BF0020012008BD592640006A
:1026D000F0B4CA688C68002A47D0002646604B6870
:1026E0001B0203F4407343F480550B7C1B0403F47A
:1026F000FE032B434360C6604D685DB10B78012D2E
:1027000002DD4E7846EA0323022D04DD897841EA92
:10271000032300E00023C3600123036043F69826EF
:10272000022714E0036A13F4807F20D1013920D0FE
:10273000012A04D1076013F0020FF3D01DE013F05B
:10274000020F0AD0036B04F8013B013A07D0036A79
:1027500013F480750FD13146EAE7002AE2D1036A0B
:1027600013F0010FFBD0036A0AE0012508E00525FC
:1027700006E0092504E0052502E0036B2370EEE77F
:102780002846F0BC704700BF0346CA688868002A24
:1027900040D070B400265E600C7C240404F4FE0576
:1027A0004C68240204F440742C435C60DE604D6885
:1027B0005DB10C78012D02DD4E7846EA0424022D2D
:1027C00004DD897841EA042400E00024DC600BE0A9
:1027D000196A11F4807F1FD111F0040FF8D010F89E
:1027E000011B5963013A07D0196A11F4807F15D192
:1027F00011F0040FECD0F2E71A6A12F480700FD1D6
:1028000012F0040FF8D002221A601A6A12F0010FB7
:10281000FBD006E001207047052002E0052000E023
:10282000052070BC704700BF10B4AC2303600B6878
:102830004A68B3FBF2F31B095C1E4FF6FE7294422A
:1028400006D803628B68436050230360002000E0D9
:1028500001205DF8044B704740230360704700BFC0
:1028600010230360704700BF50230360704700BF10
:102870004069C0F34000704701627047436913F03C
:10288000020F02D0C161002070470120704700BFD5
:102890002DE9F04F97B0AD480021AD4B9847AD4BB7
:1028A0009847DFF8308313AD98E8070085E8070004
:1028B0002E20A94FB8472E20B847A84C20462946BD
:1028C000A74B98472046A74B98472046A64B9847CA
:1028D0002046A64B984720464FF47A71A44B984760
:1028E0001020B847A3484FF0C051A34AA34EB047A9
:1028F000A348DFF8E4A2D047A2484FF060514FF45C
:102900008052B0470A20B8470B20B84700240094F3
:102910009D484FF08051224623469C4DA847009485
:1029200099484FF0005122462346A8470094964804
:102930004FF0804122462346A847009492484FF02A
:10294000007122462346A84700948E484FF4005158
:1029500022462346A84700948B480421224623465A
:10296000A847009488484FF0004122462346A847D4
:1029700000948548402122462346A8478448D047F2
:102980008448854B98474FF0010B844B83F800B087
:10299000BFF35F8F62B68248D04708F10C0898E811
:1029A000070010AB83E807003E20B8470C20B8476B
:1029B0001020B8471120B847DFF8208279484FF03F
:1029C00000614246B047774841465A46DFF81092C8
:1029D000C847744874492246DFF80882C0476A48ED
:1029E0004FF000614FF4C032B04767484FF4C03138
:1029F0002246C84764484FF4C0315A46C04762482F
:102A00004FF0C051694AB0475F4868495A46C847C5
:102A10005D4866492246C04756484FF0C051644A57
:102A2000B047544862495A46C8475248604922460E
:102A3000C04760484FF000613F22B0475D483F21EA
:102A40005A46C8475B483F212246C0475A4AD2F8F7
:102A5000243143F01003C2F8243152484FF0006192
:102A60004FF40042B047DFF880B110A85946534BED
:102A700098475348D04700943E484FF08061224623
:102A80002346A8473B484FF08061DFF86091C84774
:102A900000943D484FF0806122462346A8473A48BB
:102AA0004FF08061474B98471320B84736484FF0A6
:102AB00000611822B04700942E484FF080612246F2
:102AC0002346A8472B484FF08061C847DFF820A174
:102AD00050463D4B9847CDF834B042F210730E93F8
:102AE00050460DA9394B98474020DFF808A1D04740
:102AF0004120D047DFF800A11E484FF00051524658
:102B0000B0471C4851462246C0471E484FF000516E
:102B10000822B0471B4808212246C047DFF8DCA046
:102B200019484FF000515246B047174851462246C7
:102B3000C0473B20B847264B984700940D484FF4B8
:102B4000806122462346A8475AE000BF10180E4075
:102B50002107400079234000F5254000001E0E406B
:102B60002928400069284000592840006128400079
:102B70007928400000140E4008000400FD234000A6
:102B8000389C400000100E40000E0E409124400082
:102B9000589C400050180E404D0740001000402047
:102BA0006C9C400000120E40FF80FCFF01001C00E6
:102BB00000E0832000160E4000800840E50540003C
:102BC000849C4000F9234000492640009D26400097
:102BD000F9304000209C40009D014000FF00FCFFB8
:102BE000B9244000E923400000A3E111F52340008F
:102BF00000800140213040000018601B20020009C5
:102C000031484FF48061C847304B013BFDD1002370
:102C10008DF80C308DF80D308DF80E308DF80F30AA
:102C200004932B4A09920124059406940793089370
:102C3000284E30464FF000614FF41E32264DA84713
:102C400030464FF41E312246244B98471E484FF021
:102C500000614FF00042A8472B20214B98470222E9
:102C6000204B1A601A46136913F0807FFBD11D4C6C
:102C700080232360204603A91B4B98470123236030
:102C80002246136913F0807FFBD00222154B1A6095
:102C90001A46136913F0807FFBD1124C8023236006
:102CA000204603A9104B98471048114B9847012321
:102CB00023602246136913F0807FFBD00B480C4B36
:102CC000984717B0BDE8F08F00140E40809698002A
:102CD00040420F00000E0E40FD234000E92340005B
:102CE000F525400000C0074099024000252B4D000B
:102CF00001004020FEE700BF08B5194B194A9A426F
:102D000003D0194B164A9A4204D3184B184A9A42D8
:102D100010D31BE012490A1D164B9B1A23F0030324
:102D20000433104A134452F8040B41F8040B9A423E
:102D3000F9D1EAE7104B114AD21A22F003021A44E1
:102D4000043B002143F8041B9342FBD10C4A0D4B7A
:102D500023F07F0393600C4B98470C4B9847FEE79A
:102D600000004020CC9F4000B40840200CC340200D
:102D7000B4084020B7084020B80840200FC34020C6
:102D800000ED00E000004000B53E4000B9344000D6
:102D90003D4B1B6B03F00303012B12D013B1022B2D
:102DA0002CD05AE0394B5B6913F0800F04D04FF4FC
:102DB0000042374B1A6050E04FF4FA42344B1A602D
:102DC0004BE0314B1B6A13F0807F03D0314A304B0C
:102DD0001A6042E0304A2E4B1A602B4B1B6A03F0FC
:102DE0007003102B02D0202B04D036E02B4A284B46
:102DF0001A6032E0274A264B1A602EE0224B1B6AEB
:102E000013F0807F03D0234A214B1A6012E0224A3C
:102E10001F4B1A601C4B1B6A03F07003102B02D06F
:102E2000202B04D006E01D4A194B1A6002E0194A13
:102E3000174B1A60144B1B6B03F00303022B0CD1CE
:102E4000114A936A926A1248C3F30A41036801FB6C
:102E50000333D2B2B3FBF2F303600B4B1B6B03F0F3
:102E60007003702B07D10A4A13680D49A1FB0313A5
:102E70005B0813607047044B1A6B0549C2F30212DA
:102E80000B68D3400B60704700060E4010180E40D0
:102E900014004020001BB70000093D0000127A001A
:102EA000ABAAAAAA144B984204D84FF08062134BE5
:102EB0001A607047124B984203D8124A0F4B1A609F
:102EC0007047114B984203D8104A0C4B1A60704758
:102ED0000F4B984203D80F4A084B1A6070470E4BAD
:102EE000984204D84FF00422044B1A6070470B4AF2
:102EF000024B1A60704700BFFF2C3101000C0E40DE
:102F0000FF59620200010004FF86930300020004DF
:102F1000FFB3C40400030004FFE0F505000500044E
:102F2000094B1B6813B9094A074B1A60064B1B680B
:102F30001A180749914204DB1046034A10601846EC
:102F400070474FF0FF30704788C2402010E54020A6
:102F5000FCFF45204FF0FF30704700BF4FF0FF30BF
:102F6000704700BF4FF0FF30704700BF4FF4005371
:102F70004B600020704700BF012070470020704761
:102F800008B501460148024B9847FEE7A09C400067
:102F9000053F4000704700BF4FF0FF30704700BF53
:102FA00000B589B08DF807200023039307938DF8AF
:102FB0000C10012304930DF10702059206938DF87E
:102FC0001C00054803A9054B984710B10448054B60
:102FD000984709B05DF804FB008001408927400054
:102FE000EC9C40009D01400000B587B00023059394
:102FF000009304938DF800100123019305AA029217
:1030000003938DF8100004486946044B98470598CF
:1030100007B05DF804FB00BF00800140D1264000EE
:103020002DE9F04186B0C4B2204600212A4FB847AE
:103030000246DFF8BC8001A84146284DA84701A8F8
:10304000274EB04720460121B847024601A8414615
:10305000A84701A8B04720461E21B847024601A84C
:103060004146A84701A8B0472046FE21B84702467E
:1030700001A84146A84701A8B0474CF28E50194F0D
:10308000B847204600211022174DA847DFF864807A
:103090004046B8472046FE218022A8474046B84710
:1030A000204600210A46A847204600211022A847B2
:1030B000204601210422A847204600210A46A847AD
:1030C0004046B847204600218022A8470748B0471D
:1030D00006B0BDE8F08100BFE92F4000014140008B
:1030E0009D01400001004020A12F4000009D4000B4
:1030F000F89C40001B8B010010B53020122180226B
:103100006D4CA047302011218122A04730206B2137
:103110004A22A04730203B210122A04730206A21CB
:103120008322A04730201321E222A0473020102123
:103130000022A047302000210A46A047302001216C
:103140008022A047302002218022A0473020132176
:10315000E722A047302039215022A04730203821D3
:103160009322A047302037210022A047302035216C
:103170008122A04730200E21A022A0473020A82184
:103180008022A047302012210522A04730200421B0
:103190000022A04730200C210022A04730200D2122
:1031A0000022A04730201821BB22A0473020172141
:1031B0001B22A04730203221A422A0473020192111
:1031C0000122A04730201A218122A047302003216C
:1031D0001222A04730201B210022A04730201621B8
:1031E0000722A04730203321E222A047302034219B
:1031F000BF22A047302041210022A0473020962145
:103200000422A04730203D211922A0473020692107
:103210004022A04730203A210D22A04730208E21A5
:103220000022A04730203C217322A04730208F216C
:10323000DF22A04730208B210622A04730208C219E
:103240002022A047302094218822A04730209521B9
:103250008822A04730204021C122A04730202921C8
:103260003F22A04730200F214222A0473020A52135
:103270008022A04730201E210422A0473020A9210F
:10328000B822A0473020AA219222A0473020AB21AB
:103290000A22A047302024216822A047302025217F
:1032A0005C22A04730202621C322A04730201421D1
:1032B0002E22A04710BD00BFA12F40002DE9F04FE6
:1032C0008FB06D486D4B98476D4B98470D906D488A
:1032D0004FF080516C4B98474FF000080124DFF805
:1032E000A4A1DFF8D0B1002C5FD050464FF0805140
:1032F000654B9847E6238DF8203008278DF821701C
:10330000F0238DF8223000248DF823408DF82440DE
:103310008DF825405D4D284608A901225C4EB04736
:1033200028460DF121010122B04728460DF1220166
:103330000122B04728460DF123010122B04728465B
:1033400009A90122B04728460DF125010122B04705
:103350005048514B9847089409940A940B940C9444
:1033600066238DF820308DF82170284608A90122A7
:10337000B04728460DF121010122B047284608A98F
:103380000422464B98479DF823209DF822309DF853
:10339000211000919DF82010019103A84049414D52
:1033A000A84703A8354B98475FE050464FF080513F
:1033B000D84708F101085FFA88F8002508950995B3
:1033C0000A950B950C95E6238DF820300C238DF88B
:1033D000213008F00303012404FA03F363F00F0320
:1033E0008DF82230294E304608A92246284FB8478A
:1033F00030460DF121012246B84730460DF1220139
:103400002246B84730460DF123012246B8473046E0
:1034100009A92246B84730460DF125012246B84792
:103420001C48DFF87490C847089509950A950B95D4
:103430000C951D48C847304608A92246B847304673
:1034400008A90422154B98479DF823209DF82230A7
:103450009DF8211000919DF82010019103A81349B7
:10346000104DA84703A8054B98470DA84FF4C87105
:103470000F4B984737E700BF209D40009D0140005B
:10348000C1164000000E0E40F523400000C007406A
:1034900041054000252B4D0001004020190440004B
:1034A000309D400001414000CA4A1300549D400035
:1034B00019194000F923400070B584B00D4B9847AE
:1034C0000D480E4DA8470223009300240194029456
:1034D00003940B480B494FF4C87223460A4EB04779
:1034E0000A48A8470A4B98470A48A847204604B00C
:1034F00070BD00BF91284000789D40009D014000B4
:10350000BD324000909D4000F9134000989D40005E
:1035100021164000A89D4000B0FA80F031F0004133
:103520004FEA501002D108B102207047A1F5801275
:10353000084B9A4201D804207047B1F5801F01D290
:1035400003207047044B994214BF002000F0010093
:10355000704700BFFFFFDF7F0000F07F81F0004178
:1035600002E000BF83F0004330B54FEA41044FEA68
:10357000430594EA050F08BF90EA020F1FBF54EA03
:10358000000C55EA020C7FEA645C7FEA655C00F09F
:10359000E2804FEA5454D4EB5555B8BF6D420CDD70
:1035A0002C4480EA020281EA030382EA000083EAF3
:1035B000010180EA020281EA0303362D88BF30BD93
:1035C00011F0004F4FEA01314FF4801C4CEA1131E9
:1035D00002D0404261EB410113F0004F4FEA033348
:1035E0004CEA133302D0524263EB430394EA050FD3
:1035F00000F0A780A4F10104D5F1200E0DDB02FA42
:103600000EFC22FA05F2801841F1000103FA0EF2D5
:10361000801843FA05F359410EE0A5F120050EF19B
:10362000200E012A03FA0EFC28BF4CF0020C43FACC
:1036300005F3C01851EBE37101F0004507D54FF0D9
:10364000000EDCF1000C7EEB00006EEB0101B1F529
:10365000801F1BD3B1F5001F0CD349085FEA30006F
:103660004FEA3C0C04F101044FEA445212F5800F7A
:1036700080F09A80BCF1004F08BF5FEA500C50F117
:10368000000041EB045141EA050130BD5FEA4C0CFA
:10369000404141EB010111F4801FA4F10104E9D183
:1036A00091F0000F04BF01460020B1FA81F308BF7A
:1036B0002033A3F10B03B3F120020CDA0C3208DD46
:1036C00002F1140CC2F10C0201FA0CF021FA02F121
:1036D0000CE002F11402D8BFC2F1200C01FA02F191
:1036E00020FA0CFCDCBF41EA0C019040E41AA2BFB6
:1036F00001EB0451294330BD6FEA04041F3C1CDA7E
:103700000C340EDC04F11404C4F1200220FA04F09D
:1037100001FA02F340EA030021FA04F345EA030147
:1037200030BDC4F10C04C4F1200220FA02F001FA09
:1037300004F340EA0300294630BD21FA04F029468B
:1037400030BD94F0000F83F4801306BF81F4801124
:103750000134013D4EE77FEA645C18BF7FEA655C97
:1037600029D094EA050F08BF90EA020F05D054EA69
:10377000000C04BF1946104630BD91EA030F1EBF6E
:103780000021002030BD5FEA545C05D14000494172
:1037900028BF41F0004130BD14F580043CBF01F565
:1037A000801130BD01F0004545F0FE4141F470014B
:1037B0004FF0000030BD7FEA645C1ABF1946104626
:1037C0007FEA655C1CBF0B46024650EA013406BF27
:1037D00052EA033591EA030F41F4002130BD00BFE6
:1037E00090F0000F04BF0021704730B54FF48064A3
:1037F00004F132044FF000054FF0000150E700BF24
:1038000090F0000F04BF0021704730B54FF4806482
:1038100004F1320410F0004548BF40424FF000016F
:103820003EE700BF42004FEAE2014FEA31014FEAB2
:1038300002701FBF12F07F4393F07F4F81F0605101
:10384000704792F0000F14BF93F07F4F704730B570
:103850004FF4607401F0004521F0004120E700BF03
:1038600050EA010208BF704730B54FF000050AE08A
:1038700050EA010208BF704730B511F0004502D58B
:10388000404261EB41014FF4806404F132045FEA8D
:10389000915C3FF4DCAE4FF003025FEADC0C18BF32
:1038A00003325FEADC0C18BF033202EBDC02C2F128
:1038B000200300FA03FC20FA02F001FA03FE40EABA
:1038C0000E0021FA02F11444C1E600BF70B54FF0BA
:1038D000FF0C4CF4E06C1CEA11541DBF1CEA13559C
:1038E00094EA0C0F95EA0C0F00F0DEF82C4481EA04
:1038F000030621EA4C5123EA4C5350EA013518BF24
:1039000052EA033541F4801143F4801338D0A0FB10
:1039100002CE4FF00005E1FB02E506F00042E0FBBD
:1039200003E54FF00006E1FB03569CF0000F18BFC3
:103930004EF0010EA4F1FF04B6F5007F64F540746B
:1039400004D25FEA4E0E6D4146EB060642EAC621FE
:1039500041EA55514FEAC52040EA5E504FEACE2E6B
:10396000B4F1FD0C88BFBCF5E06F1ED8BEF1004F6E
:1039700008BF5FEA500E50F1000041EB045170BDEA
:1039800006F0004646EA010140EA020081EA03012E
:10399000B4EB5C04C2BFD4EB0C0541EA045170BD2A
:1039A00041F480114FF0000E013C00F3AB8014F1A4
:1039B000360FDEBF002001F0004170BDC4F10004ED
:1039C000203C35DA0C341BDC04F11404C4F120056E
:1039D00000FA05F320FA04F001FA05F240EA0200C9
:1039E00001F0004221F0004110EBD37021FA04F6FF
:1039F00042EB06015EEA430E08BF20EAD37070BDB9
:103A0000C4F10C04C4F1200500FA04F320FA05F017
:103A100001FA04F240EA020001F0004110EBD37019
:103A200041F100015EEA430E08BF20EAD37070BD89
:103A3000C4F1200500FA05F24EEA020E20FA04F362
:103A400001FA05F243EA020321FA04F001F0004111
:103A500021FA04F220EA020000EBD3705EEA430E82
:103A600008BF20EAD37070BD94F0000F0FD101F0B1
:103A70000046400041EB010111F4801F08BF013CEA
:103A8000F7D041EA060195F0000F18BF704703F028
:103A90000046520043EB030313F4801F08BF013DAF
:103AA000F7D043EA0603704794EA0C0F0CEA13556B
:103AB00018BF95EA0C0F0CD050EA410618BF52EA25
:103AC0004306D1D181EA030101F000414FF000002B
:103AD00070BD50EA410606BF1046194652EA430639
:103AE00019D094EA0C0F02D150EA013613D195EAAD
:103AF0000C0F05D152EA03361CBF104619460AD1F5
:103B000081EA030101F0004141F0FE4141F47001FE
:103B10004FF0000070BD41F0FE4141F4780170BDEE
:103B200070B54FF0FF0C4CF4E06C1CEA11541DBF53
:103B30001CEA135594EA0C0F95EA0C0F00F0A7F855
:103B4000A4EB050481EA030E52EA03354FEA013182
:103B500000F088804FEA03334FF0805545EA131395
:103B600043EA12634FEA022245EA111545EA10655D
:103B70004FEA00260EF000419D4208BF964244F1F4
:103B8000FD0404F5407402D25B084FEA3202B61A13
:103B900065EB03055B084FEA32024FF480104FF4E7
:103BA000002CB6EB020E75EB030E22BFB61A75465B
:103BB00040EA0C005B084FEA3202B6EB020E75EBEE
:103BC000030E22BFB61A754640EA5C005B084FEA56
:103BD0003202B6EB020E75EB030E22BFB61A754623
:103BE00040EA9C005B084FEA3202B6EB020E75EB2E
:103BF000030E22BFB61A754640EADC0055EA060EEF
:103C000018D04FEA051545EA16754FEA06164FEA31
:103C1000C30343EA52734FEAC2025FEA1C1CC0D1DD
:103C200011F4801F0BD141EA00014FF000004FF06A
:103C3000004CB6E711F4801F04BF01430020B4F12B
:103C4000FD0C88BFBCF5E06F3FF6AFAEB5EB030CE3
:103C500004BFB6EB020C5FEA500C50F1000041EBE0
:103C6000045170BD0EF0004E4EEA113114EB5C04AD
:103C7000C2BFD4EB0C0541EA045170BD41F4801180
:103C80004FF0000E013C90E645EA060E8DE60CEA88
:103C9000135594EA0C0F08BF95EA0C0F3FF43BAFA5
:103CA00094EA0C0F0AD150EA01347FF434AF95EA5C
:103CB0000C0F7FF425AF104619462CE795EA0C0F40
:103CC00006D152EA03353FF4FDAE1046194622E70D
:103CD00050EA410618BF52EA43067FF4C5AE50EAE7
:103CE00041047FF40DAF52EA43057FF4EBAE12E7D7
:103CF0004FF0FF3C06E000BF4FF0010C02E000BFB8
:103D00004FF0010C4DF804CD4FEA410C7FEA6C5C9A
:103D10004FEA430C18BF7FEA6C5C1BD001B050EA3D
:103D2000410C0CBF52EA430C91EA030F02BF90EA28
:103D3000020F0020704710F1000F91EA030F58BFE7
:103D4000994208BF90422CBFD8176FEAE37040F049
:103D5000010070474FEA410C7FEA6C5C02D150EAE7
:103D6000013C07D14FEA430C7FEA6C5CD6D152EAA2
:103D7000033CD3D05DF8040B704700BF8446104667
:103D800062468C461946634600E000BF01B5FFF766
:103D9000B7FF002848BF10F1000F01BD4DF808ED36
:103DA000FFF7F4FF0CBF012000205DF808FB00BF07
:103DB0004DF808EDFFF7EAFF34BF012000205DF861
:103DC00008FB00BF4DF808EDFFF7E0FF94BF0120AE
:103DD00000205DF808FB00BF4DF808EDFFF7CEFFAF
:103DE00094BF012000205DF808FB00BF4DF808EDEE
:103DF000FFF7C4FF34BF012000205DF808FB00BFBF
:103E00004FEA410212F5001215D211D56FF4787302
:103E1000B3EB625212D94FEAC12343F0004343EAA5
:103E2000505311F0004F23FA02F018BF4042704780
:103E30004FF00000704750EA013005D111F000400A
:103E400008BF6FF0004070474FF00000704700BFA0
:103E50000A4C0546206800B5C06885B05AB11446C2
:103E6000074A02948DE806001A4606492B4600F0E0
:103E70000DF802F003FB044A1446F2E74004402028
:103E8000B89D4000C89D4000B89C40000EB410B5DD
:103E900083B0074B014605AC186854F8042B234641
:103EA000019401F045FC03B0BDE8104003B0704739
:103EB0004004402070B50F4E0F4D761BB61018BF52
:103EC000002405D0013455F8043B9847A642F9D1A7
:103ED0000A4E06F065F80A4D761BB61018BF00248E
:103EE00006D0013455F8043B9847A642F9D170BD7D
:103EF00070BD00BFAC9F4000AC9F4000B49F40002D
:103F0000AC9F40000FB410B582B0074B04AC1868EA
:103F100054F8042B81682346019401F009FC02B097
:103F2000BDE8104004B0704740044020844641EA98
:103F3000000313F003036DD1403A41D351F8043B21
:103F400040F8043B51F8043B40F8043B51F8043B73
:103F500040F8043B51F8043B40F8043B51F8043B63
:103F600040F8043B51F8043B40F8043B51F8043B53
:103F700040F8043B51F8043B40F8043B51F8043B43
:103F800040F8043B51F8043B40F8043B51F8043B33
:103F900040F8043B51F8043B40F8043B51F8043B23
:103FA00040F8043B51F8043B40F8043B51F8043B13
:103FB00040F8043B51F8043B40F8043B403ABDD282
:103FC000303211D351F8043B40F8043B51F8043B24
:103FD00040F8043B51F8043B40F8043B51F8043BE3
:103FE00040F8043B103AEDD20C3205D351F8043BB3
:103FF00040F8043B043AF9D2043208D0D2071CBF7F
:1040000011F8013B00F8013B01D30B8803806046A7
:10401000704700BF082A13D38B078DD010F003031D
:104020008AD0C3F10403D21ADB071CBF11F8013B8D
:1040300000F8013B80D331F8023B20F8023B7BE7DC
:10404000043AD9D3013A11F8013B00F8013BF9D207
:104050000B7803704B7843708B78837060467047A1
:10406000830770B449D0541E002A44D0CDB2034611
:1040700002E0002C3FD0144603F8015B13F0030F5D
:1040800004F1FF32F5D1032C2ED9CDB20F2C45EA25
:10409000052545EA054519D903F110022646103ECB
:1040A00042F8105C42F80C5C10320F2E42F8185C9B
:1040B00042F8145CF3D8A4F1100204F00F0422F0CB
:1040C0000F02032C02F1100213440DD91E462246A2
:1040D000043A46F8045B032AFAD8221F04F00304CA
:1040E00022F00302043213442CB1C9B21C4403F879
:1040F000011BA342FBD170BC704714460346C2E7C4
:104100000EB4F0B59CB0104B06464FF4027E21ACC5
:104110006FF000454FF6FF77186854F8042B02A99A
:104120000296234606960194ADF814E0049507958F
:10413000ADF8167000F038F8029B00221A701CB01F
:10414000BDE8F04003B070474004402020F0030178
:1041500010F00300C0F1000051F8043B00F1040C22
:104160004FEACC0C6FF000021CBF22FA0CF2134392
:104170004FF0010C4CEA0C2C4CEA0C4CA3EB0C025B
:1041800022EA030212EACC1204BF51F8043B0430C5
:10419000F4D0C2F1000102EA0102B2FA82F2C2F1E5
:1041A0001F0200EBD20070472DE9F04FC1B08946E5
:1041B00008920C93099003F035FE03681846169395
:1041C000FFF7C4FFB9F80C3017901D0604D5D9F8D5
:1041D0001030002B01F080800DF1C0080023C34691
:1041E000139314931293159319930A93259324937D
:1041F000CDF88C80089A1378252B00F0A6800BB997
:10420000A3E01BB112F8013F252BFAD108991446FF
:10421000551A10D0249B259A0133CBF800102A445C
:10422000CBF80450072B2493259273DC0BF1080B79
:104230000A9B2B440A932378002B73D000234FF062
:10424000FF3C611C66781A4664468DF86F300B930C
:1042500006934B1CA6F12001582900F2B283DFE837
:1042600011F01903B003B0032003B003B003B0038F
:10427000B003B003B0034002FB01B003E201FF0151
:10428000B00327032E032E032E032E032E032E032B
:104290002E032E032E03B003B003B003B003B0030C
:1042A000B003B003B003B003B0033D036503B00334
:1042B0006503B003B003B003B003FE02B003B00364
:1042C0009302B003B003B003B003B003B002B00375
:1042D000B003C602B003B003B003B003B003B00331
:1042E000B003B003B003B003EB021802650365032B
:1042F00065034E021802B003B0033602B003600239
:10430000E90199035902B0037202B0037600B003C9
:10431000B00305030998494623AA04F0F7FE40B903
:10432000C34685E7259B23B10998494623AA04F093
:10433000EDFEB9F80C3013F0400F0A9B18BF4FF098
:10434000FF33184641B0BDE8F08F089C73E708932F
:10435000A446069B980640F13E820C9F0123073736
:1043600027F0070202F10801D2E900450C91002272
:10437000CDF840C017468DF86F20BCF1000F03DB6D
:10438000069A22F080020692BCF1000F40F0AC8346
:1043900054EA050214BF01220022002A40F0A4833F
:1043A000002B40F06084069AD20740F1FD840DF5A1
:1043B000807A30230AF8413DCAEB0804CDF83CA0CE
:1043C000A4456346B8BF234607930023119317B152
:1043D000079B01330793069B13F002030D9302D052
:1043E000079B02330793069B13F084030E9340F060
:1043F00007830B9B079AC2EB030ABAF1000F40F345
:10440000FF82BAF1100F259940F3DD87BF4F1025C9
:104410001896249A3E462746099C04E0AAF1100A01
:10442000BAF1100F1BDD01321031CBF800600BF137
:10443000080B072A4BF8045C25912492EEDD2046F8
:10444000494623AAC34604F061FE00287FF471AFF9
:10445000AAF1100A2599249ABAF1100FE3DC3C4620
:104460003746189E01320AEB010CCBF80070072A80
:10447000CDF894C02492CBF804A000F3B6820BF1DF
:10448000080B9DF86F7097B1249B01220CF1010C71
:104490000DF16F011344CBF80420CDF894C0072B25
:1044A000CBF80010249300F3FB830BF1080B0D9B5A
:1044B0008BB1249B0CF1020C1CA902220133CDF814
:1044C00094C0CBF80010072B2493CBF8042000F302
:1044D000DB830BF1080B0E9B802B00F02183109BDC
:1044E0001F1B002F37DD102F249B40F3EC850D940C
:1044F0004FF0100A864D6246099C02E0103F102FD3
:1045000019DD01331032CBF800500BF1080B072BEB
:104510004BF804AC25922493F0DD2046494623AAAB
:10452000C34604F0F3FD00287FF403AF103F259A43
:10453000249B102FE5DC0D9C94460133BC44CBF842
:104540000050072BCDF894C02493CBF8047000F3EF
:104550008F830BF1080B069BDF0500F15482249B2F
:10456000A4440F9A0133CDF894C0CBF80020072B58
:10457000CBF80440249300F360830BF1080B069BF7
:104580005A0740D50B9B079A9C1A002C3BDD102C38
:10459000249B40F36B8710255C4F6246099E02E026
:1045A000103C102C19DD01331032CBF800700BF1E8
:1045B000080B072B4BF8045C25922493F0DD304662
:1045C000494623AAC34604F0A1FD00287FF4B1AEFA
:1045D000103C259A249B102CE5DC94460133A4441E
:1045E000CBF80070072BCDF894C02493CBF804408F
:1045F00009DD0998494623AA04F088FD00287FF4C4
:1046000098AEDDF894C00A9B079A0B998A42ACBF1A
:104610009B185B180A93BCF1000F40F01A8300232B
:10462000C3462493E6E5194606981E7840F0040038
:1046300006900EE60893A446069B13F0200300F0B4
:10464000AE800C9F0023073727F0070202F1080114
:10465000D2E900450C918AE61E7819462B22F8E52E
:104660001E78591C2A2E01F00680A6F130000B4658
:10467000002409283FF6EEAD04EB840413F8016B27
:1046800000EB4404A6F130000928F5D944EAE474AB
:10469000E0E50893A446069B8DF86F209C0640F148
:1046A00029810C9F073727F00707D7E9002307F177
:1046B000080114461D460C91002A73F10003C0F254
:1046C0002A819DF86F700123CDF840C055E61E7811
:1046D00006996C2E00F0578541F01001069119469D
:1046E000B7E50C9D296808460B912946002801F181
:1046F0000401C0F24F850C9119461E78A9E5069970
:1047000041F04001069119461E78A2E5109E400036
:10471000009E4000069941F02001069119461E783E
:1047200097E50893069B8DF86F209E0640F1A484C0
:104730000A990C9ACD1708461368043229460C9240
:10474000C3E9000156E50C9A002508931368171D6C
:104750008DF86F500F93002B00F07A86002C0F9885
:10476000C0F224862946224603F07EFE002800F08F
:10477000DF860F9B0C97C41A10959DF86F7024EA82
:10478000E4731195079322E60893A446069B43F031
:1047900010030693069B13F020037FF452AF069A92
:1047A00012F0100240F05283069B13F0400300F019
:1047B0004D830C99134600250A460C8804320C924E
:1047C000D5E50893A446069B43F010030693069B89
:1047D00098063FF5C2AD069BD90640F132840C9A8B
:1047E000134604321C68002501230C92BFE5089390
:1047F000A446B74B8DF86F201593069B9A063ED5BD
:104800000C9F073727F0070303F10802D3E900459F
:104810000C92069BDF0740F1688254EA050300F022
:104820006482069B30228DF8716043F002038DF89C
:104830007020069302239AE50C9901200893002327
:104840000A6804311F468DF86F30109304461193A7
:1048500026AB07900C918DF898200F93BBE5069935
:1048600041F00801069119461E78F2E40893A44627
:10487000984B8DF86F201593069B9A06C0D4069B23
:10488000DB0640F1EC830C9A0025134614680433D0
:104890000C93BEE71E781946002A7FF4DAAC20227A
:1048A000D7E4069941F00101069119461E78D0E43B
:1048B000069941F08001069119461E78C9E4A6F1D7
:1048C0003000002101EB810113F8016B00EB410185
:1048D000A6F130000928F5D90B91BBE40893A44652
:1048E000069B8DF86F2043F010030693069B9C06F1
:1048F0003FF5D7AE069BD80640F1D5830C9A1346F8
:104900001C680433E51722460C93002A2B4673F1EA
:104910000003BFF6D6AE2D276442CDF840C04FF05D
:10492000010365EB45058DF86F7026E50C9F089334
:1049300007378DF86F2027F0070303F108020C9268
:104940001A6813925B681398149314990794FEF7EE
:10495000E3FD0128DDF81CC040F0558313980022C8
:1049600000231499FFF724FA002840F082859DF86F
:104970006F7003230698584A00211C460793574B33
:1049800020F080001091472ED8BF1A460690119152
:104990000F921CE50C9D30220698A44629460893E8
:1049A000782340F0020004312C681E468DF87130E7
:1049B000484B00250690159302230C918DF870202A
:1049C000D5E408938DF86F20002E3FF4ABAC0023A4
:1049D000012226A98DF8986007921F460F91144670
:1049E0008DF86F3010931193F5E40998494623AA86
:1049F00004F08CFB00287FF49CAC9DF86F70C346DC
:104A0000DDF894C03FE5652E40F3C980139800227D
:104A100000231499CDF834C0FFF7C0F9DDF834C095
:104A2000002800F06581249B01220CF1010C2C4927
:104A30001344CBF80420CDF894C0072BCBF800101A
:104A4000249300F343830BF1080B1D9B129A9342AE
:104A500003DB069BDE077FF592AD249B179901339C
:104A6000169A8C44CBF80410072BCBF80020CDF815
:104A700094C0249300F31D840BF1080B129B5C1E61
:104A8000002C7FF77CAD102C249B40F3BC851026B6
:104A9000144D6246099F03E0103C102C40F3C8817E
:104AA00001331032CBF800500BF1080B072B4BF8F9
:104AB000046C25922493EFDD3846494623AAC34669
:104AC00004F024FB00287FF434AC259A249BE3E710
:104AD000309E4000449E4000249E4000209E4000A6
:104AE000609E4000009E4000012B00F04D81022B93
:104AF00040F0E380C2461598230904F00F012A090B
:104B000043EA057315461C46435C0AF8013D54EA26
:104B10000503F1D15346CDF83CA0C3EB08044FE4A4
:104B20000B9B079A9F1A002F7FF7D9AC102F249B5D
:104B300040F3F9840D944FF0100AC84D6246099C69
:104B400002E0103F102F19DD01331032CBF8005076
:104B50000BF1080B072B4BF804AC25922493F0DDE6
:104B60002046494623AAC34604F0D0FA00287FF421
:104B7000E0AB103F259A249B102FE5DC0D9C94465A
:104B80000133BC44CBF80050072BCDF894C02493DC
:104B9000CBF8047000F3FC810BF1080B9FE4129B2F
:104BA0000CF10106249C012B40F3C98101230F9ACB
:104BB00025961C44CBF80020CBF80430072C249415
:104BC00000F3DA810BF1080B179A0134169B164497
:104BD000072CCBF8003025962494CBF8042000F362
:104BE000BF810BF1080B0023139800221499FFF7E3
:104BF000D5F8129B002840F0DC80013B01340F9A6D
:104C00001E44072C02F1010224942596CBF80020C3
:104C1000CBF8043000F300810BF1080B199A013432
:104C20001FAB06EB020C072CCBF80420CDF894C088
:104C30002494CBF800307FF7A0AC0998494623AA0A
:104C400004F064FA00287FF474ABDDF894C0C34626
:104C500095E40998494623AA04F058FA00283FF43D
:104C6000DEACFFF766BB1446CDF83C80FFF7A8BB6F
:104C70000998494623AA04F049FA00287FF459AB61
:104C8000DDF894C0C34666E40998494623AA04F0B7
:104C90003DFA00287FF44DABDDF894C0C3461AE41A
:104CA0000998494623AA04F031FA00287FF441AB61
:104CB000DDF894C0C346FFF7FABB4146E20804F0B2
:104CC0000703E80842EA457230330546144601F806
:104CD000013D54EA0502F1D1069A0F91D00700F187
:104CE0006481C1EB0804FFF76BBB0223FFF73FBBF6
:104CF0001D9C002C40F3F681129A119913468A42AA
:104D0000A8BF0B460F991C468F18002C0EDD249B64
:104D1000A444CBF800100133CDF894C0CBF8044084
:104D2000072B249300F353830BF1080B119B002CEA
:104D3000A8BF1B1B002B1C4640F3A180102C249BFA
:104D400040F36C841026454D6246DDF824A003E054
:104D5000103C102C40F3848001331032CBF800500B
:104D60000BF1080B072B4BF8046C25922493EFDD15
:104D70005046494623AAC34604F0C8F900287FF4E8
:104D8000D8AA259A249BE3E7002D08BF0A2C80F0BF
:104D90001A810DF5807A30340AF8414DCAEB0804C7
:104DA000CDF83CA0FFF70CBB1C46CDF83C80FFF7CC
:104DB00007BB5F1E002F7FF731AF102F274DC8BFF5
:104DC0004FF0100A03DC1CE0103F102F19DD0134F6
:104DD0001036CBF800500BF1080B072C4BF804AC45
:104DE00025962494F0DD0998494623AAC34604F089
:104DF0008DF900287FF49DAA103F259E249C102F3A
:104E0000E5DC01343E44CBF80050072C2596249471
:104E1000CBF804707FF700AF0998494623AA04F045
:104E200075F900287FF485AA259EC346249CF5E6E3
:104E300094460133A444CBF80050072BCDF894C01E
:104E40002493CBF804407FF798ABF6E60C99002545
:104E50000A460C6804320C92FFF789BA009E4000A3
:104E600094460133A444CBF80050072BCDF894C0EE
:104E70002493CBF8044000F3DF820BF1080B0F9A68
:104E800011991D9B0A441646129A934245DB069AD5
:104E9000D00742D4129ABC1BD31A9C42A8BF1C460E
:104EA000002C25460EDD249AA444CBF80060013284
:104EB000CDF894C0CBF80440072A249200F3A082D6
:104EC0000BF1080B002DACBF5C1B1C46002C7FF7C0
:104ED00056AB102C249B40F396831026B14D6246AE
:104EE000099F02E0103C102CA2DD01331032CBF8F8
:104EF00000500BF1080B072B4BF8046C2592249300
:104F0000F0DD3846494623AAC34604F0FFF80028DE
:104F10007FF40FAA259A249BE4E7249A179801327C
:104F200016998444CBF80400072ACBF80010CDF87A
:104F300094C0249200F373820BF1080BAAE7069B3E
:104F4000D9073FF533AE01230F9A25961C44CBF8C1
:104F50000020CBF80430072C24947FF75DAE5BE78C
:104F60000998494623AA04F0D1F800287FF4E1A962
:104F7000259EC346249C36E60998494623AA04F098
:104F8000C5F800287FF4D5A9259EC346249C1BE6BE
:104F90000998494623AA04F0B9F800287FF4C9A962
:104FA000DDF894C0C346FFF79ABA302B0F9B3FF44D
:104FB000B4AD013B1A460F933023C2EB080401F84D
:104FC000013CFFF7FDB9C246CDF81CC0204629467A
:104FD0000A22002304F0E6FA02F1300E20462946A8
:104FE00000230A220AF801ED04F0DCFA04460D461B
:104FF00054EA0503EAD1DDF81CC0CAEB0804CDF879
:105000003CA0FFF7DDB913981499CDF81CC0FEF74A
:1050100083FADDF81CC0002840F0CC80069C0321F8
:10502000614A624B24F080041090472ED8BF1A4684
:10503000069407910C4611900F929DF86F70FFF740
:10504000C6B9069B0C9A13F0400F13463FF4C9AB48
:1050500014880432002501230C92FFF788B9069BBF
:105060000C9A13F0400F134600F03081043314887B
:1050700000250C93FFF7CDBB069BDD060BD4069BEA
:105080005C0608D50C9A136804320C92BDF82820EF
:105090001A80FFF7AFB80C9A136804320C920A9A80
:1050A0001A60FFF7A7B8069B0C9A13F0400F13463F
:1050B0003FF426ACB2F900400433E5170C932246C6
:1050C0002B46FFF7F9BA374DFFF737BA099849462B
:1050D00023AA04F01BF800287FF42BA9DDF894C064
:1050E000C346B2E4249B01220CF1010C3049134465
:1050F000CBF80420CDF894C0072BCBF800102493F4
:1051000000F3FA800BF1080B2CB9129B1BB9069B1C
:10511000DD077FF534AA249B1799013316980CEB11
:105120000102CBF80410072BCBF800002592249342
:1051300000F34C820BF1080B6442002C40F32681F3
:10514000102C184D40F34F811026099F03E0103CAE
:10515000102C40F3488101331032CBF800500BF192
:10516000080B072B4BF8046C25922493EFDD38468F
:10517000494623AAC34603F0C9FF00287FF4D9A8F3
:10518000259A249BE3E741F020015E780691591CA3
:10519000FFF75FB80B980C91194640420B90FFF750
:1051A00043BA00BF009E40002C9E4000289E400055
:1051B000609E4000BCF1FF3F26F0200A00F0A9806D
:1051C000BAF1470F40F0A780BCF1000F40F0A38078
:1051D000069B4FF0470A4FF0010C43F480730E9387
:1051E000149B002BC0F2FF811D46139F00230D93DB
:1051F00002201DA9CDF804C03A4600901EA80291D5
:1052000021A903902B4609980491CDF81CC001F008
:10521000E3F9BAF1470F0F90DDF81CC040F042826D
:10522000069BDB0740F1F3810F9B03EB0C04384630
:10523000002200232946CDF81CC0FEF7AFFDDDF8A3
:105240001CC0002840F07281219B9C4206D930216D
:105250005A1C21921970219B9C42F9D80F9ABAF1DD
:10526000470FA3EB020312931D9B40F013819C4553
:10527000C0F26881D91CC0F2658167261193129B28
:10528000119A934200F3B681069BDF0700F1C181BA
:10529000144622EAE27C0D9B002B40F0F0800E9B2E
:1052A000CDF81CC006930D9B9DF86F701093FFF70F
:1052B0008EB80998494623AA03F028FF00287FF4F6
:1052C00038A8DDF894C0C346FFF7D8BB0433146890
:1052D00000250C93FFF79DBA0998402102F018FEB3
:1052E000C9F80000C9F81000002800F0D48140235C
:1052F000C9F81430FEF770BF0998494623AA03F095
:1053000005FF00287FF415A81D9CC346DDF894C056
:10531000FAE64FF0060C069B43F480730E93149B41
:10532000002BC0F260811D46139F00230D93BAF13C
:10533000460F00F0C480BAF1450F7FF459AF0CF16D
:105340000104CDF81CC00DF1740E0DF1840C1EA8E3
:105350000221CDF810C03A4603902B4601940091EB
:10536000CDF808E0099801F037F9DDF81CC00F907E
:105370000F9B1C445BE70998494623AA03F0C6FE2D
:1053800000287EF4D6AF259AC346249B1298013399
:1053900002EB000C072B0F9ACDF894C0CBF800203D
:1053A0002493CBF804007FF7E8A846E41095FEF7B5
:1053B000CDFE20EAE0730C970446119507939DF803
:1053C0006F70FFF704B8249AB74FFFF74BB80998EE
:1053D000494623AA03F09AFE00287EF4AAAFDDF81E
:1053E00094C0C346A2E401332244CBF80050072BFB
:1053F00025922493CBF80440BDDC0BF1080BC5E7E4
:105400000998494623AA03F081FE00287EF491AF53
:105410001D9BC346129ADDF894C0D31A52E5099831
:10542000494623AA03F072FE00287EF482AF1D9B3A
:10543000C346DDF894C02DE50998494623AA03F038
:1054400065FE00287EF475AFDDF894C0C34616E50E
:10545000062C0C9710931F4628BF0624119724EAA8
:10546000E4730793914B0F93FEF7B1BF8E4FFFF795
:10547000B5B82D231F468DF86F30FFF77ABA0E9B13
:105480002D27CDF81CC0069300238DF86F70109364
:10549000FEF79EBF652E56DD662E11937FF4EFAEAC
:1054A000002B40F3D680BCF1000F40F0C180069B7A
:1054B000DA0700F1BD80119C24EAE47CEBE60320CE
:1054C0001DA93A46CDF804C000901EA8029121A95A
:1054D0002B46039004910998CDF81CC001F07CF88C
:1054E000DDF81CC00246037862440F90302B07920F
:1054F00040F08B803846002200232946CDF840C07A
:105500004FF00104FEF74AFCDDF840C008B14FF04F
:10551000000414F0FF0F78D0CCF101041D94079B18
:1055200023441C4683E6624DFFF72ABB234695E6DB
:1055300024EAE4730C9710909DF86F700793119014
:10554000FEF745BF023E013B8DF87C60002B1D93AA
:1055500075DB2B228DF87D20092B61DD0DF18B0091
:105560000146544A82FB0324DA17C2EBA40404EB7D
:105570008402092CA3EB4202234602F1300201F817
:10558000012DEEDC30330A46DBB202F8013D9042D9
:105590007ED90A460DF17E0401E012F8013B8242F9
:1055A00004F8013BF9D123AB0DF17E025B1A1344E1
:1055B0001FAA9B1A129A012A199302EB030443DDD6
:1055C00001340023119324EAE47C64E609984946F7
:1055D00023AA03F09BFD00287EF4ABAE1D9CC346BE
:1055E000259A249BA8E5149B139F03F100452D23C6
:1055F0000D939CE6119B002B35DD0124129B1C446E
:1056000024EAE47C47E62A4D13E41D9C87E7219BAE
:1056100024E6119B5C1C24EAE47C3CE6244D20E457
:10562000303330228DF87F3020AB8DF87E20BFE7FD
:105630000CF10104119B1C4424EAE47C2BE62D228E
:105640005B428DF87D2087E7069B13F00103B9D0FC
:10565000B6E7BCF1000F09D1069BDB0706D44FF07B
:10566000010C644617E6C3F10204C7E70CF102041B
:1056700024EAE47C0FE60C9D5E7828462C68043012
:10568000002C0C90BEF6E5AD4FF0FF34FEF7E1BD07
:105690000DF17E038CE70C23099A4FF0FF30136065
:1056A000FEF750BE644663E6109E4000589E4000E0
:1056B000009E4000676666664B6E2DE9F0479C04CD
:1056C0000F4692462AD5936812682BB3804602F1A2
:1056D000080919E96000B60816D0043D002401E06D
:1056E000A6420FD0404655F8041F3A46013402F056
:1056F0009DF8431CF4D10023CAF80830CAF80430DE
:10570000BDE8F087DAF80830A3EB860309F1080951
:10571000CAF80830002BDCD10020ECE702F0BEF91B
:105720000023CAF80830CAF80430BDE8F08700BF8B
:105730002DE9F04F1C46ADB09246019102900694BF
:1057400018B1836B002B00F0DE80019B99898AB22F
:10575000900408D41D4641F400515B6E8AB2A981C1
:1057600023F400536B66110740F1AD80019B1B6968
:10577000002B00F0A88002F01A020A2A00F0AF8085
:105780000DF1700B00235C460A9311930393109361
:10579000CDF83CB09AF800305546252B1CD00BB9FB
:1057A0001AE01BB115F8013F252BFAD1B5EB0A061B
:1057B00012D0109B119A0133C4F800A032446660E5
:1057C000072B1093119279DD002A40F0A584039BEA
:1057D0005C461092334403932B78002B00F03A83FD
:1057E00000214FF000034FF0FF38681C8DF8373070
:1057F00089466B7846460D4600F1010AA3F1200266
:10580000582A00F20183DFE812F04702FF02FF028C
:105810005502FF02FF02FF02FF02FF02FF025B02CE
:105820006802FF028101BA01FF0287028D028D0228
:105830008D028D028D028D028D028D028D02FF027E
:10584000FF02FF02FF02FF02FF02FF02FF02FF0250
:10585000FF029B02FF02FF02FF02FF02FF02FF02A4
:10586000FF02FF02FF02FF02B602FF02FF02FF0279
:10587000FF02FF02CE02FF02FF02E602FF02FF026A
:10588000FF02FF02FF02FF02FF02FF02FF02FF0210
:1058900019022B02FF02FF02FF0213022B02FF027A
:1058A000FF02F901FF02020287016D028102FF027D
:1058B0009801FF028100FF02FF02D5010834039B1B
:1058C0003344039388E70298019900F06BFDA8B96F
:1058D000019B9A8902F01A020A2A7FF451AF019BB8
:1058E000B3F90E30002BFFF64BAF01995246234619
:1058F000029800F017FD2DB0BDE8F08F4FF0FF309B
:105900002DB0BDE8F08F01F019FF1EE719F0200F50
:105910000595B046069A00F04F820732012322F027
:10592000070202F10801D2E9006706914FF0000278
:105930000025CDF810808DF83720B8F1000F01DB7D
:1059400029F08009B8F1000F40F0948256EA07026E
:1059500014BF01220022002A40F08C82002B40F06C
:10596000728319F0010F00F0A3832CAB302203F8EF
:10597000412DC3EB0B080893049B4345B8BF434636
:105980001F4605B1013719F0020C00D0023719F09B
:105990008403079340F04782059BDD1B002D40F3F5
:1059A0004282102D40F38B84DDF840E01023119AE1
:1059B000BD4E7146CDF82CC006E011464FF0010EE9
:1059C0005C46103D102D20DD481C1032266001F190
:1059D000020E072863601192014604F1080410903A
:1059E000EFDD002AE9D002980FAA01995C460993DD
:1059F000FFF762FE002840F03482103D1099119AA2
:105A0000102D01F1010E099BDEDCDDF82CC0714682
:105A10002A440729266065601192109100F33083B3
:105A20009DF837300834481C002B40F00482BCF14C
:105A3000000F0CD002320EA90223072810901192F9
:105A400084E80A0000F3F882014608340130079B1D
:105A5000802B00F09882049BC8EB0305002D38DDF5
:105A6000102D924EC8BF102307DC28E04FF0010E26
:105A700011465C46103D102D20DD481C103226607A
:105A800001F1020E072863601192014604F1080437
:105A90001090EFDD002AE9D002980FAA01995C4628
:105AA0000493FFF709FE002840F0DB81103D1099B8
:105AB000119A102D01F1010E049BDEDC70462A4480
:105AC0000728266065601192109000F3EF8108347A
:105AD000013002EB08030728089A1193109084E81C
