S01D00004659505F48657861626F745F415453414D5F5337302E7372656300
S21440000048E440203D31400039314000393140001D
S214400010393140003931400039314000000000009D
S2144000200000000000000000000000009D094000A5
S2144000303931400000000000390A40009D0A400067
S21440004039314000393140003931400039314000C3
S21440005039314000393140003931400039314000B3
S2144000603931400000000000B1054000C5054000A1
S214400070D90540003931400039314000393140001F
S214400080ED0540000106400039314000393140005E
S2144000903931400039314000393140003931400073
S2144000A03931400039314000393140003931400063
S2144000B03931400065034000393140003931400055
S2144000C039314000393140003931400000000000ED
S2144000D000000000000000000000000000000000DB
S2144000E07903400039314000393140003931400011
S2144000F03931400039314000214B40003931400011
S2144001003931400039314000393140003931400002
S21440011039314000000000000000000000000000F0
S214400120393140003931400039314000094B4000F8
S214400130393140000000000039314000393140007C
S21440014010B5054C237833B9044B13B10448AFF3CC
S21440015000800123237010BDC0084020000000002E
S21440016094E74000084B10B51BB108480849AFF368
S21440017000800848036803B910BD074B002BFBD02E
S214400180BDE81040184700BF0000000094E740005C
S214400190C408402094E74000000000002DE9F047E6
S2144001A08046471E0026DFF834900A4D0A4CDFF89A
S2144001B030A008E02046A8470028FBD0204617F885
S2144001C0011FD04701364046C8478642F2D3BDE8B5
S2144001D0F08700BF092A4000001E0E401D844000E4
S2144001E0152A400070B582B0036BC26A1340019373
S2144001F000241A4E1A4DA84214BF002001200501C3
S2144002000B2C0AD8019A0123A340134220D02B1965
S21440021056F82330E3B198471AE00E2C0CD8019AD2
S21440022004F10C0101238B40134211D02B1956F8D0
S21440023023306BB198470BE0019A04F10F0101237C
S2144002408B40134204D02B1956F8233003B19847FD
S2144002500134102CD4D102B070BD00BFE0C24020A3
S2144002600040064000220260084B4360084B836013
S2144002704FF48023C36002230374012343748374C2
S214400280C274037543758375704700BF00A3E111C0
S214400290808D5B00036B13F080734DD130B4012228
S2144002A00260CA7C002A18BF4FF00043CA6842F476
S2144002B000044A688D68B2FBF5F2013A120292B227
S2144002C022430C7C240604F0706422434C7C2407B2
S2144002D004F040542243134343600B7D002B14BF6D
S2144002E04FF0807200220B681A434B7D002B14BFE0
S2144002F04FF000730023134383608B7D1B0203F48F
S214400300407343F00C03C0F89430124B984206D129
S21440031017E043F8042F8B42FBD1002016E00E4B2B
S21440032098420CD10D4B03F14001002243F8042FB4
S2144003308B42FBD1002009E0192040B270470020D4
S21440034004E0074B03F140010022E2E740B230BC34
S214400350704700BF00C00340004006401CC340201A
S214400360DCC2402008B50248024B984708BD00BF93
S21440037000C00340E501400008B50248024B9847DC
S21440038008BD00BF00400640E501400008B5104BE0
S21440039098420CBF28201D200E4B98470E4B9B784A
S2144003A0FF2B00D1FEE7EFF3108372B6BFF35F8FEB
S2144003B000210A4A117008498A7801328A702BB99E
S2144003C00122064B1A70BFF35F8F62B608BD00BFAE
S2144003D00040064081274000D8C240201000402000
S2144003E010B40B78002B0CBF002404244B780BB1C0
S2144003F044F008048B780BB144F01004CB780BB172
S21440040044F040040B790BB144F080044A7952031F
S21440041002F4C0428B7942EA0342CB7942EA036354
S21440042023430360184B5A685B68D20E23F0784328
S21440043043EA02730A7A042A16D8DFE802F0030673
S214400440090E110023F400430EE043F410430BE082
S21440045023F4805343F4004306E043F4005303E0A0
S21440046023F0405323F46043CA68013A074C04EA39
S21440047002440A69013AC2F30A0222431343436024
S2144004805DF8044B704700BF00C004400000FF0703
S21440049070B4234C66686568F60E25F0784545EAE4
S2144004A00675204E2E40466066686568F60EADB20C
S2144004B045EA0675456065686468ED0E24F0784444
S2144004C044EA0575013AC2F30A0215434A1E164C21
S2144004D004EA024445EA040242608468134A224021
S2144004E082608468124A2240826085685A1EC2F33F
S2144004F00906039A013A0F4C04EA024446EA04020B
S2144005002A4382604FF4C86202FB01F1B1FBF3F369
S2144005100949A1FB03235B09C36070BC704700BF59
S21440052000C0044000F8FFF70000FF0700FCFFFF94
S214400530FFFF00FC0000FF031F85EB5110B404686A
S214400540072928BF0721090201F4E0612143016021
S214400550C2648364019B43645DF8044B704700BFEC
S2144005602DE9F041044688460E4B984705462046FE
S2144005700D4B9847054013D00C4C04F16006236899
S214400580434508D16168294205D0E368404698470C
S214400590636825EA0305B44202D01034002DEED13C
S2144005A0BDE8F0815526400059264000DC08402032
S2144005B008B502480A21024B984708BD000E0E4077
S2144005C06105400008B502480B21024B984708BD1C
S2144005D000100E406105400008B502480C21024B51
S2144005E0984708BD00120E406105400008B5024815
S2144005F01021024B984708BD00140E40610540008C
S21440060008B502481121024B984708BD00160E4017
S2144006106105400038B530B9594840F21711594A7B
S214400620594B5A4CA0470346022202601A6912F000
S214400630807FFBD180221A600A78012A04D15A684A
S21440064042F001025A6001E05A685A604A7822B184
S2144006505A6842F002025A6003E05A6822F00202E8
S2144006605A608A7822B15A6842F004025A603CE0E6
S2144006705A6822F004025A6037E01A6A42F00102D1
S2144006801A6253E01A6A22F001021A624EE01A6AAF
S21440069042F002021A624DE01A6A22F002021A6220
S2144006A048E0186A120292B220F47F4002431A626F
S2144006B0002047E01A6C42F001021A6403E01A6C0C
S2144006C022F001021A6424B11A6C42F002021A6443
S2144006D04AE01A6C22F002021A6445E0596449E086
S2144006E01A6912F0807FFBD047E05A68C87800014C
S2144006F000F0300022F0300202435A605A6822F47A
S21440070070604A6802435A605A68087A22F47F0248
S21440071042EA00425A605A68C86822F07F4242EA7B
S21440072000625A600A69002AACD0A6E74A69002AE5
S214400730B2D0ACE78869164AB2FBF0F2013AFF2A1B
S214400740AFD9F8201A6A0C7F22F47F0242EA0442AC
S2144007501A6291F8205091F821401A6C22F0030258
S2144007601A64002DA6D1AAE7496AD3F8E42012F00D
S214400770010FB3D001221A60B2E740B238BD00BFC5
S21440078004DA4000F4D9400028DA40006D7A400090
S21440079080D1F008484B1B78FF2B00D1FEE770B4A1
S2144007A083B0EFF3108372B6BFF35F8F0024434AE3
S2144007B01470414C2278013222702BB901223F4BF3
S2144007C01A70BFF35F8F62B683683D4A936000231A
S2144007D01361536201933B4BA3FB01239A0CC8233E
S2144007E003FB02F3384AA2FB03239B08019A934279
S2144007F005D9019A01320192019A9A42F9D3304DB5
S21440080001222A604FF0E0440022228002262E6019
S21440081022800192019A9A4205D2019A01320192AF
S214400820019A9A42F9D3264B04241C604FF0E042CA
S214400830012515801C60022515801C600325158047
S2144008401C6014801C60052616801C6006261680D8
S2144008501C60072616801C60082414801D604468AF
S214400860640014444CF6FE25258044686400144415
S2144008702580446864001444258040684000104445
S2144008800580002018601080104AA2FB01129209D1
S2144008900192019941F6786202FB01F20192019AB7
S2144008A00849A1FB0212920C0192019AC2F30B0274
S2144008B05A6003B070BC7047D8C240201000402039
S2144008C00040084083DE1B43ABAAAAAAD34D621061
S2144008D0012904D18268064B1343836003E0826893
S2144008E0044B134083600268034B13430360704716
S2144008F0000010A5FFFFEF5A080000A54FF4004384
S214400900436070470D4B1B68B3F1FF3F0AD04FF072
S214400910800372B683F31188BFF36F8FBFF34F8F98
S21440092062B6FEE74FF0800372B683F31188BFF3DA
S2144009306F8FBFF34F8F62B6FEE700BF0C004020BC
S21440094006480068006880F3088862B661B6BFF360
S2144009504F8FBFF36F8F00DF00BF000008ED00E051
S214400960DFF80C00016841F4700101607047000038
S21440097088ED00E04FF0807340F8043C40F8081CD7
S214400980054B40F80C3C40F8202C6FF0020340F832
S214400990243C4438704700BF05094000064B1968A0
S2144009A00868B0E8F04F80F30988BFF36F8F4FF0C8
S2144009B0000080F31188704700C240204FF080034B
S2144009C072B683F31188BFF36F8FBFF34F8F62B653
S2144009D00B4A136801331360012B0FD1094B1B6878
S2144009E013F0FF0F0AD04FF0800372B683F31188DE
S2144009F0BFF36F8FBFF34F8F62B6FEE7704700BFFF
S214400A000C00402004ED00E00A4B1B6853B94FF041
S214400A10800372B683F31188BFF36F8FBFF34F8F97
S214400A2062B6FEE7013B034A13600BB983F31188B5
S214400A30704700BF0C004020EFF30980BFF36F8F74
S214400A40154B1A681EF0100F08BF20ED108A20E9DB
S214400A50F04F10604DF8043D4FF0800072B680F3C2
S214400A601188BFF34F8FBFF36F8F62B601F0BCF8AB
S214400A704FF0000080F3118808BC19680868B0E899
S214400A80F04F1EF0100F08BFB0EC108A80F30988B4
S214400A90BFF36F8F704700BF00C2402008B5EFF32A
S214400AA011834FF0800272B682F31188BFF36F8FC6
S214400AB0BFF34F8F62B6054B984718B14FF0805240
S214400AC0034B1A60002383F3118808BD7D1840004D
S214400AD004ED00E0034A044B1A600722043B1A6008
S214400AE0704700BFDF93040014E000E000B583B019
S214400AF0254B1A78D2B20192FF221A701B78DBB2CD
S214400B008DF803309DF8033003F080031F4A1370BE
S214400B1007221F4B1A609DF8033013F0800F10D049
S214400B20062200E00A469DF803305B00DBB28DF8F3
S214400B3003309DF80330511E13F0800FF2D1144B52
S214400B401A60134A13681B0203F4E0631360019BA8
S214400B50DBB20D4A13700F4B1A6842F460021A60FB
S214400B601A6842F060421A600B4B984700220B4BC3
S214400B701A600B4B98470B4A136843F04043136088
S214400B80094B9847094B984700E400E04C09402041
S214400B905009402020ED00E0D50A40000C004020DF
S214400BA06109400034EF00E041094000050940007B
S214400BB0EFF305830F2B11D9124A9B5CDBB2124A26
S214400BC012789A420AD94FF0800372B683F311889E
S214400BD0BFF36F8FBFF34F8F62B6FEE70B4B1B68BA
S214400BE003F4E0630A4A126893420AD94FF080033E
S214400BF072B683F31188BFF36F8FBFF34F8F62B621
S214400C00FEE77047F0E300E04C0940200CED00E0C2
S214400C105009402038B5044610F0070F02D020F0A7
S214400C20070408340E4B98470E4B1B6823B90E4BEF
S214400C3023F007030B4A13600C4B1B681C444BF213
S214400C40F772944207D8A34205D2064A15681D4457
S214400C50064B1C6000E00025054B9847284638BDEB
S214400C606118400058C14020600940205409402087
S214400C70B119400050B14FF0800372B683F311882B
S214400C80BFF36F8FBFF34F8F62B6FEE7704700BF6C
S214400C9000F1080343604FF0FF328260C360036197
S214400CA000230360704700BF00230361704700BF06
S214400CB043684B609A688A609A6851609960086198
S214400CC0036801330360704730B40D68B5F1FF3FE9
S214400CD001D1026907E000F1080200E01A465368B5
S214400CE01C68A542FAD253684B6099608A6051608E
S214400CF0086103680133036030BC7047036942688B
S214400D00816891608268416851605A68824201D128
S214400D1092685A600022026118680138186070476D
S214400D2038B504461546026C42B90368002B2BD1F1
S214400D3040681B4B9847002363602CE06DB9806881
S214400D40184B9847A268236C1344A360626893428A
S214400D501CD32368A36000201DE0C068114B984751
S214400D60236C5B42E2681A44E26021688A4202D2FF
S214400D7062681344E360022D0AD1A36B53B1A36BA0
S214400D80013BA363002006E0002004E0002002E0D0
S214400D90002000E00020A36B0133A36338BD00BFF2
S214400DA0B51F40007DE7400030B583B00190446DEC
S214400DB054B94FF0800372B683F31188BFF36F8F38
S214400DC0BFF34F8F62B6FEE7A26BE36B9A420AD33D
S214400DD04FF0800372B683F31188BFF36F8FBFF373
S214400DE04F8F62B6FEE7A26B934217D90A4620465B
S214400DF001A90C4B98470546A36CB3F1FF3F09D1B8
S214400E00636A63B104F12400074B9847002818BF73
S214400E10012504E0A36C0133A36400E000252846C6
S214400E2003B030BD210D4000851D4000026C72B1FC
S214400E3010B5C3681344C3604468A34201D3036833
S214400E40C36003460846D968014B984710BD7047B3
S214400E507DE74000F8B50446204B9847A36C002B2E
S214400E6018DD1F4D1F4F204E636D33B120460021C5
S214400E70A847012808D1B84706E0636A53B104F191
S214400E802400B04700B1B847A36C013BA364A36CF1
S214400E90002BE9DC4FF0FF33A364144B98470F4B0D
S214400EA09847636C002B13DD23691BB910E0236958
S214400EB023B90DE004F110060B4D0A4F3046A84703
S214400EC000B1B847636C013B6364636C002BEEDC97
S214400ED04FF0FF336364054B9847F8BDBD094000AB
S214400EE0A90D4000E11E4000851D4000090A400053
S214400EF038B550B94FF0800372B683F31188BFF30C
S214400F006F8FBFF34F8F62B6FEE704460D46184B11
S214400F1098472268216CE36B03FB01F3D0186060AE
S214400F200020A063A2605B1A1344E3604FF0FF33D7
S214400F306364A36485B92369ABB104F110000D4B1B
S214400F40984701280FD14FF080520B4B1A60BFF3E1
S214400F504F8FBFF36F8F06E004F11000074DA84790
S214400F6004F12400A847064B9847012038BD00BF2F
S214400F70BD094000851D400004ED00E0910C400096
S214400F80090A4000F8B550B94FF0800372B683F3B3
S214400F901188BFF36F8FBFF34F8F62B6FEE70D46E3
S214400FA017460646C1B101FB00F05930144B98472E
S214400FB0044610B905E0246015E000F158030360CC
S214400FC011E04FF0800372B683F31188BFF36F8F42
S214400FD0BFF34F8F62B6FEE75820094B984704464A
S214400FE00028E8D1EDE7E663256420460121054B5D
S214400FF0984784F85070002363652046F8BD00BFCC
S214401000150C4000F10E40002DE9F04F85B00192DE
S21440101050B94FF0800372B683F31188BFF36F8FD9
S214401020BFF34F8F62B6FEE7044661B9026C52B119
S2144010304FF0800372B683F31188BFF36F8FBFF310
S2144010404F8F62B6FEE7022B0DD1E26B012A0AD023
S2144010504FF0800372B683F31188BFF36F8FBFF3F0
S2144010604F8F62B6FEE71D460091514B984760B9D8
S214401070019B63B14FF0800372B683F31188BFF3D0
S2144010806F8FBFF34F8F62B6FEE7002700E0002762
S214401090484EDFF84C91DFF82881B047A26B022D0E
S2144010A002D0E36B9A4233D2204600992A46424BFE
S2144010B09847636D73B120462946404B98470128B0
S2144010C022D14FF080523E4B1A60BFF34F8FBFF392
S2144010D06F8F19E0636A73B104F12400394B984767
S2144010E0012811D14FF08052354B1A60BFF34F8F15
S2144010F0BFF36F8F08E038B14FF08052304B1A6024
S214401100BFF34F8FBFF36F8F2F4B984701204BE0B5
S214401110019B1BB92C4B9847002045E017B902A805
S214401120C8470127284B9847284B9847B047636CD9
S214401130B3F1FF3F01D100236364A36CB3F1FF3FDB
S21440114001D10023A364204B984702A801A9204B55
S214401150984718BBB047D4F838B0D4F83CA01A4BE0
S2144011609847D34514D104F110000199194B98477C
S2144011702046194B9847194B984700288DD14FF079
S2144011808053C8F80030BFF34F8FBFF36F8F84E7AC
S2144011902046114B9847114B98477EE720460E4B0A
S2144011A098470E4B9847002005B0BDE8F08F00BF2B
S2144011B0ED1E4000BD094000210D4000A90D400035
S2144011C004ED00E0851D4000090A4000611840001B
S2144011D04D1E4000811C4000550E4000B119400095
S2144011E01D1E400050B94FF0800372B683F311883D
S2144011F0BFF36F8FBFF34F8F62B6FEE72DE9F04126
S214401200044661B9006C50B14FF0800372B683F368
S2144012101188BFF36F8FBFF34F8F62B6FEE7022B86
S2144012200DD1E06B01280AD04FF0800372B683F3ED
S2144012301188BFF36F8FBFF34F8F62B6FEE71E462F
S21440124015468846214B9847EFF311874FF08003A9
S21440125072B683F31188BFF36F8FBFF34F8F62B6BA
S214401260A26B022E02D0E36B9A4223D2204641461E
S2144012703246174B9847A36CB3F1FF3F15D1636DC9
S21440128043B120463146134B9847012814D19DB1AF
S214401290286016E0636A8BB104F124000E4B984731
S2144012A070B16DB1012028600BE0A36C0133A364DC
S2144012B0012006E0002004E0012002E0012000E0DA
S2144012C0012087F31188BDE8F08100BFB10B4000D4
S2144012D0210D4000A90D4000851D40002DE9F04F2E
S2144012E085B0019250B94FF0800372B683F31188EF
S2144012F0BFF36F8FBFF34F8F62B6FEE7044661B908
S214401300026C52B14FF0800372B683F31188BFF37C
S2144013106F8FBFF34F8F62B6FEE798468B46524BB1
S214401320984760B9019B63B14FF0800372B683F370
S2144013301188BFF36F8FBFF34F8F62B6FEE700266C
S21440134000E00026494DDFF854A1DFF83091A84769
S214401350A36B002B34D0E56820465946444B98474B
S214401360B8F1000F18D1A36B013BA363236813B9F0
S214401370404B984760602369F3B104F110003E4B40
S2144013809847012818D14FF080523C4B1A60BFF363
S2144013904F8FBFF36F8F0FE0E560636A63B104F170
S2144013A02400354B984738B14FF08052334B1A6083
S2144013B0BFF34F8FBFF36F8F314B984701204FE0FD
S2144013C0019B1BB92E4B9847002049E016B902A84E
S2144013D0D04701262A4B98472A4B9847A847636C24
S2144013E0B3F1FF3F01D100236364A36CB3F1FF3F29
S2144013F001D10023A364224B984702A801A9224B9F
S214401400984738BBA847A76B1D4B9847E7B9236852
S2144014102BB9A84760681D4B9847194B984704F16D
S214401420240001991A4B984720461A4B98471A4B66
S214401430984700288BD14FF08053C9F80030BFF34F
S2144014404F8FBFF36F8F82E72046124B9847124B61
S21440145098477CE720460F4B98470F4B984700200D
S21440146005B0BDE8F08F00BFED1E4000BD0940004E
S2144014702D0E400075204000851D400004ED00E024
S214401480090A4000611840004D1E40000D1F4000F4
S214401490811C4000550E4000B11940001D1E400002
S2144014A010B40B4B1B682BB10123094C54F8332066
S2144014B042B900E00023064A42F8331002EBC30369
S2144014C0586002E00133082BF0D15DF8044B7047BA
S2144014D060C3402070B504460E4615460D4B9847EF
S2144014E0636CB3F1FF3F01D100236364A36CB3F197
S2144014F0FF3F01D10023A364074B9847A36B2BB94A
S21440150004F1240031462A46044B98472046044BB3
S214401510984770BDBD094000090A4000051D4000BF
S214401520550E4000084B1B681B6823B94FF0FF322E
S214401530064B1A607047044B1B68DB68DB685A68CA
S214401540024B1A60704700BF60C1402020C2402056
S21440155010B504460E4B1B6858600E4B1B689842ED
S21440156007D20D4B18680A4B196804310B4B984745
S21440157010BD0B4B1868064B19680431074B98474B
S214401580084B1B689C4201D2064B1C6010BD00BF36
S21440159000C240201CC2402080C14020C90C4000F0
S2144015A060C1402020C240202DE9F04F83B00C9F00
S2144015B0DDF834A00E9D50B94FF0800372B683F329
S2144015C01188BFF36F8FBFF34F8F62B6FEE7042FCD
S2144015D00AD94FF0800372B683F31188BFF36F8F3A
S2144015E0BFF34F8F62B6FEE70190009390460E46DB
S2144015F035B990005F4B98470546002800F0B48008
S21440160058205C4B98470446A0B105632846A52160
S2144016104FEA8802584B98476FF040454544236B45
S21440162003EB850323F00705337884F834303378AA
S21440163023B90FE02846514B984795E0334604F1CE
S2144016403402093613F8011F02F8011F197809B150
S214401650B342F7D14FF0000884F83D803E46042F51
S21440166028BF0426E662A664C4F84C8004F1040948
S2144016704846DFF854B1D84704F11800D8472461EB
S214401680C6F10506A6616462C4F8508084F85480AA
S21440169028460199009A3A4B98472060BAF1000FC5
S2144016A001D0CAF80040374B9847374A1368013391
S2144016B01360364B1B680BBB344B1C601368012B06
S2144016C026D1334D05F16408324E2846B0471435CE
S2144016D04545FAD1DFF8F48040462E4DA8472E4EB9
S2144016E03046A8472D48A8472D48A8472D48A84724
S2144016F02D4BC3F800802D4B1E6009E02C4B1B6819
S21440170033B9224B1B68DB6A9F4201D31F4B1C60D8
S214401710284A1368013313602364E06A26490B683D
S2144017200122824013430B6000EB8000184B03EB12
S21440173080004946214B9847214B98471C4B1B68D5
S21440174073B1124B1B68DB6A9F420BD94FF0805235
S2144017501C4B1A60BFF34F8FBFF36F8F012005E01D
S214401760012003E0012001E04FF0FF3003B0BDE868
S214401770F08F00BF150C400065E74000750C400038
S21440178075094000BD09400028C2402000C24020E4
S21440179088C14020910C40002CC2402004C240200A
S2144017A0ECC1402040C2402060C1402080C1402063
S2144017B064C1402024C2402054C24020B10C4000A6
S2144017C0090A400004ED00E0A90C40006CC140202E
S2144017D010B584B0002300930193029303931848F6
S2144017E018498222184CA04701281AD1174B98470F
S2144017F0012816D14FF0800372B683F31188BFF3E9
S2144018006F8FBFF34F8F62B64FF0FF32104B1A60A8
S2144018100122104B1A6000220F4B1A600F4B98475C
S2144018200BE050B94FF0800372B683F31188BFF3D4
S2144018306F8FBFF34F8F62B6FEE704B010BD00BF98
S214401840591B4000D0DA4000A91540005D214000F9
S21440185020C2402064C140201CC24020ED0A400007
S214401860024A136801331360704700BF18C2402015
S214401870014B1868704700BF1CC240202DE9F04756
S2144018803D4B1B68002B6AD13C4B1A6801321A60EC
S2144018901E68D6B93A4B1B681B6853B14FF080039D
S2144018A072B683F31188BFF36F8FBFF34F8F62B664
S2144018B0FEE7334A1168334B186810601960324AA5
S2144018C0136801331360314B9847314B1B689E4277
S2144018D001D2002437E00024DFF8A490DFF8CC8063
S2144018E02C4FD9F800301B6823B94FF0FF32284BF5
S2144018F01A6028E0D9F80030DB68DD686B689E42E5
S21440190002D2234A13601EE005F1040A5046C0473F
S214401910AB6A13B105F11800C047E86A3B6801227C
S214401920824013433B6000EB80001B4B03EB800080
S21440193051461A4B98471A4B1B68EA6ADB6A9A422A
S21440194028BF0124CDE7164B1B68DB6A03EB8303F5
S214401950114A52F82330022B28BF012404E0114AD2
S21440196013680133136000240F4B1B68002B0CBF19
S21440197020460120BDE8F08718C240201CC2402007
S21440198060C1402080C140205CC1402025154000F9
S21440199020C2402054C2402088C14020B10C4000A4
S2144019A000C2402084C1402058C24020FD0C400068
S2144019B02DE9F843364B1B6853B94FF0800372B697
S2144019C083F31188BFF36F8FBFF34F8F62B6FEE786
S2144019D0304B98472E4B1A68013A1A601B68002B0A
S2144019E04DD12D4B1B680BBB00244BE0FB68DC68DD
S2144019F004F11800B04704F104084046B047E06AD6
S214401A002B680122824013432B6000EB800009EBD9
S214401A1080004146214B9847214B1B68E26ADB6AAF
S214401A209A4208D301221F4B1A6004E01E4F1F4EF5
S214401A301F4DDFF890903B68002BD7D11D4B1B689D
S214401A407BB11C4B1B6863B11B4E164D194CB047FF
S214401A5008B101232B602368013B23602368002BD9
S214401A60F5D1104B1B68012B0BD14FF08052134B16
S214401A701A60BFF34F8FBFF36F8F012402E000243C
S214401A8000E000240E4B98472046BDE8F88300BF90
S214401A9018C24020BD09400028C24020B10C40007A
S214401AA000C2402058C2402004C24020FD0C4000E6
S214401AB054C2402084C140207D18400004ED00E020
S214401AC0090A400088C1402010B5002829D00446A5
S214401AD0184B1B6853B14FF0800372B683F31188DE
S214401AE0BFF36F8FBFF34F8F62B6FEE7124B984738
S214401AF0124B1B681C44124B18680430114B984715
S214401B0048B90F4B1A6810490B68D06A01228240C8
S214401B1023EA02030B6020460C4B98470C4B984731
S214401B2038B94FF080520B4B1A60BFF34F8FBFF35C
S214401B306F8F10BD18C24020611840001CC2402064
S214401B4000C24020FD0C400054C2402051154000C9
S214401B50B119400004ED00E080B5184D184EDFF88E
S214401B608080184F19E0C0473468B847ACB1164B70
S214401B709847F368DC68201D144B9847144A13684E
S214401B80013B13602B68013B2B60124B9847206B40
S214401B90DFF85090C8472046C8472B68002BE2D154
S214401BA00D4B1B68012BF8D94FF080520B4B1A6037
S214401BB0BFF34F8FBFF36F8FD1E700BF68C14020A0
S214401BC0ECC14020B1194000BD094000FD0C40006A
S214401BD028C24020090A400088C1402004ED00E0A9
S214401BE061184000750C4000204B1B681BB1012259
S214401BF01F4B1A60704700221D4B1A601D4B1B6816
S214401C00B3FA83F3DBB2C3F11F0303EB83011A4A33
S214401C1052F8212052B94FF0800372B683F31188F0
S214401C20BFF36F8FBFF34F8F62B6FEE710B4124A12
S214401C309900C81802EB8000446864684460024615
S214401C400832944206D1606803EB83010A4A02EBED
S214401C508102506003EB8303074A02EB83035B6811
S214401C60DA68064B1A605DF8044B704718C240208D
S214401C7058C2402054C2402088C1402000C2402064
S214401C8038B550B94FF0800372B683F31188BFF36E
S214401C906F8FBFF34F8F62B6FEE70C46114D296833
S214401CA01831114B984728680430104B984740B974
S214401CB02A680F490B68D06A0122824023EA020351
S214401CC00B60B4F1FF3F06D1064B19680948043152
S214401CD0094B984738BD094B18682044084B98472D
S214401CE038BD00BF00C24020C90C4000FD0C40007B
S214401CF054C2402040C24020B10C40001CC240208C
S214401D005115400050B94FF0800372B683F31188E6
S214401D10BFF36F8FBFF34F8F62B6FEE770B51546C1
S214401D200C46114E31681831104B984730680430D5
S214401D300F4B984740B932680E490B68D06A01226B
S214401D40824023EA02030B60012D06D1064B196838
S214401D5009480431054B984770BD084B1868204425
S214401D60074B984770BD00BF00C24020B10C4000F2
S214401D70FD0C400054C2402040C240201CC24020BF
S214401D805115400038B5C368DC6854B94FF080033D
S214401D9072B683F31188BFF36F8FBFF34F8F62B66F
S214401DA0FEE704F118052846144B9847144B1B6869
S214401DB09BB9251D2846114B9847E06A11490B6888
S214401DC00122824013430B6000EB80000E4B03EB76
S214401DD0800029460D4B984703E00D4829460B4B9B
S214401DE098470C4B1B68E26ADB6A9A4203D901208B
S214401DF0094B186038BD002038BD00BFFD0C4000C0
S214401E0018C2402054C2402088C14020B10C400037
S214401E1004C2402000C2402058C2402050B94FF073
S214401E20800372B683F31188BFF36F8FBFF34F8F73
S214401E3062B6FEE7034A12680260034A12684260CE
S214401E40704700BF5CC140201CC2402038B550B926
S214401E504FF0800372B683F31188BFF36F8FBFF3E2
S214401E604F8F62B6FEE7044651B94FF0800372B614
S214401E7083F31188BFF36F8FBFF34F8F62B6FEE7D1
S214401E800D46124B9847124B19682B68B3F1FF3F2B
S214401E9013D0104A12682068904202D0626891427D
S214401EA00DD26268881A83420BD9521A13442B60AB
S214401EB02046094B9847002404E0002402E0012411
S214401EC000E00124054B9847204638BDBD09400038
S214401ED01CC240205CC140201D1E4000090A400034
S214401EE00122014B1A60704758C24020054B1B68C0
S214401EF033B1054B1B68002B0CBF022000207047F7
S214401F000120704764C1402018C24020002845D0B8
S214401F1038B50346C26A22490968C96A8A423CD231
S214401F208169002905DB1E490968C96AC1F10501B6
S214401F30816102EB82021B4901EB820259699142A0
S214401F4027D11C461D1D2846174B984770B9E36A93
S214401F5003EB8301134A52F821203AB9134802682A
S214401F60012101FA03F322EA030303600C4B1B68CA
S214401F70D86AE0620D490A680123834013430B6028
S214401F8000EB8000074B03EB80002946084B984740
S214401F9038BD034A1268D26ADA6238BD704700BF5D
S214401FA000C2402088C14020FD0C400054C2402062
S214401FB0B10C400000284ED038B5294A12689042ED
S214401FC00AD04FF0800372B683F31188BFF36F8F49
S214401FD0BFF34F8F62B6FEE7C26C52B94FF0800334
S214401FE072B683F31188BFF36F8FBFF34F8F62B61D
S214401FF0FEE7013AC264002A2FD1C16A826C914240
S2144020002BD00446051D2846164B984768B9E16A0A
S21440201001EB8102144B53F8223033B9134803685E
S21440202001228A4023EA02030360A06CE062C0F10A
S2144020300503A3610D4A1368012404FA00F10B431B
S214402040136000EB8000084B03EB80002946084BEA
S2144020509847204638BD00207047002038BD00BF56
S21440206000C24020FD0C400088C1402054C24020A1
S214402070B10C4000054B1B6823B1044B1A68D36C67
S2144020800133D364014B1868704700BF00C240203C
S21440209010B504464160206191420AD8D21A83693D
S2144020A09A4211D20A4B1868211D0A4B98470020C5
S2144020B010BD994201D39A4208D3074B1868211D98
S2144020C0044B9847002010BD012010BD012010BDD4
S2144020D090C24020C90C40005CC2402070B5144BF2
S2144020E09847144B1B6803BB134D2846134EB04706
S2144020F0134C2046B047134B1D60134B1C60052005
S21440210010210022114B98470A4B186050B94FF0E7
S214402110800372B683F31188BFF36F8FBFF34F8F80
S21440212062B6FEE70A490B4B98470B4B984770BD83
S214402130BD0940008CC2402060C24020910C400047
S21440214074C240205CC2402090C24020850F4000B0
S214402150E8DA4000A1144000090A400010B584B0F7
S2144021600F4B98470F4B1B6863B104230093002323
S2144021700193029303930C480C494FF482720C4C23
S214402180A04750B94FF0800372B683F31188BFF36F
S2144021906F8FBFF34F8F62B6FEE704B010BD00BF2F
S2144021A0DD2040008CC24020ED224000F0DA4000A6
S2144021B0A915400050B94FF0800372B683F31188DA
S2144021C0BFF36F8FBFF34F8F62B6FEE730B585B073
S2144021D015460446124A1068F0B11A460091019519
S2144021E00294052913DC0F4B9847022807D10C4B65
S2144021F018686946089A00230B4CA0470DE0084B28
S2144022001868694600221346074CA04705E0694611
S2144022100023064CA04700E0002005B030BD00BFBC
S2144022208CC24020ED1E400009104000E5114000E1
S2144022302DE9F04782B08046254B98470746254B08
S2144022401B6898423BD22BE0DB68D3F800A0DC68E2
S21440225004F104094846B047636A20469847E36954
S214402260012B1FD1A3695344534506D963602461AB
S21440227028684946184B984714E0002300932046A8
S21440228019465246154CA04760B94FF0800372B6C7
S21440229083F31188BFF36F8FBFF34F8F62B6FEE7AD
S2144022A00F4D104E2B681A68002ACDD10E4A106882
S2144022B00B49086013600123C8F8003002E0002391
S2144022C0C8F80030034B1F60384602B0BDE8F087C0
S2144022D07118400088C24020C90C4000B52140001B
S2144022E05CC24020FD0C400090C240202DE9F043E7
S2144022F089B0694C694F6A4D6A4B1B681A68002A58
S21440230000F0BF80DB681E68674B984704A8674BA1
S21440231098478046049B002B4DD1B04239D3644B3E
S2144023209847604B1B68DB68D3F80C9009F10400B3
S214402330604B9847D9F81C30012B1DD1D9F818109E
S2144023404846314442463346DFF878C1E0470128E4
S21440235012D100230093484619463246564EB0479F
S21440236050B94FF0800372B683F31188BFF36F8F76
S214402370BFF34F8F62B6FEE7D9F8243048469847F9
S21440238077E04E4B1B681A68B2FA82F25209002672
S21440239000E000222068C8EB0601494B9847444BB2
S2144023A09847002865D14FF080533B60BFF34F8F6E
S2144023B0BFF36F8F5DE03E4B98475AE0049B002B7F
S2144023C006DA06980799059B9847049B002B50DB36
S2144023D0069E736913B1301D364B984703A8334B9E
S2144023E098478646049A092A43D8DFE802F005054E
S2144023F005422A3F0505422A059BB16930461944E5
S2144024007246DFF8C0C0E047012832D1736A3046D2
S2144024109847F369012B2CD1B269002300933046CC
S2144024201946059E3244244EB04710BB4FF08003F9
S21440243072B683F31188BFF36F8FBFF34F8F62B6C8
S214402440FEE70599B16151B94FF0800372B683F348
S2144024501188BFF36F8FBFF34F8F62B6FEE73046EB
S214402460714472467346174EB04702E03046164BEC
S2144024709847206804A900221346A84700289DD103
S2144024803AE7094B984704A8084B98478046049B70
S214402490002B3FF476AF8EE78CC2402004ED00E080
S2144024A0DD1240005CC240206118400031224000EE
S2144024B0B1194000FD0C4000B521400090C24020BC
S2144024C0D514400091204000750C400010B51048CF
S2144024D0104B984700203E210F4B98470F4CA04783
S2144024E00028FCD00E4B98470E4A0F4B9A620F4C72
S2144024F0A0470028FCD002200D4B984700200D4BEB
S21440250098470D4B98470248024B984710BD00BF6E
S21440251000A3E111E9324000FD264000512740006B
S21440252061274000013F182000060E4071274000FA
S2144025305D26400095264000D53140000AB14166F0
S21440254070470166704700BF01637047416370473C
S2144025504264B1F1C05F2FD007D8B1F1006F14D0FC
S214402560B1F1805F1ED039B97047B1F1205F37D0E6
S21440257004D8B1F1005F29D042607047B1F1405FA6
S2144025802ED0B1F1605F2BD0F6E710B4016F046F28
S214402590D343214019400167416F446F21400B40AF
S2144025A043671AE0036F13430367436F416F0B4063
S2144025B023EA02034367DFE7036F016F0B4023EA1A
S2144025C002030367436F13434367D5E7036F134321
S2144025D00367436F13434367CEE742605DF8044B9F
S2144025E0704700BF416412F0010F01D0416600E021
S2144025F0016612F00A0F01D0016200E0416212F05B
S214402600020F02D0C0F8801004E012F0080F01D08C
S214402610C0F8841041610160704700BF10B4416447
S214402620019C0CB1416600E001660BB1016500E01B
S21440263041650AB1016300E04163016101605DF8F4
S214402640044B704712B1C0F894107047C0F8901011
S214402650704700BFC06C7047806C7047032807D037
S214402660042808D002280CBF4FF48071002104E0F3
S2144026704FF4407101E04FF40071054A136B23F4A8
S21440268040730B431363936E13F0080FFBD07047F1
S21440269000060E40184A136B23F07003184310636D
S2144026A0936E13F0080F03D009E0013B03D11EE000
S2144026B04FF4006310498A6E12F0080FF5D00E4AA8
S2144026C0136B23F0030343F002031363906E10F082
S2144026D0080004D000207047013B03D109E04FF4C6
S2144026E0006305498A6E12F0080FF5D07047012046
S2144026F070470120704700BF00060E4038B10E49B3
S2144027000B6A0E4A1A400E4B13430B6270470A4838
S214402710036A0C4A1A400C4B1343090289B2194308
S21440272001620246936E13F0010FFBD0024A116A13
S214402730064B0B431362704700060E40FCFFC8FE74
S21440274002003701FCFFC8FF0100370000003701D8
S214402750024B986E00F48030704700BF00060E4073
S2144027604FF00052014B9A62704700BF00060E4081
S214402770024B986E00F00200704700BF00060E4005
S2144027803F281ED81F280CD8114B9A690123834036
S2144027901A40934217D0012383400D4A136100200C
S2144027A070470B4BD3F808212038012383401A404A
S2144027B093420AD001238340054AC2F800310020E4
S2144027C0704701207047002070470020704700BFC8
S2144027D000060E40082303602023036004230360A2
S2144027E0704700BF0F4B994219D84900B2FBF1F22F
S2144027F0043AFF2A07D9002301335208062B03D890
S214402800FF2AF9D800E00023110289B21B0403F422
S214402810E0230B43D2B21A430261002070470120E6
S214402820704700BF801A060008B50A464FF0FF31D1
S2144028308162016A80210160016B082101602021CC
S21440284001600421016051681268034B98470128D3
S21440285014BF0020012008BDE5274000F0B4CA6838
S2144028608C68002A47D0002646604B681B0203F45B
S214402870407343F480550B7C1B0403F4FE032B4348
S2144028804360C6604D685DB10B78012D02DD4E7821
S21440289046EA0323022D04DD897841EA032300E05B
S2144028A00023C3600123036043F69826022714E002
S2144028B0036A13F4807F20D1013920D0012A04D145
S2144028C0076013F0020FF3D01DE013F0020F0AD09A
S2144028D0036B04F8013B013A07D0036A13F4807592
S2144028E00FD13146EAE7002AE2D1036A13F0010F1E
S2144028F0FBD0036A0AE0012508E0052506E0092525
S21440290004E0052502E0036B2370EEE72846F0BCA2
S214402910704700BF0346CA688868002A40D070B433
S21440292000265E600C7C240404F4FE054C682402F9
S21440293004F440742C435C60DE604D685DB10C78F6
S214402940012D02DD4E7846EA0424022D04DD897806
S21440295041EA042400E00024DC600BE0196A11F42C
S214402960807F1FD111F0040FF8D010F8011B596377
S214402970013A07D0196A11F4807F15D111F0040F7F
S214402980ECD0F2E71A6A12F480700FD112F0040FFE
S214402990F8D002221A601A6A12F0010FFBD006E045
S2144029A001207047052002E0052000E0052070BCAD
S2144029B0704700BF80230360036B704710B4AC239E
S2144029C003600B684A68B3FBF2F31B095C1E4FF6C4
S2144029D0FE72944206D803628B68436050230360BD
S2144029E0002000E001205DF8044B70474023036060
S2144029F0704700BF10230360704700BF502303603A
S214402A00704700BF816070474069C0F34000704720
S214402A1001627047436913F0020F02D0C161002083
S214402A2070470120704700BF436913F0010F03D081
S214402A3083690B7000207047012070472DE9F04FE6
S214402A40A1B0A5480021A54B9847A54B9847DFF86D
S214402A5050931DAD99E8070085E807002E20DFF863
S214402A604483C0472E20C0479E4C204629469E4B56
S214402A70984720469D4B984720469D4B9847204672
S214402A809C4B9847204653219B4B98471020C04765
S214402A909A484FF0C0519A4A9A4EB0479A489B4D32
S214402AA0A8479B48A8479B484FF060514FF4805238
S214402AB0B0470A20C0470B20C047002400949648E1
S214402AC04FF0805122462346944FB8470094924890
S214402AD04FF0005122462346B84700948E484FF0A8
S214402AE0804122462346B84700948B484FF00071F9
S214402AF022462346B847009486484FF40051224663
S214402B002346B84700948448042122462346B847C3
S214402B10009481484FF0004122462346B84700942F
S214402B207D48402122462346B8477D48A8477D48F1
S214402B30A8477D487D4B98477D48A8477D48A8478D
S214402B407D4B4FF001021A70BFF35F8F62B67B4831
S214402B50A8477B48A8470DF1680B09F10C0999E88E
S214402B6007008BE807003E20C0470C20C0471020D7
S214402B70C0471120C047DFF8309272484FF00061DE
S214402B804A46B0476F4849460122DFF82092C84778
S214402B906C486D492246DFF818A2D0475E484FF091
S214402BA000614FF4C032B0475B484FF4C031224614
S214402BB0C84759484FF4C0310122D04756484FF0D5
S214402BC0C051624AB047544860490122C8475248FB
S214402BD05E492246D04749484FF0C0515C4AB0470C
S214402BE046485B490122C847444859492246D0478F
S214402BF058484FF000613F22B04756483F210122D7
S214402C00C84754483F212246D047534AD2F8243139
S214402C1043F01003C2F824314A484FF000614FF4A5
S214402C200042B04758464D494D4B98474D48A847F7
S214402C304FF0E04021464FF080724B4B98474B4850
S214402C40A8474B48A84700942C484FF0806122463E
S214402C502346B84729484FF08061DFF858B1D84737
S214402C6000942D484FF0806122462346B8472A48B4
S214402C704FF080613F4B98471320C04726484FF09F
S214402C8000611822B04700941C484FF080612246ED
S214402C902346B84719484FF08061D8473648374BE7
S214402CA098473548364B98472C4B1793354B1893D7
S214402CB0314817A9344B98473448A8473448A84762
S214402CC04020344B98474120324B98473248A847DB
S214402CD03248A84700946FE010180E40D1084000D4
S214402CE0CD244000001E0E40BD294000FD29400076
S214402CF0ED294000F5294000112A400000140E40FE
S214402D00080004005125400010DB40009D014000B3
S214402D1074DB400000100E40000E0E401D264000A2
S214402D2094DB4000B4DB400050180E40FD084000E5
S214402D30D8DB4000FCDB40001000402024DC400094
S214402D404CDC400000120E40FF80FCFF01001C00DF
S214402D5000E0832000160E400080084000A3E111EA
S214402D60950740006CDC400065E7400088DC40008A
S214402D70ACDC40004D25400000800140B5294000B5
S214402D80D5274000801A060029284000CCDC4000A9
S214402D90F0DC40006534400018DD400040DD400077
S214402DA0F8DA400081274000FF00FCFF452640003F
S214402DB03D25400049254000AB484FF480612246FF
S214402DC02346B847A8484FF48061D847A748A84B41
S214402DD09847A5484FF48061A64B9847A64DA24811
S214402DE04FF000512A46B0479F4829462246D047D2
S214402DF09D4829460122C847A0484FF00051082266
S214402E00B0479E4808212246D0479C4808210122C8
S214402E10C8479B484FF000514FF01062B047984863
S214402E204FF080514FF40872B047964D944829466B
S214402E302246D047924829460122C8473B20C047F1
S214402E40914B98470622914B5A621A46936A13F062
S214402E50040FFBD001268DF848608DF849600025A8
S214402E608DF84A508DF84B508DF84C508DF84E608A
S214402E708DF84F508DF850504FF42078CDF8548050
S214402E804FF4F079CDF8589002238DF84D304FF03E
S214402E90E044204629464FF080727D4B98470C20F0
S214402EA0DFF85CA2D04707460C20D047B8603C60AD
S214402EB07E608760774B03604660744C204612A95C
S214402EC0754B98473B680093204629463A4633461A
S214402ED0724DA847A36B3343A3634FF4A07300938C
S214402EE02046494642466E4DA847636A334363626E
S214402EF02246936A13F0010FFBD06A486A4CA047FB
S214402F006A48A04700238DF820308DF821308DF890
S214402F1022308DF823300993654A0E9204220A9295
S214402F200B930C930D93564D28464FF000614FF48B
S214402F301E32604CA04728464FF41E3101225E4B9D
S214402F40984749484FF000614FF00042A0472B2079
S214402F505A4B984702225A4B1A601A46136913F086
S214402F60807FFBD1564C80232360204608A9554BD2
S214402F709847012323602246136913F0807FFBD0D5
S214402F8002224F4B1A601A46136913F0807FFBD11A
S214402F904B4C80232360204608A94A4B98474A4812
S214402FA0334B9847012323602246136913F0807FF2
S214402FB0FBD045482E4B984744483B4CA047444896
S214402FC0A047444D2846DFF8F490C8472846DFF827
S214402FD03481C04702A8404FB847284602A93F4E12
S214402FE0B0476B6823F08F036B6005F520352846A5
S214402FF0C8472846C04702A8B847284602A9B0474F
S2144030006B6823F08F036B6001266E6105F5FA2529
S214403010284602210022284B9847284602210022B3
S2144030202F4B98472F48A0472F48A0472F4F38464A
S2144030304FF4805109222E4DA84738464FF4006180
S2144030400922A8472B48A0472B48A0474FF44032B8
S2144030500E4BDA62294D4FF00063C5F88431E0220A
S21440306085F83B236B604FE000140E4084B70700A2
S214403070010040204D2540000018601B00100E4007
S214403080000E0E4020020009E935400000C0044012
S21440309065E7400000802570E10340003D054000A4
S2144030A09104400064DD40009D01400088DD400002
S2144030B0002D3101512540003D254000812740002C
S2144030C000C0074015064000252B4D00B4DD4000EB
S2144030D0E0DD400000C0034065024000950240002D
S2144030E04526400000DE400020DE400000120E4034
S2144030F0E525400044DE400068DE400000E100E098
S2144031005D7B40008D03400008483146084B984799
S2144031104FF48043C5F88431C02285F82E236B6077
S2144031200448A04721B0BDE8F08F00BF001E0E4007
S214403130052A400090DE4000FEE700BF08B5194B68
S214403140194A9A4203D0194B164A9A4204D3184B4E
S214403150184A9A4210D31BE012490A1D164B9B1A76
S21440316023F003030433104A134452F8040B41F887
S214403170040B9A42F9D1EAE7104B114AD21A22F0D0
S21440318003021A44043B002143F8041B9342FBD13C
S2144031900C4A0D4B23F07F0393600C4B98470C4B27
S2144031A09847FEE70000402094E74000C0084020D3
S2144031B044C44020C0084020C3084020C4084020E3
S2144031C047C4402000ED00E000004000E57A4000A3
S2144031D05D4A40003D4B1B6B03F00303012B12D0AE
S2144031E013B1022B2CD05AE0394B5B6913F0800F99
S2144031F004D04FF40042374B1A6050E04FF4FA4286
S214403200344B1A604BE0314B1B6A13F0807F03D07F
S214403210314A304B1A6042E0304A2E4B1A602B4BF4
S2144032201B6A03F07003102B02D0202B04D036E02C
S2144032302B4A284B1A6032E0274A264B1A602EE06B
S214403240224B1B6A13F0807F03D0234A214B1A601F
S21440325012E0224A1F4B1A601C4B1B6A03F0700395
S214403260102B02D0202B04D006E01D4A194B1A60C2
S21440327002E0194A174B1A60144B1B6B03F003030A
S214403280022B0CD1114A936A926A1248C3F30A4140
S214403290036801FB0333D2B2B3FBF2F303600B4B7C
S2144032A01B6B03F07003702B07D10A4A13680D4955
S2144032B0A1FB03135B0813607047044B1A6B054968
S2144032C0C2F302120B68D3400B60704700060E40F4
S2144032D010180E4014004020001BB70000093D00A7
S2144032E000127A00ABAAAAAA144B984204D84FF010
S2144032F08062134B1A607047124B984203D8124AAA
S2144033000F4B1A607047114B984203D8104A0C4B2B
S2144033101A6070470F4B984203D80F4A084B1A6002
S21440332070470E4B984204D84FF00422044B1A6064
S21440333070470B4A024B1A60704700BFFF2C3101A2
S214403340000C0E40FF59620200010004FF86930302
S21440335000020004FFB3C40400030004FFE0F505C8
S21440336000050004094B1B6813B9094A074B1A604D
S214403370064B1B681A180749914204DB1046034A5D
S2144033801060184670474FF0FF30704794C2402098
S21440339048E64020FCFF45204FF0FF30704700BF16
S2144033A04FF0FF30704700BF4FF0FF30704700BF10
S2144033B04FF400534B600020704700BF0120704719
S2144033C00020704708B501460148024B9847FEE783
S2144033D0BCDE4000357B4000704700BF4FF0FF30FA
S2144033E0704700BF00B589B08DF8072000230393CF
S2144033F007938DF80C10012304930DF107020592F4
S21440340006938DF81C00054803A9054B984710B154
S2144034100448054B984709B05DF804FB008001401E
S2144034201529400008DF40009D01400000B587B0E8
S21440343000230593009304938DF800100123019315
S21440344005AA029203938DF8100004486946044B7F
S2144034509847059807B05DF804FB00BF0080014020
S2144034605D2840002DE9F04186B0C4B220460021D8
S2144034702A4FB8470246DFF8BC8001A84146284D8F
S214403480A84701A8274EB04720460121B847024624
S21440349001A84146A84701A8B04720461E21B84784
S2144034A0024601A84146A84701A8B0472046FE214B
S2144034B0B847024601A84146A84701A8B0474CF283
S2144034C08E50194FB847204600211022174DA84766
S2144034D0DFF864804046B8472046FE218022A84751
S2144034E04046B847204600210A46A84720460021C5
S2144034F01022A847204601210422A8472046002142
S2144035000A46A8474046B847204600218022A8479A
S2144035100748B04706B0BDE8F08100BF2D344000F4
S214403520F18040009D01400001004020E53340000E
S2144035301CDF400014DF40001B8B01000000000031
S214403540F8B505460C4610461F4B984700221F4BC1
S2144035501F4EB0471F4E16A3D3E90023B04716A30D
S214403560D3E900231C4FB84715A3D3E90023B0473F
S2144035701A4B98471A4B98470746EDB2E4B228468E
S21440358021460122174EB047611C2846C9B2002288
S214403590B047A11C2846C9B2FAB2B047E11C28463B
S2144035A0C9B2C7F30722B047F8BD00BFAFF30080EB
S2144035B0703D0AD7A370FD3FEC51B81E85EBE13F46
S2144035C00000000000986940457340000080664057
S2144035D041764000ED7340008970400071794000AC
S2144035E0794C4000E533400010B53020122180224F
S2144035F0CA4CA047302011210022A04730206B2122
S2144036000A22A04730206A213E22A04730203B2194
S2144036100922A04730201321E022A0473020012174
S2144036208022A047302002218022A047302000215F
S2144036300A46A047302010210022A0473020132100
S214403640E522A047302039214322A04730203821A8
S2144036501222A047302037210022A04730203521B3
S2144036609122A04730200E212022A04730201E2144
S2144036703422A0473020A8218022A04730201221A3
S2144036804022A047302004210022A04730200C21B1
S2144036900422A04730200D218022A0473020182148
S2144036A0C622A047302017212622A04730203221AC
S2144036B0AD22A047302003210022A04730201A2107
S2144036C08122A047302019210122A04730203F21E7
S2144036D0A622A047302014212E22A04730201521B4
S2144036E00B22A047302041210222A0473020422111
S2144036F00822A04730201B210022A0473020162158
S2144037000622A04730203321E222A0473020342131
S214403710BF22A047302096210422A04730203A21DD
S2144037200022A04730208E210022A04730203C2196
S2144037307722A04730208B210622A04730209421B4
S2144037408822A047302095218822A047302040215B
S214403750C122A047302029213F22A04730200F21F8
S2144037604222A04730203D219222A04730206921A6
S2144037704022A04730205C21B922A04730205D215E
S2144037809622A04730205E211022A04730205921A3
S214403790C022A04730205A21AF22A04730205B21CC
S2144037A05522A04730204321F022A0473020442114
S2144037B01022A047302045216822A04730204621CD
S2144037C09622A047302047216022A047302048213B
S2144037D08022A04730205F21E022A0473020602191
S2144037E08C22A047302061212022A0473020A521EE
S2144037F0D922A0473020A4217422A04730208D2112
S2144038000222A04730201321E722A04730204F2134
S2144038103A22A047302050213D22A0473020512157
S2144038200322A047302052211222A04730205321A5
S2144038302622A047302054213822A0473020552148
S2144038404022A047302056214022A0473020572112
S2144038504022A047302058210D22A04730208C21FE
S2144038602322A04730203E210222A0473020A92113
S214403870B822A0473020AA219222A0473020AB2170
S2144038800A22A04730208F21DF22A04730209021F7
S2144038900022A047302091210022A04730209F21BF
S2144038A00022A0473020A0210022A04730203A2105
S2144038B00122A047302024217022A0473020252115
S2144038C06422A04730202621C322A04730202A2148
S2144038D00022A04730202B210022A04730206C2118
S2144038E04022A04730206D210246A04730206E215E
S2144038F04B22A04730206F216022A0473020702105
S2144039000A46A047302071217022A04730207221FD
S2144039107022A04730207321702201E0E53340003A
S214403920A047302074216022A047302075216022B5
S214403930A047302076215022A047302077214822C9
S214403940A047302078213A22A047302079212E22E5
S214403950A04730207A212822A04730207B212222EF
S214403960A04730207C210422A04730207D2107221A
S214403970A04730207E211022A04730207F212822D9
S214403980A047302080213622A04730208121442283
S214403990A047302082215222A04730208321602237
S2144039A0A047302084216C22A047302085217822F1
S2144039B0A047302086218C22A047302087219E2297
S2144039C0A04730208821BB22A04730208921D22220
S2144039D0A04730208A21E622A04710BD0000000004
S2144039E038B5194B01225A6102221A601A46136BE7
S2144039F013F0010FFBD0144B00225A66986EA0F5C8
S214403A00FE6080B2114B9847114C09A3D3E90023BE
S214403A10A04709A3D3E900230E4DA84708A3D3E93E
S214403A200023A0470C4B984738BD00BFAFF300803B
S214403A306666666666660A400000000000FEAF40A6
S214403A403DCFF33CCFF32440004006402173400076
S214403A50ED73400041764000717940002DE9F04119
S214403A60144AD36B43F00103D3631348134B984770
S214403A70134E144D144CDFF86080144F2046A84770
S214403A800028FBD016F8011B2046C047BE42F5D1A1
S214403A900F480A4B9847074A936B43F001039363DA
S214403AA04FF0E04000214FF080720A4B9847BDE847
S214403AB0F08100BF00C004403CDF40009D01400054
S214403AC000802570092A4000001E0E4000D827704E
S214403AD044DF400065E74000152A40002DE9F04DE0
S214403AE02DED068B8AB0044609EE103ADDED189AA5
S214403AF0DDF868809DED1BAA07EE902A37EEE98A2E
S214403B0007EE901A77EEC97A17EE900A724B9847EE
S214403B10CDE90001B8F1010F40F08A80199B83F08F
S214403B20004B6D4D5846A847CDE904016B4EB04753
S214403B30CDE9060118EE100AA847CDE90201DDE9F5
S214403B400401674FB847CDE904015846A847CDE978
S214403B500801B84782468B46DDE90801B047CDE903
S214403B600801604DDDE9000152465B46A84706461F
S214403B700F46DDE90201DDE90823A84702460B4669
S214403B8030463946584EB047584EB04708EE900A31
S214403B90DDE90001DDE90623A84782468B46DDE9DC
S214403BA00201DDE90423A84702460B465046594623
S214403BB04F4DA847B04707EE900A39EE279AB8F11E
S214403BC0010F7FD1B5EE40AAF1EE10FA18D179E098
S214403BD0FDEECA7A17EE903A002BB8BF5B42C3F1AF
S214403BE0010307EE903AF8EEE77A68EEA78A78EE99
S214403BF0297A27EE8A8A38EE888A78EE298A61E022
S214403C00FDEECA7A17EE903A002BB8BF5B42C3F17E
S214403C10010307EE903AF8EEE77A67EEA87A38EEB8
S214403C20298A28EE0A8A37EEC88A78EE298A49E039
S214403C30294D1998A84706460F46284B9847CDE980
S214403C40020118EE100AA84782468B46304639468F
S214403C50234B984702460B46224DDDE90001CDE94D
S214403C600423A84706460F46DDE9020152465B4656
S214403C70A84702460B46304639461B4EB0471B4EB9
S214403C80B04708EE900ADDE90001DDE90223A847C7
S214403C90CDE9000150465946DDE90423A8470246CF
S214403CA00B46DDE90001124DA847B04707EE900AE3
S214403CB039EE279AB8F1000F04D1B5EE40AAF1EEDE
S214403CC010FA85D184ED009AC4ED018A20460AB0E8
S214403CD0BDEC068BBDE8F08D457340005D4B400063
S214403CE0E54B4000ED73400089704000717940001C
S214403CF085704000000000002DE9F04F2DED068B4A
S214403D0085B0054609EE101A0AEE102A08EE903ADB
S214403D1069EE097A28EEA88A37EE888A564C18EE5D
S214403D20100AA047554EB047554FB84709EE900A7F
S214403D306AEE0A7A29EEA98A37EE888A18EE100AC1
S214403D40A047B047B84708EE100A68EE08AADFED6D
S214403D504D7A7AEEA77A9FED4C7A77EEC77A9FED4A
S214403D604B7A28EE077AC7EE877A17EE900AA04776
S214403D70474B9847B847A04782468B46454B98479F
S214403D808046894618EE100AA04742464B46424CAB
S214403D90A04735A3D3E90023404CA047404B984763
S214403DA0B8478046DFED3F7AF4EEE7AAF1EE10FA28
S214403DB00ADA314B984702460B462DA1D1E900015D
S214403DC0394CA047B84780462B4C1AEE100AA047FD
S214403DD006460F4619EE900AA04702460B46304666
S214403DE03946324EB047CDE9000119EE100AA047D9
S214403DF0CDE9020118EE900AA04702460B46DDE9DF
S214403E000201B0471E4EB047A047DFF88C90002214
S214403E10274BC847214F16A3D3E90023B847B047DE
S214403E20286050465946DDE90023DFF888C0E04761
S214403E30B047A04700221E4BC8470DA3D3E9002336
S214403E40B847B04768604046A0470022184BC8476E
S214403E5007A3D3E90023B847B047A860284605B073
S214403E60BDEC068BBDE8F08F0000000000C062404D
S214403E70182D4454FB21094045734000254E400010
S214403E807179400000401C4600C8AF4600004843D9
S214403E90D14C4000E54B4000ED7340004176400079
S214403EA0794D400000E8FD4685704000214E4000B8
S214403EB0008066408970400070B50E4615461C4628
S214403EC0052857D8DFE800F003111F2D3B49402056
S214403ED01E213246284EB047402022212A46B0476F
S214403EE0402026212246B04770BD4120062132465A
S214403EF0214EB04741200A212A46B04741200E2194
S214403F002246B04770BD4020122132461A4EB04776
S214403F10402016212A46B04740201A212246B04764
S214403F2070BD412012213246134EB0474120162123
S214403F302A46B04741201A212246B04770BD40204D
S214403F40062132460C4EB04740200A212A46B0474A
S214403F5040200E212246B04770BD41201E213246E9
S214403F60054EB047412022212A46B047412026210F
S214403F702246B04770BD00BF41354000F0B59BB00B
S214403F8004460D46092800F2AD80DFE800F0051231
S214403F901F2C3946515EAB6929B159484FF08051C4
S214403FA0584B98479EE056484FF08051564B98479E
S214403FB098E029B152484FF00051524B984791E053
S214403FC04F484FF00051504B98478BE029B14C4832
S214403FD04FF080414B4B984784E049484FF0804132
S214403FE0494B98477EE029B145484FF00071454B14
S214403FF0984777E042484FF00071434B984771E04E
S21440400029B142484FF400513E4B98476AE03F483A
S2144040104FF400513C4B984764E021B138480421A6
S214404020384B98475EE036480421374B984759E06E
S21440403029B133484FF00041324B984752E0304860
S2144040404FF00041304B98474CE021B12C4840217E
S2144040502C4B984746E02A4840212B4B984741E056
S21440406001B3274F38464FF08051264EB04738466A
S2144040704FF00051B04738464FF08041B047384681
S2144040804FF00071B04721484FF40051B0473846D2
S2144040900421B04738464FF00041B04738464021EB
S2144040A0B0471FE0164F38464FF08051164EB04787
S2144040B038464FF00051B04738464FF08041B04741
S2144040C038464FF00071B04710484FF40051B047A3
S2144040D038460421B04738464FF00041B04738468E
S2144040E04021B0470A4B1B6843B101A80949224604
S2144040F02B46094CA04701A8084B98471BB0F0BD7B
S214404100000E0E40492540004D25400000100E4050
S21440411098C2402050DF4000F18040009D014000A2
S21440412070B59CB004460D46164605284BD8DFE8C9
S21440413000F0030F1B27333F890040201E3107EE57
S214404140902AF8EEE77A17EE902A264B98473AE000
S21440415089004120063107EE902AF8EEE77A17EEFE
S214404160902A204B98472EE089004020123107EED7
S214404170902AF8EEE77A17EE902A1A4B984722E0F4
S21440418089004120123107EE902AF8EEE77A17EEC2
S214404190902A144B984716E089004020063107EED7
S2144041A0902AF8EEE77A17EE902A0E4B98470AE0E8
S2144041B0890041201E3107EE902AF8EEE77A17EE86
S2144041C0902A084B9847084B1B684BB1009603A8AB
S2144041D0064922462B46064CA04703A8054B98475F
S2144041E01CB070BD4135400098C2402064DF40009E
S2144041F0F18040009D01400010B59AB0074B9847AB
S214404200074B984702460B4601A80649064CA0476E
S21440421001A8064B98471AB010BD00BFE1394000D0
S2144042204573400088DF4000F18040009D0140001B
S214404230034B00225A6218620122DA61704700BFBF
S214404240A0C34020F8B51048104CA047104B9847E4
S21440425010484FF08051104B98471048A047012413
S2144042600C4D0F4F0C4E2CB128464FF08051B047A6
S214404270002404E028464FF08051B84701244FF40C
S2144042807A70084B9847EEE79CDF40009D0140005F
S21440429071184000000E0E4049254000BCDF40002B
S2144042A04D254000C91A40002DE9F04F2DED068BF4
S2144042B0B1B0AB48AB4CA047AB4B00221A605A603B
S2144042C078229A606422DA6032221A61FA225A61AF
S2144042D00022DA6114229A61A448A0479FEDA49A6E
S2144042E0A4484021A44B98479F4BDB69002B00F025
S2144042F0CB829D4CD4ED097AB8EEE78AA36907EEE7
S214404300903AF8EEE79A9D4A82FB0312A2EBE373DB
S214404310049378EE097A9A4FC7EEA97A17EE900A78
S214404320B847DFF868B202460B46D847954E8AA390
S214404330D3E90023B047944DA847B847CDE90601D6
S214404340DFF84CA2D047CDE90801D4ED027AF8EE6A
S214404350E78ADFF840926069C847DDE90823B0473E
S214404360A84702468DED009A6368019301210291A9
S214404370236803932EA818EE901A18EE903ADFF8AA
S2144043801882C047DDED047AF8EEE77A78EE277AB1
S214404390C7EEA97A17EE900AB84702460B46D847AA
S2144043A06DA3D3E90023B047A847B847CDE9080135
S2144043B0D047CDE90A01D4ED027AF8EEE78A606983
S2144043C0C847DDE90A23B047A84702468DED009A64
S2144043D06368019300230293236803932CA818EE86
S2144043E0901A18EE903AC047049B5A0008EE902A5E
S2144043F0F8EEE87A78EE277AC7EEA97A17EE900AB2
S214404400B84702460B46D84753A3D3E90023B047E4
S214404410A847B847CDE90A01D047CDE90C01D4ED0D
S214404420027AB8EEE7AA6069C847DDE90C23B047D0
S214404430A84702468DED009A6368019301210291D8
S214404440236803932AA81AEE101A1AEE103AC047A9
S21440445018EE902A049B1A4408EE902AF8EEE88A52
S21440446078EE288AC8EEA97A17EE900AB847024630
S2144044700B46D84738A3D3E90023B047A847B847E8
S214404480CDE90C01D047CDE90E01D4ED027AF8EE25
S214404490E78A6069C847DDE90E23B047A847024669
S2144044A08DED009A6368019300210291236803937F
S2144044B028A818EE901A18EE903AC047049B9A0027
S2144044C008EE902AF8EEE87A78EE277AC7EEA97AD0
S2144044D017EE900AB84702460B46D8471EA3D3E9C4
S2144044E00023B047A847B847CDE90E01D047CDE9ED
S2144044F01001D4ED027AB8EEE7AA6069C847DDE954
S2144045001023B047A84702468DED009A6368019392
S214404510012102912368039326A81AEE101A1AEE78
S214404520103AC04718EE902A049BD31808EE903AEB
S214404530F8EEE88A38EE288AC8EE297A17EE900A0E
S214404540B84702460B46D84703A3D3E90023B047F3
S214404550A847B84722E000BF182D4454FB21094025
S214404560F8DF40009D014000A0C3402024E040000A
S21440457000000000000E0E4049254000ABAAAA2AC3
S21440458045734000ED7340007179400089704000EB
S2144045905D4B400021734000DD3A4000CDE9040108
S2144045A0D04782468B46D4ED027AB8EEE78A6069F9
S2144045B0C84752465B46B047A84702468DED009A2C
S2144045C063680193002302932368039324A818EE9C
S2144045D0101A18EE103AC047DDF8B880DDE906013B
S2144045E07C4B984706460F46002200237A4CA0474D
S2144045F020B17A4BD8684042C84713E0774D784C94
S2144046002869A04702460B4630463946754EB047A5
S21440461006460F46E868A04702460B4630463946EF
S214404620714CA047714B9847024621A841462F9BA4
S2144046306F4CA047DDF8B080DDE90801654B984730
S21440464006460F4600220023634CA04728B1634B22
S214404650D8684042624B984713E0604D604C2869EA
S214404660A04702460B46304639465E4EB0470646A1
S2144046700F46E868A04702460B46304639465A4C35
S214404680A0475A4B984702461EA841462D9B584C79
S214404690A047DDF8A880DDE90A014E4B984706465C
S2144046A00F46002200234C4CA04728B14B4BD868FD
S2144046B040424B4B984713E0484D494C2869A04729
S2144046C002460B4630463946464EB04706460F46EB
S2144046D0E868A04702460B4630463946424CA0475B
S2144046E0424B984702461BA841462B9B404CA0474E
S2144046F0DDF8A080DDE90C01364B984706460F46AC
S21440470000220023344CA04728B1344BD86840429E
S214404710334B984713E0314D314C2869A047024649
S2144047200B46304639462F4EB04706460F46E86899
S214404730A04702460B46304639462B4CA0472B4BEB
S2144047409847024618A84146299B294CA047DDF8C1
S2144047509880DDE90E011F4B984706460F4600221B
S21440476000231D4CA04728B11C4BD86840421C4B28
S214404770984713E0194D1A4C2869A04702460B4645
S21440478030463946174EB04706460F46E868A047BB
S21440479002460B4630463946134CA047134B9847C3
S2144047A0024615A84146279B114CA047DDF890804D
S2144047B0DDE90401074B984706460F4600220023D2
S2144047C0054CA047B0B1054BD8684042044B9847CB
S2144047D024E000BFE54B4000D1784000A0C3402015
S2144047E021734000ED7340008570400071794000B1
S2144047F0F93C4000284D294C2869A04702460B4604
S21440480030463946264EB04706460F46E868A0472B
S21440481002460B4630463946224CA047224B984724
S214404820024612A84146259B204CA04700202199CD
S214404830229A239B1E4CA04701201E991F9A209B1C
S214404840A04702201B991C9A1D9BA047032018993D
S214404850199A1A9BA04704201599169A179BA047A9
S21440486005201299139A149BA0470B4A536A0133AA
S2144048705362126A934202DD0022074BDA610D480A
S21440488040210D4B984702E00022034B5A62142009
S2144048900A4B984724E500BFA0C340202173400040
S2144048A0ED7340008570400071794000F93C40004F
S2144048B0B93E4000000E0E404D254000C91A40004B
S2144048C02DE9F04749484A4CA0474A48002164220F
S2144048D0494B98474948A0474948A047494D28462C
S2144048E0A0472846A0474848A047424C474D484F17
S2144048F02B68234413F8013C0A2B73D100232B600A
S21440490020463946434B984706464349434B9847CB
S21440491078B93946DFF8FC80C047414EB0478146FB
S21440492000203946C047B047014648463D4B984769
S21440493050E030463C49394B9847A8B93946DFF8ED
S214404940D480C047364EB047824600203946C047DE
S214404950B047814600203946C047B04702465046D9
S2144049604946324B984735E0304631492B4B9847BD
S21440497010B9304B98472DE030462F49274B984783
S21440498010B92E4B984725E030462D49234B984783
S21440499038B939461F4B9847214B9847294B98477B
S2144049A018E0304628491D4B984738B93946194BC8
S2144049B098471B4B9847254B98610BE03046244957
S2144049C0164B984730B93946124B9847144B984780
S2144049D0204B18600C48064B98472046002164221E
S2144049E0054B984701201C4B984781E76CE04000F8
S2144049F09D014000C8C3402065E7400090E040006D
S214404A00D0E0400070DB4000E8E040009CC2402020
S214404A100CE140007984400010E1400049814000AC
S214404A20A97A40007D3F400014E14000214140000B
S214404A301CE14000F941400028E140005D3A40005A
S214404A4034E14000314240003CE14000A0C34020F9
S214404A5048E1400098C24020C91A400070B584B072
S214404A601A4B98471A481B4DA8471B48A84704238B
S214404A7000930024019402940394184818494FF474
S214404A80C8722346174EB0470323009301940294FE
S214404A900394154815494FF4C8622346B04702238D
S214404AA00093019402940394114812494FF4C8624B
S214404AB02346B0471048A8471048A847104B984789
S214404AC01048A847204604B070BD00BF3D2A4000AD
S214404AD050E140009D01400074E1400045424000E6
S214404AE098E14000A9154000A9424000A0E14000DE
S214404AF0C1484000ACE14000B4E14000D4E1400091
S214404B00D1174000E4E14000034B9A6A5B6B034ACE
S214404B10136801331360704700C00440A0C24020B1
S214404B2000B583B0084B5B6B08480DF10701084B96
S214404B309847084A13689DF807000749C854013348
S214404B40136003B05DF804FB00C00440001E0E4036
S214404B50292A40009CC24020C8C340201F4A21F05A
S214404B600043934230B587B01BDD1D4A934205DDB6
S214404B7002460B4602F086FA07B030BD02AA00F0A5
S214404B800FFF00F00303012BDDE9020116D0022BD4
S214404B900DD0EBB10124DDE90423009401F0F0FED2
S214404BA0EAE70022002301F0C7F907B030BDDDE98F
S214404BB0042301F0C1F901F10041DDE7DDE90445D8
S214404BC0009322462B4601F0DBFE01F10041D3E77D
S214404BD0DDE9042301F0B0F9CEE700BFFB21E93F51
S214404BE0FFFFEF7F224A21F00043934230B587B063
S214404BF01BDD204A934205DD02460B4602F042FA90
S214404C0007B030BD02AA00F0CBFE00F0030001283A
S214404C101ED0022811D010B3DDE90201DDE90423DD
S214404C2001F08AF901F10041EAE70024002200235E
S214404C30009401F0A5FE07B030BD0124DDE9020175
S214404C40DDE90423009401F09BFE01F10041D7E723
S214404C50DDE90201DDE9042301F06EF9D0E7012425
S214404C60DDE90201DDE90423009401F089FEC7E78F
S214404C70FB21E93FFFFFEF7F10B5C0F3C754002884
S214404C80A4F17F02B4BF4FF0FF3101211E2A0CDC95
S214404C90002A17DBC0F31603162A43F4000307DD89
S214404CA0963CA34001FB03F010BD02F0B1FE10BDE0
S214404CB04FF48000C2F1170410410344E34001FB67
S214404CC003F010BD01320CBF0846002010BD00BFE7
S214404CD02DE9F041DFF89C808AB006460F4600F08A
S214404CE0FBF898F9003004460D46013304D03046B0
S214404CF0394602F00DF920B9204629460AB0BDE8EB
S214404D00F0813046394602F075F80022164B02F024
S214404D10FDFD0028F0D000230121144A14480893D2
S214404D208DE80600CDE90467CDE9026702F014F984
S214404D3098F90030022BCDE906010AD0684602F009
S214404D4009F930B1089B4BB9DDE906010AB0BDE868
S214404D50F08102F0ADFE21230360F3E702F0A8FEE7
S214404D60089B0360F0E700BF0000F03F20E24000F1
S214404D70D4DE4000180040202DE9F041DFF89C804A
S214404D808AB006460F4600F003FB98F9003004460A
S214404D900D46013304D03046394602F0B9F820B902
S214404DA0204629460AB0BDE8F0813046394602F032
S214404DB021F80022164B02F0A9FD0028F0D000236F
S214404DC00121144A144808938DE80600CDE904678B
S214404DD0CDE9026702F0C0F898F90030022BCDE921
S214404DE006010AD0684602F0B5F830B1089B4BB9C8
S214404DF0DDE906010AB0BDE8F08102F059FE212344
S214404E000360F3E702F054FE089B0360F0E700BF40
S214404E100000F03F28E24000D4DE4000180040206A
S214404E2000F0E6BC2DE9F041DFF8A8808AB00646DF
S214404E300F4600F0D3FF98F9003004460D46013384
S214404E402DD03046394602F063F840B30023304652
S214404E503946002202F03CFD4FF0010300B90346FC
S214404E6013F0FF0F1BD00121194A002398F8004089
S214404E708DE806000893CDE90467CDE902679CB942
S214404E8000220023CDE90623684602F063F8A8B165
S214404E90089BC3B9DDE906010AB0BDE8F0812046AB
S214404EA029460AB0BDE8F0810020002102460B46A4
S214404EB002F0C6FB022CCDE90601E5D102F0F8FD72
S214404EC021230360E4E702F0F3FD089B0360E1E77B
S214404ED030E24000180040202DE9F84FC64E21F041
S214404EE000430C460546B3420CDDC44F1F44034600
S214404EF03B4340F0BB80002940F344810020002122
S214404F00BDE8F88FBE4EB34240F3A8800029C0F2F9
S214404F107F81024623460020BA4902F0B3F80022B9
S214404F20B94B002602F062FA04460D4600F056FFE2
S214404F30894680462946204695A3D3E9002302F0B9
S214404F4055FA95A3D3E9002302F09EF822462B4655
S214404F5002F04CFA92A3D3E9002302F093F82246DB
S214404F602B4602F043FA90A3D3E9002302F08CF8D4
S214404F7022462B4602F03AFA8DA3D3E9002302F0EC
S214404F8081F822462B4602F031FA8BA3D3E9002360
S214404F9002F07AF822462B4602F028FA82468B46E2
S214404FA02046294686A3D3E9002302F01FFA86A3AB
S214404FB0D3E9002302F066F822462B4602F016FAA2
S214404FC083A3D3E9002302F05FF822462B4602F083
S214404FD00DFA81A3D3E9002302F054F822462B466B
S214404FE002F004FA0022874B02F04EF802460B46C7
S214404FF05046594602F024FB42464B4602F0F6F92C
S214405000324682468B464B463046494602F0EEF9DB
S21440501002460B462046294602F034F804460D4622
S21440502032464B464046494602F02EF802460B466C
S2144050302046294602F004FB02460B465046594697
S21440504002F022F802460B463046494602F01CF86B
S21440505002460B4602F018F8BDE8F88F6B4A9342BA
S2144050600EDC5FA1D1E90001BDE8F88F02460B4691
S21440507002F008F802460B4602F0E2FABDE8F88F66
S21440508002460B4602F0B2F906460F4640A3D3E965
S214405090002302F0ABF940A3D3E9002301F0F4FF6C
S2144050A032463B4602F0A2F93DA3D3E9002301F085
S2144050B0E9FF32463B4602F099F93BA3D3E9002389
S2144050C001F0E2FF32463B4602F090F938A3D3E9BE
S2144050D0002301F0D7FF32463B4602F087F936A35D
S2144050E0D3E9002301F0D0FF32463B4602F07EF97A
S2144050F0804689463046394631A3D3E9002302F03C
S21440510075F931A3D3E9002301F0BCFF32463B4694
S21440511002F06CF92EA3D3E9002301F0B5FF324626
S2144051203B4602F063F92CA3D3E9002301F0AAFF23
S21440513032463B4602F05AF90022324B01F0A4FFB9
S21440514002460B464046494602F07AFA02460B466D
S2144051502846214602F04AF902460B4622A1D1E9EA
S214405160000101F08FFF02460B462846214601F01B
S21440517089FF02460B461AA1D1E9000101F082FFE1
S214405180BDE8F88F1AA1D1E90001BDE8F88F00BF4D
S21440519009F7FD0DE13D023F88B20175E0EF493F5A
S2144051A03B8F68B52882A43F5544880E55C1C93FF9
S2144051B07D6FEB0312D6D43F555555555555C53FD3
S2144051C082922EB1C5B8B33F59018D1B6C06E63F9F
S2144051D0C88A599CE52A00404B2D8A1C273A034032
S2144051E0182D4454FB21F93F075C143326A6913C06
S2144051F0182D4454FB210940FFFFEF3F000010C02C
S214405200FFFFDF3F0000F03F0000E03F0000603C53
S21440521000225D4B01F038FF00225C4B02F0E6F8BE
S21440522004460D4640A3D3E9002302F0DFF840A32E
S214405230D3E9002301F028FF22462B4602F0D6F899
S2144052403DA3D3E9002301F01DFF22462B4602F082
S214405250CDF83BA3D3E9002301F016FF22462B46A8
S21440526002F0C4F838A3D3E9002301F00BFF22462E
S2144052702B4602F0BBF836A3D3E9002301F004FF27
S21440528022462B4602F0B2F88046894620462946FA
S21440529000F0A4FD06460F46204629462EA3D3E935
S2144052A0002302F0A3F82EA3D3E9002301F0EAFE80
S2144052B022462B4602F09AF82BA3D3E9002301F0AE
S2144052C0E3FE22462B4602F091F829A3D3E90023B9
S2144052D001F0D8FE22462B4602F088F800222A4BE0
S2144052E001F0D2FE02460B464046494602F0A8F977
S2144052F032463B4602F07AF81FA3D3E9002301F07A
S214405300C1FE02460B463046394601F0BDFE024617
S2144053100B4601F0B9FE02460B4619A1D1E9000141
S21440532001F0B0FEBDE8F88F09F7FD0DE13D023F04
S21440533088B20175E0EF493F3B8F68B52882A43FAD
S2144053405544880E55C1C93F7D6FEB0312D6D43FF6
S214405350555555555555C53F82922EB1C5B8B33FA4
S21440536059018D1B6C06E63FC88A599CE52A0040C9
S2144053704B2D8A1C273A0340075C143326A6913CE3
S214405380182D4454FB2109400000F03F0000E03F48
S2144053902DE9F047BE4B21F0004686B00D469E42B2
S2144053A004468A4611DDBB4A03463244134322D0A4
S2144053B002460B4601F066FE02460B4602F040F9F6
S2144053C00446204606B0BDE8F087B34B9E422BDC31
S2144053D0B6F1795F80F2688191A3D3E9002301F0AA
S2144053E053FE0022AD4B02F091FAE8B12946204622
S2144053F006B0BDE8F0878CA3D3E9002301F0F6FFA2
S21440540006460F462046294689A3D3E9002301F0E5
S214405410EDFF02460B463046394601F035FE04465F
S214405420204606B0BDE8F0872046294601F0E2FC5B
S21440543002460B460020994901F024FE0022984B74
S21440544001F0D4FF04460D467BA3D3E9002301F0C8
S214405450CDFF7BA3D3E9002301F016FE22462B4660
S21440546001F0C4FF78A3D3E9002301F00BFE2246E7
S2144054702B4601F0BBFF76A3D3E9002301F004FEE0
S21440548022462B4601F0B2FF73A3D3E9002301F076
S214405490F9FD22462B4601F0A9FF71A3D3E900236C
S2144054A001F0F2FD22462B4601F0A0FF6EA3D3E9A1
S2144054B00023CDE900012046294601F097FF6CA362
S2144054C0D3E9002301F0DEFD22462B4601F08EFF95
S2144054D069A3D3E9002301F0D7FD22462B4601F00D
S2144054E085FF67A3D3E9002301F0CCFD22462B4677
S2144054F001F07CFF694B002201F0C6FDCDE90201B8
S2144055002046294600F06AFC664B804689469E4205
S21440551064DC02460B4600260F4601F0B5FDDDE989
S2144055200223CDE90401DDE9000102F089F80246D4
S2144055300B46DDE9040101F059FF32464B46CDE902
S21440554000013046494601F051FF02460B462046D0
S214405550294601F097FD04460D4632464B464046E6
S214405560494601F091FD02460B462046294602F088
S21440557067F802460B4601F087FD02460B462CA113
S214405580D1E9000101F07EFD02460B46DDE900014F
S21440559001F078FD324604460D463B4630464946C5
S2144055A001F072FD02460B4637A1D1E9000101F039
S2144055B069FD02460B462046294601F063FD024639
S2144055C00B4631A1D1E9000101F05CFD0446BAF179
S2144055D0000F3FF7F6AE01F10041F2E6DDE90223A7
S2144055E0DDE9000102F02CF802460B4640464946EB
S2144055F001F0FCFE42464B4601F046FD02460B4695
S21440560001F042FD0AA3D3E9002301F03BFD024628
S2144056100B4605A1D1E9000101F034FD0446D6E76A
S2144056209C7500883CE4377E182D4454FB21F93F96
S214405630075C143326A6913C09F7FD0DE13D023F79
S21440564088B20175E0EF493F3B8F68B52882A43F9A
S2144056505544880E55C1C93F7D6FEB0312D6D43FE3
S214405660555555555555C53F82922EB1C5B8B33F91
S21440567059018D1B6C06E63FC88A599CE52A0040B6
S2144056804B2D8A1C273A0340182D4454FB21E93FF2
S214405690FFFFEF3F000010C0FFFFDF3F0000F03F7E
S2144056A00000E03F3233EF3F02460B4601F09EFEDD
S2144056B006460F4638A3D3E9002301F097FE38A3E9
S2144056C0D3E9002301F0E0FC32463B4601F08EFE73
S2144056D035A3D3E9002301F0D5FC32463B4601F022
S2144056E085FE33A3D3E9002301F0CEFC32463B4689
S2144056F001F07CFE30A3D3E9002301F0C3FC324620
S2144057003B4601F073FE2EA3D3E9002301F0BCFC18
S21440571032463B4601F06AFE804689463046394668
S21440572029A3D3E9002301F061FE29A3D3E900238E
S21440573001F0A8FC32463B4601F058FE26A3D3E9CA
S214405740002301F0A1FC32463B4601F04FFE24A365
S214405750D3E9002301F096FC32463B4601F046FE74
S2144057600022214B01F090FC02460B46404649463B
S21440577001F066FF02460B462046294601F036FEFB
S21440578022462B4601F080FC0446204606B0BDE883
S214405790F08700BFAFF3008009F7FD0DE13D023F03
S2144057A088B20175E0EF493F3B8F68B52882A43F39
S2144057B05544880E55C1C93F7D6FEB0312D6D43F82
S2144057C0555555555555C53F82922EB1C5B8B33F30
S2144057D059018D1B6C06E63FC88A599CE52A004055
S2144057E04B2D8A1C273A03400000F03F0000000083
S2144057F02DE9F84F544223F00048DFF878A10646DA
S21440580014430D4617469E4648EAD47454453CD841
S214405810444221F0004B894604434BEAD474544535
S21440582033D8534C1C44144346D09C1704F002040F
S21440583044EAD1745BEA00012FD058EA070135D01C
S2144058404C49884545D04B498B452FD0C8EB0B0873
S2144058504FEA2858B8F13C0F37DC18F13C0F60DAB5
S214405860BEF1000F5DDA00200021012C56D0022C3C
S21440587047D084B138A3D3E9002301F003FC38A312
S214405880D3E9002301F0FEFB05E0104619463246F8
S2144058902B4601F0F9FBBDE8F88F032CCDD8DFE8A6
S2144058A004F01212020F34483449F4E7B9F1000FFD
S2144058B0314824DB3249EEE7BDE8F84F01F018B92D
