S01D00004659505F48657861626F745F415453414D5F5337302E7372656300
S21440000070F240205D35400059354000593540007B
S2144000105935400059354000593540000000000031
S214400020000000000000000000000000290B400017
S2144000305935400000000000C50B4000290C400028
S2144000405935400059354000593540005935400033
S2144000505935400059354000593540005935400023
S2144000605935400000000000697F4000B10540005F
S214400070C5054000593540005935400059354000C7
S214400080D9054000ED05400059354000593540003F
S21440009059354000593540005935400059354000E3
S2144000A059354000593540005935400059354000D3
S2144000B059354000650340005935400059354000E9
S2144000C05935400059354000593540000000000081
S2144000D000000000000000000000000000000000DB
S2144000E079034000593540005935400059354000A5
S2144000F05935400059354000E97E400059354000AA
S2144001005935400059354000593540005935400072
S21440011059354000000000000000000000000000CC
S214400120593540005935400059354000B17E4000B1
S2144001305935400000000000593540005935400010
S21440014010B5054C237833B9044B13B10448AFF3CC
S21440015000800123237010BD580940200000000095
S214400160D4434100084B10B51BB108480849AFF3CB
S21440017000800848036803B910BD074B002BFBD02E
S214400180BDE81040184700BF00000000D4434100BF
S2144001905C094020D4434100000000002DE9F047B0
S2144001A08046471E0026DFF834900A4D0A4CDFF89A
S2144001B030A008E02046A8470028FBD0204617F885
S2144001C0011FD04701364046C8478642F2D3BDE8B5
S2144001D0F08700BFA12D4000001E0E40BDC040006D
S2144001E0AD2D400070B582B0036BC26A13400193D8
S2144001F000241A4E1A4DA84214BF002001200501C3
S2144002000B2C0AD8019A0123A340134220D02B1965
S21440021056F82330E3B198471AE00E2C0CD8019AD2
S21440022004F10C0101238B40134211D02B1956F8D0
S21440023023306BB198470BE0019A04F10F0101237C
S2144002408B40134204D02B1956F8233003B19847FD
S2144002500134102CD4D102B070BD00BF24C540205C
S2144002600040064000220260084B4360084B836013
S2144002704FF48023C36002230374012343748374C2
S214400280C274037543758375704700BF00A3E111C0
S214400290808D5B00036B13F080734DD130B4012228
S2144002A00260CA7C002A18BF4FF00043CA6842F476
S2144002B000044A688D68B2FBF5F2013A120292B227
S2144002C022430C7C240604F0706422434C7C2407B2
S2144002D004F040542243134343600B7D002B14BF6D
S2144002E04FF0807200220B681A434B7D002B14BFE0
S2144002F04FF000730023134383608B7D1B0203F48F
S214400300407343F00C03C0F89430124B984206D129
S21440031017E043F8042F8B42FBD1002016E00E4B2B
S21440032098420CD10D4B03F14001002243F8042FB4
S2144003308B42FBD1002009E0192040B270470020D4
S21440034004E0074B03F140010022E2E740B230BC34
S214400350704700BF00C003400040064060C54020D4
S21440036020C5402008B50248024B984708BD00BF4C
S21440037000C00340E501400008B50248024B9847DC
S21440038008BD00BF00400640E501400008B5104BE0
S21440039098420CBF28201D200E4B98470E4B9B784A
S2144003A0FF2B00D1FEE7EFF3108372B6BFF35F8FEB
S2144003B000210A4A117008498A7801328A702BB99E
S2144003C00122064B1A70BFF35F8F62B608BD00BFAE
S2144003D000400640452A40001CC5402010004020F2
S2144003E010B40B78002B0CBF002404244B780BB1C0
S2144003F044F008048B780BB144F01004CB780BB172
S21440040044F040040B790BB144F080044A7952031F
S21440041002F4C0428B7942EA0342CB7942EA036354
S21440042023430360184B5A685B68D20E23F0784328
S21440043043EA02730A7A042A16D8DFE802F0030673
S214400440090E110023F400430EE043F410430BE082
S21440045023F4805343F4004306E043F4005303E0A0
S21440046023F0405323F46043CA68013A074C04EA39
S21440047002440A69013AC2F30A0222431343436024
S2144004805DF8044B704700BF00C004400000FF0703
S21440049070B4234C66686568F60E25F0784545EAE4
S2144004A00675204E2E40466066686568F60EADB20C
S2144004B045EA0675456065686468ED0E24F0784444
S2144004C044EA0575013AC2F30A0215434A1E164C21
S2144004D004EA024445EA040242608468134A224021
S2144004E082608468124A2240826085685A1EC2F33F
S2144004F00906039A013A0F4C04EA024446EA04020B
S2144005002A4382604FF4C86202FB01F1B1FBF3F369
S2144005100949A1FB03235B09C36070BC704700BF59
S21440052000C0044000F8FFF70000FF0700FCFFFF94
S214400530FFFF00FC0000FF031F85EB5110B404686A
S214400540072928BF0721090201F4E0612143016021
S214400550C2648364019B43645DF8044B704700BFEC
S2144005602DE9F041044688460E4B984705462046FE
S2144005700D4B9847054013D00C4C04F16006236899
S214400580434508D16168294205D0E368404698470C
S214400590636825EA0305B44202D01034002DEED13C
S2144005A0BDE8F081192940001D294000740940200B
S2144005B008B502480B21024B984708BD00100E4074
S2144005C06105400008B502480C21024B984708BD1B
S2144005D000120E406105400008B502481021024B4B
S2144005E0984708BD00140E406105400008B5024813
S2144005F01121024B984708BD00160E406105400089
S21440060038B530B9594840F21711594A594B5A4CE7
S214400610A0470346022202601A6912F0807FFBD18F
S21440062080221A600A78012A04D15A6842F00102F0
S2144006305A6001E05A685A604A7822B15A6842F0D5
S21440064002025A6003E05A6822F002025A608A7830
S21440065022B15A6842F004025A603CE05A6822F0DE
S21440066004025A6037E01A6A42F001021A6253E006
S2144006701A6A22F001021A624EE01A6A42F0020238
S2144006801A624DE01A6A22F002021A6248E0186ABC
S214400690120292B220F47F4002431A62002047E0E2
S2144006A01A6C42F001021A6403E01A6C22F001024E
S2144006B01A6424B11A6C42F002021A644AE01A6CB8
S2144006C022F002021A6445E0596449E01A6912F0C1
S2144006D0807FFBD047E05A68C878000100F03000C1
S2144006E022F0300202435A605A6822F470604A6828
S2144006F002435A605A68087A22F47F0242EA00426D
S2144007005A605A68C86822F07F4242EA00625A60DD
S2144007100A69002AACD0A6E74A69002AB2D0ACE7FC
S2144007208869164AB2FBF0F2013AFF2AAFD9F820A0
S2144007301A6A0C7F22F47F0242EA04421A6291F857
S214400740205091F821401A6C22F003021A64002DC2
S214400750A6D1AAE7496AD3F8E42012F0010FB3D035
S21440076001221A60B2E740B238BD00BFF430410003
S214400770E43041001831410031B5400080D1F008E6
S214400780F8B530B936484FF49F71364A364B374C39
S214400790A0470346002A5CD0012A1ED1026912F007
S2144007A0010F08BF4FF4803212D09A680A801A6947
S2144007B012F0040FFBD0FF22DA601A6912F0020F23
S2144007C0FBD09B680B80002048E0013A00D142E015
S2144007D0186910F0010FF8D0E7E7186910F0040F19
S2144007E0FBD00020D860186910F0020FFBD01869C3
S2144007F010F0040FFBD00020D860186910F0020FEC
S214400800FBD0002425464FF0190E26462746186989
S21440081010F0020F15D098680870586810F4706F82
S21440082001D0023100E001310135186910F0040FA3
S214400830FBD0DE60186910F0020FFBD03446384615
S21440084004E0B4F5803F08D201347046AA42DED8B0
S21440085004E0002002E0FD2000E0FD2040B2F8BDAC
S21440086020314100C03141001831410031B54000CF
S214400870F8B530B9234840F28B11234A234B244C19
S214400880A0470346002A38D0012A14D14FF48032BC
S214400890186910F0020F0BD009881A6912F0040F7D
S2144008A0FBD0D9601A6912F0020FFBD0002027E077
S2144008B0013AEDD123E0406800F47060002814BF90
S2144008C04FF0020E4FF0010E0024192527461869F6
S2144008D010F0040F0CD00E78186910F0040FFBD0FF
S2144008E0DE60186910F0020FFBD07144384600E015
S2144008F028460134A242EAD202E0002000E0FD2071
S21440090040B2F8BD20314100CC31410018314100A1
S21440091031B54000014B0360704700BF010000A5A1
S214400920484B1B78FF2B00D1FEE770B483B0EFF343
S214400930108372B6BFF35F8F0024434A1470414C55
S2144009402278013222702BB901223F4B1A70BFF336
S2144009505F8F62B683683D4A93600023136153629B
S21440096001933B4BA3FB01239A0CC82303FB02F3E2
S214400970384AA2FB03239B08019A934205D9019A61
S21440098001320192019A9A42F9D3304D01222A60EF
S2144009904FF0E0440022228002262E602280019200
S2144009A0019A9A4205D2019A01320192019A9A42DC
S2144009B0F9D3264B04241C604FF0E04201251580F5
S2144009C01C60022515801C60032515801C60148061
S2144009D01C60052616801C60062616801C600726AE
S2144009E016801C60082414801D604468640014440B
S2144009F04CF6FE25258044686400144425804468EF
S214400A00640014442580406840001044058000205F
S214400A1018601080104AA2FB0112920901920199B7
S214400A2041F6786202FB01F20192019A0849A1FB65
S214400A300212920C0192019AC2F30B025A6003B062
S214400A4070BC70471CC54020100040200040084045
S214400A5083DE1B43ABAAAAAAD34D6210012904D158
S214400A608268064B1343836003E08268044B13405E
S214400A7083600268034B134303607047000010A571
S214400A80FFFFEF5A080000A54FF40043436070474D
S214400A900D4B1B68B3F1FF3F0AD04FF0800372B690
S214400AA083F31188BFF36F8FBFF34F8F62B6FEE7B5
S214400AB04FF0800372B683F31188BFF36F8FBFF396
S214400AC04F8F62B6FEE700BF0C0040200648006825
S214400AD0006880F3088862B661B6BFF34F8FBFF3F5
S214400AE06F8F00DF00BF000008ED00E0DFF80C006D
S214400AF0016841F4700101607047000088ED00E035
S214400B004FF0807340F8043C40F8081C054B40F812
S214400B100C3C40F8202C6FF0020340F8243C44384C
S214400B20704700BF910A4000064B19680868B0E855
S214400B30F04F80F30988BFF36F8F4FF0000080F3CB
S214400B401188704728C440204FF0800372B683F364
S214400B501188BFF36F8FBFF34F8F62B60B4A13688F
S214400B6001331360012B0FD1094B1B6813F0FF0FA5
S214400B700AD04FF0800372B683F31188BFF36F8FAD
S214400B80BFF34F8F62B6FEE7704700BF0C004020B1
S214400B9004ED00E00A4B1B6853B94FF0800372B671
S214400BA083F31188BFF36F8FBFF34F8F62B6FEE7B4
S214400BB0013B034A13600BB983F31188704700BFAB
S214400BC00C004020EFF30980BFF36F8F154B1A6877
S214400BD01EF0100F08BF20ED108A20E9F04F10607D
S214400BE04DF8043D4FF0800072B680F31188BFF395
S214400BF04F8FBFF36F8F62B601F02CF94FF00000B5
S214400C0080F3118808BC19680868B0E8F04F1EF0F9
S214400C10100F08BFB0EC108A80F30988BFF36F8FBF
S214400C20704700BF28C4402008B5EFF311834FF04B
S214400C30800272B682F31188BFF36F8FBFF34F8F77
S214400C4062B6054B984718B14FF08052034B1A6076
S214400C50002383F3118808BDE91A400004ED00E044
S214400C60034A044B1A600722043B1A60704700BFD1
S214400C70DF93040014E000E000B583B0254B1A78FB
S214400C80D2B20192FF221A701B78DBB28DF8033085
S214400C909DF8033003F080031F4A137007221F4B52
S214400CA01A609DF8033013F0800F10D0062200E043
S214400CB00A469DF803305B00DBB28DF803309DF8A2
S214400CC00330511E13F0800FF2D1144B1A60134AB2
S214400CD013681B0203F4E0631360019BDBB20D4A0A
S214400CE013700F4B1A6842F460021A601A6842F09A
S214400CF060421A600B4B984700220B4B1A600B4B16
S214400D0098470B4A136843F040431360094B984793
S214400D10094B984700E400E0E4094020E8094020F9
S214400D2020ED00E0610C40000C004020ED0A400041
S214400D3034EF00E0CD0A4000910A4000EFF305830F
S214400D400F2B11D9124A9B5CDBB2124A12789A4298
S214400D500AD94FF0800372B683F31188BFF36F8FC2
S214400D60BFF34F8F62B6FEE70B4B1B6803F4E0639E
S214400D700A4A126893420AD94FF0800372B683F348
S214400D801188BFF36F8FBFF34F8F62B6FEE7704791
S214400D90F0E300E0E40940200CED00E0E8094020E4
S214400DA038B5044610F0070F02D020F00704083488
S214400DB00E4B98470E4B1B6823B90E4B23F0070388
S214400DC00B4A13600C4B1B681C444BF2F772944260
S214400DD007D8A34205D2064A15681D44064B1C6038
S214400DE000E00025054B9847284638BDCD1A400000
S214400DF0F0C14020F8094020EC0940201D1C40006E
S214400E0050B14FF0800372B683F31188BFF36F8FF3
S214400E10BFF34F8F62B6FEE7704700BF00F108038E
S214400E2043604FF0FF328260C3600361002303607B
S214400E30704700BF00230361704700BF43684B60A4
S214400E409A688A609A6851609960086103680133BD
S214400E500360704730B40D68B5F1FF3F01D10269B9
S214400E6007E000F1080200E01A4653681C68A542F5
S214400E70FAD253684B6099608A6051600861036893
S214400E800133036030BC70470369426881689160F3
S214400E908268416851605A68824201D192685A60BD
S214400EA000220261186801381860704738B5044659
S214400EB01546026C42B90368002B2BD140681B4B89
S214400EC09847002363602CE06DB98068184B9847BC
S214400ED0A268236C1344A360626893421CD32368C1
S214400EE0A36000201DE0C068114B9847236C5B420E
S214400EF0E2681A44E26021688A4202D26268134479
S214400F00E360022D0AD1A36B53B1A36B013BA363ED
S214400F10002006E0002004E0002002E0002000E080
S214400F200020A36B0133A36338BD00BF21224000DD
S214400F3091BB400030B583B00190446D54B94FF03A
S214400F40800372B683F31188BFF36F8FBFF34F8F62
S214400F5062B6FEE7A26BE36B9A420AD34FF0800379
S214400F6072B683F31188BFF36F8FBFF34F8F62B6AD
S214400F70FEE7A26B934217D90A46204601A90C4BBE
S214400F8098470546A36CB3F1FF3F09D1636A63B146
S214400F9004F12400074B9847002818BF012504E0B9
S214400FA0A36C0133A36400E00025284603B030BD9F
S214400FB0AD0E4000F11F4000026C72B110B5C36820
S214400FC01344C3604468A34201D30368C360034626
S214400FD00846D968014B984710BD704791BB400002
S214400FE0F8B50446204B9847A36C002B18DD1F4DE0
S214400FF01F4F204E636D33B120460021A84701287D
S21440100008D1B84706E0636A53B104F12400B047FC
S21440101000B1B847A36C013BA364A36C002BE9DC8A
S2144010204FF0FF33A364144B98470F4B9847636CBD
S214401030002B13DD23691BB910E0236923B90DE0AB
S21440104004F110060B4D0A4F3046A84700B1B8478A
S214401050636C013B6364636C002BEEDC4FF0FF3344
S2144010606364054B9847F8BD490B4000350F400078
S2144010704D214000F11F4000950B400038B550B957
S2144010804FF0800372B683F31188BFF36F8FBFF3C0
S2144010904F8F62B6FEE704460D46184B98472268C7
S2144010A0216CE36B03FB01F3D01860600020A06363
S2144010B0A2605B1A1344E3604FF0FF336364A3649B
S2144010C085B92369ABB104F110000D4B9847012850
S2144010D00FD14FF080520B4B1A60BFF34F8FBFF3C8
S2144010E06F8F06E004F11000074DA84704F1240076
S2144010F0A847064B9847012038BD00BF490B400023
S214401100F11F400004ED00E01D0E4000950B40002E
S214401110F8B550B94FF0800372B683F31188BFF329
S2144011206F8FBFF34F8F62B6FEE70D4617460646F3
S214401130C1B101FB00F05930144B9847044610B932
S21440114005E0246015E000F15803036011E04FF01D
S214401150800372B683F31188BFF36F8FBFF34F8F50
S21440116062B6FEE75820094B984704460028E8D167
S214401170EDE7E663256420460121054B984784F851
S2144011805070002363652046F8BD00BFA10D4000A7
S2144011907D1040002DE9F04F85B0019250B94FF0D8
S2144011A0800372B683F31188BFF36F8FBFF34F8F00
S2144011B062B6FEE7044661B9026C52B14FF0800356
S2144011C072B683F31188BFF36F8FBFF34F8F62B64B
S2144011D0FEE7022B0DD1E26B012A0AD04FF08003C6
S2144011E072B683F31188BFF36F8FBFF34F8F62B62B
S2144011F0FEE71D460091514B984760B9019B63B18D
S2144012004FF0800372B683F31188BFF36F8FBFF33E
S2144012104F8F62B6FEE7002700E00027484EDFF813
S2144012204C91DFF82881B047A26B022D02D0E36BC9
S2144012309A4233D2204600992A46424B9847636DDD
S21440124073B120462946404B9847012822D14FF09B
S21440125080523E4B1A60BFF34F8FBFF36F8F19E03B
S214401260636A73B104F12400394B9847012811D1C1
S2144012704FF08052354B1A60BFF34F8FBFF36F8FDE
S21440128008E038B14FF08052304B1A60BFF34F8FB2
S214401290BFF36F8F2F4B984701204BE0019B1BB944
S2144012A02C4B9847002045E017B902A8C8470127AD
S2144012B0284B9847284B9847B047636CB3F1FF3F9D
S2144012C001D100236364A36CB3F1FF3F01D1002337
S2144012D0A364204B984702A801A9204B984718BB07
S2144012E0B047D4F838B0D4F83CA01A4B9847D3450A
S2144012F014D104F110000199194B98472046194B18
S2144013009847194B984700288DD14FF08053C8F81E
S2144013100030BFF34F8FBFF36F8F84E72046114BEB
S2144013209847114B98477EE720460E4B98470E4B02
S2144013309847002005B0BDE8F08F00BF5921400017
S214401340490B4000AD0E4000350F400004ED00E074
S214401350F11F4000950B4000CD1A4000B9204000D8
S214401360ED1E4000E10F40001D1C4000892040005B
S21440137050B94FF0800372B683F31188BFF36F8F76
S214401380BFF34F8F62B6FEE72DE9F041044661B9E0
S214401390006C50B14FF0800372B683F31188BFF3F0
S2144013A06F8FBFF34F8F62B6FEE7022B0DD1E06B17
S2144013B001280AD04FF0800372B683F31188BFF33A
S2144013C06F8FBFF34F8F62B6FEE71E4615468846C0
S2144013D0214B9847EFF311874FF0800372B683F3A3
S2144013E01188BFF36F8FBFF34F8F62B6A26B022E8A
S2144013F002D0E36B9A4223D2204641463246174BF0
S2144014009847A36CB3F1FF3F15D1636D43B12046B7
S2144014103146134B9847012814D19DB1286016E0F9
S214401420636A8BB104F124000E4B984770B16DB1DE
S214401430012028600BE0A36C0133A364012006E082
S214401440002004E0012002E0012000E0012087F3B4
S2144014501188BDE8F08100BF3D0D4000AD0E400054
S214401460350F4000F11F400050B94FF0800372B670
S21440147083F31188BFF36F8FBFF34F8F62B6FEE7DB
S21440148070B50446036C53B14FF0800372B683F3D5
S2144014901188BFF36F8FBFF34F8F62B6FEE70368C6
S2144014A063B9436853B14FF0800372B683F3118833
S2144014B0BFF36F8FBFF34F8F62B6FEE70D461F4BED
S2144014C09847EFF311864FF0800372B683F3118886
S2144014D0BFF36F8FBFF34F8F62B6A26BE36B9A4238
S2144014E021D2A36B0133A363A36CB3F1FF3F15D1A5
S2144014F0636D43B120460021114B9847012814D113
S2144015009DB1286016E0636A8BB104F124000D4B50
S214401510984770B16DB1012028600BE0A36C013391
S214401520A364012006E0002004E0012002E0012040
S21440153000E0012086F3118870BD00BF3D0D4000DD
S214401540350F4000F11F40002DE9F04F85B0019265
S21440155050B94FF0800372B683F31188BFF36F8F94
S214401560BFF34F8F62B6FEE7044661B9026C52B1D4
S2144015704FF0800372B683F31188BFF36F8FBFF3CB
S2144015804F8F62B6FEE798468B46524B984760B9F7
S214401590019B63B14FF0800372B683F31188BFF3AB
S2144015A06F8FBFF34F8F62B6FEE7002600E000263F
S2144015B0494DDFF854A1DFF83091A847A36B002BC4
S2144015C034D0E56820465946444B9847B8F1000F5A
S2144015D018D1A36B013BA363236813B9404B9847CC
S2144015E060602369F3B104F110003E4B9847012830
S2144015F018D14FF080523C4B1A60BFF34F8FBFF369
S2144016006F8F0FE0E560636A63B104F12400354BE9
S214401610984738B14FF08052334B1A60BFF34F8F24
S214401620BFF36F8F314B984701204FE0019B1BB9AA
S2144016302E4B9847002049E016B902A8D04701260D
S2144016402A4B98472A4B9847A847636CB3F1FF3F0D
S21440165001D100236364A36CB3F1FF3F01D10023A3
S214401660A364224B984702A801A9224B984738BB4F
S214401670A847A76B1D4B9847E7B923682BB9A847DF
S21440168060681D4B9847194B984704F12400019910
S2144016901A4B984720461A4B98471A4B98470028AB
S2144016A08BD14FF08053C9F80030BFF34F8FBFF354
S2144016B06F8F82E72046124B9847124B98477CE73D
S2144016C020460F4B98470F4B9847002005B0BDE883
S2144016D0F08F00BF59214000490B4000B90F400031
S2144016E0E1224000F11F400004ED00E0950B400071
S2144016F0CD1A4000B920400079214000ED1E400040
S214401700E10F40001D1C40008920400010B40B4BE8
S2144017101B682BB10123094C54F8332042B900E032
S2144017200023064A42F8331002EBC303586002E037
S2144017300133082BF0D15DF8044B7047A4C5402018
S21440174070B504460E4615460D4B9847636CB3F18C
S214401750FF3F01D100236364A36CB3F1FF3F01D187
S2144017600023A364074B9847A36B2BB904F12400CE
S21440177031462A46044B98472046044B984770BD4E
S214401780490B4000950B4000711F4000E10F4000A0
S214401790084B1B681B6823B94FF0FF32064B1A6094
S2144017A07047044B1B68DB68DB685A68024B1A605C
S2144017B0704700BFF8C1402048C4402010B50446DA
S2144017C00E4B1B6858600E4B1B68984207D20D4B59
S2144017D018680A4B196804310B4B984710BD0B4BE1
S2144017E01868064B19680431074B9847084B1B6826
S2144017F09C4201D2064B1C6010BD00BF28C440204E
S21440180044C4402018C24020550E4000F8C1402035
S21440181048C440202DE9F04F83B00C9FDDF834A03B
S2144018200E9D50B94FF0800372B683F31188BFF314
S2144018306F8FBFF34F8F62B6FEE7182F0AD94FF06F
S214401840800372B683F31188BFF36F8FBFF34F8F59
S21440185062B6FEE70190009390460E4635B990007A
S2144018605F4B98470546002800F0B48058205C4BF4
S21440187098470446A0B105632846A5214FEA88024A
S214401880584B98476FF040454544236B03EB850320
S21440189023F00705337884F83430337823B90FE0E3
S2144018A02846514B984795E0334604F134020936B2
S2144018B013F8011F02F8011F197809B1B342F7D196
S2144018C04FF0000884F83D803E46182F28BF182663
S2144018D0E662A664C4F84C8004F104094846DFF882
S2144018E054B1D84704F11800D8472461C6F1190608
S2144018F0A6616462C4F8508084F8548028460199F2
S214401900009A3A4B98472060BAF1000F01D0CAF8C7
S2144019100040374B9847374A136801331360364BBD
S2144019201B680BBB344B1C601368012B26D1334D10
S21440193005F5FA78324E2846B04714354545FAD173
S214401940DFF8F48040462E4DA8472E4E3046A84736
S2144019502D48A8472D48A8472D48A8472D4BC3F8E3
S21440196000802D4B1E6009E02C4B1B6833B9224B80
S2144019701B68DB6A9F4201D31F4B1C60284A1368D2
S214401980013313602364E06A26490B6801228240D3
S21440199013430B6000EB8000184B03EB8000494676
S2144019A0214B9847214B98471C4B1B6873B1124BF1
S2144019B01B68DB6A9F420BD94FF080521C4B1A6063
S2144019C0BFF34F8FBFF36F8F012005E0012003E088
S2144019D0012001E04FF0FF3003B0BDE8F08F00BFBC
S2144019E0A10D4000C5BC4000010E4000010B400068
S2144019F0490B400050C4402028C4402020C240200C
S214401A001D0E400054C440202CC4402014C4402026
S214401A1068C44020F8C1402018C24020FCC1402085
S214401A204CC440207CC440203D0E4000950B4000F6
S214401A3004ED00E0350E400004C2402010B584B0EE
S214401A400023009301930293039318481849822277
S214401A50184CA04701281AD1174B9847012816D191
S214401A604FF0800372B683F31188BFF36F8FBFF3D6
S214401A704F8F62B64FF0FF32104B1A600122104B68
S214401A801A6000220F4B1A600F4B98470BE050B974
S214401A904FF0800372B683F31188BFF36F8FBFF3A6
S214401AA04F8F62B6FEE704B010BD00BFC51D4000B4
S214401AB0D831410015184000C923400048C4402092
S214401AC0FCC1402044C44020790C4000024A1368C0
S214401AD001331360704700BF40C44020014B186874
S214401AE0704700BF44C440202DE9F0473D4B1B687B
S214401AF0002B6AD13C4B1A6801321A601E68D6B970
S214401B003A4B1B681B6853B14FF0800372B683F3A1
S214401B101188BFF36F8FBFF34F8F62B6FEE7334A2D
S214401B201168334B186810601960324A13680133E5
S214401B301360314B9847314B1B689E4201D20024BC
S214401B4037E00024DFF8A490DFF8CC802C4FD9F89B
S214401B5000301B6823B94FF0FF32284B1A6028E04C
S214401B60D9F80030DB68DD686B689E4202D2234AB3
S214401B7013601EE005F1040A5046C047AB6A13B135
S214401B8005F11800C047E86A3B68012282401343CB
S214401B903B6000EB80001B4B03EB800051461A4B2A
S214401BA098471A4B1B68EA6ADB6A9A4228BF0124A8
S214401BB0CDE7164B1B68DB6A03EB8303114A52F8EA
S214401BC02330022B28BF012404E0114A1368013356
S214401BD0136000240F4B1B68002B0CBF20460120CF
S214401BE0BDE8F08740C4402044C44020F8C14020AF
S214401BF018C24020F4C140209117400048C44020FD
S214401C007CC4402020C240203D0E400028C44020D6
S214401C101CC2402080C44020890E40002DE9F84375
S214401C20364B1B6853B94FF0800372B683F3118866
S214401C30BFF36F8FBFF34F8F62B6FEE7304B9847C8
S214401C402E4B1A68013A1A601B68002B4DD12D4B5B
S214401C501B680BBB00244BE0FB68DC6804F11800F3
S214401C60B04704F104084046B047E06A2B680122BA
S214401C70824013432B6000EB800009EB8000414616
S214401C80214B9847214B1B68E26ADB6A9A4208D38D
S214401C9001221F4B1A6004E01E4F1F4E1F4DDFF8F7
S214401CA090903B68002BD7D11D4B1B687BB11C4BDB
S214401CB01B6863B11B4E164D194CB04708B1012343
S214401CC02B602368013B23602368002BF5D1104B23
S214401CD01B68012B0BD14FF08052134B1A60BFF399
S214401CE04F8FBFF36F8F012402E0002400E00024F2
S214401CF00E4B98472046BDE8F88300BF40C44020BE
S214401D00490B400050C440203D0E400028C44020AF
S214401D1080C440202CC44020890E40007CC4402013
S214401D201CC24020E91A400004ED00E0950B40003C
S214401D3020C2402010B5002829D00446184B1B6806
S214401D4053B14FF0800372B683F31188BFF36F8FA1
S214401D50BFF34F8F62B6FEE7124B9847124B1B6895
S214401D601C44124B18680430114B984748B90F4B27
S214401D701A6810490B68D06A0122824023EA02039F
S214401D800B6020460C4B98470C4B984738B94FF0A1
S214401D9080520B4B1A60BFF34F8FBFF36F8F10BD4F
S214401DA040C44020CD1A400044C4402028C44020AF
S214401DB0890E40007CC44020BD1740001D1C4000DA
S214401DC004ED00E080B5184D184EDFF88080184FBF
S214401DD019E0C0473468B847ACB1164B9847F3682B
S214401DE0DC68201D144B9847144A1368013B136067
S214401DF02B68013B2B60124B9847206BDFF85090C6
S214401E00C8472046C8472B68002BE2D10D4B1B68BD
S214401E10012BF8D94FF080520B4B1A60BFF34F8F0F
S214401E20BFF36F8FD1E700BF00C2402014C44020EC
S214401E301D1C4000490B4000890E400050C4402005
S214401E40950B400020C2402004ED00E0CD1A400033
S214401E50010E4000204B1B681BB101221F4B1A602D
S214401E60704700221D4B1A601D4B1B68B3FA83F364
S214401E70DBB2C3F11F0303EB83011A4A52F8212059
S214401E8052B94FF0800372B683F31188BFF36F8F59
S214401E90BFF34F8F62B6FEE710B4124A9900C818D7
S214401EA002EB80004468646844600246083294420C
S214401EB006D1606803EB83010A4A02EB8102506058
S214401EC003EB8303074A02EB83035B68DA68064B3F
S214401ED01A605DF8044B704740C4402080C44020E0
S214401EE07CC4402020C2402028C4402038B550B989
S214401EF04FF0800372B683F31188BFF36F8FBFF342
S214401F004F8F62B6FEE70C46114D29681831114BCB
S214401F10984728680430104B984740B92A680F49BC
S214401F200B68D06A0122824023EA02030B60B4F1B8
S214401F30FF3F06D1064B196809480431094B9847BC
S214401F4038BD094B18682044084B984738BD00BF39
S214401F5028C44020550E4000890E40007CC44020D6
S214401F6068C440203D0E400044C44020BD17400099
S214401F7050B94FF0800372B683F31188BFF36F8F6A
S214401F80BFF34F8F62B6FEE770B515460C46114E4E
S214401F9031681831104B9847306804300F4B9847DB
S214401FA040B932680E490B68D06A0122824023EA63
S214401FB002030B60012D06D1064B1968094804310F
S214401FC0054B984770BD084B18682044074B984708
S214401FD070BD00BF28C440203D0E4000890E400022
S214401FE07CC4402068C4402044C44020BD17400004
S214401FF038B5C368DC6854B94FF0800372B683F3D3
S2144020001188BFF36F8FBFF34F8F62B6FEE704F1C0
S21440201018052846144B9847144B1B689BB9251D3A
S2144020202846114B9847E06A11490B6801228240C6
S21440203013430B6000EB80000E4B03EB80002946F9
S2144020400D4B984703E00D4829460B4B98470C4BE1
S2144020501B68E26ADB6A9A4203D90120094B186082
S21440206038BD002038BD00BF890E400040C4402027
S2144020707CC4402020C240203D0E40002CC440205E
S21440208028C4402080C4402050B94FF0800372B628
S21440209083F31188BFF36F8FBFF34F8F62B6FEE7AF
S2144020A0034A12680260034A12684260704700BFE3
S2144020B0F4C1402044C4402038B550B94FF08003A6
S2144020C072B683F31188BFF36F8FBFF34F8F62B63C
S2144020D0FEE7044651B94FF0800372B683F3118889
S2144020E0BFF36F8FBFF34F8F62B6FEE70D46124BBE
S2144020F09847124B19682B68B3F1FF3F13D0104A2C
S21440210012682068904202D0626891420DD262689E
S214402110881A83420BD9521A13442B602046094B27
S2144021209847002404E0002402E0012400E0012453
S214402130054B9847204638BD490B400044C44020D4
S214402140F4C1402089204000950B40000122014BFD
S2144021501A60704780C44020054B1B6833B1054B5E
S2144021601B68002B0CBF02200020704701207047E0
S214402170FCC1402040C44020002845D038B5034626
S214402180C26A22490968C96A8A423CD281690029E2
S21440219005DB1E490968C96AC1F11901816102EB74
S2144021A082021B4901EB82025969914227D11C46A3
S2144021B01D1D2846174B984770B9E36A03EB830109
S2144021C0134A52F821203AB913480268012101FA0D
S2144021D003F322EA030303600C4B1B68D86AE062F1
S2144021E00D490A680123834013430B6000EB8000CF
S2144021F0074B03EB80002946084B984738BD034AF7
S2144022001268D26ADA6238BD704700BF28C44020E0
S21440221020C24020890E40007CC440203D0E400035
S21440222000284ED038B5294A126890420AD04FF05E
S214402230800372B683F31188BFF36F8FBFF34F8F5F
S21440224062B6FEE7C26C52B94FF0800372B683F3B3
S2144022501188BFF36F8FBFF34F8F62B6FEE7013A28
S214402260C264002A2FD1C16A826C91422BD00446A8
S214402270051D2846164B984768B9E16A01EB81026E
S214402280144B53F8223033B91348036801228A406E
S21440229023EA02030360A06CE062C0F11903A36165
S2144022A00D4A1368012404FA00F10B43136000EB57
S2144022B08000084B03EB80002946084B9847204691
S2144022C038BD00207047002038BD00BF28C44020DD
S2144022D0890E400020C240207CC440203D0E400075
S2144022E0054B1B6823B1044B1A68D36C0133D36487
S2144022F0014B1868704700BF28C4402010B50446FC
S2144023004160206191420AD8D21A83699A4211D21A
S2144023100A4B1868211D0A4B9847002010BD994269
S21440232001D39A4208D3074B1868211D044B98479F
S214402330002010BD012010BD012010BDB8C44020B3
S214402340550E400084C4402070B5144B9847144B3B
S2144023501B6803BB134D2846134EB047134C20460C
S214402360B047134B1D60134B1C6005201021002204
S214402370114B98470A4B186050B94FF0800372B61D
S21440238083F31188BFF36F8FBFF34F8F62B6FEE7BC
S2144023900A490B4B98470B4B984770BD490B40007A
S2144023A0B4C4402088C440201D0E40009CC4402039
S2144023B084C44020B8C4402011114000F031410090
S2144023C00D174000950B400010B584B00F4B984752
S2144023D00F4B1B6863B118230093002301930293AD
S2144023E003930C480C494FF482720C4CA04750B9EA
S2144023F04FF0800372B683F31188BFF36F8FBFF33D
S2144024004F8F62B6FEE704B010BD00BF49234000C0
S214402410B4C4402059254000F8314100151840000A
S21440242050B94FF0800372B683F31188BFF36F8FB5
S214402430BFF34F8F62B6FEE730B585B0154604460B
S214402440124A1068F0B11A46009101950294052987
S21440245013DC0F4B9847022807D10C4B1868694687
S214402460089A00230B4CA0470DE0084B18686946B5
S21440247000221346074CA04705E069460023064C59
S214402480A04700E0002005B030BD00BFB4C44020E7
S2144024905921400095114000711340002DE9F04746
S2144024A082B08046254B98470746254B1B68984286
S2144024B03BD22BE0DB68D3F800A0DC6804F10409CB
S2144024C04846B047636A20469847E369012B1FD1C8
S2144024D0A3695344534506D9636024612868494636
S2144024E0184B984714E0002300932046194652465E
S2144024F0154CA04760B94FF0800372B683F311883D
S214402500BFF36F8FBFF34F8F62B6FEE70F4D104E8F
S2144025102B681A68002ACDD10E4A10680B4908600D
S21440252013600123C8F8003002E00023C8F80030EA
S214402530034B1F60384602B0BDE8F087DD1A400006
S214402540B0C44020550E40002124400084C44020A2
S214402550890E4000B8C440202DE9F04389B0694C4C
S214402560694F6A4D6A4B1B681A68002A00F0BF80A4
S214402570DB681E68674B984704A8674B98478046B9
S214402580049B002B4DD1B04239D3644B9847604BE7
S2144025901B68DB68D3F80C9009F10400604B984741
S2144025A0D9F81C30012B1DD1D9F8181048463144B3
S2144025B042463346DFF878C1E047012812D100236F
S2144025C00093484619463246564EB04750B94FF0EB
S2144025D0800372B683F31188BFF36F8FBFF34F8FBC
S2144025E062B6FEE7D9F824304846984777E04E4B27
S2144025F01B681A68B2FA82F25209002600E00022EE
S2144026002068C8EB0601494B9847444B984700283A
S21440261065D14FF080533B60BFF34F8FBFF36F8F52
S2144026205DE03E4B98475AE0049B002B06DA06983E
S2144026300799059B9847049B002B50DB069E7369C1
S21440264013B1301D364B984703A8334B9847864600
S214402650049A092A43D8DFE802F0050505422A3FD6
S2144026600505422A059BB169304619447246DFF893
S214402670C0C0E047012832D1736A30469847F369B4
S214402680012B2CD1B2690023009330461946059E93
S2144026903244244EB04710BB4FF0800372B683F3EB
S2144026A01188BFF36F8FBFF34F8F62B6FEE7059971
S2144026B0B16151B94FF0800372B683F31188BFF30E
S2144026C06F8FBFF34F8F62B6FEE730467144724657
S2144026D07346174EB04702E03046164B9847206880
S2144026E004A900221346A84700289DD13AE7094B83
S2144026F0984704A8084B98478046049B002B3FF415
S21440270076AF8EE7B4C4402004ED00E049154000A3
S21440271084C44020CD1A40009D2440001D1C40002B
S214402720890E400021244000B8C440204117400094
S214402730FD224000010E400010B51048104B98474F
S21440274000203E210F4B98470F4CA0470028FCD056
S2144027500E4B98470E4A0F4B9A620F4CA0470028E4
S214402760FCD002200D4B984700200D4B98470D4B50
S21440277098470248024B984710BD00BF00A3E1119E
S21440278009374000C1294000152A4000252A40004C
S214402790013F182000060E40352A400021294000FF
S2144027A059294000F53540000AB141667047016638
S2144027B0704700BF016370474163704721F0006176
S2144027C0B1F1405F01D1836B00E0C36B134214BF8D
S2144027D001200020704700BF4264B1F1C05F2FD097
S2144027E007D8B1F1006F14D0B1F1805F1ED039B96F
S2144027F07047B1F1205F37D004D8B1F1005F29D0DF
S21440280042607047B1F1405F2ED0B1F1605F2BD08F
S214402810F6E710B4016F046FD343214019400167B7
S214402820416F446F21400B4043671AE0036F1343E8
S2144028300367436F416F0B4023EA02034367DFE7BA
S214402840036F016F0B4023EA02030367436F134392
S2144028504367D5E7036F13430367436F13434367E9
S214402860CEE742605DF8044B704700BF416412F00B
S214402870010F01D0416600E0016612F00A0F01D058
S214402880016200E0416212F0020F02D0C0F88010F0
S21440289004E012F0080F01D0C0F8841041610160D6
S2144028A0704700BF10B44164019C0CB1416600E023
S2144028B001660BB1016500E041650AB1016300E0C5
S2144028C04163016101605DF8044B704712B1C0F886
S2144028D094107047C0F89010704700BF12F0100F69
S2144028E012D0C0F8B01012F0200F02D0C0F8D410AA
S2144028F001E0C0F8D01012F0400F02D0C0F8C0106F
S2144029007047C0F8C4107047C0F8B410704700BF96
S214402910C36C0164704700BFC06C7047806C7047E2
S214402920032807D0042808D002280CBF4FF4807133
S214402930002104E04FF4407101E04FF40071054A75
S214402940136B23F440730B431363936E13F0080F1B
S214402950FBD0704700060E40184A136B23F07003F6
S21440296018431063936E13F0080F03D009E0013B41
S21440297003D11EE04FF4006310498A6E12F0080F30
S214402980F5D00E4A136B23F0030343F002031363A0
S214402990906E10F0080004D000207047013B03D131
S2144029A009E04FF4006305498A6E12F0080FF5D02F
S2144029B07047012070470120704700BF00060E4058
S2144029C038B10E490B6A0E4A1A400E4B13430B623F
S2144029D070470A48036A0C4A1A400C4B13430902D4
S2144029E089B2194301620246936E13F0010FFBD081
S2144029F0024A116A064B0B431362704700060E40AC
S214402A00FCFFC8FE02003701FCFFC8FF010037008C
S214402A1000003701024B986E00F48030704700BFCC
S214402A2000060E404FF00052014B9A62704700BFBE
S214402A3000060E40024B986E00F00200704700BF42
S214402A4000060E403F281ED81F280CD8114B9A6906
S214402A50012383401A40934217D0012383400D4AF6
S214402A601361002070470B4BD3F808212038012310
S214402A7083401A4093420AD001238340054AC2F855
S214402A80003100207047012070470020704700202A
S214402A90704700BF00060E400F4B994219D84900B8
S214402AA0B2FBF1F2043AFF2A07D900230133520859
S214402AB0062B03D8FF2AF9D800E00023110289B27A
S214402AC01B0403F4E0230B43D2B21A4302610020F6
S214402AD070470120704700BF801A060008B50A46B6
S214402AE04FF0FF318162016A80210160016B08214D
S214402AF00160202101600421016051681268034B87
S214402B009847012814BF0020012008BD992A40009C
S214402B10F0B4CA688C68002A47D0002646604B68E6
S214402B201B0203F4407343F480550B7C1B0403F4F0
S214402B30FE032B434360C6604D685DB10B78012DA4
S214402B4002DD4E7846EA0323022D04DD897841EA09
S214402B50032300E00023C3600123036043F6982666
S214402B60022714E0036A13F4807F20D1013920D075
S214402B70012A04D1076013F0020FF3D01DE013F0D2
S214402B80020F0AD0036B04F8013B013A07D0036AF0
S214402B9013F480750FD13146EAE7002AE2D1036A82
S214402BA013F0010FFBD0036A0AE0012508E0052573
S214402BB006E0092504E0052502E0036B2370EEE7F6
S214402BC02846F0BC704700BF2DE9F04186B01C484F
S214402BD01C4EB0471C4D002400942846182122461F
S214402BE02346DFF88480C04728461821174FB84749
S214402BF028464FF000611822154B98470094284607
S214402C004FF0806122462346C04728464FF08061F9
S214402C10B847104880230360036B082303602023D3
S214402C200360042303600C4B03930C4B049303A9EB
S214402C300B4B98470B48B04706B0BDE8F08100BF45
S214402C40003241009D014000000E0E40B927400072
S214402C50D92740000080014000A3E111400D030049
S214402C60DD2A400024324100A528400070B5CC68DB
S214402C708D68002C55D0002646600B7C1B0403F460
S214402C80FE024B681B0203F4407313434360C66066
S214402C904A68002A51D00B78012A02DD4E7846EA6F
S214402CA00323022A4ADD8A7842EA032346E0036A7F
S214402CB013F4807F37D1013A03D1254B984705213D
S214402CC044E013F0040F03D02B784363013C0135F6
S214402CD0002CECD1036A13F4807426D113F0040F51
S214402CE00ED100234FF6FF7102E012F0040F07D119
S214402CF00133026A12F4807F19D18B42F5D916E06F
S214402D0002230360016A11F0010112D100234FF63D
S214402D10FE740133026A12F0010F17D1A342F8D9AC
S214402D2014E0012112E0052110E005210EE0052106
S214402D300CE021460AE0052108E00023C360036A50
S214402D4013F4807FF7D14FF6FF72BAE7084670BD9E
S214402D50C92B400010B4AC2303600B684A68B3FB31
S214402D60F2F31B095C1E4FF6FE72944206D80362CD
S214402D708B68436050230360002000E001205DF82C
S214402D80044B704740230360704700BF1023036026
S214402D90704700BF50230360704700BF8160704794
S214402DA04069C0F34000704701627047436913F0C2
S214402DB0020F02D0C161002070470120704700BF5B
S214402DC0436913F0010F03D083690B7000207047EE
S214402DD0012070472DE9F04F9FB0A9480021A94B2C
S214402DE09847A94B9847EFF3108372B6BFF35F8FAF
S214402DF00021A64A1170A6490A6842F470020A6089
S214402E00BFF34F8FBFF36F8F2BB901229F4B1A70C2
S214402E10BFF35F8F62B6DFF818931BAD99E80700E3
S214402E2085E807002E209B4FB8472E20B8479A4C7F
S214402E3020462946994B98472046994B9847204626
S214402E40984B98472046984B984720464FF47A71BF
S214402E50964B98471020B84795484FF0C051954A32
S214402E60954EB0479548964DA8479648A8479648E9
S214402E704FF060514FF48052B0470A20B8470B20BD
S214402E80B8470024009491484FF08051224623468C
S214402E90DFF8A082C04700948C484FF0005122468D
S214402EA02346C047009489484FF080412246234637
S214402EB0C047009485484FF0007122462346C047DD
S214402EC0009481484FF4005122462346C047009460
S214402ED07E48042122462346C04700947B484FF054
S214402EE0004122462346C047009478484021224667
S214402EF02346C0477648A8477648A8477648774B43
S214402F0098477748A8477748A847604B4FF0010254
S214402F101A70BFF35F8F62B67348A8477348A847D6
S214402F200DF1600B09F10C0999E807008BE80700E2
S214402F303E20B8470C20B8471020B8471120B84765
S214402F40DFF8F4916A484FF000614A46B047684857
S214402F5049460122DFF8E491C8476548654922465C
S214402F60DFF8DCA1D04759484FF000614FF4C0323B
S214402F70B04756484FF4C0312246C84753484FF4EE
S214402F80C0310122D04751484FF0C0515A4AB0474D
S214402F904E4859490122C8474C4857492246D047CF
S214402FA043484FF0C051554AB04741485349012223
S214402FB0C8473F4851492246D04751484FF00061E4
S214402FC03F22B0474E483F210122C8474C483F2148
S214402FD02246D0474B4AD2F8243143F01003C2F879
S214402FE0243143484FF000614FF40042B047584602
S214402FF04549464B98474648A8474FF0E04021464B
S2144030004FF08072434B98474348A8474348A847E9
S214403010009427484FF0806122462346C047244804
S2144030204FF08061DFF81CB1D847009427484FF036
S214403030806122462346C04724484FF08061384B83
S21440304098471320B84721484FF000611822B047F0
S214403050009417484FF0806122462346C0471448E4
S2144030604FF08061D8472F4B98472F48A8472F48A6
S214403070A8474020DFF8D080C0474120C04765E0E1
S21440308010180E405D0A40003927400010004020CE
S21440309088ED00E0452A4000001E0E40552D4000B9
S2144030A0952D4000852D40008D2D4000A92D4000D7
S2144030B000140E4008000400D9274000603241004A
S2144030C09D014000C432410000100E40000E0E40EC
S2144030D0E43241000433410050180E40890A400053
S2144030E0283341004C334100743341009C33410047
S2144030F000120E40FF80FCFF01001C0000E0832011
S21440310000160E400080084000A3E111210940004F
S214403110BC334100C5BC4000D8334100FC334100BD
S214403120B9274000C92B40001C34410040344100C0
S21440313048324100A5284000FF00FCFFCD28400053
S214403140A9274000B52740007D524000AD48A8471B
S214403150AD48A847AD4DAE484FF000512A46B0475F
S214403160AB4829462246D047A94829460122C847A7
S214403170A8484FF000510822B047A64808212246EA
S214403180D047A44808210122C847A3484FF0005121
S2144031904FF01062B047A0484FF080514FF408728D
S2144031A0B0479E4D9C4829462246D0479A482946D5
S2144031B00122C8473B20B847994B98470622994B6F
S2144031C05A621A46936A13F0040FFBD001268DF814
S2144031D04C608DF84D6000258DF84E508DF84F5060
S2144031E08DF850508DF852608DF853508DF85450ED
S2144031F04FF42078CDF858804FF4F073179302239D
S2144032008DF851304FF0E044204629464FF080720A
S214403210854B98470C20DFF87892C84707460C2025
S214403220C847B8603C607E608760046046607D4CFE
S214403230204613A97D4B98473B6800932046294675
S2144032403A4633467A4DA847A36B3343A3634FF4BD
S214403250A0730093204641464246764DA847636891
S21440326043F080536360636A334363622246936AE3
S21440327013F0010FFBD07048704CA0477048A04731
S21440328000238DF824308DF825308DF826308DF8C3
S21440329027300A936B4A0F9205220B920A220C9211
S2144032A00D930E935C4D28464FF000614FF41E324E
S2144032B0654CA04728464FF41E310122634B984781
S2144032C053484FF000614FF00042A0472B20604B20
S2144032D0984702225F4B1A601A46136913F0807FA4
S2144032E0FBD15C4C80232360204609A95A4B984763
S2144032F0012323602246136913F0807FFBD002220D
S214403300544B1A601A46136913F0807FFBD1514C18
S21440331080232360204609A94F4B98474F48504B7F
S2144033209847012323602246136913F0807FFBD021
S2144033304A4E30464A4CA047354F00250095384601
S2144033404FF480612A462B46DFF848C1E0473846AE
S2144033504FF48061434B98473046A04738464FF479
S2144033608061414B98474148344CA0474048A0476D
S214403370404B9847404B98474048A0474048A04756
S2144033801D20DFF8CCB0D8473E4E3046DFF808A1C7
S214403390D04703A8DFF80491C847304603A9DFF8B2
S2144033A00081C047736823F08F0373602820D84796
S2144033B006F520363046D04703A8C847304603A90E
S2144033C0C047736823F08F0373604FF00108C6F858
S2144033D0148006F5FA26304602212A461B4B9847AB
S2144033E0304602212A46284B98472848A047DFF80F
S2144033F0B4904846A04706F5007630464FF48051D4
S214403400092251E068344100903441000018601BA6
S21440341000140E4000100E40000E0E402002000920
S214403420A555400000C00440C5BC4000E103400034
S2144034303D05400091044000B43441009D014000E9
S214403440D83441000024F400D9274000A927400082
S214403450452A400000C0074001064000252B4D008D
S21440346001004020B5274000B9274000F83441000D
S21440347018354100093A4000253C40003C354100A3
S2144034806035410000C00340CD28400080354100F3
S21440349029B64000A52840008D0340006502400044
S2144034A095024000A0354100224DA84730464FF4D3
S2144034B000610922A84730464FF480610922A84798
S2144034C030464FF400710922A8471B4E3046A047AD
S2144034D04846A04738464FF400710922A847304670
S2144034E0A0471648A04716484146164B9847164DE3
S2144034F04FF48042C5F88421C02385F82E336A6095
S2144035004FF48066C5F88060C5F8806185F80A3358
S214403510A7F5C067384631460C4B98473846314683
S21440352070220B4B98472E600A48A0471FB0BDE854
S214403530F08F00BF6D284000C4354100E83541009B
S214403540001E0E409D2D400000E100E01129400085
S214403550DD28400010364100FEE700BF08B5194B95
S214403560194A9A4203D0194B164A9A4204D3184B2A
S214403570184A9A4210D31BE012490A1D164B9B1A52
S21440358023F003030433104A134452F8040B41F863
S214403590040B9A42F9D1EAE7104B114AD21A22F0AC
S2144035A003021A44043B002143F8041B9342FBD118
S2144035B00C4A0D4B23F07F0393600C4B98470C4B03
S2144035C09847FEE700004020D44341005809402079
S2144035D070D24020580940205B0940205C094020BA
S2144035E073D2402000ED00E000004000B1B540003E
S2144035F0D57D40003D4B1B6B03F00303012B12D0DF
S21440360013B1022B2CD05AE0394B5B6913F0800F74
S21440361004D04FF40042374B1A6050E04FF4FA4261
S214403620344B1A604BE0314B1B6A13F0807F03D05B
S214403630314A304B1A6042E0304A2E4B1A602B4BD0
S2144036401B6A03F07003102B02D0202B04D036E008
S2144036502B4A284B1A6032E0274A264B1A602EE047
S214403660224B1B6A13F0807F03D0234A214B1A60FB
S21440367012E0224A1F4B1A601C4B1B6A03F0700371
S214403680102B02D0202B04D006E01D4A194B1A609E
S21440369002E0194A174B1A60144B1B6B03F00303E6
S2144036A0022B0CD1114A936A926A1248C3F30A411C
S2144036B0036801FB0333D2B2B3FBF2F303600B4B58
S2144036C01B6B03F07003702B07D10A4A13680D4931
S2144036D0A1FB03135B0813607047044B1A6B054944
S2144036E0C2F302120B68D3400B60704700060E40D0
S2144036F010180E4014004020001BB70000093D0083
S21440370000127A00ABAAAAAA144B984204D84FF0EB
S2144037108062134B1A607047124B984203D8124A85
S2144037200F4B1A607047114B984203D8104A0C4B07
S2144037301A6070470F4B984203D80F4A084B1A60DE
S21440374070470E4B984204D84FF00422044B1A6040
S21440375070470B4A024B1A60704700BFFF2C31017E
S214403760000C0E40FF59620200010004FF869303DE
S21440377000020004FFB3C40400030004FFE0F505A4
S21440378000050004094B1B6813B9094A074B1A6029
S214403790064B1B681A180749914204DB1046034A39
S2144037A01060184670474FF0FF307047BCC440204A
S2144037B070F44020FCFF45204FF0FF30704700BFBC
S2144037C04FF0FF30704700BF4FF0FF30704700BFEC
S2144037D04FF400534B600020704700BF01207047F5
S2144037E00020704708B501460148024B9847FEE75F
S2144037F03C36410001B64000704700BF4FF0FF30F6
S214403800704700BF2DE9F04F87B000AF03F1070EB9
S2144038102EF0070EADEB0E0D082B41DC6E4619B9A7
S214403820F8604FF0010B3EE040F04000F8607F2A21
S21440383003D83A614FF0020B35E002F07F0141F0C9
S21440384080013961C2F3C7127A614FF0030B2AE058
S2144038501B4849460122B04708F1010809F104090E
S214403860C345F5DC16487E6831465246154B9847A8
S214403870BAF1010F0FD431465644002200231D02F0
S21440388045EA1265140216F8012D002322432B4305
S2144038908E42F4D101E000220023104619460AE089
S2144038A00020014607E07E609A4607F10C094FF07B
S2144038B00008054ECCE71C37BD46BDE8F08F00BF7C
S2144038C000C00740810740007108400010B5002046
S2144038D0014602460423014CA04710BD053840006F
S2144038E010B50F2000210A460523034CA047034B82
S2144038F01860C11710BD00BF05384000E8C540201D
S2144039002DE9F04F87B000AFF860B9601546D7E9AB
S2144039101089BC6CE31D23F00703ADEB030DC7F81D
S21440392004D0002C25DD0DEB040B0026FF220023DF
S214403930EE46DC46C246CB4602EA0A0803EA0B09D4
S214403940C6F12000A6F1200128FA06F809FA00F090
S21440395048EA000829FA01F148EA01080EF8018B06
S214403960190241EA1261100202460B460836E64545
S214403970E2D1BB682BB9FB6863F07F003875012243
S2144039800FE0FB6863F03F0038757F2D02D87D75E9
S214403990022206E065F07F037B75C5F3C712BA7551
S2144039A0032216490B6913F0040FFBD07AB107F1D6
S2144039B0140606EB0208DFF844B04FF0010A104D3B
S2144039C0584631465246A84701364645F8D1002C5F
S2144039D00FDD7B681E4623441C46DFF820904FF0E0
S2144039E00108074D484631464246A8470136A6429A
S2144039F0F8D11C37BD46BDE8F08F00BF00C0074079
S214403A007108400000000000F0B585B083A3D3E9FC
S214403A100023CDE90023042602961F2000210A46F3
S214403A20794CA04700220023CDE9002302961A20B5
S214403A3000210A46A0476EA3D3E90023CDE9002320
S214403A400296304600210A46A0474FF01F32002318
S214403A50CDE9002302961E2000210A46A04748F6DC
S214403A6070020023CDE9002302270297232001217C
S214403A703246A04760A3D3E90023CDE9002302964F
S214403A80232001210C22A04755220023CDE9002304
S214403A900297232001211222A0470A220023CDE9C3
S214403AA000230297272001213A46A0478722002379
S214403AB0CDE900230297272001213246A047642201
S214403AC00023CDE900230297272001210622A047A4
S214403AD04BA3D3E90023CDE90023029627200121FA
S214403AE00822A04728220023CDE90023029727205A
S214403AF001212622A047D8220023CDE90023012514
S214403B000295282029460B22A04745F6404200232E
S214403B10CDE900230296282029460C22A047C92238
S214403B200023CDE9002302952A2029460B22A047F0
S214403B30364A0023CDE90023052302932B2029464D
S214403B400722A0471E220023CDE9002302952B2002
S214403B5029460B22A0476D220023CDE9002302957B
S214403B602E20294640F60602A04741F2076200236F
S214403B70CDE9002302972E20294641F60602A047AB
S214403B8040F6A3020023CDE9002302972E202946C3
S214403B9042F60402A04704220023CDE90023029601
S214403BA0242029460022A0474FF400520023CDE9A6
S214403BB0002302960E2000210A46A0470322002337
S214403BC0CDE9002302952D2029460622A04710481D
S214403BD0104B9847104A0023CDE900230296362022
S214403BE029463246A04705B0F0BD00BFAFF300807F
S214403BF0001244200000000007A902250000000033
S214403C001D011A3700000000013940000704000972
S214403C10252B4D000100402038070010110084106D
S214403C200000000070B584B0262001210022042345
S214403C30184EB0474FF4AA520023CDE9002304247F
S214403C400294262001210022134DA8473620012148
S214403C5000222346B04740F4040000220090019220
S214403C60029436200121A8470C4A0023CDE90023C0
S214403C700294362001212822A8474FF49072002350
S214403C80CDE900230294362001212822A84704B01B
S214403C9070BD00BF053840000139400020010F00CC
S214403CA000B585B0C117CDE9000105230293082071
S214403CB000210A46024B984705B05DF804FB00BF5A
S214403CC00139400010B584B00446CDE90023069B78
S214403CD00293092001212246014B984704B010BDAB
S214403CE00139400000B585B002220023CDE900230B
S214403CF0042302930D2000210A46024B984705B044
S214403D005DF804FB013940002DE9F04F2DED028BA4
S214403D1085B00D4614469846D3ED027AB8EEE71ABB
S214403D209FEDC98AB0EE410AF0EE480AF0EE481A16
S214403D30B0EE482A0120F0EE482AC44EB04785ED42
S214403D40000AC5ED010AD8ED027AB8EEE71AB0EEE1
S214403D50410AF0EE480AF0EE481AB0EE482A002033
S214403D60F0EE482AB04785ED020AC5ED030AD8EDC5
S214403D70027AB8EEE71AB0EE410AF0EE480AF0EEE4
S214403D80481AB0EE482A0120F0EE482AB04785EDA2
S214403D90040AC5ED050AD8ED027AB8EEE71AB0EE89
S214403DA0410AF0EE480AF0EE481AB0EE482A0020E3
S214403DB0F0EE482AB04785ED060AC5ED070AD8ED6D
S214403DC0027AB8EEE71AB0EE410AF0EE480AF0EE94
S214403DD0481AB0EE482A0120F0EE482AB04785ED52
S214403DE0080AC5ED090AD8ED027AB8EEE71AB0EE31
S214403DF0410AF0EE480AF0EE481AB0EE482A002093
S214403E00F0EE482AB04785ED0A0AC5ED0B0A019543
S214403E1095ED008A6FF04A0BD8F80C00DFF848A200
S214403E20C0EB0B00D04706460F46DFF84092D8ED71
S214403E30097AF8EEE77A17EE900AC8470022844BD4
S214403E40844DA84702460B4630463946824DA84721
S214403E507BA3D3E90023814DA847814FB847B0EEF6
S214403E60480A00EE900A019D95ED011A7D4EB04736
S214403E7084ED000AC4ED010A84ED021A019595ED21
S214403E80028AD8F80C00C0EB0B00D047CDE90201FF
S214403E90D8ED097AF8EEE77A17EE900AC84700227E
S214403EA06B4B6C4DA84702460B46DDE902016A4D56
S214403EB0A84763A3D3E90023684DA847B847B0EEA8
S214403EC0480A00EE900A019D95ED031AB04784ED2E
S214403ED0030AC4ED040A84ED051A019595ED048A9B
S214403EE0D8F80C00C0EB0B00D047CDE90201D8ED66
S214403EF0097AF8EEE77A17EE900AC8470022544B44
S214403F00544DA84702460B46DDE90201524DA847EC
S214403F104BA3D3E90023514DA847B847B0EE480A13
S214403F2000EE900A019D95ED051AB04784ED060A0D
S214403F30C4ED070A84ED081A019595ED068AD8F86F
S214403F400C00C0EB0B00D047CDE90201D8ED097A52
S214403F50F8EEE77A17EE900AC84700223C4B3D4DF4
S214403F60A84702460B46DDE902013B4DA84734A36D
S214403F70D3E90023394DA847B847B0EE480A00EECB
S214403F80900A019D95ED071AB04784ED090AC4EDE5
S214403F900A0A84ED0B1A019595ED088AD8F80C00AC
S214403FA0C0EB0B00D047CDE90201D8ED097AF8EE18
S214403FB0E77A17EE900AC8470022254B254DA847BA
S214403FC002460B46DDE90201234DA8471CA3D3E970
S214403FD00023224DA847B847B0EE480A00EE900AA4
S214403FE0019D95ED091AB04784ED0C0AC4ED0D0A03
S214403FF084ED0E1A019595ED0A8AD8F80C00C0EBB0
S2144040000B00D04782468B46D8F8240007EE900A2D
S214404010F8EEE77A17EE900AC84700220C4B0D4D93
S214404020A84702460B46504659460B4DA84704A3A0
S214404030D3E90023094DA8471AE000BFAFF300803C
S2144040400000000000C0524000000000D95B400065
S21440405000003E4061B140000DAF4000A9AB4000BB
S21440406091B44000215E400041AE400065AE400045
S214404070B847B0EE480A00EE900A019B93ED0B1A43
S214404080B04784ED0F0AC4ED100A84ED111A0020E3
S21440409094ED000AD4ED010A94ED021A174DA84794
S2144040A0012094ED030AD4ED040A94ED051AA847BE
S2144040B0022094ED060AD4ED070A94ED081AA847A4
S2144040C0032094ED090AD4ED0A0A94ED0B1AA8478A
S2144040D0042094ED0C0AD4ED0D0A94ED0E1AA84770
S2144040E0052094ED0F0AD4ED100A94ED111AA84756
S2144040F005B0BDEC028BBDE8F08F00BF4D604000C0
S2144041002DE9F04F2DED028B83B00D4614469846B0
S214404110D3ED027AB8EEE71A9FEDC78AB0EE410AB1
S214404120F0EE480AF0EE481AB0EE482A0120F0EECB
S214404130482AC24EB04785ED000AC5ED010AD8EDC3
S214404140027AB8EEE71AB0EE410AF0EE480AF0EE10
S214404150481AB0EE482A0020F0EE482AB04785EDCF
S214404160020AC5ED030AD8ED027AB8EEE71AB0EEB9
S214404170410AF0EE480AF0EE481AB0EE482A01200E
S214404180F0EE482AB04785ED040AC5ED050AD8ED9D
S214404190027AB8EEE71AB0EE410AF0EE480AF0EEC0
S2144041A0481AB0EE482A0020F0EE482AB04785ED7F
S2144041B0060AC5ED070AD8ED027AB8EEE71AB0EE61
S2144041C0410AF0EE480AF0EE481AB0EE482A0120BE
S2144041D0F0EE482AB04785ED080AC5ED090AD8ED45
S2144041E0027AB8EEE71AB0EE410AF0EE480AF0EE70
S2144041F0481AB0EE482A0020F0EE482AB04785ED2F
S2144042000A0AC5ED0B0A95ED008A6FF04A0BD8F8FE
S2144042100C00C0EB0B008A4B9847CDE90001D8ED67
S214404220097AF8EEE77A17EE900A864B98470246E8
S2144042300B4600208449854EB0470022824B844E70
S214404240B04702460B46DFF814A2DDE90001D0472E
S214404250DFF80C9276A3D3E90023C8477D4FB847D2
S214404260B0EE480A00EE900A95ED011A7A4B984750
S21440427084ED000AC4ED010A84ED021A95ED028A27
S214404280D8F80C00C0EB0B006D4B9847CDE9000109
S214404290D8ED097AF8EEE77A17EE900A694B984718
S2144042A002460B4600206849684EB0470022664BDF
S2144042B0674EB04702460B46DDE90001D0475CA397
S2144042C0D3E90023C847B847B0EE480A00EE900A44
S2144042D095ED031A604B984784ED030AC4ED040A33
S2144042E084ED051A95ED048AD8F80C00C0EB0B0057
S2144042F0534B9847CDE90001D8ED097AF8EEE77AB6
S21440430017EE900A4F4B984702460B4600204E4900
S2144043104E4EB04700224C4B4D4EB04702460B46E1
S214404320DDE90001D04742A3D3E90023C847B84798
S214404330B0EE480A00EE900A95ED051A464B9847AF
S21440434084ED060AC4ED070A84ED081A95ED068A40
S214404350D8F80C00C0EB0B00394B9847CDE900016C
S214404360D8ED097AF8EEE77A17EE900A354B98477B
S21440437002460B4600203449344EB0470022324BAA
S214404380334EB04702460B46DDE90001D04728A32E
S214404390D3E90023C847B847B0EE480A00EE900A73
S2144043A095ED071A2C4B984784ED090AC4ED0A0A86
S2144043B084ED0B1A95ED088AD8F80C00C0EB0B007C
S2144043C01F4B9847CDE90001D8ED097AF8EEE77A19
S2144043D017EE900A1B4B984702460B4600201A4998
S2144043E01A4EB0470022184B194EB04702460B46AD
S2144043F0DDE90001D0470EA3D3E90023C847B847FC
S214404400B0EE480A00EE900A95ED091A124B98470E
S21440441084ED0C0AC4ED0D0A84ED0E1A95ED0A8A59
S214404420D8F80C00C0EB0B001CE000BFAFF30080D8
S2144044300000000000C0524000000000D95B400071
S21440444041AE400065AE400000003E40A5AB400097
S21440445061B1400091B44000215E40000DAF400085
S214404460A9AB4000344B9847CDE90001D8F824006A
S21440447007EE900AF8EEE77A17EE900A2F4B984729
S21440448002460B4600202E492E4EB04700222C4BAB
S2144044902D4EB04702460B46DDE90001D04724A327
S2144044A0D3E90023C847B847B0EE480A00EE900A62
S2144044B095ED0B1A254B984784ED0F0AC4ED100A6C
S2144044C084ED111A002094ED000AD4ED010A94ED13
S2144044D0021A1F4DA847012094ED030AD4ED040AA2
S2144044E094ED051AA847022094ED060AD4ED070A73
S2144044F094ED081AA847032094ED090AD4ED0A0A59
S21440450094ED0B1AA847042094ED0C0AD4ED0D0A3E
S21440451094ED0E1AA847052094ED0F0AD4ED100A24
S21440452094ED111AA84703B0BDEC028BBDE8F08F9E
S2144045300000000000C0524041AE400065AE400062
S21440454000003E40A5AB400061B14000215E400007
S2144045504D604000000000002DE9F04F2DED048B2B
S21440456083B081460D4690461C46D3ED097AF8EE58
S214404570E77A9FEDCF8A77EE887A93ED067AB8EEA3
S214404580C77ACC4EC7EE877A17EE900AB0470246F7
S2144045900B46C94FB847DFF830A3C3A3D3E900237F
S2144045A0D047C64B984708EE900AC9F80000A36962
S2144045B0D4ED097AF8EEE77ADFF810B38BFB0312F6
S2144045C0A2EBE37207EE102AB8EEC77A37EE877A88
S2144045D007EE903AF8EEE77AC7EE277A17EE900A9B
S2144045E0B04702460B46B847AFA3D3E90023D047AF
S2144045F0B24B9847C9F80400A269D4ED097AB8EEE0
S214404600E77A8BFB0213A3EBE2735B0007EE903A6C
S214404610F8EEE77A77EE277A07EE102AB8EEC77AF2
S214404620C7EE877A17EE900AB04702460B46B84761
S2144046309DA3D3E90023D047A04B9847C9F808006C
S214404640A269D4ED097AB8EEE77A8BFB0213A3EBA6
S214404650E27303EB430307EE903AF8EEE77A77EE21
S214404660277A07EE102AB8EEC77AC7EE877A17EE93
S214404670900AB04702460B46B8478BA3D3E90023BF
S214404680D0478E4B9847C9F80C00A269D4ED097AFA
S214404690B8EEE77A8BFB0213A3EBE2739B0007EEC0
S2144046A0903AF8EEE77A77EE277A07EE102AB8EED9
S2144046B0C77AC7EE877A17EE900AB04702460B468F
S2144046C0B84779A3D3E90023D0477C4B9847C9F82D
S2144046D01000A269D4ED097AB8EEE77A8BFB021394
S2144046E0A3EBE27303EB830307EE903AF8EEE77A28
S2144046F077EE277A07EE102AB8EEC77AC7EE877AA3
S21440470017EE900AB04702460B46B84766A3D3E971
S2144047100023D047694B9847C9F8140018EE900A12
S214404720B04741EC100B664B9847B0EE409AF0EE1F
S214404730609AD4ED027AF8EEE78A6069614B984752
S21440474053EC192BD0475D4B9847B0EE680A00EE05
S214404750900AB0EE681AF0EE481A94ED012A01204D
S214404760D4ED002ADFF868B1D84785ED000AC5EDDC
S214404770010AD9F80400B04741EC100B504B98475B
S214404780B0EE409AF0EE609AD4ED027AF8EEE78A00
S21440479060694C4B984753EC192BD047474B98478A
S2144047A0B0EE680A00EE900AB0EE681AF0EE481ACC
S2144047B094ED012A0020D4ED002AD84785ED020A60
S2144047C0C5ED030AD9F80800B04741EC100B3C4B46
S2144047D09847B0EE409AF0EE609AD4ED027AF8EE42
S2144047E0E78A6069374B984753EC192BD047334BD1
S2144047F09847B0EE680A00EE900AB0EE681AF0EEFF
S214404800481A94ED012A0120D4ED002AD84785EDB8
S214404810040AC5ED050AD9F80C00B04741EC100B68
S214404820274B9847B0EE409AF0EE609AD4ED027A65
S214404830F8EEE78A6069234B984753EC192BD0472C
S2144048401E4B9847B0EE680A00EE900AB0EE681A23
S214404850F0EE481A94ED012A0020D4ED002AD847FD
S21440486085ED060AC5ED070AD9F81000B04741ECB9
S214404870100B134B9847B0EE409AF0EE609AD4ED8A
S214404880027AF8EEE78A60690E4B984753EC192B8C
S214404890D0470A4B9847B0EE680A00EE900AB0EE52
S2144048A0681AF0EE481A15E0182D4454FB210940CA
S2144048B00000000065AE4000A9AB400091B4400047
S2144048C0C180400041AE40000DAF4000ABAAAA2ACE
S2144048D0D95B400094ED012A0120D4ED002AD84748
S2144048E085ED080AC5ED090AD9F81400B04741EC31
S2144048F0100B984B9847B0EE409AF0EE609AD4ED85
S214404900027AF8EEE78A6069934B984753EC192B86
S214404910D047924B9847B0EE680A00EE900AB0EE49
S214404920681AF0EE481A94ED012A0020D4ED002AC9
S214404930D84785ED0A0AC5ED0B0A95ED008AD9F8E9
S2144049400000B04741EC100B854B98475BEC10AB32
S21440495010EE100A594600220023824EB04720B17E
S214404960E06840427C4B984712E07B4F2069B8474E
S21440497002460B46504659467B4EB04782468B46CB
S214404980E068B84702460B4650465946774EB04711
S214404990724B9847B0EE480A00EE900A95ED011A21
S2144049A0734B984788ED000AC8ED010A88ED021A55
S2144049B008F10C0A95ED028AD9F804006D4B984729
S2144049C041EC100B664B984751EC100B8DED000BED
S2144049D000220023634EB04720B1E06840425E4B61
S2144049E0984712E05C4F2069B84702460B46DDE91F
S2144049F000015D4EB047CDE90001E068B847024689
S214404A000B46DDE90001594EB047544B9847B0EE8F
S214404A10480A00EE900A95ED031A554B984788EDE4
S214404A20030ACAED010A8AED021A08F1180A95ED42
S214404A30048AD9F808004F4B984741EC100B484B76
S214404A40984751EC100B8DED000B00220023454E8D
S214404A50B04720B1E06840423F4B984712E03E4F97
S214404A602069B84702460B46DDE900013E4EB04796
S214404A70CDE90001E068B84702460B46DDE9000193
S214404A803A4EB047354B9847B0EE480A00EE900A8B
S214404A9095ED051A364B984788ED060ACAED010A89
S214404AA08AED021A08F1240A95ED068AD9F80C0018
S214404AB0304B984741EC100B294B984751EC100B64
S214404AC08DED000B00220023264EB04720B1E06853
S214404AD04042214B984712E01F4F2069B847024694
S214404AE00B46DDE90001204EB047CDE90001E06805
S214404AF0B84702460B46DDE900011C4EB047174B4F
S214404B009847B0EE480A00EE900A95ED071A184B03
S214404B10984788ED090ACAED010A8AED021A08F19B
S214404B20300A95ED088AD9F81000124B984741ECA8
S214404B30100B0B4B984751EC100B8DED000B0022E1
S214404B400023084EB047B8B1E0684042024B984751
S214404B5025E000BFC180400041AE400091B4400017
S214404B6069814000F1B340000DAF4000A5AB400066
S214404B70215E400065AE4000324F2069B84702468D
S214404B800B46DDE90001304EB047CDE90001E06854
S214404B90B84702460B46DDE900012C4EB0472C4B89
S214404BA09847B0EE480A00EE900A95ED091A294B50
S214404BB0984788ED0C0ACAED010A8AED021A08F1F8
S214404BC03C0A95ED0A8AD9F81400234B984741ECE5
S214404BD0100B224B984751EC100B8DED000B00222A
S214404BE000231F4EB04720B1E0684042154B98471F
S214404BF012E0144F2069B84702460B46DDE9000133
S214404C00114EB047CDE90001E068B84702460B4672
S214404C10DDE900010D4CA0470D4B9847B0EE480A21
S214404C2000EE900A95ED0B1A0A4B984788ED0F0A4E
S214404C30CAED010A8AED021A03B0BDEC048BBDE84A
S214404C40F08F00BF41AE40000DAF4000A5AB400026
S214404C5091B44000215E400065AE4000698140004E
S214404C60F1B34000000000002DE9F04F2DED088B19
S214404C7087B08246894690461C4658698E4B984770
S214404C80CDE900018D4E86A3D3E90023B0478C4D75
S214404C90A8470BEE100ADDE900010022894BB04719
S214404CA0A84705905746CA46C3464FF00009864D6A
S214404CB0DFED868A9FED7C9BD4ED067AB8EEE78AD8
S214404CC0606A7D4B9847CDE9000107EE909AF8EE72
S214404CD0E77A67EE887A17EE900AA847DFF80C82E4
S214404CE000227B4BC04702460B46DDE90001794E69
S214404CF0B047734EB047A84741EC1A0B18EE100A5F
S214404D00A847B0EE4A0AF0EE6A0A41EC110B724B25
S214404D109847B0EE40AAF0EE60AAD4ED067AF8EED8
S214404D20E77A17EE900AA84702460B4651EC1A0B54
S214404D30C047B04708EE100A47F8040BA847CDE92D
S214404D4000015BA3D3E90023644EB04760B3D4EDC3
S214404D50027AB8EEE71A2BEE088AD4ED057AF8EE1A
S214404D60E70AB0EE410A78EE600AF0EE681A94ED73
S214404D70012A09F00100D4ED002A594B9847B0EEBD
S214404D80601A8AED000ACAED010AE3685B4200EE4B
S214404D90903AF8EEE00A534B98478BED000ACBED7D
S214404DA0010A8BED021A6CE0D4ED027AB8EEE78A7F
S214404DB0D4ED057AB8EEE7AA0598A847CDE90201F2
S214404DC0DFF82C81DDE9000139A3D3E90023C04791
S214404DD002460B46394EDDE90201B047384B98474C
S214404DE0B0EE480A07EE900A7AEE670AB0EE481A26
S214404DF0F0EE681A94ED012A09F00100D4ED002A7D
S214404E00374B9847F0EE40BAB0EE608A8AED000A1B
S214404E10CAED010A57F8040CA84725A3D3E9002396
S214404E20C04700222A4BB04753EC192BB04741EC01
S214404E30100B2D4B9847B0EE40AAF0EE60AAE06803
S214404E4040421D4B9847CDE9000120691A4B9847D0
S214404E5053EC1A2BB04702460B46DDE900011D4EC7
S214404E60B047174B9847B0EE6B0A00EE900AB0EE8C
S214404E70481A1C4B98478BED000ACBED010A8BED88
S214404E80021A09F101090AF1080A0BF10C0BB9F1F3
S214404E90060F7FF411AF07B0BDEC088BBDE8F08F6E
S214404EA03333333333330340182D4454FB21094006
S214404EB0ABAAAAAAAAAAEA3F41AE40000DAF40005C
S214404EC091B440000000284065AE4000000000005D
S214404ED000001840A9AB400029844000F1B34000D0
S214404EE0D95B4000215E40006981400061B14000CE
S214404EF0A5AB4000000000002DE9F04F2DED0A8BD9
S214404F0083B080460F4616461C4658698A4B9847DB
S214404F1000228A4B8A4DA8478A4B98470BEE900A48
S214404F20BA46B1460025884F9FED7FAB9FED87BAC6
S214404F309FED7F9BAB46606A7F4B9847CDE900016B
S214404F40EB1E012B02D953EC1A2B6DB9D4ED067A21
S214404F50F8EEE77A17EE900AB84700227C4B784E78
S214404F60B04702460B46FFE7DDE90001794EB04701
S214404F70744EB047B84741EC180BD4ED067AF8EEBD
S214404F80E77A17EE900AB847B0EE480AF0EE680A9D
S214404F9041EC110B704B9847B0EE408AF0EE608AB9
S214404FA0D4ED067AF8EEE77A17EE900AB84702464E
S214404FB00B4651EC180BDFF8B4C1E047B04708EE9B
S214404FC0100A48F8040BF6EE007AB4EEE78AF1EEE3
S214404FD010FA2CD5D4ED027AB8EEE71A2BEE888A72
S214404FE0D4ED057AF8EEE70AB0EE410A78EE600AAC
S214404FF0F0EE4B1A94ED012A0BF00100D4ED002A96
S214405000564B9847B0EE601A8AED000ACAED010A80
S214405010E3685B4200EE903AF8EEE00A504B984761
S21440502089ED000AC9ED010A89ED021A6EE0D4ED59
S214405030027AF8EEE78AD4ED057AB8EEE7CA1BEEB8
S214405040900AB847CDE9000118EE100AB84700228A
S2144050503F4B444EB04702460B46DDE90001384E12
S214405060B047384B9847B0EE680A07EE900A7CEE99
S214405070670AB0EE681AF0EE4B1A94ED012A0BF070
S2144050800100D4ED002A354B9847F0EE40CAB0EE0A
S21440509060CA8AED000ACAED010A58F8040CB847FF
S2144050A000222B4B2F4EB047DFF8A8B002460B46E7
S2144050B0D84753EC192B224EB04741EC100B2A4BE5
S2144050C09847B0EE408AF0EE608AE06840421A4B5D
S2144050D09847CDE900012069174B984753EC182BA9
S2144050E0B04702460B46DDE90001D847154B9847C6
S2144050F0B0EE6C0A00EE900AB0EE4C1A184B984789
S21440510089ED000AC9ED010A89ED021A01350AF156
S214405110080A09F10C09062D7FF40CAF03B0BDEC6C
S2144051200A8BBDE8F08F00BF0000000000000000C2
S214405130182D4454FB21094041AE40000000104069
S2144051400DAF400091B4400065AE40000000000046
S2144051500000E03FA9AB400029844000D95B4000F6
S214405160215E4000A5AB40006981400061B140002F
S2144051701C4B4FF440321A63DA6B42F00102DA639A
S214405180194A002322F8023F0133B3F1807FF9D158
S2144051902DE9F04188B0144D01210024DFF85880F5
S2144051A0124F134E35F8022FA3B29A4207D0009200
S2144051B003A841462246B84703A8B0470021013419
S2144051C0B4F1807FEED111B10A48094B9847054BA0
S2144051D04FF44032DA629A6B42F001029A6308B0AA
S2144051E0BDE8F08100C00440FEFFFF6F91BD400067
S2144051F09D014000843641005836410000B589B0D4
S2144052008DF807200023039307938DF80C10012395
S21440521004930DF10702059206938DF81C0005488D
S21440522003A9054B984710B10448054B984709B069
S2144052305DF804FB008001406D2C4000A036410024
S2144052409D01400000B587B000230593009304936A
S2144052508DF800100123019305AA029203938DF85E
S214405260100004486946044B9847059807B05DF817
S21440527004FB00BF00800140112B40002DE9F041A7
S21440528086B0C4B2204600212A4FB8470246DFF80F
S214405290BC8001A84146284DA84701A8274EB047E4
S2144052A020460121B847024601A84146A84701A822
S2144052B0B04720461E21B847024601A84146A847A7
S2144052C001A8B0472046FE21B847024601A84146FD
S2144052D0A84701A8B0474CF28E50194FB847204611
S2144052E000211022174DA847DFF864804046B84793
S2144052F02046FE211E22A8474046B84720460021A9
S2144053000A46A847204600211022A84720460121E9
S2144053100422A847204600210A46A8474046B847E8
S214405320204600218022A8470748B04706B0BDE87F
S214405330F08100BF4552400091BD40009D014000B5
S21440534001004020FD514000B4364100AC364100DB
S2144053501B8B010005287BD8DFE800F003172B3FA6
S214405360536721B9402313601E23536070470129B9
S21440537004D140231360222353607047022967D12B
S2144053804023136026235360704721B9412313609E
S214405390062353607047012904D1412313600A2332
S2144053A053607047022953D1412313600E23536044
S2144053B0704721B940231360122353607047012978
S2144053C004D14023136016235360704702293FD10F
S2144053D0402313601A235360704721B9412313605A
S2144053E0122353607047012904D1412313601623CA
S2144053F05360704702292BD1412313601A23536010
S214405400704721B940231360062353607047012933
S21440541004D1402313600A2353607047022917D1F2
S214405420402313600E235360704721B94123136015
S2144054301E2353607047012904D141231360222361
S21440544053607047022903D14123136026235360DB
S214405450704700BF10B582B06A46104B98479DF81B
S21440546000009DF8041000220D4CA0470199013120
S2144054709DF80000C9B20022A047019902319DF86C
S2144054800000C9B20022A047019903319DF80000F0
S214405490C9B20022A04702B010BD00BF555340001D
S2144054A0FD5140000000000030B52DED028B83B06A
S2144054B005460C46B0EE408A6A462F4B984704EBAA
S2144054C0440005EB40002D4B03EBC00090ED000A76
S2144054D038EE400A022C03D1DFED297A37EEC00AB7
S2144054E010EE100A274B98470022274B274CA04720
S2144054F0274C1BA3D3E90023A0471BA3D3E90023D3
S214405500244DA8471AA3D3E90023A047224B984727
S21440551000EE100A214B984705469DF800009DF87E
S214405520041000221E4CA047019901319DF800004E
S214405530C9B20022A047019902319DF80000C9B2C5
S214405540EAB2A047019903319DF80000C9B2C5F3FD
S2144055500722A04703B0BDEC028B30BDAFF30080FE
S214405560666666666666FE3F9A9999999999E13F9E
S2144055700000000000988940555340001800402025
S2144055800000344365AE40000080664061B1400094
S2144055900DAF4000A9AB400091B4400029824000C6
S2144055A0FD51400010B5212012218022CA4CA04750
S2144055B0212011210022A04721203A210422A04781
S2144055C0212012210022A047212017211322A04784
S2144055D0212018210122A04721203221B622A047AF
S2144055E0212019210222A04721201A217A22A047F1
S2144055F0212003210A22A04721200C210022A04777
S21440560021203E210022A047212070213A22A04797
S214405610212071213522A047212072211122A04746
S21440562021207321F022A0472120A2210222A04758
S21440563021207A212022A04721207B211022A0472A
S21440564021207C211E22A04721207D213522A047F3
S21440565021207E215A22A04721207F216922A0476F
S214405660212080217622A047212081218022A04728
S214405670212082218822A047212083218F22A047F3
S214405680212084219622A04721208521A322A047BD
S21440569021208621AF22A04721208721C422A0476F
S2144056A021208821D722A04721208921E822A0470F
S2144056B021201321E722A047212001212822A047AC
S2144056C0212002213022A047212000210A46A0475F
S2144056D0212010210022A04721200D214022A04752
S2144056E0212014211822A0472120A5210722A047C7
S2144056F02120AB210822A047212024219522A04723
S214405700212025213322A04721202621E322A0471D
S21440571021209F217822A0472120A0216822A0474F
S2144057202120A1210322A0472120A621D822A0473C
S2144057302120A721D822A0472120A821F022A04737
S2144057402120A9219022A0472120AA219422A047C7
S21440575021201321E722A04721200E216122A047C5
S21440576021200F214B22A047212016210222A047AC
S21440577021201E210722A047212001460222A047C1
S214405780212022219122A047212029210722A0471B
S214405790212033210B22A047212035210B22A04770
S2144057A0212037211D22A047212038217122A047E1
S2144057B0212039212A22A04721203C217822A047B7
S2144057C021204D214022A04721204E212022A047C3
S2144057D0212069210022A04721206B210A22A047D0
S2144057E0212074211022A04721208D214F22A0473E
S2144057F021208E210022A04721208F210022A04771
S214405800212090210022A047212091210022A0475C
S214405810212092216622A047212096210022A047DF
S21440582021209A218022A0472120B0218422A0470F
S2144058302120B1210C22A0472120B2210E22A047D0
S2144058402120B3218222A0472120B8210A22A04746
S214405850212043211422A04721204421F022A047A2
S214405860212045213422A047212046215822A04706
S214405870212047212822A047212048213A22A0471C
S214405880212059218822A04721205A218822A0473A
S21440589021205B214422A04721205C216722A0478B
S2144058A021205D214922A04721205E210E22A047CB
S2144058B0212064210422A047212065212022A047E0
