:020000040040BA
:10000000A0E640207D34400079344000793440003F
:100010007934400079344000793440000000000019
:10002000000000000000000000000000310B400054
:100030007934400000000000CD0B4000310C40003E
:1000400079344000793440007934400079344000FC
:1000500079344000793440007934400079344000EC
:100060007934400000000000B1054000C5054000A3
:10007000D90540007934400079344000793440009B
:10008000ED0540000106400079344000793440001D
:1000900079344000793440007934400079344000AC
:1000A000793440007934400079344000793440009C
:1000B00079344000650340007934400079344000D1
:1000C0007934400079344000793440000000000069
:1000D0000000000000000000000000000000000020
:1000E000790340007934400079344000793440008D
:1000F000793440007934400029744000793440005C
:10010000793440007934400079344000793440003B
:1001100079344000000000000000000000000000F2
:10012000793440007934400079344000F173400064
:1001300079344000000000007934400079344000F8
:1001400010B5054C237833B9044B13B10448AFF311
:1001500000800123237010BD5009402000000000E2
:10016000D4184100084B10B51BB108480849AFF33B
:1001700000800848036803B910BD074B002BFBD073
:10018000BDE81040184700BF00000000D41841002F
:1001900054094020D4184100000000002DE9F04728
:1001A0008046471E0026DFF834900A4D0A4CDFF8DF
:1001B00030A008E02046A8470028FBD0204617F8CA
:1001C000011FD04701364046C8478642F2D3BDE8FA
:1001D000F08700BF6D2D4000001E0E401DB2400094
:1001E000792D400070B582B0036BC26A1340019351
:1001F00000241A4E1A4DA84214BF00200120050108
:100200000B2C0AD8019A0123A340134220D02B19AA
:1002100056F82330E3B198471AE00E2C0CD8019A17
:1002200004F10C0101238B40134211D02B1956F815
:1002300023306BB198470BE0019A04F10F010123C1
:100240008B40134204D02B1956F8233003B1984742
:100250000134102CD4D102B070BD00BF14C54020B1
:100260000040064000220260084B4360084B836058
:100270004FF48023C3600223037401234374837407
:10028000C274037543758375704700BF00A3E11105
:10029000808D5B00036B13F080734DD130B401226D
:1002A0000260CA7C002A18BF4FF00043CA6842F4BB
:1002B00000044A688D68B2FBF5F2013A120292B26C
:1002C00022430C7C240604F0706422434C7C2407F7
:1002D00004F040542243134343600B7D002B14BFB2
:1002E0004FF0807200220B681A434B7D002B14BF25
:1002F0004FF000730023134383608B7D1B0203F4D4
:10030000407343F00C03C0F89430124B984206D16E
:1003100017E043F8042F8B42FBD1002016E00E4B70
:1003200098420CD10D4B03F14001002243F8042FF9
:100330008B42FBD1002009E0192040B27047002019
:1003400004E0074B03F140010022E2E740B230BC79
:10035000704700BF00C003400040064050C5402029
:1003600010C5402008B50248024B984708BD00BFA1
:1003700000C00340E501400008B50248024B984721
:1003800008BD00BF00400640E501400008B5104B25
:1003900098420CBF28201D200E4B98470E4B9B788F
:1003A000FF2B00D1FEE7EFF3108372B6BFF35F8F30
:1003B00000210A4A117008498A7801328A702BB9E3
:1003C0000122064B1A70BFF35F8F62B608BD00BFF3
:1003D00000400640112A40000CC54020100040207B
:1003E00010B40B78002B0CBF002404244B780BB105
:1003F00044F008048B780BB144F01004CB780BB1B7
:1004000044F040040B790BB144F080044A79520364
:1004100002F4C0428B7942EA0342CB7942EA036399
:1004200023430360184B5A685B68D20E23F078436D
:1004300043EA02730A7A042A16D8DFE802F00306B8
:10044000090E110023F400430EE043F410430BE0C7
:1004500023F4805343F4004306E043F4005303E0E5
:1004600023F0405323F46043CA68013A074C04EA7E
:1004700002440A69013AC2F30A0222431343436069
:100480005DF8044B704700BF00C004400000FF0748
:1004900070B4234C66686568F60E25F0784545EA29
:1004A0000675204E2E40466066686568F60EADB251
:1004B00045EA0675456065686468ED0E24F0784489
:1004C00044EA0575013AC2F30A0215434A1E164C66
:1004D00004EA024445EA040242608468134A224066
:1004E00082608468124A2240826085685A1EC2F384
:1004F0000906039A013A0F4C04EA024446EA040250
:100500002A4382604FF4C86202FB01F1B1FBF3F3AE
:100510000949A1FB03235B09C36070BC704700BF9E
:1005200000C0044000F8FFF70000FF0700FCFFFFD9
:10053000FFFF00FC0000FF031F85EB5110B40468AF
:10054000072928BF0721090201F4E0612143016066
:10055000C2648364019B43645DF8044B704700BF31
:100560002DE9F041044688460E4B98470546204643
:100570000D4B9847054013D00C4C04F160062368DE
:10058000434508D16168294205D0E3684046984751
:10059000636825EA0305B44202D01034002DEED181
:1005A000BDE8F081E5284000E92840006C094020C2
:1005B00008B502480A21024B984708BD000E0E40BC
:1005C0006105400008B502480B21024B984708BD61
:1005D00000100E406105400008B502480C21024B96
:1005E000984708BD00120E406105400008B502485A
:1005F0001021024B984708BD00140E4061054000D1
:1006000008B502481121024B984708BD00160E405C
:100610006105400038B530B9594840F21711594AC0
:10062000594B5A4CA0470346022202601A6912F045
:10063000807FFBD180221A600A78012A04D15A688F
:1006400042F001025A6001E05A685A604A7822B1C9
:100650005A6842F002025A6003E05A6822F002022D
:100660005A608A7822B15A6842F004025A603CE02B
:100670005A6822F004025A6037E01A6A42F0010216
:100680001A6253E01A6A22F001021A624EE01A6AF4
:1006900042F002021A624DE01A6A22F002021A6265
:1006A00048E0186A120292B220F47F4002431A62B4
:1006B000002047E01A6C42F001021A6403E01A6C51
:1006C00022F001021A6424B11A6C42F002021A6488
:1006D0004AE01A6C22F002021A6445E0596449E0CB
:1006E0001A6912F0807FFBD047E05A68C878000191
:1006F00000F0300022F0300202435A605A6822F4BF
:1007000070604A6802435A605A68087A22F47F028D
:1007100042EA00425A605A68C86822F07F4242EAC0
:1007200000625A600A69002AACD0A6E74A69002A2A
:10073000B2D0ACE78869164AB2FBF0F2013AFF2A60
:10074000AFD9F8201A6A0C7F22F47F0242EA0442F1
:100750001A6291F8205091F821401A6C22F003029D
:100760001A64002DA6D1AAE7496AD3F8E42012F052
:10077000010FB3D001221A60B2E740B238BD00BF0A
:1007800008084100F80741002C08410089A64000F4
:1007900080D1F008F8B530B936484FF49F71364A29
:1007A000364B374CA0470346002A5CD0012A1ED1A5
:1007B000026912F0010F08BF4FF4803212D09A681C
:1007C0000A801A6912F0040FFBD0FF22DA601A695E
:1007D00012F0020FFBD09B680B80002048E0013A2A
:1007E00000D142E0186910F0010FF8D0E7E718696E
:1007F00010F0040FFBD00020D860186910F0020F31
:10080000FBD0186910F0040FFBD00020D8601869E5
:1008100010F0020FFBD0002425464FF0190E26469B
:100820002746186910F0020F15D0986808705868AC
:1008300010F4706F01D0023100E001310135186908
:1008400010F0040FFBD0DE60186910F0020FFBD02F
:100850003446384604E0B4F5803F08D2013470468F
:10086000AA42DED804E0002002E0FD2000E0FD20E6
:1008700040B2F8BD34084100D40841002C084100C2
:1008800089A64000F8B530B9234840F28B11234ABD
:10089000234B244CA0470346002A38D0012A14D108
:1008A0004FF48032186910F0020F0BD009881A69D2
:1008B00012F0040FFBD0D9601A6912F0020FFBD0BE
:1008C000002027E0013AEDD123E0406800F4706099
:1008D000002814BF4FF0020E4FF0010E002419251E
:1008E0002746186910F0040F0CD00E78186910F024
:1008F000040FFBD0DE60186910F0020FFBD07144CA
:10090000384600E028460134A242EAD202E0002044
:1009100000E0FD2040B2F8BD34084100E00841008D
:100920002C08410089A64000484B1B78FF2B00D1C2
:10093000FEE770B483B0EFF3108372B6BFF35F8F3E
:100940000024434A1470414C2278013222702BB9A2
:1009500001223F4B1A70BFF35F8F62B683683D4A36
:10096000936000231361536201933B4BA3FB01236C
:100970009A0CC82303FB02F3384AA2FB03239B080B
:10098000019A934205D9019A01320192019A9A4241
:10099000F9D3304D01222A604FF0E044002222803A
:1009A00002262E6022800192019A9A4205D2019A73
:1009B00001320192019A9A42F9D3264B04241C6019
:1009C0004FF0E042012515801C60022515801C6057
:1009D000032515801C6014801C60052616801C6091
:1009E000062616801C60072616801C6008241480CA
:1009F0001D604468640014444CF6FE25258044685C
:100A000064001444258044686400144425804068D0
:100A1000400010440580002018601080104AA2FB9E
:100A2000011292090192019941F6786202FB01F2EA
:100A30000192019A0849A1FB0212920C0192019ABB
:100A4000C2F30B025A6003B070BC70470CC5402063
:100A5000100040200040084083DE1B43ABAAAAAA36
:100A6000D34D6210012904D18268064B1343836081
:100A700003E08268044B134083600268034B134316
:100A800003607047000010A5FFFFEF5A080000A5A3
:100A90004FF40043436070470D4B1B68B3F1FF3FB9
:100AA0000AD04FF0800372B683F31188BFF36F8FC3
:100AB000BFF34F8F62B6FEE74FF0800372B683F349
:100AC0001188BFF36F8FBFF34F8F62B6FEE700BF91
:100AD0000C00402006480068006880F3088862B671
:100AE00061B6BFF34F8FBFF36F8F00DF00BF000011
:100AF00008ED00E0DFF80C00016841F470010160CE
:100B00007047000088ED00E04FF0807340F8043C2F
:100B100040F8081C054B40F80C3C40F8202C6FF0C6
:100B2000020340F8243C4438704700BF990A400053
:100B3000064B19680868B0E8F04F80F30988BFF3E6
:100B40006F8F4FF0000080F31188704720C4402061
:100B50004FF0800372B683F31188BFF36F8FBFF33A
:100B60004F8F62B60B4A136801331360012B0FD10C
:100B7000094B1B6813F0FF0F0AD04FF0800372B6C9
:100B800083F31188BFF36F8FBFF34F8F62B6FEE719
:100B9000704700BF0C00402004ED00E00A4B1B68CA
:100BA00053B94FF0800372B683F31188BFF36F8F90
:100BB000BFF34F8F62B6FEE7013B034A13600BB9E8
:100BC00083F31188704700BF0C004020EFF30980C9
:100BD000BFF36F8F154B1A681EF0100F08BF20ED82
:100BE000108A20E9F04F10604DF8043D4FF080006E
:100BF00072B680F31188BFF34F8FBFF36F8F62B669
:100C000001F02CF94FF0000080F3118808BC19683E
:100C10000868B0E8F04F1EF0100F08BFB0EC108A63
:100C200080F30988BFF36F8F704700BF20C4402056
:100C300008B5EFF311834FF0800272B682F311888A
:100C4000BFF36F8FBFF34F8F62B6054B984718B154
:100C50004FF08052034B1A60002383F3118808BDC4
:100C6000F11A400004ED00E0034A044B1A60072229
:100C7000043B1A60704700BFDF93040014E000E0FB
:100C800000B583B0254B1A78D2B20192FF221A70B8
:100C90001B78DBB28DF803309DF8033003F080033E
:100CA0001F4A137007221F4B1A609DF8033013F080
:100CB000800F10D0062200E00A469DF803305B004A
:100CC000DBB28DF803309DF80330511E13F0800F16
:100CD000F2D1144B1A60134A13681B0203F4E06349
:100CE0001360019BDBB20D4A13700F4B1A6842F47C
:100CF00060021A601A6842F060421A600B4B984713
:100D000000220B4B1A600B4B98470B4A136843F0B9
:100D100040431360094B9847094B984700E400E0B3
:100D2000DC094020E009402020ED00E0690C400093
:100D30000C004020F50A400034EF00E0D50A4000E6
:100D4000990A4000EFF305830F2B11D9124A9B5CDF
:100D5000DBB2124A12789A420AD94FF0800372B677
:100D600083F31188BFF36F8FBFF34F8F62B6FEE737
:100D70000B4B1B6803F4E0630A4A126893420AD9DA
:100D80004FF0800372B683F31188BFF36F8FBFF308
:100D90004F8F62B6FEE77047F0E300E0DC094020C9
:100DA0000CED00E0E009402038B5044610F0070FD4
:100DB00002D020F0070408340E4B98470E4B1B68F6
:100DC00023B90E4B23F007030B4A13600C4B1B682F
:100DD0001C444BF2F772944207D8A34205D2064A4C
:100DE00015681D44064B1C6000E00025054B984724
:100DF000284638BDD51A4000E8C14020F0094020FF
:100E0000E4094020251C400050B14FF0800372B629
:100E100083F31188BFF36F8FBFF34F8F62B6FEE786
:100E2000704700BF00F1080343604FF0FF3282605B
:100E3000C360036100230360704700BF00230361A8
:100E4000704700BF43684B609A688A609A68516037
:100E500099600861036801330360704730B40D681E
:100E6000B5F1FF3F01D1026907E000F1080200E09F
:100E70001A4653681C68A542FAD253684B609960C1
:100E80008A605160086103680133036030BC7047B9
:100E900003694268816891608268416851605A685C
:100EA000824201D192685A600022026118680138BA
:100EB0001860704738B504461546026C42B903689D
:100EC000002B2BD140681B4B9847002363602CE01C
:100ED0006DB98068184B9847A268236C1344A360CF
:100EE000626893421CD32368A36000201DE0C068A1
:100EF000114B9847236C5B42E2681A44E260216818
:100F00008A4202D262681344E360022D0AD1A36BC5
:100F100053B1A36B013BA363002006E0002004E073
:100F2000002002E0002000E00020A36B0133A36357
:100F300038BD00BF29224000E1AC400030B583B08D
:100F40000190446D54B94FF0800372B683F3118859
:100F5000BFF36F8FBFF34F8F62B6FEE7A26BE36BF9
:100F60009A420AD34FF0800372B683F31188BFF31D
:100F70006F8FBFF34F8F62B6FEE7A26B934217D914
:100F80000A46204601A90C4B98470546A36CB3F1CD
:100F9000FF3F09D1636A63B104F12400074B98470E
:100FA000002818BF012504E0A36C0133A36400E00E
:100FB0000025284603B030BDB50E4000F91F4000A3
:100FC000026C72B110B5C3681344C3604468A34295
:100FD00001D30368C36003460846D968014B9847AC
:100FE00010BD7047E1AC4000F8B50446204B98476F
:100FF000A36C002B18DD1F4D1F4F204E636D33B1C6
:1010000020460021A847012808D1B84706E0636AB6
:1010100053B104F12400B04700B1B847A36C013BC1
:10102000A364A36C002BE9DC4FF0FF33A364144BE3
:1010300098470F4B9847636C002B13DD23691BB94E
:1010400010E0236923B90DE004F110060B4D0A4F9F
:101050003046A84700B1B847636C013B6364636CDA
:10106000002BEEDC4FF0FF336364054B9847F8BD6F
:10107000510B40003D0F400055214000F91F40003A
:101080009D0B400038B550B94FF0800372B683F322
:101090001188BFF36F8FBFF34F8F62B6FEE7044630
:1010A0000D46184B98472268216CE36B03FB01F354
:1010B000D01860600020A063A2605B1A1344E36054
:1010C0004FF0FF336364A36485B92369ABB104F1C6
:1010D00010000D4B984701280FD14FF080520B4B59
:1010E0001A60BFF34F8FBFF36F8F06E004F110005B
:1010F000074DA84704F12400A847064B9847012054
:1011000038BD00BF510B4000F91F400004ED00E066
:10111000250E40009D0B4000F8B550B94FF08003FC
:1011200072B683F31188BFF36F8FBFF34F8F62B630
:10113000FEE70D4617460646C1B101FB00F05930E7
:10114000144B9847044610B905E0246015E000F1FF
:101150005803036011E04FF0800372B683F31188E7
:10116000BFF36F8FBFF34F8F62B6FEE75820094B76
:10117000984704460028E8D1EDE7E6632564204659
:101180000121054B984784F8507000236365204681
:10119000F8BD00BFA90D4000851040002DE9F04FBB
:1011A00085B0019250B94FF0800372B683F3118875
:1011B000BFF36F8FBFF34F8F62B6FEE7044661B98E
:1011C000026C52B14FF0800372B683F31188BFF303
:1011D0006F8FBFF34F8F62B6FEE7022B0DD1E26B2C
:1011E000012A0AD04FF0800372B683F31188BFF34F
:1011F0006F8FBFF34F8F62B6FEE71D460091514BD4
:10120000984760B9019B63B14FF0800372B683F3D6
:101210001188BFF36F8FBFF34F8F62B6FEE70027D1
:1012200000E00027484EDFF84C91DFF82881B047F6
:10123000A26B022D02D0E36B9A4233D22046009972
:101240002A46424B9847636D73B120462946404B6E
:101250009847012822D14FF080523E4B1A60BFF3CD
:101260004F8FBFF36F8F19E0636A73B104F12400ED
:10127000394B9847012811D14FF08052354B1A60F5
:10128000BFF34F8FBFF36F8F08E038B14FF080523C
:10129000304B1A60BFF34F8FBFF36F8F2F4B9847C0
:1012A00001204BE0019B1BB92C4B9847002045E0E7
:1012B00017B902A8C8470127284B9847284B9847D9
:1012C000B047636CB3F1FF3F01D100236364A36CAB
:1012D000B3F1FF3F01D10023A364204B984702A83C
:1012E00001A9204B984718BBB047D4F838B0D4F8C0
:1012F0003CA01A4B9847D34514D104F11000019932
:10130000194B98472046194B9847194B9847002886
:101310008DD14FF08053C8F80030BFF34F8FBFF32B
:101320006F8F84E72046114B9847114B98477EE713
:1013300020460E4B98470E4B9847002005B0BDE85D
:10134000F08F00BF61214000510B4000B50E4000FE
:101350003D0F400004ED00E0F91F40009D0B4000F0
:10136000D51A4000C1204000F51E4000E90F4000A2
:10137000251C40009120400050B94FF0800372B608
:1013800083F31188BFF36F8FBFF34F8F62B6FEE711
:101390002DE9F041044661B9006C50B14FF0800373
:1013A00072B683F31188BFF36F8FBFF34F8F62B6AE
:1013B000FEE7022B0DD1E06B01280AD04FF080032D
:1013C00072B683F31188BFF36F8FBFF34F8F62B68E
:1013D000FEE71E4615468846214B9847EFF31187D6
:1013E0004FF0800372B683F31188BFF36F8FBFF3A2
:1013F0004F8F62B6A26B022E02D0E36B9A4223D2C9
:10140000204641463246174B9847A36CB3F1FF3F45
:1014100015D1636D43B120463146134B98470128DF
:1014200014D19DB1286016E0636A8BB104F12400E9
:101430000E4B984770B16DB1012028600BE0A36C92
:101440000133A364012006E0002004E0012002E053
:10145000012000E0012087F31188BDE8F08100BF82
:10146000450D4000B50E40003D0F4000F91F400003
:1014700050B94FF0800372B683F31188BFF36F8FBA
:10148000BFF34F8F62B6FEE770B50446036C53B1ED
:101490004FF0800372B683F31188BFF36F8FBFF3F1
:1014A0004F8F62B6FEE7036863B9436853B14FF0EC
:1014B000800372B683F31188BFF36F8FBFF34F8F32
:1014C00062B6FEE70D461F4B9847EFF311864FF0CB
:1014D000800372B683F31188BFF36F8FBFF34F8F12
:1014E00062B6A26BE36B9A4221D2A36B0133A36372
:1014F000A36CB3F1FF3F15D1636D43B120460021CA
:10150000114B9847012814D19DB1286016E0636AF9
:101510008BB104F124000D4B984770B16DB10120DF
:1015200028600BE0A36C0133A364012006E00020D7
:1015300004E0012002E0012000E0012086F3118890
:1015400070BD00BF450D40003D0F4000F91F400039
:101550002DE9F04F85B0019250B94FF0800372B67B
:1015600083F31188BFF36F8FBFF34F8F62B6FEE72F
:10157000044661B9026C52B14FF0800372B683F336
:101580001188BFF36F8FBFF34F8F62B6FEE79846A7
:101590008B46524B984760B9019B63B14FF0800373
:1015A00072B683F31188BFF36F8FBFF34F8F62B6AC
:1015B000FEE7002600E00026494DDFF854A1DFF8E1
:1015C0003091A847A36B002B34D0E56820465946DC
:1015D000444B9847B8F1000F18D1A36B013BA363AC
:1015E000236813B9404B984760602369F3B104F155
:1015F00010003E4B9847012818D14FF080523C4BC9
:101600001A60BFF34F8FBFF36F8F0FE0E560636A1F
:1016100063B104F12400354B984738B14FF0805244
:10162000334B1A60BFF34F8FBFF36F8F314B984727
:1016300001204FE0019B1BB92E4B9847002049E049
:1016400016B902A8D04701262A4B98472A4B98473B
:10165000A847636CB3F1FF3F01D100236364A36C1F
:10166000B3F1FF3F01D10023A364224B984702A8A6
:1016700001A9224B984738BBA847A76B1D4B984739
:10168000E7B923682BB9A84760681D4B9847194BE9
:10169000984704F1240001991A4B984720461A4BA9
:1016A00098471A4B984700288BD14FF08053C9F8C0
:1016B0000030BFF34F8FBFF36F8F82E72046124B8E
:1016C0009847124B98477CE720460F4B98470F4BA3
:1016D0009847002005B0BDE8F08F00BF61214000B1
:1016E000510B4000C10F4000E9224000F91F4000AB
:1016F00004ED00E09D0B4000D51A4000C1204000E1
:1017000081214000F51E4000E90F4000251C4000EB
:101710009120400010B40B4B1B682BB10123094CE6
:1017200054F8332042B900E00023064A42F833104F
:1017300002EBC303586002E00133082BF0D15DF8DF
:10174000044B704794C5402070B504460E461546BC
:101750000D4B9847636CB3F1FF3F01D100236364E5
:10176000A36CB3F1FF3F01D10023A364074B98475B
:10177000A36B2BB904F1240031462A46044B984749
:101780002046044B984770BD510B40009D0B400014
:10179000791F4000E90F4000084B1B681B6823B904
:1017A0004FF0FF32064B1A607047044B1B68DB6832
:1017B000DB685A68024B1A60704700BFF0C14020D6
:1017C00040C4402010B504460E4B1B6858600E4BB9
:1017D0001B68984207D20D4B18680A4B19680431F0
:1017E0000B4B984710BD0B4B1868064B196804311A
:1017F000074B9847084B1B689C4201D2064B1C6064
:1018000010BD00BF20C440203CC4402010C2402076
:101810005D0E4000F0C1402040C440202DE9F04F53
:1018200083B00C9FDDF834A00E9D50B94FF08003BB
:1018300072B683F31188BFF36F8FBFF34F8F62B619
:10184000FEE7182F0AD94FF0800372B683F3118890
:10185000BFF36F8FBFF34F8F62B6FEE70190009327
:1018600090460E4635B990005F4B984705460028D4
:1018700000F0B48058205C4B98470446A0B1056343
:101880002846A5214FEA8802584B98476FF04045FB
:101890004544236B03EB850323F00705337884F875
:1018A0003430337823B90FE02846514B984795E000
:1018B000334604F13402093613F8011F02F8011F00
:1018C000197809B1B342F7D14FF0000884F83D8090
:1018D0003E46182F28BF1826E662A664C4F84C803E
:1018E00004F104094846DFF854B1D84704F1180060
:1018F000D8472461C6F11906A6616462C4F8508015
:1019000084F8548028460199009A3A4B9847206001
:10191000BAF1000F01D0CAF80040374B9847374A58
:10192000136801331360364B1B680BBB344B1C60D0
:101930001368012B26D1334D05F5FA78324E28462F
:10194000B04714354545FAD1DFF8F48040462E4DB6
:10195000A8472E4E3046A8472D48A8472D48A847EF
:101960002D48A8472D4BC3F800802D4B1E6009E081
:101970002C4B1B6833B9224B1B68DB6A9F4201D397
:101980001F4B1C60284A1368013313602364E06A0C
:1019900026490B680122824013430B6000EB800054
:1019A000184B03EB80004946214B9847214B984741
:1019B0001C4B1B6873B1124B1B68DB6A9F420BD92F
:1019C0004FF080521C4B1A60BFF34F8FBFF36F8FE5
:1019D000012005E0012003E0012001E04FF0FF308D
:1019E00003B0BDE8F08F00BFA90D400015AE400068
:1019F000090E4000090B4000510B400048C4402034
:101A000020C4402018C24020250E40004CC4402075
:101A100024C440200CC4402060C44020F0C14020B9
:101A200010C24020F4C1402044C4402074C440206F
:101A3000450E40009D0B400004ED00E03D0E4000CF
:101A4000FCC1402010B584B00023009301930293A1
:101A50000393184818498222184CA04701281AD12C
:101A6000174B9847012816D14FF0800372B683F3C5
:101A70001188BFF36F8FBFF34F8F62B64FF0FF3205
:101A8000104B1A600122104B1A6000220F4B1A6093
:101A90000F4B98470BE050B94FF0800372B683F3B9
:101AA0001188BFF36F8FBFF34F8F62B6FEE704B0AC
:101AB00010BD00BFCD1D4000EC0841001D184000C6
:101AC000D123400040C44020F4C140203CC4402009
:101AD000810C4000024A136801331360704700BF55
:101AE00038C44020014B1868704700BF3CC44020F8
:101AF0002DE9F0473D4B1B68002B6AD13C4B1A681F
:101B000001321A601E68D6B93A4B1B681B6853B184
:101B10004FF0800372B683F31188BFF36F8FBFF36A
:101B20004F8F62B6FEE7334A1168334B1868106076
:101B30001960324A136801331360314B9847314BB7
:101B40001B689E4201D2002437E00024DFF8A490F5
:101B5000DFF8CC802C4FD9F800301B6823B94FF048
:101B6000FF32284B1A6028E0D9F80030DB68DD68C6
:101B70006B689E4202D2234A13601EE005F1040AFC
:101B80005046C047AB6A13B105F11800C047E86A78
:101B90003B680122824013433B6000EB80001B4BFB
:101BA00003EB800051461A4B98471A4B1B68EA6AB0
:101BB000DB6A9A4228BF0124CDE7164B1B68DB6A1B
:101BC00003EB8303114A52F82330022B28BF012470
:101BD00004E0114A13680133136000240F4B1B68A3
:101BE000002B0CBF20460120BDE8F08738C4402000
:101BF0003CC44020F0C1402010C24020ECC1402035
:101C00009917400040C4402074C4402018C24020AE
:101C1000450E400020C4402014C2402078C440201B
:101C2000910E40002DE9F843364B1B6853B94FF035
:101C3000800372B683F31188BFF36F8FBFF34F8FAA
:101C400062B6FEE7304B98472E4B1A68013A1A608D
:101C50001B68002B4DD12D4B1B680BBB00244BE0A8
:101C6000FB68DC6804F11800B04704F10408404642
:101C7000B047E06A2B680122824013432B6000EBDF
:101C8000800009EB80004146214B9847214B1B689F
:101C9000E26ADB6A9A4208D301221F4B1A6004E011
:101CA0001E4F1F4E1F4DDFF890903B68002BD7D181
:101CB0001D4B1B687BB11C4B1B6863B11B4E164D43
:101CC000194CB04708B101232B602368013B236006
:101CD0002368002BF5D1104B1B68012B0BD14FF063
:101CE0008052134B1A60BFF34F8FBFF36F8F0124E5
:101CF00002E0002400E000240E4B98472046BDE897
:101D0000F88300BF38C44020510B400048C4402035
:101D1000450E400020C4402078C4402024C4402008
:101D2000910E400074C4402014C24020F11A4000BB
:101D300004ED00E09D0B400018C2402010B50028C3
:101D400029D00446184B1B6853B14FF0800372B67C
:101D500083F31188BFF36F8FBFF34F8F62B6FEE737
:101D6000124B9847124B1B681C44124B18680430E6
:101D7000114B984748B90F4B1A6810490B68D06A45
:101D80000122824023EA02030B6020460C4B984755
:101D90000C4B984738B94FF080520B4B1A60BFF389
:101DA0004F8FBFF36F8F10BD38C44020D51A40004D
:101DB0003CC4402020C44020910E400074C4402008
:101DC000C5174000251C400004ED00E080B5184D0B
:101DD000184EDFF88080184F19E0C0473468B847C4
:101DE000ACB1164B9847F368DC68201D144B98473C
:101DF000144A1368013B13602B68013B2B60124BA4
:101E00009847206BDFF85090C8472046C8472B689A
:101E1000002BE2D10D4B1B68012BF8D94FF08052FB
:101E20000B4B1A60BFF34F8FBFF36F8FD1E700BF2B
:101E3000F8C140200CC44020251C4000510B40003C
:101E4000910E400048C440209D0B400018C2402025
:101E500004ED00E0D51A4000090E4000204B1B683D
:101E60001BB101221F4B1A60704700221D4B1A60E4
:101E70001D4B1B68B3FA83F3DBB2C3F11F0303EB03
:101E800083011A4A52F8212052B94FF0800372B6EA
:101E900083F31188BFF36F8FBFF34F8F62B6FEE7F6
:101EA00010B4124A9900C81802EB800044686468B4
:101EB000446002460832944206D1606803EB830115
:101EC0000A4A02EB8102506003EB8303074A02EBEC
:101ED00083035B68DA68064B1A605DF8044B704751
:101EE00038C4402078C4402074C4402018C2402028
:101EF00020C4402038B550B94FF0800372B683F348
:101F00001188BFF36F8FBFF34F8F62B6FEE70C46A9
:101F1000114D29681831114B984728680430104B2F
:101F2000984740B92A680F490B68D06A012282405D
:101F300023EA02030B60B4F1FF3F06D1064B196898
:101F400009480431094B984738BD094B18682044AB
:101F5000084B984738BD00BF20C440205D0E4000AC
:101F6000910E400074C4402060C44020450E4000E3
:101F70003CC44020C517400050B94FF0800372B6F2
:101F800083F31188BFF36F8FBFF34F8F62B6FEE705
:101F900070B515460C46114E31681831104B9847F4
:101FA000306804300F4B984740B932680E490B68CF
:101FB000D06A0122824023EA02030B60012D06D180
:101FC000064B196809480431054B984770BD084B0A
:101FD00018682044074B984770BD00BF20C44020BC
:101FE000450E4000910E400074C4402060C4402063
:101FF0003CC44020C517400038B5C368DC6854B9FC
:102000004FF0800372B683F31188BFF36F8FBFF375
:102010004F8F62B6FEE704F118052846144B984727
:10202000144B1B689BB9251D2846114B9847E06A45
:1020300011490B680122824013430B6000EB8000C2
:102040000E4B03EB800029460D4B984703E00D48EB
:1020500029460B4B98470C4B1B68E26ADB6A9A4295
:1020600003D90120094B186038BD002038BD00BFDE
:10207000910E400038C4402074C4402018C2402053
:10208000450E400024C4402020C4402078C4402095
:1020900050B94FF0800372B683F31188BFF36F8F8E
:1020A000BFF34F8F62B6FEE7034A12680260034A2D
:1020B00012684260704700BFECC140203CC4402021
:1020C00038B550B94FF0800372B683F31188BFF36F
:1020D0006F8FBFF34F8F62B6FEE7044651B94FF0E2
:1020E000800372B683F31188BFF36F8FBFF34F8FF6
:1020F00062B6FEE70D46124B9847124B19682B68E3
:10210000B3F1FF3F13D0104A12682068904202D00A
:10211000626891420DD26268881A83420BD9521AC2
:1021200013442B602046094B9847002404E0002408
:1021300002E0012400E00124054B9847204638BD09
:10214000510B40003CC44020ECC140209120400095
:102150009D0B40000122014B1A60704778C440205B
:10216000054B1B6833B1054B1B68002B0CBF0220CD
:102170000020704701207047F4C1402038C440203F
:10218000002845D038B50346C26A22490968C96AA1
:102190008A423CD28169002905DB1E490968C96A67
:1021A000C1F11901816102EB82021B4901EB82023C
:1021B0005969914227D11C461D1D2846174B984747
:1021C00070B9E36A03EB8301134A52F821203AB94C
:1021D00013480268012101FA03F322EA03030360B2
:1021E0000C4B1B68D86AE0620D490A6801238340E2
:1021F00013430B6000EB8000074B03EB8000294684
:10220000084B984738BD034A1268D26ADA6238BD73
:10221000704700BF20C4402018C24020910E4000EB
:1022200074C44020450E400000284ED038B5294ADD
:10223000126890420AD04FF0800372B683F311887F
:10224000BFF36F8FBFF34F8F62B6FEE7C26C52B918
:102250004FF0800372B683F31188BFF36F8FBFF323
:102260004F8F62B6FEE7013AC264002A2FD1C16ADD
:10227000826C91422BD00446051D2846164B984788
:1022800068B9E16A01EB8102144B53F8223033B98B
:102290001348036801228A4023EA02030360A06C0A
:1022A000E062C0F11903A3610D4A1368012404FA26
:1022B00000F10B43136000EB8000084B03EB800040
:1022C0002946084B9847204638BD0020704700201B
:1022D00038BD00BF20C44020910E400018C24020ED
:1022E00074C44020450E4000054B1B6823B1044BCD
:1022F0001A68D36C0133D364014B1868704700BF70
:1023000020C4402010B504464160206191420AD8A3
:10231000D21A83699A4211D20A4B1868211D0A4BBE
:102320009847002010BD994201D39A4208D3074B29
:102330001868211D044B9847002010BD012010BDD6
:10234000012010BDB0C440205D0E40007CC4402080
:1023500070B5144B9847144B1B6803BB134D2846AC
:10236000134EB047134C2046B047134B1D60134B20
:102370001C60052010210022114B98470A4B186061
:1023800050B94FF0800372B683F31188BFF36F8F9B
:10239000BFF34F8F62B6FEE70A490B4B98470B4BD2
:1023A000984770BD510B4000ACC4402080C4402011
:1023B000250E400094C440207CC44020B0C440207E
:1023C0001911400004094100151740009D0B400001
:1023D00010B584B00F4B98470F4B1B6863B118239F
:1023E000009300230193029303930C480C494FF48C
:1023F00082720C4CA04750B94FF0800372B683F341
:102400001188BFF36F8FBFF34F8F62B6FEE704B042
:1024100010BD00BF51234000ACC4402061254000E6
:102420000C0941001D18400050B94FF0800372B6EE
:1024300083F31188BFF36F8FBFF34F8F62B6FEE750
:1024400030B585B015460446124A1068F0B11A46F8
:10245000009101950294052913DC0F4B984702283F
:1024600007D10C4B18686946089A00230B4CA0470B
:102470000DE0084B1868694600221346074CA04738
:1024800005E069460023064CA04700E0002005B0A7
:1024900030BD00BFACC44020612140009D11400010
:1024A000791340002DE9F04782B08046254B9847CC
:1024B0000746254B1B6898423BD22BE0DB68D3F8DC
:1024C00000A0DC6804F104094846B047636A20466E
:1024D0009847E369012B1FD1A3695344534506D99B
:1024E0006360246128684946184B984714E000232C
:1024F0000093204619465246154CA04760B94FF04C
:10250000800372B683F31188BFF36F8FBFF34F8FD1
:1025100062B6FEE70F4D104E2B681A68002ACDD127
:102520000E4A10680B49086013600123C8F8003098
:1025300002E00023C8F80030034B1F60384602B0A9
:10254000BDE8F087E51A4000A8C440205D0E4000B9
:10255000292440007CC44020910E4000B0C440209B
:102560002DE9F04389B0694C694F6A4D6A4B1B688D
:102570001A68002A00F0BF80DB681E68674B984726
:1025800004A8674B98478046049B002B4DD1B0426E
:1025900039D3644B9847604B1B68DB68D3F80C90C9
:1025A00009F10400604B9847D9F81C30012B1DD16C
:1025B000D9F818104846314442463346DFF878C10E
:1025C000E047012812D100230093484619463246BD
:1025D000564EB04750B94FF0800372B683F311885E
:1025E000BFF36F8FBFF34F8F62B6FEE7D9F8243089
:1025F0004846984777E04E4B1B681A68B2FA82F259
:102600005209002600E000222068C8EB0601494B71
:102610009847444B9847002865D14FF080533B6062
:10262000BFF34F8FBFF36F8F5DE03E4B98475AE08B
:10263000049B002B06DA06980799059B9847049B94
:10264000002B50DB069E736913B1301D364B984743
:1026500003A8334B98478646049A092A43D8DFE8F3
:1026600002F0050505422A3F0505422A059BB1698E
:10267000304619447246DFF8C0C0E047012832D125
:10268000736A30469847F369012B2CD1B269002355
:10269000009330461946059E3244244EB04710BB85
:1026A0004FF0800372B683F31188BFF36F8FBFF3CF
:1026B0004F8F62B6FEE70599B16151B94FF08003C3
:1026C00072B683F31188BFF36F8FBFF34F8F62B67B
:1026D000FEE73046714472467346174EB04702E03B
:1026E0003046164B9847206804A900221346A84795
:1026F00000289DD13AE7094B984704A8084B984712
:102700008046049B002B3FF476AF8EE7ACC440209C
:1027100004ED00E0511540007CC44020D51A400073
:10272000A5244000251C4000910E400029244000B3
:10273000B0C440204917400005234000090E400066
:1027400010B51048104B984700203E210F4B98477A
:102750000F4CA0470028FCD00E4B98470E4A0F4B59
:102760009A620F4CA0470028FCD002200D4B9847DE
:1027700000200D4B98470D4B98470248024B984755
:1027800010BD00BF00A3E111293640008D29400093
:10279000E1294000F1294000013F182000060E40C9
:1027A000012A4000ED284000252940001535400051
:1027B0000AB1416670470166704700BF0163704708
:1027C0004163704721F00061B1F1405F01D1836B3B
:1027D00000E0C36B134214BF01200020704700BF0C
:1027E0004264B1F1C05F2FD007D8B1F1006F14D0AF
:1027F000B1F1805F1ED039B97047B1F1205F37D099
:1028000004D8B1F1005F29D042607047B1F1405F58
:102810002ED0B1F1605F2BD0F6E710B4016F046FDA
:10282000D343214019400167416F446F21400B4061
:1028300043671AE0036F13430367436F416F0B4015
:1028400023EA02034367DFE7036F016F0B4023EACC
:1028500002030367436F13434367D5E7036F1343D3
:102860000367436F13434367CEE742605DF8044B51
:10287000704700BF416412F0010F01D0416600E0D3
:10288000016612F00A0F01D0016200E0416212F00D
:10289000020F02D0C0F8801004E012F0080F01D03F
:1028A000C0F8841041610160704700BF10B44164FA
:1028B000019C0CB1416600E001660BB1016500E0CE
:1028C00041650AB1016300E04163016101605DF8A7
:1028D000044B704712B1C0F894107047C0F89010C4
:1028E000704700BFC06C7047806C7047032807D0EA
:1028F000042808D002280CBF4FF48071002104E0A6
:102900004FF4407101E04FF40071054A136B23F45A
:1029100040730B431363936E13F0080FFBD07047A3
:1029200000060E40184A136B23F07003184310631F
:10293000936E13F0080F03D009E0013B03D11EE0B2
:102940004FF4006310498A6E12F0080FF5D00E4A5A
:10295000136B23F0030343F002031363906E10F034
:10296000080004D000207047013B03D109E04FF478
:10297000006305498A6E12F0080FF5D070470120F8
:1029800070470120704700BF00060E4038B10E4965
:102990000B6A0E4A1A400E4B13430B6270470A48EB
:1029A000036A0C4A1A400C4B1343090289B21943BB
:1029B00001620246936E13F0010FFBD0024A116AC6
:1029C000064B0B431362704700060E40FCFFC8FE27
:1029D00002003701FCFFC8FF01003700000037018B
:1029E000024B986E00F48030704700BF00060E4026
:1029F0004FF00052014B9A62704700BF00060E4034
:102A0000024B986E00F00200704700BF00060E40B7
:102A10003F281ED81F280CD8114B9A6901238340E8
:102A20001A40934217D0012383400D4A13610020BE
:102A300070470B4BD3F808212038012383401A40FC
:102A400093420AD001238340054AC2F80031002096
:102A5000704701207047002070470020704700BF7A
:102A600000060E400F4B994219D84900B2FBF1F213
:102A7000043AFF2A07D9002301335208062B03D852
:102A8000FF2AF9D800E00023110289B21B0403F4E5
:102A9000E0230B43D2B21A430261002070470120A9
:102AA000704700BF801A060008B50A464FF0FF3194
:102AB0008162016A80210160016B0821016020218F
:102AC00001600421016051681268034B9847012896
:102AD00014BF0020012008BD652A4000F0B4CA6878
:102AE0008C68002A47D0002646604B681B0203F41E
:102AF000407343F480550B7C1B0403F4FE032B430B
:102B00004360C6604D685DB10B78012D02DD4E78E3
:102B100046EA0323022D04DD897841EA032300E01D
:102B20000023C3600123036043F69826022714E0C4
:102B3000036A13F4807F20D1013920D0012A04D107
:102B4000076013F0020FF3D01DE013F0020F0AD05C
:102B5000036B04F8013B013A07D0036A13F4807554
:102B60000FD13146EAE7002AE2D1036A13F0010FE0
:102B7000FBD0036A0AE0012508E0052506E00925E7
:102B800004E0052502E0036B2370EEE72846F0BC65
:102B9000704700BF2DE9F04186B01C481C4EB0477D
:102BA0001C4D002400942846182122462346DFF8B5
:102BB0008480C04728461821174FB84728464FF051
:102BC00000611822154B9847009428464FF0806109
:102BD00022462346C04728464FF08061B847104838
:102BE00080230360036B0823036020230360042316
:102BF00003600C4B03930C4B049303A90B4B9847B6
:102C00000B48B04706B0BDE8F08100BF1409410091
:102C10009D014000000E0E40C1274000E12740000A
:102C20000080014000A3E111400D0300A92A4000EB
:102C300038094100AD28400070B5CC688D68002C83
:102C400055D0002646600B7C1B0403F4FE024B6843
:102C50001B0203F4407313434360C6604A68002AB2
:102C600051D00B78012A02DD4E7846EA0323022A6E
:102C70004ADD8A7842EA032346E0036A13F4807F40
:102C800037D1013A03D1254B9847052144E013F091
:102C9000040F03D02B784363013C0135002CECD1A9
:102CA000036A13F4807426D113F0040F0ED10023AD
:102CB0004FF6FF7102E012F0040F07D10133026AF0
:102CC00012F4807F19D18B42F5D916E002230360FC
:102CD000016A11F0010112D100234FF6FE74013395
:102CE000026A12F0010F17D1A342F8D914E00121B2
:102CF00012E0052110E005210EE005210CE021463F
:102D00000AE0052108E00023C360036A13F4807F12
:102D1000F7D14FF6FF72BAE7084670BD952B400019
:102D200010B4AC2303600B684A68B3FBF2F31B09D1
:102D30005C1E4FF6FE72944206D803628B684360B5
:102D400050230360002000E001205DF8044B704731
:102D500040230360704700BF10230360704700BF2B
:102D600050230360704700BF816070474069C0F323
:102D70004000704701627047436913F0020F02D0B0
:102D8000C161002070470120704700BF436913F004
:102D9000010F03D083690B7000207047012070473A
:102DA0002DE9F04F9FB0A8480021A84B9847A84BA9
:102DB0009847DFF858931BAD99E8070085E80700AE
:102DC0002E20DFF84C83C0472E20C047A14C204660
:102DD0002946A14B98472046A04B98472046A04B38
:102DE000984720469F4B9847204653219E4B984733
:102DF0001020C0479D484FF0C0519D4A9D4EB0479E
:102E00009D489E4DA8479E48A8479E484FF0605158
:102E10004FF48052B0470A20C0470B20C04700241F
:102E2000009499484FF0805122462346974FB84767
:102E3000009495484FF0005122462346B84700942D
:102E400091484FF0804122462346B84700948E486F
:102E50004FF0007122462346B847009489484FF44A
:102E6000005122462346B847009487480421224651
:102E70002346B847009484484FF000412246234639
:102E8000B84700948048402122462346B8478048EE
:102E9000A8478048A8478048804B98478048A84763
:102EA0008048A847804B4FF001021A70BFF35F8F34
:102EB00062B67E48A8477E48A8470DF1600A09F12E
:102EC0000C0999E807008AE807003E20C0470C205B
:102ED000C0471020C0471120C047DFF8389275481E
:102EE0004FF000614A46B047724849460122DFF878
:102EF00028B2D8476F4870492246DFF82092C84769
:102F000061484FF000614FF4C032B0475E484FF463
:102F1000C0312246D8475C484FF4C0310122C8472F
:102F200059484FF0C051654AB0475748634901229C
:102F3000D847554861492246C8474C484FF0C051D0
:102F40005F4AB04749485E490122D84747485C4933
:102F50002246C8475B484FF000613F22B0475948BE
:102F60003F210122D84757483F212246C847564AA9
:102F7000D2F8243143F01003C2F824314D484FF009
:102F800000614FF40042B04750465049504B9847BB
:102F90005048A8474FF0E04021464FF080724E4B1A
:102FA00098474E48A8474E48A84700942F484FF0EE
:102FB000806122462346B8472C484FF08061DFF8F5
:102FC00060A1D047009430484FF0806122462346EC
:102FD000B8472D484FF08061424B98471320C047B7
:102FE00029484FF000611822B04700941F484FF065
:102FF000806122462346B8471C484FF08061D04785
:10300000394B98473948A8473948A8474020394B99
:1030100098474120374B98473748A8473748A84733
:10302000009412484FF4806122462346B8470F4867
:103030004FF48061D0473248324B9847324D0B48AD
:103040004FF000516EE000BF10180E40650A4000BE
:1030500041274000001E0E40212D4000612D400000
:10306000512D4000592D4000752D400000140E4098
:1030700008000400E1274000740941009D01400060
:10308000D809410000100E40000E0E40AD2840004F
:10309000F8094100180A410050180E40910A4000FA
:1030A0003C0A4100600A410010004020880A4100AB
:1030B000B00A410000120E40FF80FCFF01001C001E
:1030C00000E0832000160E400080084000A3E111BC
:1030D00029094000D00A410015AE4000EC0A410029
:1030E000100B4100C1274000952B4000300B4100E0
:1030F000540B4100954B40007C0B4100A40B410058
:1031000084B70700010040200018601B5C094100E3
:10311000112A4000FF00FCFFD5284000B1274000E5
:10312000BD2740002A46B047AA4829462246C8473C
:10313000A84829460122D847A7484FF00051082245
:10314000B047A54808212246C847A34808210122C4
:10315000D847A2484FF000514FF01062B0479F4847
:103160004FF080514FF40872B0479D4D9B4829465F
:103170002246C847994829460122D8473B20C047E4
:10318000984B98470622984B5A621A46936A13F056
:10319000040FFBD001268DF84C608DF84D600025A2
:1031A0008DF84E508DF84F508DF850508DF852607C
:1031B0008DF853508DF854504FF42078CDF8588046
:1031C0004FF4F073179302238DF851304FF0E04421
:1031D000204629464FF08072844B98470C20DFF838
:1031E0009092C84707460C20C847B8603C607E6094
:1031F0008760046046607C4C204613A97C4B98474E
:103200003B680093204629463A463346794DA84705
:10321000A36B3343A3634FF4A0730093204641464E
:103220004246754DA847636843F080536360636A04
:10323000334363622246936A13F0010FFBD06F4859
:103240006F4CA0476F48A04700238DF824308DF8BD
:1032500025308DF826308DF827300A936A4A0F9270
:1032600004220B920A220C920D930E935B4D28467A
:103270004FF000614FF41E32644CA04728464FF4D3
:103280001E310122624B984752484FF000614FF0C7
:103290000042A0472B205F4B984702225E4B1A60EA
:1032A0001A46136913F0807FFBD15B4C80232360A7
:1032B000204609A9594B98470123236022461369E8
:1032C00013F0807FFBD00222534B1A601A46136919
:1032D00013F0807FFBD1504C80232360204609A946
:1032E0004E4B98474E484F4B984701232360224648
:1032F000136913F0807FFBD049484A4B98474A48EE
:103300003F4CA0474948A0474948A0474948A047E3
:10331000494D2846DFF8FC90C8472846DFF854811D
:10332000C04703A8454FB847284603A9444EB047B5
:103330006B6823F08F036B6005F520352846C8477E
:103340002846C04703A8B847284603A9B0476B687A
:1033500023F08F036B6001276F6105F5FA2528467E
:10336000022100222A4B9847284602210022354B91
:1033700098473548A0473548A047354E30464FF46A
:1033800080510922334DA84730464FF4006109228D
:10339000A84730464FF480610922A84730464FF4D1
:1033A00000710922A8472C48A0472C48A0472C4868
:1033B00039462C4B98472C4B4FF48042C3F884215C
:1033C000C02183F82E135A602848A0471FB0BDE8DB
:1033D000F08F00BF00140E4000100E40000E0E4093
:1033E00020020009B54E400000C0044015AE400068
:1033F000E10340003D05400091044000C80B41003E
:103400009D014000EC0B41000024F400E127400046
:10341000B1274000112A400000C0074015064000B7
:10342000252B4D00010040200C0C41002C0C4100CC
:10343000500C4100740C410000C003406502400084
:1034400095024000D5284000940C4100B40C410086
:1034500000120E4075284000D80C4100FC0C4100C1
:10346000001E0E40692D400000E100E0240D4100E7
:1034700079A740008D034000FEE700BF08B5194B57
:10348000194A9A4203D0194B164A9A4204D3184B50
:10349000184A9A4210D31BE012490A1D164B9B1A78
:1034A00023F003030433104A134452F8040B41F889
:1034B000040B9A42F9D1EAE7104B114AD21A22F0D2
:1034C00003021A44043B002143F8041B9342FBD13E
:1034D0000C4A0D4B23F07F0393600C4B98470C4B29
:1034E0009847FEE700004020D418410050094020D2
:1034F0009CC64020500940205309402054094020D8
:103500009FC6402000ED00E00000400001A7400001
:10351000157340003D4B1B6B03F00303012B12D0CE
:1035200013B1022B2CD05AE0394B5B6913F0800F9A
:1035300004D04FF40042374B1A6050E04FF4FA4287
:10354000344B1A604BE0314B1B6A13F0807F03D081
:10355000314A304B1A6042E0304A2E4B1A602B4BF6
:103560001B6A03F07003102B02D0202B04D036E02E
:103570002B4A284B1A6032E0274A264B1A602EE06D
:10358000224B1B6A13F0807F03D0234A214B1A6021
:1035900012E0224A1F4B1A601C4B1B6A03F0700397
:1035A000102B02D0202B04D006E01D4A194B1A60C4
:1035B00002E0194A174B1A60144B1B6B03F003030C
:1035C000022B0CD1114A936A926A1248C3F30A4142
:1035D000036801FB0333D2B2B3FBF2F303600B4B7E
:1035E0001B6B03F07003702B07D10A4A13680D4957
:1035F000A1FB03135B0813607047044B1A6B05496A
:10360000C2F302120B68D3400B60704700060E40F5
:1036100010180E4014004020001BB70000093D00A8
:1036200000127A00ABAAAAAA144B984204D84FF011
:103630008062134B1A607047124B984203D8124AAB
:103640000F4B1A607047114B984203D8104A0C4B2D
:103650001A6070470F4B984203D80F4A084B1A6004
:1036600070470E4B984204D84FF00422044B1A6066
:1036700070470B4A024B1A60704700BFFF2C3101A4
:10368000000C0E40FF59620200010004FF86930304
:1036900000020004FFB3C40400030004FFE0F505CA
:1036A00000050004094B1B6813B9094A074B1A604F
:1036B000064B1B681A180749914204DB1046034A5F
:1036C0001060184670474FF0FF307047B4C4402078
:1036D000A0E84020FCFF45204FF0FF30704700BFBE
:1036E0004FF0FF30704700BF4FF0FF30704700BF12
:1036F0004FF400534B600020704700BF012070471B
:103700000020704708B501460148024B9847FEE784
:10371000500D410051A74000704700BF4FF0FF30EF
:10372000704700BF2DE9F04F87B000AF03F1070EDF
:103730002EF0070EADEB0E0D082B41DC6E4619B9CD
:10374000F8604FF0010B3EE040F04000F8607F2A47
:1037500003D83A614FF0020B35E002F07F0141F0EF
:1037600080013961C2F3C7127A614FF0030B2AE07E
:103770001B4849460122B04708F1010809F1040934
:10378000C345F5DC16487E6831465246154B9847CE
:10379000BAF1010F0FD431465644002200231D0216
:1037A00045EA1265140216F8012D002322432B432B
:1037B0008E42F4D101E000220023104619460AE0AF
:1037C0000020014607E07E609A4607F10C094FF0A1
:1037D0000008054ECCE71C37BD46BDE8F08F00BFA2
:1037E00000C00740950740008508400010B5002044
:1037F000014602460423014CA04710BD2537400076
:1038000010B50F2000210A460523034CA047034BA7
:103810001860C11710BD00BF25374000D8C5402033
:103820002DE9F04F87B000AFF860B9601546D7E9D1
:103830001089BC6CE31D23F00703ADEB030DC7F843
:1038400004D0002C25DD0DEB040B0026FF22002305
:10385000EE46DC46C246CB4602EA0A0803EA0B09FA
:10386000C6F12000A6F1200128FA06F809FA00F0B6
:1038700048EA000829FA01F148EA01080EF8018B2C
:10388000190241EA1261100202460B460836E6456B
:10389000E2D1BB682BB9FB6863F07F003875012269
:1038A0000FE0FB6863F03F0038757F2D02D87D750F
:1038B000022206E065F07F037B75C5F3C712BA7577
:1038C000032216490B6913F0040FFBD07AB107F1FC
:1038D000140606EB0208DFF844B04FF0010A104D61
:1038E000584631465246A84701364645F8D1002C85
:1038F0000FDD7B681E4623441C46DFF820904FF006
:103900000108074D484631464246A8470136A642BF
:10391000F8D11C37BD46BDE8F08F00BF00C007409E
:103920008508400030B585B04FF4AA520023CDE998
:10393000002304250295262001210022064CA047E1
:103940004FF490720023CDE9002302953620012127
:103950002822A04705B030BD2138400000B585B011
:10396000C117CDE9000105230293082000210A4672
:10397000024B984705B05DF804FB00BF21384000BA
:1039800010B584B00446CDE90023069B02930920BC
:1039900001212246014B984704B010BD2138400058
:1039A00000B585B002220023CDE900230423029351
:1039B0000D2000210A46024B984705B05DF804FB34
:1039C00021384000000000002DE9F04F2DED028B62
:1039D0008DB00E4614461F46D3ED027AF8EEE77A14
:1039E0000DF1280800250095019501230293039508
:1039F000404617EE901A2A4617EE903ADFF8709379
:103A0000C84798E8030086E80300D7ED027AF8EE8D
:103A1000E77A00950195002302930395404617EE3F
:103A2000901A2A4617EE903AC84706F1080398E81C
:103A3000030083E80300D7ED027AF8EEE77A0095F9
:103A40000195012302930395404617EE901A2A46EA
:103A500017EE903AC84706F1100398E8030083E890
:103A60000300D7ED027AF8EEE77A0095019500237E
:103A700002930395404617EE901A2A4617EE903AA5
:103A8000C84706F1180398E8030083E80300D7ED60
:103A9000027AF8EEE77A00950195012302930395E7
:103AA000404617EE901A2A4617EE903AC84706F19C
:103AB000200398E8030083E80300D7ED027AF8EECC
:103AC000E77A00950195002302930395404617EE8F
:103AD000901A2A4617EE903AC84706F1280398E84C
:103AE000030083E8030096ED008A6FF04A0BF86844
:103AF000C0EB0B00984B984780468946D7ED097A72
:103B0000F8EEE77A17EE900A944B98470022944B10
:103B1000944DA84702460B4640464946924DA84759
:103B2000DFF850A28AA3D3E90023D047DFF84892F8
:103B3000C847024606A818EE101A7368DFF83C82E0
:103B4000C04706AB93E8070084E8070096ED028AB9
:103B5000F868C0EB0B00804B9847CDE90401D7ED26
:103B6000097AF8EEE77A17EE900A7C4B9847002224
:103B70007B4B7C4DA84702460B46DDE904017A4D9C
:103B8000A84773A3D3E90023D047C847024606A835
:103B900018EE101AF368C04704F10C0306AA07CA0E
:103BA00083E8070096ED048AF868C0EB0B006A4BC7
:103BB0009847CDE90401D7ED097AF8EEE77A17EED8
:103BC000900A664B98470022654B664DA84702460F
:103BD0000B46DDE90401644DA8475DA3D3E900234A
:103BE000D047C847024606A818EE101A7369C047A6
:103BF00004F1180306AA07CA83E8070096ED068AAF
:103C0000F868C0EB0B00544B9847CDE90401D7EDA1
:103C1000097AF8EEE77A17EE900A504B984700229F
:103C20004F4B504DA84702460B46DDE904014E4D6F
:103C3000A84747A3D3E90023D047C847024606A8B0
:103C400018EE101AF369C04704F1240306AA07CA44
:103C500083E8070096ED088AF868C0EB0B003E4B3E
:103C60009847CDE90401D7ED097AF8EEE77A17EE27
:103C7000900A3A4B98470022394B3A4DA8470246E2
:103C80000B46DDE90401384DA84731A3D3E90023F1
:103C9000D047C847024606A818EE101A736AC047F4
:103CA00004F1300306AA07CA83E8070096ED0A8AE2
:103CB000F868C0EB0B00284B9847CDE90401786AFF
:103CC00007EE900AF8EEE77A17EE900A234B984732
:103CD0000022234B234DA84702460B46DDE9040191
:103CE000214DA8471AA3D3E90023D047C84702466D
:103CF00006A818EE101AF36AC04704F13C0306AA9E
:103D000007CA83E80700002021686268A368174D8E
:103D1000A8470120E16822696369A8470220A169D8
:103D2000E269236AA8470320616AA26AE36AA84796
:103D30000420216B626BA36BA8470520E16B226C0A
:103D4000636CA8470DB0BDEC028BBDE8F08F00BFDF
:103D50000000000000C052404D9F4000719F400095
:103D600000003E406DA2400019A04000F158400004
:103D7000E9544000B59C40009DA540001957400003
:103D80002DE9F04F2DED028B8DB00E4614461F46E7
:103D9000D3ED027AF8EEE77A0DF1280800250095B8
:103DA0000195012302930395404617EE901A2A4687
:103DB00017EE903ADFF8AC93C84798E8030086E81E
:103DC0000300D7ED027AF8EEE77A0095019500231B
:103DD00002930395404617EE901A2A4617EE903A42
:103DE000C84706F1080398E8030083E80300D7ED0D
:103DF000027AF8EEE77A0095019501230293039584
:103E0000404617EE901A2A4617EE903AC84706F138
:103E1000100398E8030083E80300D7ED027AF8EE78
:103E2000E77A00950195002302930395404617EE2B
:103E3000901A2A4617EE903AC84706F1180398E8F8
:103E4000030083E80300D7ED027AF8EEE77A0095E5
:103E50000195012302930395404617EE901A2A46D6
:103E600017EE903AC84706F1200398E8030083E86C
:103E70000300D7ED027AF8EEE77A0095019500236A
:103E800002930395404617EE901A2A4617EE903A91
:103E9000C84706F1280398E8030083E8030096ED7D
:103EA000008A6FF04A0BF868C0EB0B00A64B9847EE
:103EB00080468946D7ED097AF8EEE77A17EE900A40
:103EC000A24B984702460B460020A149A14DA847A6
:103ED00000229F4BA04DA84702460B46404649464C
:103EE0009E4DA847DFF880A295A3D3E90023D047D1
:103EF000DFF87892C847024606A818EE101A7368D1
:103F0000DFF86C82C04706AB93E8070084E807003F
:103F100096ED028AF868C0EB0B008B4B9847CDE911
:103F20000401D7ED097AF8EEE77A17EE900A874B8D
:103F3000984702460B4600208549864DA847002237
:103F4000834B854DA84702460B46DDE90401834DAE
:103F5000A8477BA3D3E90023D047C847024606A859
:103F600018EE101AF368C04704F10C0306AA07CA3A
:103F700083E8070096ED048AF868C0EB0B00724BEB
:103F80009847CDE90401D7ED097AF8EEE77A17EE04
:103F9000900A6E4B984702460B4600206C496D4DC7
:103FA000A84700226A4B6C4DA84702460B46DDE944
:103FB00004016A4DA84762A3D3E90023D047C8474C
:103FC000024606A818EE101A7369C04704F11803D8
:103FD00006AA07CA83E8070096ED068AF868C0EBD0
:103FE0000B00594B9847CDE90401D7ED097AF8EE5B
:103FF000E77A17EE900A554B984702460B46002089
:104000005349544DA8470022514B534DA8470246EF
:104010000B46DDE90401514DA84749A3D3E900232C
:10402000D047C847024606A818EE101AF369C047E1
:1040300004F1240306AA07CA83E8070096ED088A5C
:10404000F868C0EB0B00404B9847CDE90401D7ED71
:10405000097AF8EEE77A17EE900A3C4B9847024649
:104060000B4600203A493B4DA8470022384B3A4DB9
:10407000A84702460B46DDE90401384DA84730A3A6
:10408000D3E90023D047C847024606A818EE101A05
:10409000736AC04704F1300306AA07CA83E8070021
:1040A00096ED0A8AF868C0EB0B00274B9847CDE9DC
:1040B0000401786A07EE900AF8EEE77A17EE900AA4
:1040C000224B984702460B4600202149214DA84724
:1040D00000221F4B204DA84702460B46DDE9040194
:1040E0001E4DA84716A3D3E90023D047C847024670
:1040F00006A818EE101AF36AC04704F13C0306AA9A
:1041000007CA83E80700002021686268A368144D8D
:10411000A8470120E16822696369A8470220A169D4
:10412000E269236AA8470320616AA26AE36AA84792
:104130000420216B626BA36BA8470520E16B19E09B
:104140000000000000C052404D9F4000719F4000A1
:1041500000003E40B19C40006DA2400019A040000C
:10416000F1584000E9544000B59C40009DA5400036
:1041700019574000226C636CA8470DB0BDEC028B50
:10418000BDE8F08F000000002DE9F04F2DED028B0F
:104190008FB082460D4604921C46D3ED097AF8EEA4
:1041A000E77A9FEDC18A77EE887A93ED067AB8EECA
:1041B000C77ADFF80C83C7EE877A17EE900AC047FC
:1041C000BA4F02460B46B847DFF8F8B2B4A3D3E9BA
:1041D0000023D847DFF8F092C84708EE900ACAF8E3
:1041E0000000A369D4ED097AF8EEE77AB04E86FBB9
:1041F0000312A2EBE37207EE102AB8EEC77A37EE8D
:10420000877A07EE903AF8EEE77AC7EE277A17EE4C
:10421000900AC04702460B46B847A1A3D3E9002342
:10422000D847C847CAF80400A269D4ED097AB8EEA5
:10423000E77A86FB0213A3EBE2735B0007EE903A8A
:10424000F8EEE77A77EE277A07EE102AB8EEC77A0B
:10425000C7EE877A17EE900AC04702460B46B8476A
:104260008FA3D3E90023D847C847CAF80800A2693A
:10427000D4ED097AB8EEE77A86FB0213A3EBE2737A
:1042800003EB430307EE903AF8EEE77A77EE277AEE
:1042900007EE102AB8EEC77AC7EE877A17EE900AB3
:1042A000C04702460B46B8477DA3D3E90023D84751
:1042B000C847CAF80C00A269D4ED097AB8EEE77ACB
:1042C00086FB0213A3EBE2739B0007EE903AF8EE35
:1042D000E77A77EE277A07EE102AB8EEC77AC7EEAC
:1042E000877A17EE900AC04702460B46B8476CA380
:1042F000D3E90023D847C847CAF81000A369D4ED12
:10430000097AB8EEE77A86FB0326A6EBE37606EB9E
:10431000860607EE906AF8EEE77A77EE277A07EEE0
:10432000103AB8EEC77AC7EE877A17EE900AC04700
:1043300002460B46B8475AA3D3E90023D847C847DB
:10434000CAF8140018EE900AC0475A4B9847CDE9B6
:104350000601D4ED027AF8EEE78A0CAE6069564B9E
:104360009847DDE90623D847C84702468DED008A05
:10437000636801930123029323680393304618EE88
:10438000901A18EE903A4D4FB84796E8030085E82A
:104390000300DAF80400C047464B9847CDE9060110
:1043A000D4ED027AF8EEE78A6069434B9847DDE97D
:1043B0000623D847C84702468DED008A63680193FB
:1043C0000023029323680393304618EE901A18EEE8
:1043D000903AB84705F1080396E8030083E8030024
:1043E000DAF80800C047334B9847CDE90601D4ED11
:1043F000027AF8EEE78A60692F4B9847DDE90623D9
:10440000D847C84702468DED008A636801930123AF
:10441000029323680393304618EE901A18EE903AF0
:10442000B84705F1100396E8030083E80300DAF8C3
:104430000C00C0471F4B9847CDE90601D4ED027A26
:10444000F8EEE78A60691C4B9847DDE90623D847F8
:10445000C84702468DED008A6368019300230293EA
:1044600023680393304618EE901A18EE903AB84736
:1044700005F1180396E8030083E80300DAF810005A
:10448000C0470C4B9847CDE90601D4ED027AF8EE0F
:10449000E78A6069084B984718E000BFAFF30080D7
:1044A000182D4454FB21094000000000B59C400039
:1044B000ABAAAA2A857440004D9F4000E9544000F1
:1044C000719F400019A040009DA54000DDE9062332
:1044D000D847C84702468DED008A636801930123DF
:1044E000029323680393304618EE901A18EE903A20
:1044F000B84705F1200396E8030083E80300DAF8E3
:104500001400C047894B9847CDE90601D4ED027AE3
:10451000F8EEE78A6069864B9847DDE90623D847BD
:10452000C84702468DED008A636801930023029319
:1045300023680393304618EE901A18EE903AB84765
:1045400005F1280396E8030083E80300D5F80090FE
:10455000DAF80000C047774B9847CDE90601002202
:104560000023754EB04720B1E0684042704B984739
:1045700012E06F4F2069B84702460B46DDE906019D
:104580006E4EB047CDE90601E068B84702460B46DB
:10459000DDE906016A4EB04708AE6A4B984702460D
:1045A000304649466B68684FB84796E80700049E56
:1045B00086E8070006F10C08D5F808B0DAF8040020
:1045C000624B98475B4B9847CDE9060100220023D8
:1045D000594EB04720B1E0684042554B984712E031
:1045E000534F2069B84702460B46DDE90601534E9A
:1045F000B047CDE90601E068B84702460B46DDE961
:1046000006014F4EB04708AE4E4B98470246304623
:104610005946EB684C4FB84796E8070088E8070012
:10462000049B03F11808D5F810B0DAF80800474BDE
:104630009847404B9847CDE90601002200233E4EA3
:10464000B04720B1E0684042394B984712E0384FFC
:104650002069B84702460B46DDE90601374EB047F0
:10466000CDE90601E068B84702460B46DDE90601E0
:10467000334EB04708AE334B984702463046594652
:104680006B69314FB84796E8070088E80700049B3C
:1046900003F12408D5F818B0DAF80C002B4B984732
:1046A000244B9847CDE9060100220023224EB04753
:1046B00020B1E06840421E4B984712E01C4F206931
:1046C000B84702460B46DDE906011C4EB047CDE96E
:1046D0000601E068B84702460B46DDE90601184EC0
:1046E000B04708AE174B9847024630465946EB692B
:1046F000154FB84796E8070088E80700049B03F1C8
:104700003008D5F820B0DAF81000104B9847094B64
:104710009847CDE9060100220023074EB047B8B103
:10472000E0684042024B984725E000BF8574400096
:104730004D9F40000D754000FDA4400019A04000B1
:10474000B19C40009DA5400019574000719F40005A
:104750002D4F2069B84702460B46DDE906012B4E76
:10476000B047CDE90601E068B84702460B46DDE9EF
:104770000601274EB04708AE264B98470246304602
:1047800059466B6A244FB84796E8070088E8070047
:10479000049B03F13C08D5F828B0DAF814001F4B4D
:1047A00098471F4B9847CDE90401002200231D4E76
:1047B000B04720B1E0684042134B984712E0124FD7
:1047C0002069B84702460B46DDE904010F4EB047A9
:1047D000CDE90401E068B84702460B46DDE9040173
:1047E0000B4CA04708AC0B4B984702462046594655
:1047F000EB6A094DA84794E8070088E807000FB066
:10480000BDEC028BBDE8F08F4D9F400019A0400029
:10481000B19C40009DA5400019574000719F400089
:104820000D754000FDA440002DE9F04F2DED048BE7
:1048300091B081468A46934698465869844B98477A
:1048400006460F46834D7EA3D3E90023A847824C3A
:10485000A04709EE900A3046394600227F4BA84710
:10486000A0470990CDF820905F464FF0000B9FEDD8
:104870007C9AD8ED067AB8EEE78AD8F82400744B13
:104880009847CDE9040107EE90BAF8EEE77A754C47
:1048900067EE887A17EE900AA047DFF8E8910022C9
:1048A000714BC84702460B46DDE904016F4DA8472E
:1048B000694DA847A047CDE9040118EE100AA047AA
:1048C00002460B46DDE90401694EB047CDE904011B
:1048D000D8ED067AF8EEE77A17EE900AA04702467E
:1048E0000B46DDE90401C847A84708EE100A089BFB
:1048F00043F8040B0893A047CDE9040152A3D3E980
:1049000000235C4CA04700283AD0D8ED027AF8EE9C
:10491000E77A0EAC29EE888A98ED057AB8EEC77A68
:104920008DED009AD8F8043001930BF00103029347
:10493000D8F800300393204617EE901A38EE477AE5
:1049400017EE102A17EE903A4B4DA84794E8030053
:104950008AE803000AACD8F80C2052422046DAF864
:10496000001007EE902AF8EEE77A17EE902ADAF8B0
:104970000430424DA84794E8070087E807004EE05E
:10498000D8ED027AF8EEE78A0AAED8ED057AB8EEED
:10499000E78A0998334B9847CDE90601DDE9040120
:1049A00029A3D3E90023364CA04702460B46DDE994
:1049B0000601284CA047284B984707EE900A38EE8E
:1049C000678A8DED009AD8F8043001930BF001034B
:1049D0000293D8F800300393304618EE901A18EE80
:1049E000102A18EE903A244CA04796E803008AE873
:1049F0000300D8F81030D8F80C209A1A3046DAF8AC
:104A0000001007EE902AF8EEE77A17EE902ADAF80F
:104A100004301A4CA04796E8070087E807000BF11E
:104A2000010B0AF1080A0C37BBF1060F7FF421AF26
:104A300011B0BDEC048BBDE8F08F00BFAFF3008078
:104A40003333333333330340ABAAAAAAAAAAEA3FCB
:104A50004D9F400019A040009DA540000000284047
:104A600000000000719F400000001840B59C40000D
:104A70004D774000FDA44000E95440001957400024
:104A8000B19C40006DA240001C4B4FF440321A63B1
:104A9000DA6B42F00102DA63194A002322F8023F7E
:104AA0000133B3F1807FF9D12DE9F04188B0144D85
:104AB00001210024DFF85880124F134E35F8022FE1
:104AC000A3B29A4207D0009203A841462246B847B3
:104AD00003A8B04700210134B4F1807FEED111B1B9
:104AE0000A48094B9847054B4FF44032DA629A6BFB
:104AF00042F001029A6308B0BDE8F08100C00440B2
:104B0000FEFFFF6FE1AE40009D014000980D4100A7
:104B10006C0D410000B589B08DF807200023039388
:104B200007938DF80C10012304930DF107020592F1
:104B300006938DF81C00054803A9054B984710B152
:104B40000448054B984709B05DF804FB008001401C
:104B5000392C4000B40D41009D01400000B587B0E4
:104B600000230593009304938DF800100123019313
:104B700005AA029203938DF8100004486946044B7D
:104B80009847059807B05DF804FB00BF008001401E
:104B9000DD2A40002DE9F04186B0C4B22046002154
:104BA0002A4FB8470246DFF8BC8001A84146284D8D
:104BB000A84701A8274EB04720460121B847024622
:104BC00001A84146A84701A8B04720461E21B84782
:104BD000024601A84146A84701A8B0472046FE2149
:104BE000B847024601A84146A84701A8B0474CF281
:104BF0008E50194FB847204600211022174DA84764
:104C0000DFF864804046B8472046FE218022A8474E
:104C10004046B847204600210A46A84720460021C2
:104C20001022A847204601210422A847204600213F
:104C30000A46A8474046B847204600218022A84798
:104C40000748B04706B0BDE8F08100BF5D4B4000AB
:104C5000E1AE40009D01400001004020154B4000A6
:104C6000C80D4100C00D41001B8B010005287BD8F9
:104C7000DFE800F003172B3F536721B9402313608F
:104C80001E2353607047012904D14023136022235F
:104C900053607047022967D1402313602623536075
:104CA000704721B9412313600623536070470129DF
:104CB00004D1412313600A2353607047022953D162
:104CC000412313600E235360704721B940231360C2
:104CD000122353607047012904D140231360162327
:104CE0005360704702293FD1402313601A23536059
:104CF000704721B941231360122353607047012983
:104D000004D14123136016235360704702292BD12D
:104D1000412313601A235360704721B94023136065
:104D2000062353607047012904D1402313600A23EE
:104D300053607047022917D1402313600E2353603C
:104D4000704721B9412313601E2353607047012926
:104D500004D141231360222353607047022903D1F9
:104D60004123136026235360704700BF10B582B003
:104D70006A46104B98479DF800009DF804100022E9
:104D80000D4CA047019901319DF80000C9B20022E5
:104D9000A047019902319DF80000C9B20022A04746
:104DA000019903319DF80000C9B20022A04702B06A
:104DB00010BD00BF6D4C4000154B400000000000CE
:104DC00030B52DED028B83B005460C4608EE102A57
:104DD0006A462D4B984704EB440005EB40002B4BF3
:104DE00003EBC000D0ED007A78EE677A022C03D195
:104DF0009FED277A77EE677A17EE900A254B984752
:104E00000022254B254CA047254C19A3D3E90023AC
:104E1000A04719A3D3E90023224DA84718A3D3E93B
:104E20000023A047204B9847204B984705469DF804
:104E300000009DF8041000221D4CA047019901318B
:104E40009DF80000C9B20022A047019902319DF8E7
:104E50000000C9B2EAB2A047019903319DF80000F1
:104E6000C9B2C5F30722A04703B0BDEC028B30BD29
:104E7000666666666666FE3F9A9999999999E13FDA
:104E800000000000009869406D4C40001800402070
:104E900000003443719F4000008066406DA24000D6
:104EA00019A04000B59C40009DA54000A1754000A0
:104EB000154B400010B5212012218022CA4CA0477A
:104EC000212011210022A04721203A210422A047BD
:104ED000212012210022A047212017211322A047C0
:104EE000212018210122A04721203221B622A047EB
:104EF000212019210222A04721201A217A22A0472D
:104F0000212003210A22A04721200C210022A047B2
:104F100021203E210022A047212070213A22A047D3
:104F2000212071213522A047212072211122A04782
:104F300021207321F022A0472120A2210222A04794
:104F400021207A212022A04721207B211022A04766
:104F500021207C211E22A04721207D213522A0472F
:104F600021207E215A22A04721207F216922A047AB
:104F7000212080217622A047212081218022A04764
:104F8000212082218822A047212083218F22A0472F
:104F9000212084219622A04721208521A322A047F9
:104FA00021208621AF22A04721208721C422A047AB
:104FB00021208821D722A04721208921E822A0474B
:104FC00021201321E722A047212001212822A047E8
:104FD000212002213022A047212000210A46A0479B
:104FE000212010210022A04721200D214022A0478E
:104FF000212014211822A0472120A5210722A04703
:105000002120AB210822A047212024219522A0475E
:10501000212025213322A04721202621E322A04759
:1050200021209F217822A0472120A0216822A0478B
:105030002120A1210322A0472120A621D822A04778
:105040002120A721D822A0472120A821F022A04773
:105050002120A9219022A0472120AA219422A04703
:1050600021201321E722A04721200E216122A04701
:1050700021200F214B22A047212016210222A047E8
:1050800021201E210722A047212001460222A047FD
:10509000212022219122A047212029210722A04757
:1050A000212033210B22A047212035210B22A047AC
:1050B000212037211D22A047212038217122A0471D
:1050C000212039212A22A04721203C217822A047F3
:1050D00021204D214022A04721204E212022A047FF
:1050E000212069210022A04721206B210A22A0470C
:1050F000212074211022A04721208D214F22A0477A
:1051000021208E210022A04721208F210022A047AC
:10511000212090210022A047212091210022A04798
:10512000212092216622A047212096210022A0471B
:1051300021209A218022A0472120B0218422A0474B
:105140002120B1210C22A0472120B2210E22A0470C
:105150002120B3218222A0472120B8210A22A04782
:10516000212043211422A04721204421F022A047DE
:10517000212045213422A047212046215822A04742
:10518000212047212822A047212048213A22A04758
:10519000212059218822A04721205A218822A04776
:1051A00021205B214422A04721205C216722A047C7
:1051B00021205D214922A04721205E210E22A04707
:1051C000212064210422A047212065212022A0471C
:1051D000212066210522A047212094210422A047F6
:1051E00021209521082201E0154B4000A0472120F5
:1051F0006C210A22A04721206D215522A0472120A1
:105200006E211122A04721206F219E22A04721203C
:105210006A214022A047212001212022A0472120ED
:1052200002212022A04721201321E722A04721208C
:105230004F218022A047212050218022A0472120F9
:1052400051210022A047212052212222A0472120C3
:1052500053215E22A047212054218022A0472120F3
:1052600058219E22A047212041210822A047212029
:105270003F210022A047212075210322A0472120A1
:105280007621E122A04721204C210022A0472120A5
:1052900077210022A04721203D210022A047212084
:1052A0004B210922A0472120C9216022A0472120AB
:1052B00041213822A047212056214022A047212009
:1052C00034211122A04721203B210A22A04721207E
:1052D000A4218822A047212096210022A047212036
:1052E00097213022A047212098212022A047212069
:1052F00099213022A04721209A218422A0472120F1
:105300009B212922A04721209C210322A047212064
:105310009D219822A04721209E213F22A0472120A5
:1053200078210422A047212079210122A0472120B1
:10533000C821F022A047212079210F22A047212057
:10534000C8210022A047212079211022A047212036
:10535000C8217E22A047212079210A22A0472120AE
:10536000C8218022A047212079210B22A04721209B
:10537000C8210122A047212079210C22A047212009
:10538000C8210F22A047212079210D22A0472120EA
:10539000C8212022A047212079210922A0472120CD
:1053A000C8218022A047212079210222A047212064
:1053B000C821C022A047212079210322A047212013
:1053C000C8214022A047212079210522A047212081
:1053D000C8213022A047212079212622A047212060
:1053E0002D210022A04721202E210022A04721208C
:1053F0002E210022A04721201B210022A04721208E
:1054000015210A22A04710BD38B5194B01225A6157
:1054100002221A601A46136B13F0010FFBD0144BD3
:1054200000225A66986EA0F5FE6080B2114B984734
:10543000114C09A3D3E90023A04709A3D3E9002312
:105440000E4DA84708A3D3E90023A0470C4B98476B
:1054500038BD00BFAFF300806666666666660A40C8
:105460000000000000FEAF403DCFF33CCFF32440EE
:10547000004006404D9F400019A040006DA2400032
:105480009DA54000F8B50746104AD36B43F00103D1
:10549000D3630F480F4B98473E4607F516370E4D1E
:1054A0000E4C2046A8470028FBD016F8011B2046CA
:1054B0000B4B9847BE42F4D10A48064B9847034A23
:1054C000936B43F001039363F8BD00BF00C0044039
:1054D000E80D41009D0140006D2D4000001E0E4072
:1054E000792D4000F00D41002DE9F04F2DED068B98
:1054F0008BB0054609EE103ADDED1A9A1C9C9DED25
:105500001DAA07EE902A37EEE98A07EE901A77EE89
:10551000C97A17EE900A784B9847CDE90001012C23
:1055200040F092801B9B83F0004BDFF8CC81584603
:10553000C047CDE90401714EB047CDE9060118EE30
:10554000100AC047CDE90201DDE904016C4FB847FC
:10555000CDE904015846C04780468946B84782468F
:105560008B4640464946B047CDE90801DFF8A081A7
:10557000DDE9000152465B46C04706460F46DDE9BD
:105580000201DDE90823C04702460B463046394692
:105590005C4EB0475C4FB84708EE900ADDE9000169
:1055A000DDE90623C04782468B46DDE90201DDE9DD
:1055B0000423C04702460B4650465946534EB04757
:1055C000B84707EE900A39EE279A012C14BF002441
:1055D0000124A4B3B5EE40AAF1EE10FA18D12EE0E2
:1055E000FDEECA7A17EE903A002BB8BF5B42C3F1CA
:1055F000010307EE903AF8EEE77A68EEA78A78EEB4
:10560000297A27EE8A8A38EE888A78EE298A64E039
:10561000FDEECA7A17EE903A002BB8BF5B42C3F199
:10562000010307EE903AF8EEE77A67EEA88A38EEC3
:10563000298A28EE0A8A38EEC88A78EE298A002C50
:1056400050D0F1EE688A4DE02B4E1B98B047804653
:1056500089462A4B9847CDE9020118EE100AB04757
:1056600082468B4640464946254B984702460B46A4
:10567000DFF89C80DDE90001CDE90423C047064640
:105680000F46DDE9020152465B46C04702460B4623
:10569000304639461B4EB0471B4FB84708EE900ABC
:1056A000DDE90001DDE90223C047CDE900015046F4
:1056B0005946DDE90423C04702460B46DDE90001F7
:1056C000124EB047B84707EE900A39EE279A24B930
:1056D000B5EE40AAF1EE10FA82D1012C14BF0024DD
:1056E0000124ACE785ED009AC5ED018A28460BB090
:1056F000BDEC068BBDE8F08F719F400085744000C3
:105700000D754000B59C40009DA54000B19C400037
:1057100019A04000000000002DE9F04F2DED068B90
:1057200085B0054609EE101A0AEE102A08EE903AE6
:1057300069EE097A28EEA88A37EE888A5A4C18EE64
:10574000100AA047594EB047594FB84709EE900A82
:105750006AEE0A7A29EEA98A37EE888A18EE100ACC
:10576000A047B047B84708EE100A68EE08AADFED78
:10577000517A7AEEA77A9FED507A77EEC77A9FED4D
:105780004F7A28EE077AC7EE877A17EE900AA0477D
:105790004B4B9847B847A04782468B46494B9847A2
:1057A0008046894618EE100AA04742464B46464CB2
:1057B000A0470022454B464CA047464B9847B84768
:1057C0008046DFED457AF4EEE7AAF1EE10FA0ADA48
:1057D000354B984702460B4631A1D1E900013F4CB9
:1057E000A047B8478046304C1AEE100AA04706463C
:1057F0000F4619EE900AA04702460B46304639463E
:10580000374EB047CDE9000119EE100AA047CDE9A7
:10581000020118EE900AA04702460B46DDE902019C
:10582000B047234EB047A047DFF89C9000222D4B95
:10583000C847274F1AA3D3E90023B847B0472860C9
:1058400050465946DDE90023DFF8A0C0E047B047E5
:10585000A0470022234BC84711A3D3E90023B84730
:1058600002460B46DFF874A000201F49D047B0471E
:1058700068604046A04700221A4BC84708A3D3E9F6
:105880000023B84702460B4600201649D047B047D0
:10589000A860284605B0BDEC068BBDE8F08F00BFC0
:1058A000182D4454FB210940719F40000D784000A1
:1058B0009DA540000008844500902F46000002434B
:1058C000F97540000D75400019A0400000805A4055
:1058D0006DA24000A176400000947146B19C40004A
:1058E000497740000080664000805640B59C4000EB
:1058F00070B50E4615461C46052857D8DFE800F05F
:1059000003111F2D3B49002001463246284EB04767
:10591000002001212A46B047002002212246B0473C
:1059200070BD012000213246214EB04701200146C2
:105930002A46B047012002212246B04770BD02200E
:10594000002132461A4EB047022001212A46B047B4
:10595000022001462246B04770BD03200021324696
:10596000134EB047032001212A46B04703200221ED
:105970002246B04770BD0420002132460C4EB0478D
:10598000042001212A46B047042002212246B047C4
:1059900070BD052000213246054EB047052001218B
:1059A0002A46B047052002212246B04770BD00BFFD
:1059B000C14D4000000000002DE9F04F2DED028B9D
:1059C00083B081468B460192062000215A22544C16
:1059D000A047062001210022A047062002215A22CA
:1059E000A04750484FF020514FF400724E4B98475B
:1059F0004E4E00274B4D4C4CDFF8508108EE106A9C
:105A0000DFF850A128464FF020514FF40072A04714
:105A100078B9D8F8003063B92FB907EE906A78EEFC
:105A2000677ACBED007A01370123C8F8003018EE11
:105A3000106A28464FF020514FF40072A04710B171
:105A40000023C8F8003028464FF020514FF4806200
:105A5000A04750B93046364B98472FA3D3E90023CF
:105A6000344EB047344B9847064628464FF02051F5
:105A70004FF40062A04750B930462D4B984726A3FB
:105A8000D3E900232D4EB0472B4B98470646012FF4
:105A900005D150464FF00071294B984704E050461D
:105AA0004FF00071274B9847484600213246264B5D
:105AB000984728464FF020514FF40072A047002F1E
:105AC000A0DD00289ED1D8F80030002B9AD1012506
:105AD0001E4B1D60DBED007A07EE106A77EE277A29
